:020000040800F2
:10000000E856002031360008C9330008CB33000819
:10001000F9330008FB330008FD330008000000003E
:100020000000000000000000000000000F0F0008AA
:10003000FF33000800000000BD0E00087910000822
:10004000D1360008D5360008D9360008DD3600085C
:10005000E1360008E5360008E9360008ED3600080C
:10006000F1360008F5360008F9360008FD360008BC
:100070000137000805370008093700080D37000868
:100080001137000815370008193700081D37000818
:100090002137000825370008293700082D370008C8
:1000A0003137000835370008393700083D37000878
:1000B0007D2B000845370008493700084D370008F8
:1000C0005137000855370008593700085D370008D8
:1000D00061370008932F0008693700086D37000862
:1000E0007137000875370008793700087D37000838
:1000F0008137000885370008893700088D370008E8
:100100009137000895370008993700089D37000897
:10011000A1370008A5370008E3290008AD3700081B
:10012000B1370008B5370008B9370008BD370008F7
:100130002DE9FB4F834614000C9D0D9E0F9F5846E2
:10014000002802D100F0D9FEFEE7052D02D300F011
:10015000D4FEFEE70E99200080B200F04DFC8146EF
:10016000B9F1000F74D0A4B2D9F8300010EB8400BC
:10017000001F82465FEADA0A5FEACA0A1AF007003D
:10018000002802D000F0B9FEFEE7A4B200943B00C4
:100190002A000199484600F06BFB029A59465046E6
:1001A00000F0D6FEC9F80000002E01D0C6F800907D
:1001B00000F035FFDFF864050068401CDFF85C15CF
:1001C0000860DFF80806006800280BD1DFF8FC059E
:1001D000C0F80090DFF844050068012811D100F054
:1001E00080FB0EE0DFF8B4050068002809D1DFF8D5
:1001F000DC050068C06A854203D3DFF8D005C0F88B
:100200000090DFF89C050068401CDFF8941508603A
:10021000DFF88C050068C9F84400DFF8880500683D
:100220000121D9F82C2091400843DFF878150860A7
:1002300019F10401D9F82C001422DFF86C3502FB07
:10024000003000F07DFF0120804600F000FF02E05A
:100250005FF0FF308046B8F1010F0CD1DFF83C05AC
:100260000068002807D0DFF864050068C06AA8426B
:1002700001D200F0CBFE4046BDE8FE8F70B5040011
:100280000026002C29D0DFF868070068002802D07B
:1002900000F033FEFEE700F055F8DFF8D005006807
:1002A00020180500DFF824050068001D00F071FF2C
:1002B00000280CD1DFF8EC0400680121DFF80C25E0
:1002C0001268D26A91408843DFF8D8140860280089
:1002D00000F068FB00F03EF80600002E01D100F0AF
:1002E00095FE70BD1FB500200390002002900020F5
:1002F00001900020009000238222DFF8A4190FF261
:100300005550FFF715FF0400012C15D100F0F5FD45
:10031000DFF890095FF0FF310160DFF88004012110
:100320000160DFF8480500210160DFF83C0B002187
:10033000016000F027FE04E0002C02D100F0DDFD9A
:10034000FEE71FBDDFF8A8060068401CDFF8A01616
:1003500008607047F8B50025DFF8940600680028AB
:1003600002D100F0CAFDFEE700F059FEDFF880067A
:100370000068401EDFF878160860DFF87406006831
:10038000002859D1DFF894030068002854D0DFF822
:100390000C09006800282CD0DFF80009C068C0688C
:1003A000040014F1180000F0F4FE0600201D00F017
:1003B000F0FE0700DFF8EC0300680121E26A9140DB
:1003C0000843DFF8E0130860211DE06A1422DFF81B
:1003D000D83302FB003000F0B3FEE06ADFF8EC1324
:1003E0000968C96A8842D2D3DFF8880A012101600E
:1003F000CDE7DFF8A0090068002814D0DFF89409E1
:10040000006800280FD000F06CF8002803D0DFF857
:10041000640A01210160DFF87C090068401EDFF8F2
:1004200074190860EAE7DFF84C0A0068012803D174
:100430000120050000F0EAFD00F009FE2800F2BDF1
:100440002DE9F04104000D00160000275FF00508BB
:10045000FFF778FFB148006885423CD3B8F1010846
:1004600001221420DFF8401300FB081114EB4710A1
:1004700000F0E8FAC0190700B8F1000FEED102222F
:10048000DFF8E809016814EB471000F0DBFAC01947
:1004900007000222DFF8D809016814EB471000F0CA
:1004A000D1FAC01907000422DFF8241314EB471017
:1004B00000F0C8FAC01907000322DFF8381514EB62
:1004C000471000F0BFFAC0190700002E03D0DFF874
:1004D000AC0900683060FFF73DFF01003800BDE85F
:1004E000F0812DE9F0410026DFF8040500680028BE
:1004F0007AD1DFF878030068401CDFF870130860D9
:10050000DFF868030768002F1FD1DFF86009006873
:100510000068002802D000F0F0FCFEE7DFF84C098C
:1005200000688046DFF84409DFF844190968016073
:10053000DFF83C09C0F80080DFF83C090068401C87
:10054000DFF83419086000F0EBFADFF858070068AC
:1005500087423CD3DFF8140900680068002805D101
:10056000DFF840075FF0FF31016030E0DFF8FC08A2
:100570000068C068C068040060680500AF4203D22C
:10058000DFF82007056022E0201D00F002FEA16ACE
:10059000002903D014F1180000F0FBFD8148006829
:1005A0000121E26A914008437E490860211DE06A0A
:1005B00014227D4B02FB003000F0C2FDE06A83494B
:1005C0000968C96A8842C5D301200600C2E77F488E
:1005D0000068C06A1421744A01FB002000680228E8
:1005E00009D30120060006E0DFF8A8070068401CD8
:1005F000DFF8A0170860DFF87C080068002801D049
:10060000012006003000BDE8F08110B5DFF8E003FE
:100610000068002804D0DFF85C080121016048E090
:10062000DFF8500800210160DFF85408DFF83818BF
:1006300009680160DFF84C080068DFF844180968B1
:1006400088420BD261480068416DDFF83428126897
:100650005118DFF830281268891A4165DFF824083C
:10066000DFF81C18096801604E480068B0FA80F095
:10067000D0F11F00040014204B4900FB0410006857
:10068000002802D100F039FCFEE71421464A01FBA4
:1006900004210800416849684160416810F108027E
:1006A000914202D14168496841604068C068474949
:1006B000086010BD70B504000D00002C02D100F0E0
:1006C0001CFCFEE74148006810F11801200000F012
:1006D00043FD3E480068001D00F05BFD002809D185
:1006E000304800680121394A1268D26A9140884333
:1006F0002C49086015F1010F07D134480068011D2D
:10070000DFF8F00200F01CFD07E0DFF8800700686A
:1007100028180600300000F045F970BDB04E0020EA
:10072000F8B50400E068C0680500002D02D100F0B3
:10073000E4FBFEE715F1180000F02BFDAC49096859
:10074000002914D1281D00F024FD07001548006879
:100750000121EA6A9140084312490860291DE86AAC
:100760001422114B02FB003000F0EAFC05E015F109
:100770001801DFF8280500F0E3FC14480068C06A9F
:10078000E96A884206D201200600DFF8FC06012152
:10079000016001E0002006003000F2BDBC4E0020E8
:1007A000CC4E0020B84E0020FC4C002010B50400B8
:1007B000002C02D100F0A1FBFEE7DFF8BC060068C8
:1007C0002060DFF8C8060068606010BDA04E002001
:1007D000144E0020F8B504000D00002C02D100F0EA
:1007E0008CFBFEE7002D02D100F087FBFEE700F056
:1007F00016FC1E480768286810F1010F02D100207E
:1008000006001DE0DFF8700600682168884205D008
:100810006068874202D30120060011E06068381A40
:10082000296888420AD22868C01B616808182860B5
:100830002000FFF7BBFF0020060001E001200600BA
:1008400000F005FC3000F2BDDFF83C06012101603C
:100850007047000010B5040000F06FF8DFF83406B0
:1008600000680228F8D300F0D1FBF5E7B44E002071
:100870002DE9F84305000E0017009846089C00205B
:100880008146B9F1100F0CD219EB050019F80610CA
:1008900080F8341019F80600002802D019F1010977
:1008A000EFE7002085F84300052F01D3042007005F
:1008B000EF62EF6400202865281D00F03EFC15F172
:1008C000180000F03AFC2D61D7F10500A8616D62B7
:1008D000002068650020A865002085F85C00BDE860
:1008E000F18310B500200400052C08D21420DFF895
:1008F000A41500FB041000F011FC641CF4E7DFF801
:10090000980500F00BFCDFF8940500F007FCDFF819
:100910008C0300F003FCDFF8880500F0FFFB35488E
:1009200000F0FCFBDFF84405DFF86C150160DFF830
:100930004005DFF86815016010BD70B5DFF864058B
:10094000006800282DD0FFF7FDFCDFF85405006893
:10095000002801D1012400E00024E4B2FFF7FAFCF2
:10096000002CEBD100F05BFBDFF83405C068C068F9
:100970000500281D00F00DFC0600DFF82C050068BE
:10098000401EDFF824150860DFF818050068401ED7
:10099000DFF81015086000F05AFB280000F0B7F8E7
:1009A000CCE770BD10B50400DFF8000500684460B6
:1009B000DFF8D8040068844209D2DFF8F004006848
:1009C000011DDFF8AC04006800F0C6FB0EE0DFF8A4
:1009D000DC040068011DDFF89404006800F0BCFB33
:1009E000B0480068844201D2AE48046010BD0000E7
:1009F000D44E0020284E0020F8B504000D00002D34
:100A000004D1A4B2A00000F0EFFB00E02800070032
:100A1000002F0BD0602000F0E7FB0600002E01D075
:100A2000376305E0380000F05EFC01E000200600BE
:100A3000002E05D0A4B2A200A521306B00F0FEFC70
:100A40003000F2BD2DE9F84304000D0016005FF000
:100A50000009286800284CD0280041684968416096
:100A6000416810F10802914202D141684968416031
:100A70004068C06880462800416849684160416814
:100A800010F10802914202D1416849684160406812
:100A9000C06807005FEA4910075114EB491007F2DC
:100AA0003401416014EB4910796C816014EB4910FA
:100AB000067314EB4910F96A0161F6B2032E06D1F0
:100AC000B86A002803D014EB49100221017314EB1B
:100AD0004910F96C416114EB4910796D8161386BF3
:100AE00000F00AF814EB4911888319F10109474510
:100AF000C1D14846BDE8F283010000200A78A52A4A
:100B000002D1491C401CF9E7800880B2704710B53B
:100B10000400206B00F0E7FB200000F0E4FB10BDB8
:100B2000D24909680968002904D15E495FF0FF32A3
:100B30000A6007E0CD490968C968C96808004168CA
:100B4000584A1160704738B504002500002C4FD07A
:100B5000E86ADFF858130968C96A884248D2A86968
:100B6000002806D4DFF844030068C06AD0F105000D
:100B7000A8616869E96A1422DFF8183302FB0131C1
:100B8000884230D1281D00F004FB002812D1E86A09
:100B90001421DFF8002301FB00200068002809D1A0
:100BA000DFF8EC0200680121EA6A91408843DFF82F
:100BB000E0120860DFF8F4020068C06AE862DFF85B
:100BC000D00200680121EA6A91400843DFF8C012B0
:100BD0000860291DE86A1422DFF8B83202FB0030F1
:100BE00000F0AEFA04E0DFF8C4020068C06AE86210
:100BF00031BD70B5040025000026002C4AD0DFF876
:100C0000AC020068854202D000F077F9FEE7286D5B
:100C1000002802D100F071F9FEE7286D401E28651A
:100C2000E86AE96C884235D0286D002832D1281D49
:100C300000F0AFFA002812D1E86A1421DFF854223C
:100C400001FB00200068002809D1DFF84402006899
:100C50000121EA6A91408843DFF834120860E86CA9
:100C6000E862E86AD0F10500A861DFF824020068B4
:100C70000121EA6A91400843DFF814120860291D37
:100C8000E86A1422DFF80C3202FB003000F058FA58
:100C900001200600300070BD00000000004E002062
:100CA0009C360008D04E002070B504000D002900CD
:100CB000200000F0DFFB200000F0FEFB06000F2EFE
:100CC00003DA20203055761CF9E700203055301922
:100CD00070BD7FB5040000202070DFF8CC010068F3
:100CE0000390DFF8C4010068400100F07DFA0500C0
:100CF000002D4ED0002203992800FFF7A1FB03909E
:100D0000002002900298039988423FD2029815EB86
:100D10004010007B012806D011D3032809D005D349
:100D2000042809D00BE0522006000AE04220060009
:100D300007E05320060004E04420060001E0002004
:100D40000600029815EB401041682000FFF7ACFF49
:100D50000400029815EB401080680190029815EB92
:100D60004010808B0090029815EB40100369F6B29A
:100D70003200DFF83C11200000F0BEFB200000F044
:100D80009BFB04190298401C0290BBE7280000F06E
:100D9000AAFA7FBDC04E002070B584B004000020C8
:100DA0002070DFF8040100680290DFF8FC000068A2
:100DB000400100F019FA0500002D44D001AA029963
:100DC0002800FFF73DFB029001986421B0FBF1F091
:100DD00001900198002833D00020009000980299DB
:100DE00088422DD2009815EB401080690199B0FB24
:100DF000F1F00600009815EB401041682000FFF765
:100E000053FF0400002E0AD03300009815EB401069
:100E10008269DFF8A010200000F06EFB08E0009867
:100E200015EB40108269DFF89010200000F064FBA1
:100E3000200000F041FB04190098401C0090CDE711
:100E4000280000F050FA7FBDDFF86000006800283D
:100E500005D0DFF858000068016D491C0165DFF816
:100E60004C00006870470000644E0020A44E002033
:100E7000A84E0020C44E0020C84E0020644E002022
:100E8000DC4E0020D84E0020C44E0020B44E00207E
:100E9000B84E0020FC4C0020D84D0020EC4D002026
:100EA000144E0020AC4E0020B04E0020A04E00207A
:100EB00020360008703600087C360008EFF3098001
:100EC000BFF36F8F204B1A6820E9F00F106008B550
:100ED0004FF0100080F31188FFF797FB4FF00000F0
:100EE00080F31188BDE8084019680868B0E8F00F81
:100EF00080F30988BFF36F8F7047EFF311804FF0D5
:100F0000100181F31188704780F3118870470E4BF0
:100F100019680868B0E8F00F80F30988BFF36F8F95
:100F20004FF0000080F311884EF00D0E7047074817
:100F30000068006880F3088862B661B6BFF34F8F1F
:100F4000BFF36F8F00DF0000A04E002008ED00E02F
:100F5000001F5FF080730360001F0160001F0FF22D
:100F60000D030360143802602038704780B5604874
:100F7000006810F1010F02D0FFF7BFFFFEE7FFF797
:100F8000BCFFFEE700B583B05A4801780191FF210C
:100F9000017001788DF800109DF8001011F010011B
:100FA000554A1170554907220A609DF8001009063C
:100FB0000AD552490968491E504A11609DF800102F
:100FC00049008DF80010F0E74C49096809024B4AC6
:100FD00011604A49096811F4E061484A11600199B9
:100FE00001704748006850F4700045490860444863
:100FF000006850F070404249086000F04DF83C48ED
:1010000000210160FFF793FF00200EBD3D485FF017
:1010100080510160BFF34F8FBFF36F8F704780B572
:10102000FFF76BFF32480068401C31490860BFF38E
:101030004F8FBFF36F8F2E480068012806D13148CB
:101040000068000602D0FFF758FFFEE701BD80B53B
:1010500027480068002802D1FFF74FFFFEE7244829
:101060000068401E2249086021480068002802D11B
:101070000020FFF749FF01BD10B5FFF73EFF040058
:10108000FFF72FFA002803D01E485FF0805101605F
:101090000020FFF739FF10BD1B4800684FF47A713C
:1010A000B0FBF1F0401E19490860194807210160A2
:1010B0007047000038B5EFF305800400102C0BD307
:1010C00014480068205C05000B480078EDB28542AA
:1010D00002D2FFF712FFFEE7084800680E490968D0
:1010E00011F4E061884202D2FFF707FFFEE731BD4D
:1010F0005000002000E400E0E04E00209C4E002064
:1011000020ED00E004ED00E05800002014E000E0D5
:1011100010E000E0A83600080CED00E010F1080136
:1011200041605FF0FF31816010F10801C16010F192
:1011300008010161002101607047002101617047D1
:1011400042684A6093688B60936859609160086157
:1011500003685B1C0360704710B40B6813F1010F48
:1011600002D10469220008E010F10804220054684A
:101170002468A34201D35268F9E754684C604C6874
:10118000A1608A60516008610468641C046010BC3E
:101190007047010008694A688B6893608A684B68E9
:1011A000536042688A4201D18A68426000220A6123
:1011B0000268521E02600068704710B450F8041BA9
:1011C00081B102681218001D50F8043BDC0744BFCF
:1011D000A9F10104E31852F8044B43F8044B091F2A
:1011E000F9D1EBE710BC70472DE9F04104005FF046
:1011F0000008FFF7A7F88A480068002801D100F02E
:10120000A5F888480068044261D1002C12D08648B5
:101210000068041914F0070000280BD014F108002E
:1012200014F00701441A14F00700002802D0FFF759
:1012300064FEFEE7002C4AD07C480068A04246D3FA
:101240007B4806007A48006805006868A04205D21D
:101250002868002802D02E002D68F6E77048006844
:10126000854234D07048006831684018804628684C
:1012700030606D48006840006968091B88420FD2E1
:101280006019070017F00700002802D0FFF735FEAD
:10129000FEE76868001B78606C60380000F08EF82C
:1012A000624800686968401A604908605F480068E1
:1012B00060490968884203D25E485C490968016058
:1012C0006868584909680843686000202860FFF78B
:1012D00041F818F00701002902D0FFF70EFEFEE7E3
:1012E0004046BDE8F08170B504002600002C2CD0EB
:1012F0004D480068404286193500686849490968C8
:10130000084202D1FFF7F9FDFEE72868002802D065
:10131000FFF7F3FDFEE7686842490968084214D008
:101320002868002811D168683E49096888436860C8
:10133000FFF708F83D480068696808183B490860ED
:10134000280000F03BF8FFF705F870BD30B44FF40B
:101350008843394C220012F00704002C05D0D21D1E
:10136000D208D2009B1A344CE3181100304C216093
:101370002F4C002565605C1822002B4C2468121B42
:10138000D208D200264C2260254C246800256560D6
:10139000234C2468002525600800141A4460204C62
:1013A000246804604468234D2C6044681F4D2C6001
:1013B0001C4C5FF00045256030BC704710B41C4BDE
:1013C0001A001368834201D21268FAE711005368C9
:1013D0005B18834204D153684468E31853601000DB
:1013E000010043685B181468A34211D113680C4CC8
:1013F0002468A34208D0436814686468E318436013
:1014000013681B68036005E0054B1B68036001E07F
:1014100013680360824200D0106010BC7047000067
:10142000784E0020844E0020A43600087C4E002018
:101430005C4E0020804E00205C00002070B504004F
:101440000D0016002A003100200000F06FF8200087
:1014500070BD50F8041B61B150F8042BD30744BF92
:10146000A9F101039A18002342F8043B091FFAD19D
:10147000EFE770475FEA000C830706D011F8013BE5
:1014800000F8013BB3B18307F8D10A68B2F1013328
:1014900023EA020313F0803F02BF40F8042B51F807
:1014A000042FF3E711F8013B00F8013B13B111F8E9
:1014B000013BF9E76046704700F10103810704D062
:1014C00010F8011B89B18107FAD10268B2F101312C
:1014D000914311F0803F04BF50F8042FF6E710F855
:1014E000011B11B110F8011BFBE7C01A704702681D
:1014F000531C0360117070470CB41CB5044604A85B
:101500000190009401AB0A4600A9074878441830BE
:1015100000F03FF8009900220A7000285CBF009894
:10152000001B16BC5DF80CFBC7FFFFFF62F30F2228
:1015300062F31F42401810F0030308D0C91A1FD3EA
:10154000DB0748BF00F8012D28BF20F8022D13004B
:1015500030B414461546103928BF20E93C00FAD8AB
:10156000490728BF20E90C0048BF40F8042D890036
:1015700028BF20F8022D48BF00F8012D30BC70476D
:10158000C91818BF00F8012DCB0728BF00F8012D9E
:1015900070472DE9F04784B08146884614461E46C0
:1015A0000DF1000A04E014F8011B4046C8478046CC
:1015B000207810B904B0BDE8F0872528F3D1641C69
:1015C00014F8015B252D6FD0582D51D0632D0ED00E
:1015D000642D18BF692D10D06F2D49D0702D4CD0BF
:1015E000732D50D0752D18BF782D41D0E0E73068AD
:1015F000011D31600168C9B2D7E73068011D316053
:101600000768002F03D52D214046C84780466F2D1F
:1016100008BF082105D045F02000782814BF0A2112
:1016200010210B203A46642D02D1002F48BF5242B0
:10163000431E1846B2FBF1FC01FB1C223032D2B231
:101640003A2A24BFA5F1510E724403F80A206246DB
:101650000AB10128ECDAC0F10B0500A94718404691
:10166000002DA4D017F8011BC8476D1EFAD19EE7C4
:101670003068011D31600768C9E73068011D3160BD
:1016800007687825C3E73068011D31600568284682
:10169000FFF712FF07464046002F88D015F8011BC0
:1016A000C8477F1EFAD182E725217EE770B5040086
:1016B0000D002600002E02D1FFF71FFCFEE7FFF70A
:1016C000AEFCF06B316C326801FB002070600020D2
:1016D000B0633068B060F06B401E316C326801FB63
:1016E0000020F0605FF0FF3070645FF0FF30B064A6
:1016F000002D0BD13069002810D016F11000FFF733
:101700000FF801280AD1FFF781FC07E016F110005D
:10171000FFF704FD16F12400FFF700FDFFF797FC2B
:10172000012070BD2DE9F84304000D0016005FF0A4
:101730000009002C02D1FFF7E0FBFEE7002D02D1EB
:101740000020804603E005FB04F0401C804618F1B1
:101750005400FFF749FD0700002F0FD0002D01D1E5
:101760003F6002E007F254003860FC633D640121F1
:101770003800FFF79BFF87F85060B946B9F1000FBA
:1017800002D1FFF7BAFBFEE74846BDE8F2832DE938
:10179000F04704000D0016001F00A246BAF1000F2A
:1017A00002D1FFF7AAFBFEE7002D03D1DAF84000D3
:1017B000002801D1012000E00020C0B2002802D1A1
:1017C000FFF79BFBFEE7022F03D1DAF83C0001286C
:1017D00001D1012000E00020C0B2002802D1FFF7B3
:1017E0008CFBFEE7FFF766FCFFF787FB8146DAF824
:1017F0003800DAF83C10884201D3022F20D13A0099
:101800002900504600F0D7F8DAF8481011F1010F1E
:101810000ED1DAF8240000280FD01AF12400FEF7C8
:101820007FFF002809D0002E07D00120306004E09F
:10183000DAF84800401CCAF848000120804601E060
:10184000002080464846FFF75FFB4046BDE8F08732
:101850002DE9F74304000D001E000027A146B9F151
:10186000000F02D1FFF749FBFEE7002D03D1D9F8A5
:101870004000002801D1012000E00020C0B2002873
:1018800002D1FFF73AFBFEE7FFF7C9FBD9F83800B2
:10189000002834D0D9F80C0080462900484600F0D2
:1018A000CEF8002E19D1D9F83800401EC9F83800FA
:1018B000D9F80000002803D1FFF7C6FAC9F80400E0
:1018C000D9F81000002816D019F11000FEF728FFF3
:1018D000012810D1FFF79AFB0DE0C9F80C80D9F868
:1018E0002400002807D019F12400FEF719FF002872
:1018F00001D0FFF78BFBFFF7AAFB012059E002980C
:10190000002803D1FFF7A3FB002052E0002F04D1F1
:1019100000A8FEF74BFF01200700FFF798FBFEF73A
:1019200011FDFFF77CFBD9F8440010F1010F02D143
:101930000020C9F84400D9F8480010F1010F02D185
:101940000020C9F84800FFF782FB02A900A8FEF7B3
:1019500041FF002826D1484600F0BCF800281BD0E3
:10196000D9F80000002807D1FFF759FBD9F8040087
:10197000FFF7E9F8FFF76BFB029919F12400FEF776
:1019800099FE484600F071F8FEF7E4FC00287FF469
:101990007BAFFFF73BFB77E7484600F066F8FEF7C2
:1019A000D9FC71E7484600F060F8FEF7D3FC01006F
:1019B0000020BDE8FE83F8B504000D0016000027E6
:1019C000206C002809D12068002833D16068FFF717
:1019D00010F90700002060602CE0002E0FD1226C6F
:1019E0002900A06800F086F8216CA2688918A1601F
:1019F000A168626891421DD32068A0601AE0226C41
:101A00002900E06800F076F8216C4942E268891804
:101A1000E160E1682268914204D2206C4042616832
:101A20004018E060022E05D1A06B002802D0A06B08
:101A3000401EA063A06B401CA0633800F2BD38B507
:101A400004000D00206C00280ED0206CE1684018C6
:101A5000E060E0686168884201D32068E060226C41
:101A6000E168280000F046F831BD10B50400FFF72A
:101A7000D6FAA06C01280EDB606A00280BD014F1A6
:101A80002400FEF74DFE002801D0FEF7DDFEA06C1D
:101A9000401EA064EDE75FF0FF30A064FFF7D7FAC7
:101AA000FFF7BDFA606C01280EDB206900280BD01F
:101AB00014F11000FEF734FE002801D0FEF7C4FE3A
:101AC000606C401E6064EDE75FF0FF306064FFF71C
:101AD000BEFA10BD38B50400FFF7A1FAA06B0028CC
:101AE00002D10120050001E000200500FFF7AFFA58
:101AF000280032BD70B504000D0016003200290028
:101B0000200000F003F8200070BD000062B38B07D6
:101B100008D0521E11F8013B00F8013B00F0248070
:101B20008B07F6D1830740F0208000BF103A07D31F
:101B300030B4B1E83810103AA0E83810F9D230BC0F
:101B4000530724BFB1E80810A0E8081044BF51F8BB
:101B5000043B40F8043BD20724BF31F8022B20F8A5
:101B6000022B44BF0B7803707047083A07D3B1E8E3
:101B70000810083A40F8043B40F804CBF7D253076A
:101B8000E4E70000DFF8CC03006880040BD4DFF842
:101B9000C8030068C00706D4DFF8C0030068C005AA
:101BA00001D5012000E000207047DFF8A80300689D
:101BB00080040BD5DFF8A0030068C00706D5DFF866
:101BC0009C030068C00501D5012000E0002070479B
:101BD000DFF88003006880040BD5DFF87C03006821
:101BE000C00706D4DFF874030068C00501D40120E3
:101BF00000E000207047DFF85C03006880040BD42D
:101C0000DFF854030068C00706D5DFF8500300680A
:101C1000C00501D5012000E000207047DFF8340343
:101C2000006880040BD5DFF830030068C00706D5D4
:101C3000DFF828030068C00501D4012000E000207F
:101C40007047DFF818030068000401D4012000E0A9
:101C500000207047DFF808030068000701D4012066
:101C600000E000207047DFF8F4020068400401D46F
:101C7000012000E000207047DFF8E00200688004E7
:101C800001D4012000E000207047DFF8D002006896
:101C9000000601D4012000E00020704780B500F06C
:101CA0007AF800F02EF801BDDFF8B812C97ADFF833
:101CB000B4228854AB49C97A491CAA4AD172C9B224
:101CC0000A2902D3A7490022CA727047A548807A20
:101CD000A44AD27A904201D1002011E0A148807A32
:101CE000A04A805C01009F48807A401C9D4A907207
:101CF000C0B20A2802D39B48002282720800C0B2F8
:101D0000704780B501214FF49A7000F0C7F90320A5
:101D10008DF8020004208DF803004FF40050ADF858
:101D2000000000A9914800F0E5F90120ADF800009D
:101D300000A98F4800F0DEF94FF48070ADF8000084
:101D400000A98C4800F0D6F94FF40040ADF800002F
:101D500000A9884800F0CEF90820ADF8000000A9DD
:101D6000854800F0C7F94FF48040ADF8000000A9A5
:101D7000804800F0BFF94FF40050ADF8000000A912
:101D80007C4800F0B7F98020ADF8000000A9794840
:101D900000F0B0F901BD734900228A727149002236
:101DA000CA72704900220A7300210800C0B20A28D2
:101DB0001FD2C0B26C4911EB001164220A81C0B27B
:101DC000694911EB001102220A71C0B2664911EB98
:101DD000001100228A72C0B2634911EB0011002287
:101DE000CA72C0B2604911EB001100220A73401C94
:101DF000DCE75D4964220A875B49052281F83B20C4
:101E000059496422A1F848205749052281F84B20FE
:101E100055496422A1F858205349052281F85B20D6
:101E200051496422A1F868204F49052281F86B20AE
:101E30004D49524A0A604C49514A0A614A49514A3D
:101E40000A624949504A0A634749504A0A64464966
:101E50004F4A0A6544494F4A0A6643494E4A0A674F
:101E600041494E4AC1F880203F494D4AC1F890206F
:101E7000704738B50400E4B23B4810EB041005008D
:101E800028688047002845D02879052802D20520F7
:101E900028715DE028790A2803D22879401C28712E
:101EA00056E0A87A002809D10120A872E4B20320E4
:101EB00000FB04F0401CC0B2FFF7F6FE28890128A1
:101EC00046D3E888298988420FD2E888401CE880F8
:101ED000298980B288423BD1E4B2032000FB04F0A0
:101EE000C01CC0B2FFF7E0FE32E0E87A01282FD331
:101EF000287B401C2873E97AC0B2884228D300208E
:101F00002873E4B2032000FB04F0401CC0B2FFF7CA
:101F1000CBFE1DE02879062802D30520287113E0A6
:101F20002879002803D02879401E28710CE0A87A6F
:101F3000012809D10020A872E4B2032000FB04F0BC
:101F4000801CC0B2FFF7B0FE0020E880002028739C
:101F500031BD000008100140080801400820014080
:101F6000081401403C4E00205C4C00200010014051
:101F7000000801400020014000140140851B0008BA
:101F8000AB1B0008D11B0008431C0008551C0008AF
:101F9000671C0008791C00088B1C0008F71B000850
:101FA0001D1C000810B500200400E4B20A2C05D264
:101FB0002000C0B2FFF75DFF641CF6E710BD000013
:101FC00030B40021002200230024434D2D6815F079
:101FD0000C0529000D00002D04D0042D05D0082D7E
:101FE00006D026E03D4D056025E03C4D056022E031
:101FF000394D2D6815F470152A00374D2D6815F4EC
:1020000080352B00920C921C002B04D1344D05FB23
:1020100002F505600CE0304D2D68AD0304D5304D60
:1020200005FB02F5056003E02C4D05FB02F505609C
:1020300001E02A4D0560284D2D6815F0F0052900B6
:102040000909284D4D5D2C000568E5404560224D8D
:102050002D6815F4E0652900090A224D4D5D2C001C
:102060004568E54085601C4D2D6815F460552900D4
:10207000C90A1C4D4D5D2C004568E540C560164DF4
:102080002D6815F440452900890B174D4D5D2C0036
:10209000C568B5FBF4F5056130BC7047C9B20029CD
:1020A00005D0124A12680243104B1A6004E00F4A2E
:1020B000126882430D4B1A607047C9B2002905D0DF
:1020C0000B4A126802430A4B1A6004E0084A12687D
:1020D0008243074B1A6070470410024000127A00D6
:1020E00000093D004000002054000020181002406C
:1020F0001C100240F0B50027002200230024002518
:10210000002691F803C01CF00F0C674691F803C03D
:102110005FEACC6C03D591F802C05CEA070791F83E
:1021200000C05FEA0C6C3AD0D0F800C065465FF0A2
:10213000000C6346082B31D25FF0010C1CFA03FC43
:102140006446B1F800C014EA0C0C6246A24223D1E6
:102150005FEA830C64465FF00F0C1CFA04FC6646D1
:10216000B54317FA04FC5CEA050591F803C0BCF11D
:10217000280F06D15FF0010C1CFA03FCC0F814C054
:102180000AE091F803C0BCF1480F05D15FF0010CE3
:102190001CFA03FCC0F810C05B1CCBE70560B1F86B
:1021A00000C04FF4807EF4453FD3D0F804C06546AC
:1021B0005FF0000C6346082B36D25FF0010C13F180
:1021C000080E1CFA0EFC6446B1F800C014EA0C0CB0
:1021D0006246A24226D15FEA830C64465FF00F0C90
:1021E0001CFA04FC6646B54317FA04FC5CEA0505D4
:1021F00091F803C0BCF1280F07D15FF0010C13F177
:10220000080E1CFA0EFCC0F814C091F803C0BCF113
:10221000480F07D15FF0010C13F1080E1CFA0EFCF9
:10222000C0F810C05B1CC6E74560F0BD010000208F
:10223000DFF8B422914203D14FF4006210005DE058
:10224000DFF8A822914203D14FF40052100055E06C
:10225000DFF89C22914203D15FF4002210004DE090
:10226000DFF89022914203D15FF48012100045E024
:10227000DFF88422914203D15FF4001210003DE0A8
:10228000B1F1804F02D10122100037E0DFF86C225B
:10229000914202D10222100030E0DFF86422914224
:1022A00002D10422100029E0DFF85822914202D125
:1022B0000822100022E0DFF85022914202D11022C1
:1022C00010001BE0DFF84422914202D120221000CE
:1022D00014E0DFF83C22914202D1402210000DE0D0
:1022E000DFF83022914202D18022100006E0DFF8B0
:1022F0002822914202D14FF48072100070472DE9DC
:10230000F04F85B004000D0016001F00764884428F
:1023100002D07648844206D12000FFF787FF0121D2
:10232000FFF7BCFE05E02000FFF780FF0121FFF76B
:10233000C4FE002D41D10021200000F03BF95FF0E8
:10234000000B6948844202D11920834628E0B4F189
:10235000804F02D11C20834622E06848844202D18B
:102360001D2083461CE06648844202D11E2083461D
:1023700016E06448844202D13220834610E062486D
:10238000844202D1362083460AE06048844202D16A
:102390003720834604E05548844201D12C208346EF
:1023A0008DF804B08DF805608DF8067000208DF86A
:1023B000070001A800F067F992E04B4884420BD077
:1023C0004A48844208D04A48844205D04948844259
:1023D00002D04948844203D150480068824602E056
:1023E0004E4800688246642D0BD242F20F7081463F
:1023F00042F21070BAFBF0F0B0FBF5F0401E8046E0
:1024000013E040F6B830854209D26320814664204B
:10241000BAFBF0F0B0FBF5F0401E804605E000206E
:102420008146BAFBF5F0401E8046ADF80C80ADF851
:1024300008900020ADF80E000020ADF80A00002042
:102440008DF8100002A9200000F06AF80121200098
:1024500000F0C9F801220121200000F0B9F80121A3
:10246000200000F0A7F85FF0000B1F48844202D163
:102470001920834628E0B4F1804F02D11C20834606
:1024800022E01E48844202D11D2083461CE01C48E5
:10249000844202D11E20834616E01A48844202D1AB
:1024A0003220834610E01848844202D13620834609
:1024B0000AE01648844202D13720834604E00B48E4
:1024C000844201D12C2083468DF800B08DF8016044
:1024D0008DF8027001208DF8030000A800F0D3F8F9
:1024E00005B0BDE8F08F0000002C01400034014031
:1024F000004C0140005001400054014000040040E5
:1025000000080040000C0040001000400014004093
:1025100000180040001C004000200040580000202F
:10252000002203881A00DFF82C31984212D0DFF81D
:102530003C3198420ED0B0F1804F0BD0DFF818310B
:10254000984207D0DFF81431984203D0DFF81031F9
:10255000984204D14FF68F731A404B881A43DFF824
:102560000431984208D0DFF80031984204D04FF689
:10257000FF431A40CB881A4302808B8883850B88DF
:102580000385DFF8D03098420FD0DFF8E030984272
:102590000BD0DFF8DC30984207D0DFF8D830984213
:1025A00003D0DFF8D430984201D10B7A038601239F
:1025B00083827047C9B2002904D0028852F0010218
:1025C000028004E002884FF6FE731A4002807047D2
:1025D000D2B2002A03D083890B43838102E083892E
:1025E0008B4383817047C9B2002904D0028852F01E
:1025F0008002028004E002884FF67F731A40028056
:102600007047818670470187704781877047A0F8BF
:1026100040107047808C704730B4020000200023C7
:102620000024158A0D402B0095890D402C009BB28B
:10263000002B05D0A4B2002C02D00125280001E017
:1026400000252800C0B230BC704789B2CA4302825C
:1026500070470000002C01400004004000080040CA
:10266000000C004000100040001400400034014005
:102670000040014000440140004801401C49014322
:102680001C4A11607047F0B4002300210F22C47867
:10269000002C20D0174C246814F4E064D4F5E064D6
:1026A000240A2300D3F104042100DA4044788C404A
:1026B00023008478144023431B0104780E4D635596
:1026C000047864110D4D0126077817F01F07BE40EE
:1026D00045F8246009E004786411094D0126077863
:1026E00017F01F07BE4045F82460F0BC704700009B
:1026F0000000FA050CED00E000E400E000E100E07D
:1027000080E100E080B500F055F900F061F900F0DB
:10271000CFF800F00DF9FDF7E5FDFEE730B5FDB0AF
:102720000400FFF7D3FA0500EDB2002D36D0EDB26C
:102730002800012804D004281AD0072823D02DE02F
:10274000834800F063F9834800F060F900A8FEF7C1
:10275000C0FA00A9804800F059F9804800F056F905
:1027600000A8FEF719FB00A97B4800F04FF915E01F
:102770007B4800F04BF90FF2C1024CF250310120BE
:1027800000F08BF90AE0774800F040F90FF2D90227
:102790004CF25031022000F080F9FFE70A20FDF7EB
:1027A0006DFDBEE770B582B00400C826002332007C
:1027B00000A96D480068FFF74BF80500012D0FD107
:1027C00000980178694800F021F90098816868480C
:1027D00000F01CF900984188664800F017F9E5E719
:1027E000022000F084FA032000F081FADEE770B5E1
:1027F00082B004004FF496760023320000A95E48B0
:102800000068FFF725F80500012D05D19DF800109F
:102810005A4800F0FBF8EFE7012000F068FA0420C6
:1028200000F065FAE8E710B50400FFF7BBFB0A20EB
:10283000FDF724FDF9E7000080B500200090504826
:102840000068401C4E490860002300AA4C494A48D1
:102850000068FEF79CFF0098002803D049485FF00D
:102860008051016001BD000000B583B000200190DF
:102870004548009000980078401C00990870009826
:102880008068401C0099886000984088401C00992E
:102890004880002301AA00A933480068FEF777FFAB
:1028A0000198002803D037485FF08051016007BDD0
:1028B00000B585B000200390002002900020019018
:1028C0000120009000234FF4007230493048FDF79A
:1028D0002FFC00200390002002902E48019002203F
:1028E000009000234FF400722B492C48FDF720FC88
:1028F00000200390002002902948019003200090BE
:1029000000234FF4007227492748FDF711FC0020EF
:1029100003900020029000200190042000900023EA
:102920004FF4007221492248FDF702FC05B000BDBA
:1029300080B5002201210A20FEF7F4FE0E4908604E
:10294000002204210A20FEF7EDFE0749086001BDC0
:102950000034000834340008943600086434000859
:10296000303300087C330008944E00209034000877
:10297000BC340008E8340008904E002014350008EC
:10298000984E002004ED00E04C4E00204036000838
:102990001D270008884E00204C360008A527000897
:1029A0008C4E002058360008EF27000864360008D7
:1029B0002728000880B54FF44070FFF75FFE00F055
:1029C000C7F900F03DF9FFF769F900F031F801BDF2
:1029D00080B50023012244F620610A48FFF78FFCEE
:1029E00001BD80B501210748FFF716FE002808D079
:1029F00005480068401C0449086001210148FFF7B0
:102A000024FE01BD00100040644E00200EB400B54D
:102A100082B003A9009100AB02460121034878442B
:102A20000A30FEF7B6FD06BC5DF810FBD10B0000C6
:102A30007FB501210120FFF740FB7B48006840087B
:102A400006007A48B6FBF0F005004FF6FF70040070
:102A50002000ADF80800ADF804500020ADF80A00E1
:102A60000020ADF8060001A95FF08040FFF758FD97
:102A700001215FF08040FFF79DFD1C208DF80000D4
:102A800004208DF8010000208DF8020001208DF84F
:102A9000030000A8FFF7F7FD7FBD2DE9F04104001A
:102AA00088461500B8F1050F01D3B8F105085FF0AD
:102AB0008040FFF7AFFD060018EB06000700E4B208
:102AC000012C13D15A480560390089B25FF080406B
:102AD000FFF797FD02215FF08040FFF7B6FD01226E
:102AE00002215FF08040FFF773FD45E0E4B2022C65
:102AF00013D150480560390089B25FF08040FFF77C
:102B000082FD04215FF08040FFF79FFD0122042138
:102B10005FF08040FFF75CFD2EE0E4B2032C13D1A0
:102B200045480560390089B25FF08040FFF76DFDD0
:102B300008215FF08040FFF788FD012208215FF047
:102B40008040FFF745FD17E0E4B2042C13D13B4869
:102B50000560390089B25FF08040FFF758FD102111
:102B60005FF08040FFF771FD012210215FF080408F
:102B7000FFF72EFD00E0FFE7BDE8F08180B5022100
:102B80005FF08040FFF748FD00280DD002215FF084
:102B90008040FFF75AFD002202215FF08040FFF7DE
:102BA00017FD23480068804704215FF08040FFF74D
:102BB00033FD00280DD004215FF08040FFF745FD74
:102BC000002204215FF08040FFF702FD19480068F1
:102BD000804708215FF08040FFF71EFD00280DD0E0
:102BE00008215FF08040FFF730FD002208215FF0F0
:102BF0008040FFF7EDFC10480068804710215FF02F
:102C00008040FFF709FD00280DD010215FF08040C3
:102C1000FFF71BFD002210215FF08040FFF7D8FC7A
:102C200006480068804701BD5800002040420F0060
:102C3000684E00206C4E0020704E0020744E002024
:102C400080B501218020FFF729FA012000F02FF83C
:102C5000022000F02CF8032000F029F8042000F0F6
:102C600026F803208DF8020010208DF803004FF4A1
:102C70000060ADF8000000A93248FFF73BFA802061
:102C8000ADF8000000A92F48FFF734FA4FF4807028
:102C9000ADF8000000A92B48FFF72CFA4FF40070A4
:102CA000ADF8000000A92748FFF724FA01BD401E37
:102CB000C0B2002804D124494FF400620A6015E034
:102CC000C0B2012803D1204980220A600EE0C0B2C0
:102CD000022804D11C494FF480720A6006E0C0B299
:102CE000032803D118494FF400720A607047C0B23C
:102CF000012806D11549096891F40061134A116051
:102D00001EE0C0B2022806D11049096891F0800186
:102D10000E4A116014E0C0B2032807D10B490968BC
:102D20004FF480725140094A116009E0C0B2042892
:102D300006D1064909684FF400725140034A1160F8
:102D400070470000001C0140101C01400C1C014099
:102D500080B500F01AF800F045F800F003F800F034
:102D60008BF801BD80B501210820FFF797F90320FA
:102D70008DF8020010208DF803000420ADF800004B
:102D800000A99048FFF7B6F901BD8D488E49016052
:102D90008B488E4941608A488D49816088484FF44C
:102DA0008061818186484FF48061C181844800211F
:102DB000018283480021418281480021C1828048EC
:102DC000002101837E48002141837D4800218182CA
:102DD0007B480021C1617A480021016278480021C6
:102DE0004162704700B585B001210520FFF756F913
:102DF00001214FF48040FFF751F94FF40070ADF816
:102E0000000018208DF8030003208DF8020000A9AF
:102E10007048FFF76FF94FF48060ADF800000420B0
:102E20008DF8030000A96B48FFF764F95FF4E13007
:102E300001900020ADF808000020ADF80A00002045
:102E4000ADF80C000020ADF810000C20ADF80E001D
:102E500001A95D4800F0C0F8012240F225515A480E
:102E600000F03AF90121584800F028F9402156486D
:102E700000F075F905B000BD80B525208DF8000083
:102E800001208DF8010000208DF8020001208DF84E
:102E9000030000A8FFF7F7FB01BD38B5040040F2BE
:102EA0002551206800F061F900281DD0206800F04D
:102EB00042F90500E08AA1684554E08A401CE0829E
:102EC000E18980B2884201D30020E082608BE189F1
:102ED000884202D2608B401C6083606A002803D065
:102EE0002800C0B2616A884740F22771206800F06C
:102EF0003CF9002823D0A08A00280CD1002240F2FF
:102F00002771206800F0E8F8012240F2266120686D
:102F100000F0E2F83CE0608A6168415C89B22068B8
:102F200000F005F9608A401C6082A18980B2884265
:102F300001D300206082A08A401EA08228E040F2D7
:102F40002661206800F011F9002821D0A08A00280D
:102F50000BD1002240F22661206800F0BDF8206A03
:102F6000002815D0206A804712E0608A6168415CC1
:102F700089B2206800F0DBF8608A401C6082A18979
:102F800080B2884201D300206082A08A401EA082C5
:102F900031BD80B50A48FFF780FF01BD38B5040098
:102FA0000D002100C9B289B2074800F0C0F84021E5
:102FB000054800F0C4F80028F9D0200032BD000018
:102FC000B04D0020000C0140003801405C4400205E
:102FD0005C480020000801402DE9F04786B004005D
:102FE0000D00002600275FF000085FF000095FF089
:102FF000000AA8890028A246208A06004CF6FF7025
:103000000640E88806432682A08906004EF6F310A3
:103010000640A88829890843698908430643A68190
:10302000A08A06004FF6FF400640A8890643A68204
:1030300000A8FEF7C5FF2048824502D1039807008B
:1030400001E002980700A089000408D5192000FBC0
:1030500007F029684900B0FBF1F0804607E019202D
:1030600000FB07F029688900B0FBF1F0804664207E
:10307000B8FBF0F0000106003009642101FB10806C
:103080008146A089000409D55FEAC9003230642175
:10309000B0FBF1F010F00700064308E05FEA09100A
:1030A00032306421B0FBF1F010F00F0006432681AE
:1030B00006B0BDE8F087000000380140C9B2002921
:1030C00004D0828952F40052828104E082894DF654
:1030D000FF731A4082817047F0B40023002400255A
:1030E000002640F66A1789B2B94206000F00FFB207
:1030F0007F09FFB23B0089B211F01F073C00012796
:10310000A7403D00012B01D10C3604E0022B01D178
:10311000103600E01436D2B2002A03D037682F43AD
:10312000376002E03768AF433760F0BC7047CA05CC
:10313000D20D828070478088C005C00D70470200A4
:1031400000204FF4007389B2994213880B4202D0D9
:103150000123180001E000231800C0B2704789B2B3
:103160008A0589B2CA430280704770B40200002306
:1031700000250024002040F66A1689B2B1420E00F4
:10318000F6B27609F6B2340089B211F01F063500A6
:10319000012616FA05F5012C02D19689354006E084
:1031A000022C02D1168A354001E0968A354089B258
:1031B0000E0AB6B23300012616FA03F3168833401E
:1031C000002D04D0002B02D00126300001E00026A3
:1031D0003000C0B270BC704780B54E48006850F0F7
:1031E00001004C4908604C4800684C4908404A4975
:1031F0000860484800684A49084046490860454810
:10320000006830F48020434908604348006830F487
:10321000FE004149086043485FF41F01016000F06F
:1032200005F841485FF00061016001BD80B500F024
:1032300001F801BD82B000200190002000903548C7
:10324000006850F48030334908603248006810F458
:10325000003000900198401C01900098002803D194
:103260000198B0F5A06FF0D12A480068800302D51C
:103270000120009001E0002000900098012847D133
:103280002A48006850F01000284908602748006864
:1032900080088000254908602448006850F002003A
:1032A000224908601C481C49096801601A481A49EB
:1032B000096801601848006850F480601649086089
:1032C0001548006830F47C10134908601248006803
:1032D00050F4E810104908600E48006850F0807003
:1032E0000C4908600B4800688001FBD50A4800685B
:1032F00080088000084908600748006850F0020014
:10330000054908600448006810F00C000828F9D14D
:1033100002B0704700100240041002400000FFF8A5
:10332000FFFFF6FE0810024008ED00E0002002401A
:103330004B32BCFCB0B4CFC2A3ACC6F4B6AFB5A59B
:10334000B4CEB6A8CAB1C6F7D6D0B6CFA3AC353086
:103350006D73BAF3D4DAB6A8CAB1C6F7D6D0B6CF71
:10336000B8F8C8CECEF1765461736B4D7367507266
:103370006FB7A2CBCDCFFBCFA20D0A004B33BCFC65
:10338000B0B4CFC2A3ACC6F4B6AFB5A5B4CEB6A8A0
:10339000CAB1C6F7D6D0B6CFA3AC35306D73BAF389
:1033A000D4DAB6A8CAB1C6F7D6D0B6CFB8F8C8CE68
:1033B000CEF1765461736B4D736750726FB7A2CBC9
:1033C000CDCFFBCFA20D0A007047084800221100A4
:1033D000C9B22A2909D2C9B20A5C054B1A80054A2A
:1033E00012885206FBD5491CF2E7FEE7403500087B
:1033F0000438014000380140FEE7FEE7FEE7704771
:103400003D3D3D3D3D3D3D3D3D3D3D3D3D3D3D3DEC
:103410003D3D3D3D3D3D3D3D3D3D3D3D3D3D3D3DDC
:103420003D3D3D3D3D3D3D3D3D3D3D3D3D3D3D3DCC
:103430003D0D0A00C8CECEF1C3FB20202020202065
:10344000C8CECEF1D7B4CCAC20D3C5CFC8BCB62043
:103450002020CAA3D3E0D5BB20C8CECEF1D0F2BA8B
:10346000C50D0A000D0AC8CECEF1C3FB20202020D6
:10347000202020D4CBD0D0BCC6CAFD2020202020C4
:1034800020202020CAB9D3C3C2CA0D0A0000000000
:10349000BDD3CAD5B5BDCFFBCFA2B6D3C1D0CAFD6F
:1034A000BEDD70744D73672D3E75634D657373613A
:1034B00067654944203D2025640D0A00BDD3CAD567
:1034C000B5BDCFFBCFA2B6D3C1D0CAFDBEDD7074EF
:1034D0004D73672D3E756C446174615B305D203DBA
:1034E0002025640D0A000000BDD3CAD5B5BDCFFBB1
:1034F000CFA2B6D3C1D0CAFDBEDD70744D73672DA7
:103500003E7573446174615B305D203D2025640D20
:103510000A000000BDD3CAD5B5BDCFFBCFA2B6D33C
:10352000C1D0CAFDBEDD756351756575654D7367A4
:1035300056616C7565203D2025640D0A0000000071
:103540000D0A456E74657220486172644661756C3F
:10355000745F48616E646C65722C20537973746576
:103560006D2048616C742E0D0A00000010B50849EA
:1035700079441C31074C7C441A34A14206D0081D02
:103580000A68511888470146A142F8D110BD00BF12
:103590000800000028000000BBDEFFFF884E00008E
:1035A0005C0000200000000013DCFFFF5C00000056
:1035B00010020000000000200000000000F009F8E8
:1035C000002801D0FFF7D2FF0020FFF79BF800F0A2
:1035D00002F80120704700F001B8000007463846A5
:1035E00000F002F8FBE7000080B5C046C046024A82
:1035F00011001820ABBEFBE72600020038B50446D8
:103600000D46284600F006F8A84218BF00242046C0
:1036100032BD00000149FFF7C1BC00BF000000201F
:103620000925630925750925750925750D0A000009
:103630000148804701480047D93100088936000811
:10364000765461736B5573657249460076546173A5
:103650006B4C454400000000765461736B4D7367FA
:1036600050726F00765461736B5374617274000012
:103670000925750909257525250D0A0009257509EE
:10368000093C3125250D0A00C046C046C046C0464B
:10369000FFF794FF25730D0A0000000049444C45D4
:1036A0000000000008000000F0E300E0FFF78CBE1F
:1036B000FFF78BBEFFF7A0BEFFF79FBEFFF79EBED2
:1036C000FDF725BCFFF79BBEFDF7F8BBFDF7D4BCAB
:1036D000FFF7FEBFFFF7FEBFFFF7FEBFFFF7FEBF1E
:1036E000FFF7FEBFFFF7FEBFFFF7FEBFFFF7FEBF0E
:1036F000FFF7FEBFFFF7FEBFFFF7FEBFFFF7FEBFFE
:10370000FFF7FEBFFFF7FEBFFFF7FEBFFFF7FEBFED
:10371000FFF7FEBFFFF7FEBFFFF7FEBFFFF7FEBFDD
:10372000FFF7FEBFFFF7FEBFFFF7FEBFFFF7FEBFCD
:10373000FFF7FEBFFFF7FEBFFFF7FEBFFFF7FEBFBD
:10374000FFF71CBAFFF7FEBFFFF7FEBFFFF7FEBF94
:10375000FFF7FEBFFFF7FEBFFFF7FEBFFFF7FEBF9D
:10376000FFF7FEBFFFF715BCFFF7FEBFFFF7FEBF79
:10377000FFF7FEBFFFF7FEBFFFF7FEBFFFF7FEBF7D
:10378000FFF7FEBFFFF7FEBFFFF7FEBFFFF7FEBF6D
:10379000FFF7FEBFFFF7FEBFFFF7FEBFFFF7FEBF5D
:1037A000FFF7FEBFFFF7FEBFFFF71BB9FFF7FEBF36
:1037B000FFF7FEBFFFF7FEBFFFF7FEBFFFF7FEBF3D
:1037C00002040101604D0020B04D0020604D00203A
:1037D000604D0020604D00203D00002024000020AE
:1037E00000000000000000000000000000000000D9
:1037F00000000000000000000000000000000000C9
:103800000000000001020304010203040607080986
:0C381000AAAAAAAA0204060800A24A0400
:040000050800368930
:00000001FF
