:020000040800F2
:1000000058520020E90100084D070008E1040008EB
:1000100049070008A5030008B50E0008000000000D
:100020000000000000000000000000004501000882
:10003000CB0300080000000089010008FD0900084A
:10004000030200080302000803020008030200087C
:10005000030200080302000803020008030200086C
:10006000030200080302000803020008030200085C
:10007000030200080302000803020008030200084C
:10008000030200080302000803020008030200083C
:10009000030200080302000803020008030200082C
:1000A000030200080302000803020008030200081C
:1000B000030200080302000803020008030200080C
:1000C00003020008030200080302000803020008FC
:1000D00003020008B50B0008030200080302000831
:1000E00003020008030200080302000803020008DC
:1000F00003020008030200080302000803020008CC
:1001000003020008030200080302000803020008BB
:1001100003020008030200087D0A00080302000829
:10012000030200080302000803020008030200089B
:10013000DFF80CD000F0B4F800480047C117000801
:1001400058520020204B19680868B0E8F00F80F37F
:100150000988BFF36F8F4FF0000080F311884EF0D5
:100160000D0E70470000000006480068006880F32C
:10017000088862B661B6BFF34F8FBFF36F8F00DFA1
:1001800000BF00BF08ED00E0EFF30980BFF36F8F01
:100190000D4B1A6820E9F00F106008B54FF0100001
:1001A00080F3118802F03CFA4FF0000080F31188D0
:1001B000BDE8084019680868B0E8F00F80F30988C6
:1001C000BFF36F8F704700BF3C000020EFF311803A
:1001D0004FF0100181F31188704780F31188704748
:1001E000EFF3058070470000064880470648004747
:1001F000FEE7FEE7FEE7FEE7FEE7FEE7FEE7FEE7D7
:10020000FEE7FEE71D0A00083101000840EA01038D
:100210009B0703D009E008C9121F08C0042AFAD2BC
:1002200003E011F8013B00F8013B521EF9D2704780
:10023000D2B201E000F8012B491EFBD27047002228
:10024000F6E710B513460A4604461946FFF7F0FFD5
:10025000204610BD421C10F8011B0029FBD1801A5A
:100260007047034611F8012B00F8012B002AF9D141
:100270001846704730B50B46014600202022012465
:1002800009E021FA02F59D4205D303FA02F5491B64
:1002900004FA02F52844151EA2F10102F1DC30BD7A
:1002A000064C074D06E0E06840F0010394E80700C3
:1002B00098471034AC42F6D3FFF73EFF9C3100085C
:1002C000BC31000810B500220121084602F040FBB5
:1002D0000449086000220421012002F039FB024990
:1002E000086010BD080000200C0000201FB5002091
:1002F0000123CDE90030029003464FF4007217A1AC
:100300000390194802F000FD0020184A0223CDE9AD
:1003100001200093039003464FF4007214A1174884
:1003200002F0F2FC0020164A0323CDE901200093DD
:10033000039003464FF4007212A1154802F0E4FC4A
:1003400000200423CDE90030029003464FF40072F0
:1003500010A10390124802F0D7FC1FBD76546173C0
:100360006B55736572494600E126000800000020C5
:10037000765461736B4C454400000000492200082C
:1003800004000020765461736B4D736750726F00E8
:10039000ED230008765461736B537461727400002E
:1003A0009925000800BFFEE708B525208DF800005C
:1003B00001208DF8010000208DF8020001208DF849
:1003C0000300684600F0C4F908BD70472DE9F0410C
:1003D000024600250026002000230024002791F873
:1003E00003C00CF00F0591F803C01CF0100F03D0F0
:1003F00091F802C04CEA050591F800C0BCF1000F6D
:1004000031D0146800202BE04FF0010C0CFA00F3FF
:10041000B1F800C00CEA03069E4220D183004FF0E1
:100420000F0C0CFA03F7BC4305FA03FC4CEA040476
:1004300091F803C0BCF1280F06D14FF0010C0CFA63
:1004400000FCC2F814C00AE091F803C0BCF1480FE8
:1004500005D14FF0010C0CFA00FCC2F810C0401C92
:100460000828D1D31460B1F800C0BCF1FF0F34DD0F
:10047000546800202EE000F1080C4FF0010808FA43
:100480000CF3B1F800C00CEA03069E4221D18300B0
:100490004FF00F0C0CFA03F7BC4305FA03FC4CEACF
:1004A000040491F803C0BCF1280F05D100F1080C39
:1004B00008FA0CF8C2F8148091F803C0BCF1480F98
:1004C00007D100F1080C4FF0010808FA0CF8C2F847
:1004D0001080401C0828CED35460BDE8F081000095
:1004E00009A100200BE00A5C124B1A8000BF114AE0
:1004F000121F128812F0400FF9D0421CD0B22A28E5
:10050000F1D300BFFEE700000D0A456E746572204E
:10051000486172644661756C745F48616E646C65B5
:10052000722C2053797374656D2048616C742E0DA4
:100530000A0000000438014000B585B00121052003
:1005400000F05AF90121880300F056F94FF40070C9
:10055000ADF8100018208DF8130003208DF812005C
:1005600004A91848FFF732FF4FF48060ADF810007F
:1005700004208DF8130004A91248FFF727FF4FF459
:10058000E13000900020ADF80400ADF80600ADF8B1
:100590000800ADF80C000C20ADF80A0069460A48C6
:1005A00000F082FB012240F22551074800F056FB83
:1005B0000121054800F00FFB4021034800F002FB39
:1005C00005B000BD000801400038014009488068BE
:1005D00010F4005F0BD10848006810F0010F06D13D
:1005E0000648806810F4807F01D001207047002009
:1005F000FCE7000000100140080801400020014015
:100600000948806810F4005F0BD00848006810F0BB
:10061000010F06D00648806810F4807F01D10120C8
:1006200070470020FCE7000000100140080801406E
:10063000002001400948806810F4005F0BD0084892
:10064000006810F0010F06D00648806810F4807F23
:1006500001D0012070470020FCE70000001001409D
:1006600008080140002001400948806810F4005F3C
:100670000BD00848006810F0010F06D106488068CA
:1006800010F4807F01D1012070470020FCE70000BA
:100690000010014008080140002001400448806823
:1006A00010F4004F01D1012070470020FCE700004A
:1006B000002001400448006810F0080F01D101201B
:1006C00070470020FCE700000814014004488068DF
:1006D00010F4804F01D1012070470020FCE700009A
:1006E000002001400448806810F4005F01D101201F
:1006F00070470020FCE700000020014004488068AB
:1007000010F0800F01D1012070470020FCE70000AD
:10071000002001400948806810F4005F0BD10848B0
:10072000006810F0010F06D00648806810F4807F42
:1007300001D0012070470020FCE7000000100140BC
:10074000080801400020014000BFFEE7704700009C
:1007500070B5002100230F22C4780CB3164C246816
:1007600004F4E064C4F5E064210AC1F10403CA4062
:10077000447804FA03F184781440214309010F4CB2
:100780000678A155047804F01F050124AC400578D3
:100790006D114FF0E02606EB8505C5F8004109E034
:1007A000047804F01F050124AC40054D067876114D
:1007B00045F8264070BD00000CED00E000E400E0CC
:1007C00080E100E002490143024A116070470000E5
:1007D0000000FA050CED00E029B1064AD269024397
:1007E000044BDA6104E0034AD2698243014BDA61C7
:1007F000704700000010024029B1064A9269024386
:10080000044B9A6104E0034A92698243014B9A6166
:10081000704700000010024030B500210022002483
:1008200000232D4D6D6805F00C0121B1042905D080
:10083000082923D105E0294D056022E0274D0560F8
:100840001FE0254D6D6805F47012234D6D6805F4A9
:100850008034022505EB92421CB9214D55430560B9
:100860000BE01D4D6D6815F4003F03D01C4D554342
:10087000056002E0194D5543056002E0174D056023
:1008800000BF00BF144D6D6805F0F0010909154D5A
:100890006B5C0568DD4045600F4D6D6805F4E061F7
:1008A000090A104D6B5C4568DD4085600A4D6D6836
:1008B00005F46051C90A0B4D6B5C4568DD40C560AD
:1008C000054D6D6805F44041890B074D6B5CC568AB
:1008D000B5FBF3F5056130BD0010024000127A004F
:1008E00000093D00140000202400002008B501216B
:1008F0000820FFF781FF03208DF8020010208DF8FB
:1009000003000420ADF8000069460248FFF75EFDD1
:1009100008BD0000000C014010B500F001F810BD4A
:100920000CB50020019000903248006840F48030FF
:100930003049086000BF2F48006800F40030009084
:100940000198401C0190009818B90198B0F5A06F6B
:10095000F1D12848006810F4003F02D00120009037
:1009600001E0002000900098012842D12248006850
:1009700040F01000204908600846006820F003009D
:1009800008600846006840F00200086019484068A6
:10099000184948600846406848600846406840F486
:1009A000806048600846406820F47C104860084633
:1009B000406840F4E81048600846006840F08070E5
:1009C000086000BF0B48006810F0007FFAD00948AB
:1009D000406820F00300074948600846406840F03E
:1009E0000200486000BF0348406800F00C0008287F
:1009F000F9D10CBD001002400020024010B5FFF7F5
:100A0000E5FB02F01DFA18B14FF080500249086072
:100A10000020FFF7E2FB10BD04ED00E010B5134825
:100A2000006840F00100114908600846406810491C
:100A300008400E494860084600680E4908400B49C6
:100A400008600846006820F4802008600846406876
:100A500020F4FE0048604FF41F008860FFF75CFF41
:100A60004FF000600449086010BD00000010024013
:100A70000000FFF8FFFFF6FE08ED00E010B50121D1
:100A8000064800F02AF840B105480068401C0449B7
:100A900008600121014800F011F810BD001000406D
:100AA0001000002021B1028842F08002028004E0A0
:100AB00002884FF67F731A4002807047CA43028251
:100AC000704721B1028842F00102028004E00288EE
:100AD0004FF6FE731A400280704730B50246002080
:100AE00000230024158A05EA0103958905EA01041B
:100AF00013B10CB1012000E0002030BD1AB1838990
:100B00000B43838102E083898B438381704700001C
:100B1000002202881D4B98420ED01D4B98420BD0EC
:100B2000B0F1804F08D01B4B984205D01A4B984229
:100B300002D01A4B984204D14FF68F731A404B885B
:100B40001A43174B984207D0164B984204D04FF6E1
:100B5000FF431A40CB881A4302808B8883850B8819
:100B600003850A4B98420BD0094B984208D00E4B94
:100B7000984205D00D4B984202D00D4B984201D1BE
:100B80000B7A03860123838270470000002C01400A
:100B9000003401400004004000080040000C004008
:100BA000001000400014004000400140004401409B
:100BB0000048014010B5024800F0EBF810BD0000FD
:100BC0006401002001F40072B2F5007F00D100BF83
:100BD000CA430280704721B1828942F40052828167
:100BE00004E082894DF6FF731A4082817047024605
:100BF0000020B1F5007F00D100BF13880B4201D067
:100C0000012000E00020704770B502460024002358
:100C100000250020A1F510666A3E00D100BFC1F397
:100C2000421501F01F03012606FA03F3012D02D13C
:100C30009689334006E0022D02D1168A334001E046
:100C4000968A33400C12012606FA04F416883440C2
:100C500013B10CB1012000E0002070BDF0B50346D7
:100C60000024002600250020A1F510676A3F00D16E
:100C700000BF1846C1F3421401F01F06012707FA0E
:100C800006F5012C01D10C3004E0022C01D110300A
:100C900000E014301AB107682F43076002E00768CC
:100CA000AF430760F0BD00002DE9F04786B0054670
:100CB0000E460024A24600BFA1460027B08900B11D
:100CC00000BF2F462C8A4CF6FF700440F088044386
:100CD0002C82AC894EF6F3100440B0883189084369
:100CE000718908430443AC81AC8A4FF6FF4004404D
:100CF000B0890443AC8201A8FFF78EFD1F488742EC
:100D000002D1DDF810A001E0DDF80CA0A88910F4F4
:100D1000004F08D00AEBCA0000EB0A103168490006
:100D2000B0FBF1F807E00AEBCA0000EB0A103168EB
:100D30008900B0FBF1F86420B8FBF0F00401200951
:100D4000642101FB1089A88910F4004F08D03220DB
:100D500000EBC900B0FBF1F000F00700044308E02D
:100D6000322000EB09106421B0FBF1F000F00F001D
:100D700004432C8106B0BDE8F08700000038014034
:100D800001468888C0F308007047C1F308028280DA
:100D9000704770B5044640F225512068FFF734FFD4
:100DA000E0B12068FFF7ECFFC5B2E18AA0684554C6
:100DB000E08A401C80B2E082E189884201DB0020A9
:100DC000E082608BE189884202DA608B401C60839C
:100DD000606A10B12846616A884700BF40F22771F7
:100DE0002068FFF711FF08B3A08A60B9002240F223
:100DF00027712068FFF732FF012240F22661206848
:100E0000FFF72CFF37E0638A6268D15C2068FFF748
:100E1000BCFF608A401C80B26082A189884201DBED
:100E200000206082A08A401EA08224E040F2266159
:100E30002068FFF7E9FEF0B1A08A50B9002240F225
:100E400026612068FFF70AFF206AA0B1206A804768
:100E500011E0638A6268D15C2068FFF796FF608AC0
:100E6000401C80B26082A189884201DB0020608240
:100E7000A08A401EA08270BD0A480B4908600B483A
:100E800048600B4888604FF480608881C8810020EA
:100E900008824882C882088348838882C8610862C1
:100EA0004862704700380140640100208C01002036
:100EB0008C05002000BFFEE70FB4054B10B503A959
:100EC000044A029800F02CF810BC5DF814FB0000F6
:100ED0009D170008A00000200FB4084B10B504A90E
:100EE00002AA039800F01CF8044602A9002000F0B2
:100EF000F3F8204610BC5DF814FB0000D910000880
:100F000002E008C8121F08C1002AFAD170477047D2
:100F1000002001E001C1121F002AFBD17047000030
:100F20002DE9FF4F8BB09A460F4605460026C9E0D3
:100F3000252837D100246D1C6649A04601222B7854
:100F4000203B02FA03F0084202D004436D1CF6E78E
:100F500028782E2817D115F8010F44F004042A2808
:100F60000ED06FF02F022878A0F1300109290AD89D
:100F700008EB880102EB410100EB01086D1CF2E770
:100F800057F8048B6D1C287869283FD006DC0028B0
:100F900071D063280CD0642804D137E0732811D0B5
:100FA00075284ED052460D99904706F1010688E00B
:100FB00017F8040B8DF8000000208DF80100E946B9
:100FC000012003E057F8049B4FF0FF3061074FF01A
:100FD000000401D40AE0641C44450DDA8442FADBC3
:100FE00019F804100029F6D106E0641C8442FCDBE9
:100FF00019F804100029F8D1264404E019F8010B6F
:1010000052460D999047641EF8D25AE001CF4FF036
:101010000A0B002804DAC0F100004FF02D0102E0B5
:10102000210504D52B218DF82410012103E0E107CF
:1010300005D02021F7E70DF1200908910CE00021EF
:10104000F9E701CF4FF00A0BF9E75946FFF712F91C
:1010500001F1300209F8012D0028F6D1ADEB0900AD
:1010600000F1200B600701D44FF00108D84503DDE3
:10107000A8EB0B0001E029E000208046002406E0F8
:1010800009A85246005D0D999047761C641C08988B
:101090008442F5DB04E0302052460D999047761CDF
:1010A000B8F10001A8F10108F5DC05E019F8010B21
:1010B00052460D999047761CBBF10001ABF1010B34
:1010C000F4DC6D1C287800287FF432AF0FB0304676
:1010D000BDE8F08F092801000A68531C0B601070EE
:1010E0007047000070B50546304800EB05142068D5
:1010F000804700283ED02079052802DA052020719B
:1011000052E020790A2803DA2079401C20714BE054
:10111000A07A38B90120A07205EB4501491CC8B27C
:1011200000F026FA208900283EDDE08821898842E7
:101130000DDAE088401C80B2E0802189884233D1FA
:1011400005EB4501C91CC8B200F012FA2CE0E07AA8
:10115000002829DD207B401CC0B22073E17A884240
:1011600022DB0020207305EB4501491CC8B200F0CA
:10117000FFF919E02079052802DD0520207110E033
:10118000207918B12079401E20710AE0A07A012848
:1011900007D10020A07205EB4501891CC8B200F000
:1011A000E7F90020E080207370BD0000B40000204B
:1011B0000B48807A0A4AD27A904201D100207047C7
:1011C0000748807A064A115C1046807A401CC0B2FB
:1011D00090720A2801DB002090720846EFE70000B9
:1011E0005401002001460020244A914201D1C81434
:1011F00042E0234A914201D148143DE0214A914204
:1012000002D14FF4002037E01F4A914202D14FF43F
:10121000801031E01D4A914202D14FF400102BE0C2
:10122000B1F1804F01D1012026E0194A914201D14C
:10123000022021E0174A914201D104201CE0164A05
:10124000914201D1082017E0144A914201D11020A7
:1012500012E0134A914201D120200DE0114A91423F
:1012600001D1402008E0104A914201D1802003E0E2
:101270000E4A914200D1881570470000002C0140B1
:1012800000340140004C0140005001400054014036
:101290000004004000080040000C00400010004026
:1012A0000014004000180040001C004000200040D6
:1012B00010B54FF44070FFF785FA00F0FFF800F02A
:1012C000C5F800F001F810BD10B500F055F800F0B9
:1012D00001F810BD08B501214FF49A70FFF78CFAA0
:1012E00003208DF8020004208DF80300C002ADF841
:1012F000000069461C48FFF769F80120ADF80000BE
:1013000069461A48FFF762F84FF48070ADF80000A4
:1013100069461748FFF75AF84FF40040ADF800004F
:1013200069461348FFF752F80820ADF800006946F7
:101330001048FFF74BF84FF48040ADF800006946C5
:101340000B48FFF743F84FF40050ADF80000694632
:101350000748FFF73BF88020ADF8000069460448D5
:10136000FFF734F808BD00000010014000080140FC
:1013700000200140001401400021284A9172D172DE
:101380001173002018E06421254A02EB001211813C
:101390000221234A02EB001211710021204A02EBC4
:1013A000001291721E4A02EB0012D1721C4A02EB2B
:1013B00000121173411CC8B20A28E4DB64221849E8
:1013C0000A87052281F83B206422A1F848200522E3
:1013D00081F84B206422A1F85820052281F85B2077
:1013E0006422A1F86820052281F86B200D490C4A7F
:1013F00011600D4911610D4911620D4911630D49CB
:1014000011640D4911650D4911660D4911670D49AA
:10141000C2F880100C49C2F89010704754010020A7
:10142000B4000020CD050008350600086906000854
:101430009D060008B5060008CD060008E506000870
:10144000FD060008150700080106000808B501217F
:101450008020FFF7D1F9012000F046F8022000F0CB
:1014600043F8032000F040F8042000F03DF803208A
:101470008DF8020010208DF80300C001ADF80000C7
:1014800069460D48FEF7A2FF8020ADF800006946CE
:101490000948FEF79BFF4FF48070ADF800006946E5
:1014A0000548FEF793FF4FF40070ADF80000694661
:1014B0000148FEF78BFF08BD001C014010B5FFF787
:1014C000DBFCFFF739F8FFF711FAFEF76DFF10BDEF
:1014D00010B5002404E02046FFF704FE601CC4B2EF
:1014E0000A2CF8DB10BD0000411EC8B220B94FF431
:1014F00000610B4A116011E0012803D18021084AE4
:1015000011600BE0022803D1C101054A116005E01A
:10151000032803D14FF40071014A116070470000A5
:10152000101C0140012806D11049096881F40061AE
:101530000E4A116019E0022806D10C49096881F0B1
:1015400080010A4A116010E0032806D107490968A2
:1015500081F48071054A116007E0042805D1034930
:10156000096881F40071014A116070470C1C014048
:101570000649C97A054A50541146C97A491CC9B26C
:10158000D1720A2901DB0021D17270475401002079
:101590002DE9FF5F04460D4691469A467448844201
:1015A00002D07448844207D12046FFF71BFE8346D1
:1015B0000121FFF721F906E02046FFF713FE8346DD
:1015C0000121FFF709F9002D41D100212046FFF745
:1015D00078FAAB466648844202D14FF0190B28E0F6
:1015E000B4F1804F02D14FF01C0B22E062488442DC
:1015F00002D14FF01D0B1CE06048844202D14FF035
:101600001E0B16E05E48844202D14FF0320B10E010
:101610005C48844202D14FF0360B0AE05A488442BB
:1016200002D14FF0370B04E05248844201D14FF011
:101630002C0B8DF800B08DF801908DF802A00020E1
:101640008DF803006846FFF783F8BDE8FF9F484820
:1016500084420BD04748844208D04C48844205D08D
:101660004B48844202D04B48844202D14A48066823
:1016700001E049480668642D0AD242F20F7842F22E
:101680001070B6FBF0F0B0FBF5F0401E87B213E02F
:1016900040F6B830854209D24FF063086420B6FBAB
:1016A000F0F0B0FBF5F0401E87B205E04FF0000807
:1016B000B6FBF5F0401E87B2ADF80870ADF80480B7
:1016C0000020ADF80A00ADF806008DF80C0001A965
:1016D0002046FFF71DFA01212046FFF7E3F901221A
:1016E00011462046FFF70AFA01212046FFF7E9F9E3
:1016F0004FF0000B1E48844202D14FF0190B28E036
:10170000B4F1804F02D14FF01C0B22E01A48844202
:1017100002D14FF01D0B1CE01848844202D14FF05B
:101720001E0B16E01648844202D14FF0320B10E037
:101730001448844202D14FF0360B0AE0124884422A
:1017400002D14FF0370B04E00A48844201D14FF038
:101750002C0B8DF800B08DF801908DF802A00120BF
:101760008DF803006846FEF7F3FF00BF6DE7000049
:10177000002C0140003401400004004000080040FB
:10178000000C00400010004000140040004C0140DC
:1017900000500140005401402800002070B504466C
:1017A0000D46E1B20548FFF7F0FA00BF40210348BB
:1017B000FFF71DFA0028F9D0204670BD003801401F
:1017C000FFF776FD00F09CFCFEF790FDFEF77AFD3A
:1017D00000F0EAFE00BFFEE710B504460E480068C0
:1017E00044600E480068844207D20B480168091D16
:1017F0000B48006800F0CEFB0CE007480168091DAB
:101800000848006800F0C6FB07480068844201D21F
:101810000548046010BD00003C0000204800002086
:101820007800002074000020640000202DE9F041C1
:1018300005460F461FB9A80000F08EFA00E03846B2
:10184000064656B1602000F087FA04460CB12663C4
:1018500004E0304600F0FCFB00E0002424B1A900C5
:10186000A522206BFEF7E4FC2046BDE8F0810000D5
:1018700070B523E000F0CCFE1348006808B90120E1
:1018800000E00020054601F015FCBDB900F0A8FB02
:101890000D48C068C468201D00F006FB0B480068B6
:1018A000401E0A4908600A480068401E084908604E
:1018B00000F0B8FB204600F062F800BF0448006862
:1018C0000028D7D170BD00002C0A00204400002061
:1018D0004000002070B504460D46206C70B1216CAC
:1018E000E0680844E0606168E068884201D32068ED
:1018F000E0602846226CE168FEF788FC70BD2DE9A7
:10190000F04104460E4615460027206C40B9206879
:1019100078BB606801F032FB07460020606028E079
:101920007DB93146226CA068FEF770FC216CA0687E
:101930000844A060D4E9011088421AD32068A0604E
:1019400017E03146226CE068FEF760FC216CE0682D
:10195000401AE0602168E068884203D2216C606828
:10196000401AE060022D04D1A06B10B1A06B401EA4
:10197000A063A06B401CA0633846BDE8F08110B5A1
:101980000446206B00F064FB204600F061FB10BDB4
:1019900030B54FF48843174810F0070F05D0C01D2D
:1019A00020F00700134C041B1B1B0246124C226044
:1019B0000024114D6C60D018083820F007000F4C3F
:1019C000206000240D4D2D686C600C4D2D682C603E
:1019D0001146441A4C60094C24680C60084D4C6850
:1019E0002C60084D4C682C604FF00044064D2C6074
:1019F00030BD0000540A002098000020880000201C
:101A0000900000208C0000209400002000BFFFF711
:101A10002FFF034800680128F9D900F065FBF6E7BD
:101A20008C0900202DE9F04704460F4615469946DB
:101A3000DDF82080002607E0B95D04F1340081550F
:101A4000B85D00B902E0761C102EF5D300BF00216E
:101A500043200155052D00D30425E562E5640020EF
:101A60002065201D00F093FA04F1180000F08FFAB1
:101A70002461C5F10500A061646200206065A06575
:101A800084F85C00BDE8F08710B5002407E004EBA3
:101A900084010F4A02EB810000F06CFA641C052CF3
:101AA000F5D30C4800F066FA0B4800F063FA0B48D7
:101AB00000F060FA0A4800F05DFA0A4800F05AFAAD
:101AC00004480949086004480849086010BD00003E
:101AD0008C090020F0090020040A0020180A0020C8
:101AE0002C0A0020400A002074000020780000200A
:101AF00010B50146164800E0006803688B42FBD32E
:101B00000246436813448B4204D143684C68234423
:101B1000436001460A464B6813440468A34211D14E
:101B20000C4C03682468A34208D04B6804686468BE
:101B300023444B6003681B680B6005E0054B1B6882
:101B40000B6001E003680B60884200D0016010BDAB
:101B5000980000208800002070B5054600F040FA8B
:101B6000A86B08B9012400E0002400F05BFA2046CD
:101B700070BD70B5054600F033FAA86BE96B88427A
:101B800001D1012400E0002400F04CFA204670BD91
:101B90002DE9F04706460C469046002520680028AF
:101BA0004BD0204641684968416000F10801426815
:101BB0008A4202D14168496841604168D1F80C907D
:101BC00000BF204641684968416000F10801426851
:101BD0008A4202D14168496841604168CF6806EB9A
:101BE0004510076007F1340006EB45114860786C3A
:101BF00006EB4511886006EB451080F80C80F86A0A
:101C000006EB45110861B8F1030F05D1B86A18B1A8
:101C1000022006EB45110873F86C06EB451148618C
:101C2000786D06EB45118861386B00F023F806EB00
:101C3000451188836D1C4F45C3D12846BDE8F08708
:101C40000A490968096809B9012100E0002121B1A8
:101C50004FF0FF31064A116006E004490968C9687F
:101C6000C868034A41681160704700007400002092
:101C7000640000200246002101E0521C491C10783B
:101C8000A528FAD0890888B2704700000748006884
:101C9000401C01D1012000E0002018B9FEF796FA9F
:101CA00000BFFEE7FEF792FA00BFFEE77C000020CF
:101CB00010B5044600F094F911E0606A08B90120FB
:101CC00000E0002038B904F1240001F0ADF918B1AA
:101CD00000F086FB00E005E0A06C401EA064A06C54
:101CE0000028EADC00BF4FF0FF30A06400F09AF952
:101CF00000F076F911E0206908B9012000E0002029
:101D000050B904F1100001F08FF908B100F068FB40
:101D1000606C401E606400E002E0606C0028EADC59
:101D200000BF4FF0FF30606400F07CF910BD70B56B
:101D300005460E4631462846FEF793FA2846FEF73A
:101D400089FA044602E020202855641C0F2CFADB97
:101D500000202855281970BD2DE9F04104464FF0A8
:101D6000000800F055FC3B48006808B9FFF710FE7A
:101D70003948006804425DD19CB1083414F0070F63
:101D80000FD004F00700C0F10800044414F0070F5E
:101D900001D1012000E0002018B9FEF717FA00BFBA
:101DA000FEE7002C46D02D480068844242D82C4ED5
:101DB0003046056801E02E462D686868A04202D2D0
:101DC00028680028F7D123480068854232D030685F
:101DD00000F10808286830606868001B102812D9D4
:101DE0002F1917F0070F01D1012000E0002018B9CA
:101DF000FEF7ECF900BFFEE76868001B78606C60D6
:101E00003846FFF775FE154968680968081A1349CE
:101E100008600846006813490968884203D20F48E1
:101E20000068104908600C496868096808436860E0
:101E30000020286001F03EF918F0070F01D10120C1
:101E400000E0002018B9FEF7C1F900BFFEE74046E8
:101E5000BDE8F08188000020940000208C00002064
:101E600098000020900000200648006830B1054925
:101E7000096801F15000096D491C016001480068C2
:101E8000704700003C000020001F4FF0807303608B
:101E9000001F0160001F034B0360143802602038EC
:101EA000704700008D1C000801460A69D1E9013025
:101EB0009860D1E9010358605068884201D1886870
:101EC0005060002008611068401E10601068704764
:101ED0002DE9F0410546884616460024052700F006
:101EE00097FB1D480068804530D300BF7F1E07EB7D
:101EF00087021A4B03EB820105EB44100122FFF726
:101F000047FE0444002FF1D105EB4410022214498E
:101F10000968FFF73DFE044405EB44100222114915
:101F20000968FFF735FE044405EB441004220E490E
:101F3000FFF72EFE044405EB441003220B49FFF784
:101F400027FE044416B10A480068306001F0B2F878
:101F50002046BDE8F0810000440000208C090020EC
:101F600074000020780000202C0A0020400A002085
:101F70001000002000F1080141604FF0FF31816046
:101F800000F10801C160016100210160704700217A
:101F90000161704710B502460B685C1C01D11069E5
:101FA00007E002F1080000E04068446824689C42B1
:101FB000FAD944684C604C68A160886041600A614D
:101FC0001468641C146010BD42684A6093688B609A
:101FD000936859609160086103685B1C03607047F7
:101FE00010B5FEF7F3F80D480068401C0B49086077
:101FF000BFF34F8FBFF36F8F0846006801280CD1E5
:102000000748006810F0FF0F01D1012000E0002018
:1020100018B9FEF7DBF800BFFEE710BD7C0000201A
:1020200004ED00E010B50948006818B9FEF7CEF8D5
:1020300000BFFEE705480068401E044908600846E6
:10204000006810B90020FEF7C8F810BD7C00002021
:1020500070B506463546002E31D0083D2C4618494D
:1020600060680968084201D0012000E0002018B92A
:10207000FEF7ACF800BFFEE7206808B9012000E0D9
:10208000002018B9FEF7A2F800BFFEE70C4960680F
:102090000968084213D0206888B90949606809684E
:1020A0008843606000F0B4FA064960680968084433
:1020B000044908602046FFF71BFD00F0FBFF70BDE0
:1020C000940000208C000020064800684FF47A71CC
:1020D000B0FBF1F0401E4FF0E0214861072008619D
:1020E00070470000280000204FF08050034908602E
:1020F000BFF34F8FBFF36F8F7047000004ED00E018
:1021000010B50023012244F620610248FFF740FA8F
:1021100010BD00000010004070B50446002634B326
:102120001548006808B9012000E0002018B9FEF742
:102130004DF800BFFEE700F06BFA10480068051983
:102140000F480068001DFFF7AFFE50B90C4800684B
:1021500090F82C10012088400A49096881430948F9
:1021600001602846FFF738FB00F0A4FF06460EB9D1
:10217000FFF7BAFF70BD0000680000204800002093
:102180003C0000204C000020FEB5054600202870D1
:10219000264800680290254909684801FFF7DCFDE0
:1021A0000446002C40D06A4620460299FFF790FE74
:1021B000029064210098B0FBF1F000900098002894
:1021C0002FD00020019028E0019804EB4010806996
:1021D0000099B0FBF1F6019804EB401041682846E5
:1021E000FFF7A5FD05464EB1019804EB40103346BC
:1021F0000FA182692846FEF76FFE07E0019804EB05
:1022000040100EA182692846FEF766FE2846FEF7BA
:1022100021F805440198401C0190DDE90101884244
:10222000D2D32046FFF714FFFEBD0000440000207B
:102230000925750909257525250D0A000925750942
:10224000093C3125250D0A0008B500BF1FE0002319
:10225000C82269460E48006800F0AFFB0446012C16
:102260000FD1009801780BA0FEF726FE0098816838
:1022700013A0FEF721FE009841881CA0FEF71CFE6B
:1022800005E00220FFF74EF90320FFF74BF9DEE7E8
:102290000C000020BDD3CAD5B5BDCFFBCFA2B6D3AD
:1022A000C1D0CAFDBEDD70744D73672D3E75634DA0
:1022B0006573736167654944203D2025640D0A00FC
:1022C000BDD3CAD5B5BDCFFBCFA2B6D3C1D0CAFD51
:1022D000BEDD70744D73672D3E756C446174615B37
:1022E000305D203D2025640D0A000000BDD3CAD515
:1022F000B5BDCFFBCFA2B6D3C1D0CAFDBEDD7074D1
:102300004D73672D3E7573446174615B305D203D94
:102310002025640D0A0000007FB5054600202870C6
:102320002A4800680390294909684801FFF714FD0D
:102330000446002C49D0002220460399FFF7C8FD2F
:1023400003900020029039E0029804EB4010007BDB
:10235000012806D0022806D0032806D0042808D178
:1023600005E0522607E0422605E0532603E0442616
:1023700001E0002600BF00BF029804EB4010416856
:102380002846FFF7D4FC0546029804EB401080680D
:10239000029904EB4111898BCDE90010029804EBFE
:1023A000401032460AA103692846FEF795FD2846EB
:1023B000FDF750FF05440298401C0290DDE9020140
:1023C0008842C1D32046FFF743FE7FBD4400002072
:1023D0000925630925750925750925750D0A00006C
:1023E00001200149086070475800002008B500BF6F
:1023F00016E000234FF4967269460A48006800F020
:10240000DCFA0446012C05D19DF8001006A0FEF769
:1024100053FD05E00120FFF785F80420FFF782F85F
:10242000E7E7000008000020BDD3CAD5B5BDCFFB4B
:10243000CFA2B6D3C1D0CAFDBEDD75635175657537
:10244000654D736756616C7565203D2025640D0AE6
:102450000000000070B505460C461DB9FDF7B6FE3C
:1024600000BFFEE71348016818312846FFF792FDC8
:1024700010480068001DFFF717FD50B90D480068AF
:1024800090F82C10012088400B49096881430A48C4
:102490000160601C06D107480168091D0748FFF765
:1024A00093FD05E00648006806193046FFF794F9E9
:1024B00070BD00003C0000204C000020400A0020BD
:1024C0004800002070B505462C46002D4BD026490B
:1024D000E06A0968C96A884245D2A06910F0004FD5
:1024E00005D121480068C06AC0F10500A061E16A19
:1024F00001EB81011D4A02EB81016069884201D133
:10250000012000E0002050B3201DFFF7CDFC78B97A
:10251000E06A00EB8000154951F8200040B994F8BA
:102520002C1001208840124909688143104801603D
:102530000D480068C06AE06294F82C1001208840C1
:102540000B49096808430A490860E16A01EB810107
:10255000064A02EB8100211DFFF736FD03E0024829
:102560000068C06AE06270BD3C0000208C09002059
:102570004C00002010B504461CB9FDF727FE00BF33
:10258000FEE703480068206002480068606010BDF4
:102590005C0000204800002004E0FEF799FF0A20BC
:1025A000FFF7BAFDF9E700001FB500200090019089
:1025B0000290034682220FA10390104800F0A4FB72
:1025C0000446012C0FD1FDF701FEA01E0C49086046
:1025D00001200C49086000200B4908600B49086085
:1025E00000F066F904E01CB9FDF7F0FD00BFFEE75E
:1025F0001FBD000049444C45000000000D1A0008B2
:10260000640000205000002048000020100000203E
:1026100002480068401C01490860704768000020BB
:1026200010B52748006818B101202649086045E028
:1026300000202449086024480068244908600846AE
:1026400000682349096888420BD92249096801F1C9
:102650005400496D1D4A12681D4B1B68D21A114463
:1026600001601A4800681A4908601B480068B0FAFF
:1026700080F0C0F11F0404EB8400184951F82000D9
:1026800008B1012000E0002018B9FDF79FFD00BF50
:10269000FEE704EB8401114A02EB810041684968BE
:1026A000416000F1080142688A4202D141684968EC
:1026B00041604168C968074A116000BF10BD000051
:1026C000680000205800002010000020700000204A
:1026D0006C0000203C0000204C0000208C090020F1
:1026E000ADF5007D00207E902E487F9000207F99E0
:1026F00008707F9988607F99488052E0FEF758FD06
:102700000446002C4AD0012C04D0042C1AD0072CEB
:1027100042D127E024A0FEF7CFFB30A0FEF7CCFB90
:1027200001A8FFF7F9FD01A938A0FEF7C5FB39A004
:10273000FEF7C2FB01A8FFF727FD01A933A0FEF7B2
:10274000BBFB2AE09DF8F801401CC0B27E9002233A
:1027500000227EA93A48006800F009FA39A0FEF785
:10276000ABFB1AE07F980078401C7F9908707F9837
:102770008068401C7F9988607F984088401C7F99C2
:102780004880022300227FA93B48006800F0EFF94F
:102790003AA0FEF791FB00BF00BF00BF0A20FFF781
:1027A000BBFCABE7A40000203D3D3D3D3D3D3D3D34
:1027B0003D3D3D3D3D3D3D3D3D3D3D3D3D3D3D3D49
:1027C0003D3D3D3D3D3D3D3D3D3D3D3D3D3D3D3D39
:1027D0003D3D3D3D3D3D3D3D3D0D0A00C8CECEF168
:1027E000C3FB202020202020C8CECEF1D7B4CCAC13
:1027F00020D3C5CFC8BCB6202020CAA3D3E0D5BB08
:1028000020C8CECEF1D0F2BAC50D0A0025730D0A4C
:10281000000000000D0AC8CECEF1C3FB202020200E
:10282000202020D4CBD0D0BCC6CAFD202020202020
:1028300020202020CAB9D3C3C2CA0D0A000000005C
:10284000080000204B32BCFCB0B4CFC2A3ACCFF226
:1028500078517565756531B7A2CBCDCAFDBEDDA3D4
:10286000ACBCB4CAB9CFFBCFA2B6D3C1D0D2D1BE13
:10287000ADC2FAC1CB0D0A000C0000204B33BCFCEA
:10288000B0B4CFC2A3ACCFF278517565756532B7DD
:10289000A2CBCDCAFDBEDDA3ACBCB4CAB9CFFBCFC1
:1028A000A2B6D3C1D0D2D1BEADC2FAC1CB0D0A00FF
:1028B0001CB52248014609780191FF21024611709A
:1028C0000146097800919DF8001001F010011C4AA2
:1028D000117007211B4A116009E01A490968491E55
:1028E000184A11609DF800104906090E00919DF8E4
:1028F000001001F080018029EFD012490968090217
:10290000104A11601146098801F4E06111600B4A18
:10291000019911700C48006840F470000A49086081
:102920000846006840F070400860FFF7CDFB0020CB
:1029300006490860FDF718FC00201CBD00E400E01B
:10294000800000208400002020ED00E07C000020BA
:102950002DE9F04706460D4690464FF000090EB1AE
:10296000012000E0002018B9FDF730FC00BFFEE7B1
:102970000DB9002702E006FB05F0471C07F15400E3
:10298000FFF7EAF9044674B10DB9246002E004F1DE
:1029900054002060E66325640121204600F0ABF876
:1029A00084F85080A146B9F1000F03D1FDF70EFC69
:1029B00000BFFEE74846BDE8F0872DE9FF4383B03E
:1029C00005460E461F464FF000092C461CB9FDF780
:1029D000FDFB00BFFEE70EB9206C08B9012000E046
:1029E000002018B9FDF7F2FB00BFFEE700BFFFF7BC
:1029F000F7FAA06B90B3D4F80C8031462046FEF76E
:102A000069FFB7B9A06B401EA063206810B9FFF73B
:102A10002BFA6060206908B9012000E00020B8B9F5
:102A200004F1100000F000FB012811D1FFF75CFB5E
:102A30000EE0C4F80C80606A08B9012000E00020B4
:102A400030B904F1240000F0EFFA08B1FFF74CFBB5
:102A5000FFF7E8FA012007B0BDE8F083FFE705982B
:102A600018B9FFF7DFFA0020F5E7B9F1000F04D13C
:102A700001A8FFF77FFD4FF00109FFF7D3FAFFF739
:102A8000C7FDFFF7ADFA606C401C00D16064A06C1C
:102A9000401C00D1A064FFF7C5FA05A901A800F009
:102AA000F9F808BB2046FFF757F8B8B1206830B9ED
:102AB000FFF796FA6068FFF705FDFFF7B3FA04F138
:102AC00024000599FFF7C6FC2046FFF7F1F800F057
:102AD000F1FA00288BD1FFF707FB88E72046FFF7C4
:102AE000E7F800F0E7FA82E72046FFF7E1F800F0A8
:102AF000E1FA0020AFE770B505460E462C461CB93A
:102B0000FDF764FB00BFFEE7FFF76AFAD4E90F1296
:102B1000206801FB020060600020A0632068A060C4
:102B2000E06B401E226C216800FB0210E0604FF059
:102B3000FF306064A06476B9206908B9012000E024
:102B4000002080B904F1100000F06EFA01280AD1CB
:102B5000FFF7CAFA07E004F11000FFF70BFA04F1DF
:102B60002400FFF707FAFFF75DFA012070BD2DE999
:102B7000FF4383B0064688461D464FF000093446A1
:102B80001CB9FDF723FB00BFFEE7B8F1000F01D130
:102B9000206C08B9012000E0002018B9FDF716FBF1
:102BA00000BFFEE7022D02D1E06B012801D1012018
:102BB00000E0002018B9FDF709FB00BFFEE700BFE9
:102BC000FFF70EFAA06BE16B884201D3022D1DD1F5
:102BD0002A4641462046FEF792FE0746606A08B93B
:102BE000012000E0002040B904F1240000F01CFAAC
:102BF000012805D1FFF778FA02E00FB1FFF774FA68
:102C0000FFF710FA012007B0BDE8F083059818B966
:102C1000FFF708FA0020F6E7B9F1000F04D101A888
:102C2000FFF7A8FC4FF00109FFF7FCF9FFF7F0FCF4
:102C3000FFF7D6F9606C401C00D16064A06C401CAA
:102C400000D1A064FFF7EEF905A901A800F022F871
:102C5000C0B92046FEF78DFF70B104F11000059950
:102C6000FFF7F8FB2046FFF723F800F023FA0028CF
:102C7000A6D1FFF739FAA3E72046FFF719F800F0CD
:102C800019FA9DE72046FFF713F800F013FA002029
:102C9000B9E700002DE9F04104460D461CB9FDF7E7
:102CA00095FA00BFFEE71DB9FDF790FA00BFFEE7F9
:102CB000FFF796F9124807682868401C01D10026E2
:102CC00019E0104920680968884204D06068B84259
:102CD00001D801260FE06068381A2968884209D2B5
:102CE00028686168791A401A28602046FFF742FC7C
:102CF000002600E00126FFF795F93046BDE8F08197
:102D0000480000205C0000202DE9FF4F81B0804684
:102D100016469A46DDE90E5BB8F1000F03D1FDF7C8
:102D200055FA00BFFEE7052D01D2012000E000208A
:102D300018B9FDF74BFA00BFFEE730461099FEF7D1
:102D400075FD0446002C5DD0701E216B01EB8009DF
:102D500029F0070919F0070F01D1012000E0002038
:102D600018B9FDF733FA00BFFEE700962A46204661
:102D7000119B0299FEF756FE524641464846FFF720
:102D800083F82060BBF1000F01D0CBF80040FFF7C3
:102D900027F925480068401C23490860234800683B
:102DA00040B9224804600846006801280CD1FEF7AB
:102DB0006BFE09E01E48006830B91C480068C06A14
:102DC000A84201D8194804601A480068401C1949F3
:102DD000086008460068606494F82C100120884060
:102DE00015490968084314490860E16A01EB81014B
:102DF000124A02EB8100211DFFF7E6F80127FFF7D9
:102E000011F901E04FF0FF37012F09D108480068A0
:102E100030B106480068C06AA84201D2FFF764F9E1
:102E2000384605B0BDE8F08F440000203C0000208B
:102E300050000020600000204C0000208C09002081
:102E40002DE9F0414FF0000841480068002872D198
:102E500040480068401C3F49086008460668DEB9E3
:102E60003D480068006808B9012000E0002018B95A
:102E7000FDF7ACF900BFFEE7374807683748006840
:102E8000354908603548076035480068401C3449BA
:102E90000860FEF7D5FE00BF3248006886423CD38A
:102EA00000BF2D480068006808B9012000E000203C
:102EB00020B14FF0FF302B4908602DE02648006814
:102EC000C068C4686568AE4202D22648056023E047
:102ED000201DFEF7E9FFA06A18B104F11800FEF703
:102EE000E3FF94F82C10012088401F49096808432B
:102EF0001D490860E16A01EB81011C4A02EB810077
:102F0000211DFFF761F81A49E06A0968C96A884219
:102F1000C7D34FF00108C4E700BF15480068C06A76
:102F200000EB8000114951F82000012808D94FF02A
:102F3000010805E0FFE70F480068401C0D490860E4
:102F40000D48006808B14FF001084046BDE8F08127
:102F50006800002048000020740000207800002055
:102F60005C000020640000204C0000208C09002040
:102F70003C000020540000205800002070B5054699
:102F80002C460026002D47D024480068844201D1F9
:102F9000012000E0002018B9FDF718F900BFFEE796
:102FA000206D18B9FDF712F900BFFEE7206D401E35
:102FB0002065E16CE06A88422ED0206D60BB201D48
:102FC000FEF772FF78B9E06A00EB8000144951F80F
:102FD000200040B994F82C1001208840114909685C
:102FE000814310480160E06CE062E06AC0F10500D6
:102FF000A06194F82C10012088400A490968084310
:1030000008490860E16A01EB8101054A02EB810091
:10301000211DFEF7D9FF0126304670BD3C0000207F
:103020008C0900204C00002070B50646F068C4688A
:103030001CB9FDF7CBF800BFFEE704F11800FEF75E
:1030400033FF16480068A8B9201DFEF72DFF94F83D
:103050002C10012088401249096808431049086073
:10306000E16A01EB81010F4A02EB8100211DFEF7AD
:10307000ABFF04E004F118010B48FEF7A5FF0B4974
:10308000E06A0968C96A884204D901250120084913
:10309000086000E00025284670BD000068000020A0
:1030A0004C0000208C090020180A00203C00002061
:1030B0005800002070B500253048006818B9FDF7A9
:1030C00085F800BFFEE7FEF78BFF2C480068401E26
:1030D0002A4908600846006800284BD12848006843
:1030E000002847D024E02748C068C46804F11800CD
:1030F000FEF7DAFE201DFEF7D7FE94F82C10012013
:1031000088402149096808431F490860E16A01EBCA
:1031100081011E4A02EB8100211DFEF755FF1C496B
:10312000E06A0968C96A884202D301201949086027
:103130001448006808B9012000E000200028D2D01F
:103140001548006878B10AE0FFF77AFE10B1012057
:103150001049086010480068401E0F4908600E487A
:1031600000680028F0D10B480068012802D1012531
:10317000FEF7BAFFFEF756FF284670BD6800002034
:1031800044000020180A00204C0000208C09002078
:103190003C0000205800002054000020BC310008F2
:1031A00000000020A4000000000F000860320008AA
:1031B000A4000020B4510000100F0008000000001F
:1031C00000000000000000000000000000000000FF
:1031D00000000000010203040102030406070809BD
:1031E0000204060800A24A040000000000000000DB
:1031F00001020304060708090000000000000000A7
:1032000000000000000000000000000000000000BE
:1032100000000000000000000000000000000000AE
:10322000000000000000000000000000000000009E
:103230000000000000000000AAAAAAAA00000000E6
:10324000000000000000000000000000000000007E
:10325000000000000000000000000000000000006E
:0400000508000131BD
:00000001FF
