:020000040800F2
:10000000C05600204D35000895330008973300088E
:10001000C5330008C7330008C933000800000000DA
:10002000000000000000000000000000D30F0008E6
:10003000CB33000800000000810F00083D110008CC
:10004000E9350008ED350008F1350008F535000800
:10005000F9350008FD3500080136000805360008AE
:10006000093600080D36000811360008153600085C
:10007000193600081D36000821360008253600080C
:10008000293600082D3600083136000835360008BC
:10009000393600083D36000841360008453600086C
:1000A000493600084D36000851360008553600081C
:1000B000593600085D3600086136000865360008CC
:1000C000693600086D36000871360008753600087C
:1000D000793600085F2A0008813600088536000856
:1000E000893600088D3600089136000895360008DC
:1000F000993600089D360008A1360008A53600088C
:10010000A9360008AD360008B1360008B53600083B
:10011000B9360008BD360008232F0008C536000890
:10012000C9360008CD360008D1360008D53600089B
:100130002DE9FB4F834614000C9D0D9E0F9F5846E2
:10014000002802D100F03BFFFEE7052D02D300F0AE
:1001500036FFFEE70E99200080B200F0ABFC81462E
:10016000B9F1000F74D0A4B2D9F8300010EB8400BC
:10017000001F82465FEADA0A5FEACA0A1AF007003D
:10018000002802D000F01BFFFEE7A4B200943B0061
:100190002A000199484600F0C9FB029A5946504688
:1001A00000F038FFC9F80000002E01D0C6F800901A
:1001B00000F097FFDFF820060068401CDFF81816F3
:1001C0000860DFF8C406006800280BD1DFF8B80625
:1001D000C0F80090DFF800060068012811D100F097
:1001E000DEFB0EE0DFF870060068002809D1DFF8BA
:1001F00098060068C06A854203D3DFF88C06C0F811
:100200000090DFF858060068401CDFF850160860C0
:10021000DFF848060068C9F84400DFF844060068C3
:100220000121D9F82C2091400843DFF834160860EA
:1002300019F10401D9F82C001422DFF8283602FB4A
:10024000003000F0BDFF0120804600F062FF02E0B8
:100250005FF0FF308046B8F1010F0CD1DFF8F805F0
:100260000068002807D0DFF820060068C06AA842AE
:1002700001D200F02DFF4046BDE8FE8F2DE9F84386
:1002800004000D005FF00008002C02D100F097FE82
:10029000FEE7002D02D100F092FEFEE7DFF80C0829
:1002A0000068002802D000F08AFEFEE700F0A2F805
:1002B000DFF87406D0F8009020682818060020683F
:1002C000814507D2206886420BD2B14509D2012070
:1002D000804606E02068864201D3B14501D2012064
:1002E00080462660B8F1000F17D0DFF89C05006843
:1002F000001D00F08EFF00280CD1DFF864050068B7
:100300000121DFF884251268D26A91408843DFF822
:1003100050150860300000F0A3FB00F073F80700F0
:10032000002F01D100F0D4FEBDE8F18370B50400C8
:100330000026002C29D0DFF874070068002802D0BE
:1003400000F03DFEFEE700F055F8DFF8DC05006840
:1003500020180500DFF830050068001D00F059FF87
:1003600000280CD1DFF8F80400680121DFF8182517
:100370001268D26A91408843DFF8E41408602800CC
:1003800000F06EFB00F03EF80600002E01D100F0F8
:100390009FFE70BD1FB5002003900020029000203A
:1003A00001900020009000238222DFF8B8190FF29C
:1003B0006150FFF7BDFE0400012C15D100F0FFFDD8
:1003C000DFF8A4095FF0FF310160DFF88C04012140
:1003D0000160DFF8540500210160DFF8500B0021B7
:1003E000016000F031FE04E0002C02D100F0E7FDD6
:1003F000FEE71FBDDFF8B4060068401CDFF8AC164E
:1004000008607047F8B50025DFF8A00600680028EE
:1004100002D100F0D4FDFEE700F063FEDFF88C06A9
:100420000068401EDFF884160860DFF88006006868
:10043000002859D1DFF8A0030068002854D0DFF865
:100440002009006800282CD0DFF81409C068C068B3
:10045000040014F1180000F0DCFE0600201D00F07E
:10046000D8FE0700DFF8F80300680121E26A914036
:100470000843DFF8EC130860211DE06A1422DFF85E
:10048000E43302FB003000F09BFEE06ADFF8F81373
:100490000968C96A8842D2D3DFF89C0A0121016049
:1004A000CDE7DFF8B4090068002814D0DFF8A80908
:1004B000006800280FD000F071F8002803D0DFF8A2
:1004C000780A01210160DFF890090068401EDFF81A
:1004D00088190860EAE7DFF8600A0068012803D19C
:1004E0000120050000F0F4FD00F013FE2800F2BD2D
:1004F000DFF834140968080070472DE9F041040062
:100500000D00160000275FF00508FFF773FFB248E3
:10051000006885423CD3B8F1010801221420DFF8BD
:10052000441300FB081114EB471000F0E9FAC0195E
:100530000700B8F1000FEED10222DFF8F4090168DC
:1005400014EB471000F0DCFAC01907000222DFF8B4
:10055000E409016814EB471000F0D2FAC019070053
:100560000422DFF8281314EB471000F0C9FAC01971
:1005700007000322DFF8381514EB471000F0C0FA2B
:10058000C0190700002E03D0DFF8B40900683060FE
:10059000FFF738FF01003800BDE8F0812DE9F04198
:1005A0000026DFF80805006800287AD1DFF8780314
:1005B0000068401CDFF870130860DFF86C03076800
:1005C000002F1FD1DFF8680900680068002802D0FA
:1005D00000F0F5FCFEE7DFF8580900688046DFF818
:1005E0005009DFF8501909680160DFF84809C0F8C0
:1005F0000080DFF848090068401CDFF840190860F7
:1006000000F0ECFADFF86007006887423CD3DFF8BF
:10061000200900680068002805D1DFF84C075FF06A
:10062000FF31016030E0DFF808090068C068C06889
:10063000040060680500AF4203D2DFF82C070560B4
:1006400022E0201D00F0E5FDA16A002903D014F18D
:10065000180000F0DEFD824800680121E26A914046
:1006600008437F490860211DE06A14227D4B02FB8C
:10067000003000F0A5FDE06A83490968C96A884234
:10068000C5D301200600C2E77F480068C06A142174
:10069000744A01FB00200068022809D301200600EB
:1006A00006E0DFF8B4070068401CDFF8AC1708600C
:1006B000DFF884080068002801D00120060030001F
:1006C000BDE8F08110B5DFF8E4030068002804D02D
:1006D000DFF864080121016048E0DFF85C080021D0
:1006E0000160DFF86008DFF8441809680160DFF88E
:1006F00058080068DFF84C18096888420BD2624835
:100700000068416DDFF83C2812685118DFF838287E
:100710001268891A4165DFF83008DFF8281809687F
:1007200001604F480068B0FA80F0D0F11F0004006B
:1007300014204C4900FB04100068002802D100F08E
:100740003EFCFEE71421474A01FB042108004168F2
:1007500049684160416810F10802914202D1416844
:10076000496841604068C0684749086010BD70B57D
:1007700004000D00002C02D100F021FCFEE74248ED
:10078000006810F11801200000F026FD3E480068C6
:10079000001D00F03EFD002809D13148006801210C
:1007A000394A1268D26A914088432D49086015F190
:1007B000010F07D134480068011DDFF8F40200F092
:1007C000FFFC07E0DFF88807006828180600300003
:1007D00000F046F970BD0000884E0020F8B5040016
:1007E000E068C0680500002D02D100F0E8FBFEE7DC
:1007F00015F1180000F00DFDAC490968002914D16D
:10080000281D00F006FD0700154800680121EA6A6E
:100810009140084312490860291DE86A1422114BCF
:1008200002FB003000F0CCFC05E015F11801DFF808
:10083000300500F0C5FC14480068C06AE96A8842C7
:1008400006D201200600DFF804070121016001E063
:10085000002006003000F2BD944E0020A44E00207F
:10086000904E0020FC4C002010B50400002C02D15A
:1008700000F0A5FBFEE7DFF8C40600682060DFF8A3
:10088000D0060068606010BD784E0020144E002035
:10089000F8B504000D00002C02D100F090FBFEE73B
:1008A000002D02D100F08BFBFEE700F01AFC1E4881
:1008B0000768286810F1010F02D1002006001DE032
:1008C000DFF8780600682168884205D060688742B2
:1008D00002D30120060011E06068381A29688842B6
:1008E0000AD22868C01B6168081828602000FFF73A
:1008F000BBFF0020060001E00120060000F009FC1B
:100900003000F2BDDFF844060121016070470000AD
:1009100010B5040000F06FF8DFF83C06006802280C
:10092000F8D300F0D5FBF5E78C4E00202DE9F84315
:1009300005000E0017009846089C00208146B9F17A
:10094000100F0CD219EB050019F8061080F83410BE
:1009500019F80600002802D019F10109EFE700207C
:1009600085F84300052F01D304200700EF62EF64F0
:1009700000202865281D00F020FC15F1180000F06B
:100980001CFC2D61D7F10500A8616D62002068652F
:100990000020A865002085F85C00BDE8F18310B553
:1009A00000200400052C08D21420DFF8AC1500FB51
:1009B000041000F0F3FB641CF4E7DFF8A00500F07E
:1009C000EDFBDFF89C0500F0E9FBDFF8940300F095
:1009D000E5FBDFF8900500F0E1FB354800F0DEFBB9
:1009E000DFF84C05DFF874150160DFF84805DFF823
:1009F0007015016010BD70B5DFF86C050068002847
:100A00002DD0FFF7F7FCDFF85C050068002801D166
:100A1000012400E00024E4B2FFF7F4FC002CEBD149
:100A200000F05FFBDFF83C05C068C0680500281DCA
:100A300000F0EFFB0600DFF834050068401EDFF829
:100A40002C150860DFF820050068401EDFF8181537
:100A5000086000F05EFB280000F0B7F8CCE770BD3E
:100A600010B50400DFF8080500684460DFF8E00412
:100A70000068844209D2DFF8F8040068011DDFF83D
:100A8000B404006800F0A8FB0EE0DFF8E40400689E
:100A9000011DDFF89C04006800F09EFBB24800686E
:100AA000844201D2B048046010BD0000AC4E00206A
:100AB000284E0020F8B504000D00002D04D1A4B28A
:100AC000A00000F0D1FB00E028000700002F0BD0B1
:100AD000602000F0C9FB0600002E01D0376305E05E
:100AE000380000F040FC01E000200600002E05D098
:100AF000A4B2A200A521306B00F0E0FC3000F2BDF2
:100B00002DE9F84304000D0016005FF00009286885
:100B100000284CD02800416849684160416810F1C4
:100B20000802914202D14168496841604068C0684A
:100B300080462800416849684160416810F1080218
:100B4000914202D14168496841604068C06807002D
:100B50005FEA4910075114EB491007F23401416074
:100B600014EB4910796C816014EB4910067314EB97
:100B70004910F96A0161F6B2032E06D1B86A00285D
:100B800003D014EB49100221017314EB4910F96CE6
:100B9000416114EB4910796D8161386B00F00AF8FE
:100BA00014EB4911888319F101094745C1D1484621
:100BB000BDE8F283010000200A78A52A02D1491C71
:100BC000401CF9E7800880B2704710B50400206B24
:100BD00000F0C9FB200000F0C6FB10BDD449096835
:100BE0000968002904D160495FF0FF320A6007E01C
:100BF000CF490968C968C968080041685A4A116044
:100C00007047DFF86C1309680800704738B50400B6
:100C10002500002C4FD0E86ADFF854130968C96A30
:100C2000884248D2A869002806D4DFF84403006847
:100C3000C06AD0F10500A8616869E96A1422DFF88A
:100C4000183302FB0131884230D1281D00F0E1FA4F
:100C5000002812D1E86A1421DFF8FC2201FB0020F1
:100C60000068002809D1DFF8EC0200680121EA6A77
:100C700091408843DFF8DC120860DFF8F402006876
:100C8000C06AE862DFF8CC0200680121EA6A91409C
:100C90000843DFF8C0120860291DE86A1422DFF853
:100CA000B83202FB003000F08BFA04E0DFF8C0023B
:100CB0000068C06AE86231BD70B5040025000026F6
:100CC000002C4AD0DFF8A8020068854202D000F06C
:100CD00076F9FEE7286D002802D100F070F9FEE7F2
:100CE000286D401E2865E86AE96C884235D0286D79
:100CF000002832D1281D00F08CFA002812D1E86AB1
:100D00001421DFF8542201FB00200068002809D1DB
:100D1000DFF8400200680121EA6A91408843DFF869
:100D200034120860E86CE862E86AD0F10500A86156
:100D3000DFF8200200680121EA6A91400843DFF8E9
:100D400014120860291DE86A1422DFF80C3202FB35
:100D5000003000F035FA01200600300070BD0000C0
:100D6000004E0020B8350008A84E002070B50400E1
:100D70000D002900200000F0BDFB200000F0DCFB8E
:100D800006000F2E03DA20203055761CF9E70020EC
:100D90003055301970BD7FB5040000202070DFF899
:100DA000CC0100680390DFF8C4010068400100F046
:100DB0005BFA0500002D4ED0002203992800FFF7B2
:100DC0009CFB0390002002900298039988423FD236
:100DD000029815EB4010007B012806D011D30328A0
:100DE00009D005D3042809D00BE0522006000AE000
:100DF0004220060007E05320060004E044200600DD
:100E000001E000200600029815EB40104168200028
:100E1000FFF7ACFF0400029815EB401080680190CA
:100E2000029815EB4010808B0090029815EB401053
:100E30000369F6B23200DFF83C11200000F09CFBA1
:100E4000200000F079FB04190298401C0290BBE7D7
:100E5000280000F088FA7FBD984E002070B584B05D
:100E6000040000202070DFF8040100680290DFF821
:100E7000FC000068400100F0F7F90500002D44D0A7
:100E800001AA02992800FFF738FB0290019864211B
:100E9000B0FBF1F001900198002833D000200090C1
:100EA0000098029988422DD2009815EB4010806975
:100EB0000199B0FBF1F00600009815EB4010416875
:100EC0002000FFF753FF0400002E0AD033000098E3
:100ED00015EB40108269DFF8A010200000F04CFBF9
:100EE00008E0009815EB40108269DFF890102000B0
:100EF00000F042FB200000F01FFB04190098401C8A
:100F00000090CDE7280000F02EFA7FBDDFF86000EA
:100F10000068002805D0DFF858000068016D491C02
:100F20000165DFF84C00006870470000544E002057
:100F30007C4E0020804E00209C4E0020A04E0020C1
:100F4000544E0020B44E0020B04E00209C4E002095
:100F50008C4E0020904E0020FC4C0020D84D0020EC
:100F6000EC4D0020144E0020844E0020884E0020BE
:100F7000784E00203C3500088C3500089835000874
:100F8000EFF30980BFF36F8F204B1A6820E9F00F51
:100F9000106008B54FF0100080F31188FFF792FB46
:100FA0004FF0000080F31188BDE808401968086818
:100FB000B0E8F00F80F30988BFF36F8F7047EFF34D
:100FC00011804FF0100181F31188704780F3118870
:100FD00070470E4B19680868B0E8F00F80F3098875
:100FE000BFF36F8F4FF0000080F311884EF00D0EAD
:100FF000704707480068006880F3088862B661B6E9
:10100000BFF34F8FBFF36F8F00DF0000784E0020DB
:1010100008ED00E0001F5FF080730360001F0160B7
:10102000001F0FF20D030360143802602038704770
:1010300080B55148006810F1010F02D0FFF7BFFFE3
:10104000FEE7FFF7BCFFFEE700B583B04B48017831
:101050000191FF21017001788DF800109DF80010BA
:1010600011F01001464A1170464907220A609DF8A6
:10107000001009060AD543490968491E414A116012
:101080009DF8001049008DF80010F0E73D4909680F
:1010900009023C4A11603B49096811F4E061394A90
:1010A0001160019901703848006850F470003649A9
:1010B00008603548006850F070403349086000F01F
:1010C0004DF82D4800210160FFF793FF00200EBD71
:1010D0002E485FF080510160BFF34F8FBFF36F8FD9
:1010E000704780B5FFF76BFF23480068401C22491A
:1010F0000860BFF34F8FBFF36F8F1F480068012850
:1011000006D122480068000602D0FFF758FFFEE72C
:1011100001BD80B518480068002802D1FFF74FFFD5
:10112000FEE715480068401E134908601248006831
:10113000002802D10020FFF749FF01BD10B5FFF7DD
:101140003EFF0400FFF72AFA002803D00F485FF0A3
:10115000805101600020FFF739FF10BD0C48006886
:101160004FF47A71B0FBF1F0401E0A4908600A485A
:1011700007210160704700005000002000E400E0FB
:10118000B84E0020744E002020ED00E004ED00E099
:101190005800002014E000E010E000E010F1080129
:1011A00041605FF0FF31816010F10801C16010F112
:1011B0000801016100210160704700210161704751
:1011C00042684A6093688B609368596091600861D7
:1011D00003685B1C0360704710B40B6813F1010FC8
:1011E00002D10469220008E010F1080422005468CA
:1011F0002468A34201D35268F9E754684C604C68F4
:10120000A1608A60516008610468641C046010BCBD
:101210007047010008694A688B6893608A684B6868
:10122000536042688A4201D18A68426000220A61A2
:101230000268521E02600068704710B450F8041B28
:1012400081B102681218001D50F8043BDC0744BF4E
:10125000A9F10104E31852F8044B43F8044B091FA9
:10126000F9D1EBE710BC70472DE9F04104005FF0C5
:101270000008FFF7BFF88A480068002801D100F095
:10128000A5F888480068044261D1002C12D0864835
:101290000068041914F0070000280BD014F10800AE
:1012A00014F00701441A14F00700002802D0FFF7D9
:1012B00086FEFEE7002C4AD07C480068A04246D358
:1012C0007B4806007A48006805006868A04205D29D
:1012D0002868002802D02E002D68F6E770480068C4
:1012E000854234D0704800683168401880462868CC
:1012F00030606D48006840006968091B88420FD261
:101300006019070017F00700002802D0FFF757FE0A
:10131000FEE76868001B78606C60380000F08EF8AB
:10132000624800686968401A604908605F48006860
:1013300060490968884203D25E485C4909680160D7
:101340006868584909680843686000202860FFF70A
:1013500059F818F00701002902D0FFF730FEFEE728
:101360004046BDE8F08170B504002600002C2CD06A
:101370004D48006840428619350068684949096847
:10138000084202D1FFF71BFEFEE72868002802D0C2
:10139000FFF715FEFEE7686842490968084214D065
:1013A0002868002811D168683E4909688843686048
:1013B000FFF720F83D480068696808183B49086055
:1013C000280000F03BF8FFF71DF870BD30B44FF473
:1013D0008843394C220012F00704002C05D0D21D9E
:1013E000D208D2009B1A344CE3181100304C216013
:1013F0002F4C002565605C1822002B4C2468121BC2
:10140000D208D200264C2260254C24680025656055
:10141000234C2468002525600800141A4460204CE1
:10142000246804604468234D2C6044681F4D2C6080
:101430001C4C5FF00045256030BC704710B41C4B5D
:101440001A001368834201D21268FAE71100536848
:101450005B18834204D153684468E318536010005A
:10146000010043685B181468A34211D113680C4C47
:101470002468A34208D0436814686468E318436092
:1014800013681B68036005E0054B1B68036001E0FF
:1014900013680360824200D0106010BC70470000E7
:1014A000584E0020644E0020C03500085C4E0020DD
:1014B0004C4E0020604E00205C00002070B50400FF
:1014C0000D0016002A003100200000F06FF8200007
:1014D00070BD50F8041B61B150F8042BD30744BF12
:1014E000A9F101039A18002342F8043B091FFAD11D
:1014F000EFE770475FEA000C830706D011F8013B65
:1015000000F8013BB3B18307F8D10A68B2F10133A7
:1015100023EA020313F0803F02BF40F8042B51F886
:10152000042FF3E711F8013B00F8013B13B111F868
:10153000013BF9E76046704700F10103810704D0E1
:1015400010F8011B89B18107FAD10268B2F10131AB
:10155000914311F0803F04BF50F8042FF6E710F8D4
:10156000011B11B110F8011BFBE7C01A704702689C
:10157000531C0360117070470CB41CB5044604A8DA
:101580000190009401AB0A4600A90748784418303E
:1015900000F03FF8009900220A7000285CBF009814
:1015A000001B16BC5DF80CFBC7FFFFFF62F30F22A8
:1015B00062F31F42401810F0030308D0C91A1FD36A
:1015C000DB0748BF00F8012D28BF20F8022D1300CB
:1015D00030B414461546103928BF20E93C00FAD82B
:1015E000490728BF20E90C0048BF40F8042D8900B6
:1015F00028BF20F8022D48BF00F8012D30BC7047ED
:10160000C91818BF00F8012DCB0728BF00F8012D1D
:1016100070472DE9F04784B08146884614461E463F
:101620000DF1000A04E014F8011B4046C84780464B
:10163000207810B904B0BDE8F0872528F3D1641CE8
:1016400014F8015B252D6FD0582D51D0632D0ED08D
:10165000642D18BF692D10D06F2D49D0702D4CD03E
:10166000732D50D0752D18BF782D41D0E0E730682C
:10167000011D31600168C9B2D7E73068011D3160D2
:101680000768002F03D52D214046C84780466F2D9F
:1016900008BF082105D045F02000782814BF0A2192
:1016A00010210B203A46642D02D1002F48BF524230
:1016B000431E1846B2FBF1FC01FB1C223032D2B2B1
:1016C0003A2A24BFA5F1510E724403F80A2062465B
:1016D0000AB10128ECDAC0F10B0500A94718404611
:1016E000002DA4D017F8011BC8476D1EFAD19EE744
:1016F0003068011D31600768C9E73068011D31603D
:1017000007687825C3E73068011D31600568284601
:10171000FFF712FF07464046002F88D015F8011B3F
:10172000C8477F1EFAD182E725217EE738B504003D
:101730005420FFF799FD0500002D23D0002068609C
:10174000002028600020A8600020E8600020A86336
:101750000120E863002028645FF0FF3068645FF0D8
:10176000FF30A86485F8504015F11000FFF716FD12
:1017700015F12400FFF712FD0023002200212800AC
:1017800000F04CF8002D02D1FFF719FCFEE728000D
:1017900032BDF8B504002600002E02D1FFF70FFC81
:1017A000FEE77768FFF72DFA87420ED1F068401EFA
:1017B000F060F068002805D10023002200213000ED
:1017C00000F02CF80120050001E0002005002800B1
:1017D000F2BD2DE9F04104000D002700002F02D1D9
:1017E000FFF7EDFBFEE7D7F80480FFF70AFA804524
:1017F00005D1F868401CF860012006000BE00023CA
:101800002A000021380000F0AAF80600012E02D1BB
:10181000F868401CF8603000BDE8F0812DE9F7431E
:1018200004000D001E005FF00008A146B9F1000F92
:1018300002D1FFF7C4FBFEE7002D03D1D9F8400029
:10184000002801D1012000E00020C0B2002802D110
:10185000FFF7B5FBFEE7022E03D1D9F83C000128C3
:1018600001D1012000E00020C0B2002802D1FFF722
:10187000A6FBFEE7FFF735FCD9F83800D9F83C1095
:10188000884201D3022E1AD132002900484600F0C6
:1018900019F90700D9F82400002808D019F124000C
:1018A000FEF79CFF012806D1FFF712FC03E0002F92
:1018B00001D0FFF70DFCFFF72CFC01204DE0029852
:1018C000002803D1FFF725FC002046E0B8F1000F07
:1018D00004D100A8FEF7C8FF01208046FFF719FCDD
:1018E000FEF788FDFFF7FDFBD9F8440010F1010F6A
:1018F00002D10020C9F84400D9F8480010F1010FC6
:1019000002D10020C9F84800FFF703FC02A900A893
:10191000FEF7BEFF002819D1484600F072F90028F2
:101920000ED0029919F11000FEF721FF484600F091
:1019300023F9FEF767FD00289CD1FFF7C9FB99E763
:10194000484600F019F9FEF75DFD93E7484600F0C0
:1019500013F9FEF757FD01000020BDE8FE832DE9D5
:10196000F74304000D001E000027A146B9F1000F47
:1019700002D1FFF724FBFEE7002D03D1D9F8400088
:10198000002801D1012000E00020C0B2002802D1CF
:10199000FFF715FBFEE7FFF7A4FBD9F83800002896
:1019A00034D0D9F80C0080462900484600F0CEF823
:1019B000002E19D1D9F83800401EC9F83800D9F8DE
:1019C0000000002803D1FFF7A1FAC9F80400D9F8F4
:1019D0001000002816D019F11000FEF7FFFE0128B4
:1019E00010D1FFF775FB0DE0C9F80C80D9F8240081
:1019F000002807D019F12400FEF7F0FE002801D0DE
:101A0000FFF766FBFFF785FB012059E002980028ED
:101A100003D1FFF77EFB002052E0002F04D100A885
:101A2000FEF722FF01200700FFF773FBFEF7E2FC41
:101A3000FFF757FBD9F8440010F1010F02D1002045
:101A4000C9F84400D9F8480010F1010F02D1002074
:101A5000C9F84800FFF75DFB02A900A8FEF718FFD0
:101A6000002826D1484600F0BCF800281BD0D9F841
:101A70000000002807D1FFF734FBD9F80400FFF776
:101A8000C5F8FFF746FB029919F12400FEF76FFE37
:101A9000484600F071F8FEF7B5FC00287FF47BAFF4
:101AA000FFF716FB77E7484600F066F8FEF7AAFC5A
:101AB00071E7484600F060F8FEF7A4FC0100002042
:101AC000BDE8FE83F8B504000D0016000027206C69
:101AD000002809D12068002833D16068FFF7ECF8AE
:101AE0000700002060602CE0002E0FD1226C29003E
:101AF000A06800F097F8216CA2688918A160A1681D
:101B0000626891421DD32068A0601AE0226C29000F
:101B1000E06800F087F8216C4942E2688918E160CA
:101B2000E1682268914204D2206C4042616840180A
:101B3000E060022E05D1A06B002802D0A06B401EF1
:101B4000A063A06B401CA0633800F2BD38B5040050
:101B50000D00206C00280ED0206CE1684018E06079
:101B6000E0686168884201D32068E060226CE16827
:101B7000280000F057F831BD10B50400FFF7B1FAA6
:101B8000A06C01280EDB606A00280BD014F1240041
:101B9000FEF724FE002801D0FEF7B4FEA06C401E24
:101BA000A064EDE75FF0FF30A064FFF7B2FAFFF743
:101BB00098FA606C01280EDB206900280BD014F124
:101BC0001000FEF70BFE002801D0FEF79BFE606CB4
:101BD000401E6064EDE75FF0FF306064FFF799FA44
:101BE00010BD38B50400FFF77CFAA06B002802D1C5
:101BF0000120050001E000200500FFF78AFA280017
:101C000032BD38B50400FFF76CFAA06BE16B884277
:101C100002D10120050001E000200500FFF779FA5C
:101C2000280032BD70B504000D00160032002900F6
:101C3000200000F003F8200070BD000062B38B07A5
:101C400008D0521E11F8013B00F8013B00F024803F
:101C50008B07F6D1830740F0208000BF103A07D3EE
:101C600030B4B1E83810103AA0E83810F9D230BCDE
:101C7000530724BFB1E80810A0E8081044BF51F88A
:101C8000043B40F8043BD20724BF31F8022B20F874
:101C9000022B44BF0B7803707047083A07D3B1E8B2
:101CA0000810083A40F8043B40F804CBF7D2530739
:101CB000E4E70000DFF8CC03006880040BD4DFF811
:101CC000C8030068C00706D4DFF8C0030068C00579
:101CD00001D5012000E000207047DFF8A80300686C
:101CE00080040BD5DFF8A0030068C00706D5DFF835
:101CF0009C030068C00501D5012000E0002070476A
:101D0000DFF88003006880040BD5DFF87C030068EF
:101D1000C00706D4DFF874030068C00501D40120B1
:101D200000E000207047DFF85C03006880040BD4FB
:101D3000DFF854030068C00706D5DFF850030068D9
:101D4000C00501D5012000E000207047DFF8340312
:101D5000006880040BD5DFF830030068C00706D5A3
:101D6000DFF828030068C00501D4012000E000204E
:101D70007047DFF818030068000401D4012000E078
:101D800000207047DFF808030068000701D4012035
:101D900000E000207047DFF8F4020068400401D43E
:101DA000012000E000207047DFF8E00200688004B6
:101DB00001D4012000E000207047DFF8D002006865
:101DC000000601D4012000E00020704780B500F03B
:101DD0007AF800F02EF801BDDFF8B812C97ADFF802
:101DE000B4228854AB49C97A491CAA4AD172C9B2F3
:101DF0000A2902D3A7490022CA727047A548807AEF
:101E0000A44AD27A904201D1002011E0A148807A00
:101E1000A04A805C01009F48807A401C9D4A9072D5
:101E2000C0B20A2802D39B48002282720800C0B2C6
:101E3000704780B501214FF49A7000F0C7F9032074
:101E40008DF8020004208DF803004FF40050ADF827
:101E5000000000A9914800F0E5F90120ADF800006C
:101E600000A98F4800F0DEF94FF48070ADF8000053
:101E700000A98C4800F0D6F94FF40040ADF80000FE
:101E800000A9884800F0CEF90820ADF8000000A9AC
:101E9000854800F0C7F94FF48040ADF8000000A974
:101EA000804800F0BFF94FF40050ADF8000000A9E1
:101EB0007C4800F0B7F98020ADF8000000A979480F
:101EC00000F0B0F901BD734900228A727149002205
:101ED000CA72704900220A7300210800C0B20A28A1
:101EE0001FD2C0B26C4911EB001164220A81C0B24A
:101EF000694911EB001102220A71C0B2664911EB67
:101F0000001100228A72C0B2634911EB0011002255
:101F1000CA72C0B2604911EB001100220A73401C62
:101F2000DCE75D4964220A875B49052281F83B2092
:101F300059496422A1F848205749052281F84B20CD
:101F400055496422A1F858205349052281F85B20A5
:101F500051496422A1F868204F49052281F86B207D
:101F60004D49524A0A604C49514A0A614A49514A0C
:101F70000A624949504A0A634749504A0A64464935
:101F80004F4A0A6544494F4A0A6643494E4A0A671E
:101F900041494E4AC1F880203F494D4AC1F890203E
:101FA000704738B50400E4B23B4810EB041005005C
:101FB00028688047002845D02879052802D20520C6
:101FC00028715DE028790A2803D22879401C2871FD
:101FD00056E0A87A002809D10120A872E4B20320B3
:101FE00000FB04F0401CC0B2FFF7F6FE2889012870
:101FF00046D3E888298988420FD2E888401CE880C7
:10200000298980B288423BD1E4B2032000FB04F06E
:10201000C01CC0B2FFF7E0FE32E0E87A01282FD3FF
:10202000287B401C2873E97AC0B2884228D300205C
:102030002873E4B2032000FB04F0401CC0B2FFF799
:10204000CBFE1DE02879062802D30520287113E075
:102050002879002803D02879401E28710CE0A87A3E
:10206000012809D10020A872E4B2032000FB04F08B
:10207000801CC0B2FFF7B0FE0020E880002028736B
:1020800031BD00000810014008080140082001404F
:10209000081401403C4E00205C4C00200010014020
:1020A000000801400020014000140140B51C000858
:1020B000DB1C0008011D0008731D0008851D0008B9
:1020C000971D0008A91D0008BB1D0008271D00085A
:1020D0004D1D000810B500200400E4B20A2C05D202
:1020E0002000C0B2FFF75DFF641CF6E710BD0000E2
:1020F00030B40021002200230024434D2D6815F048
:102100000C0529000D00002D04D0042D05D0082D4C
:1021100006D026E03D4D056025E03C4D056022E0FF
:10212000394D2D6815F470152A00374D2D6815F4BA
:1021300080352B00920C921C002B04D1344D05FBF2
:1021400002F505600CE0304D2D68AD0304D5304D2F
:1021500005FB02F5056003E02C4D05FB02F505606B
:1021600001E02A4D0560284D2D6815F0F005290085
:102170000909284D4D5D2C000568E5404560224D5C
:102180002D6815F4E0652900090A224D4D5D2C00EB
:102190004568E54085601C4D2D6815F460552900A3
:1021A000C90A1C4D4D5D2C004568E540C560164DC3
:1021B0002D6815F440452900890B174D4D5D2C0005
:1021C000C568B5FBF4F5056130BC7047C9B200299C
:1021D00005D0124A12680243104B1A6004E00F4AFD
:1021E000126882430D4B1A607047C9B2002905D0AE
:1021F0000B4A126802430A4B1A6004E0084A12684C
:102200008243074B1A6070470410024000127A00A4
:1022100000093D004000002054000020181002403A
:102220001C100240F0B500270022002300240025E6
:10223000002691F803C01CF00F0C674691F803C00C
:102240005FEACC6C03D591F802C05CEA070791F80D
:1022500000C05FEA0C6C3AD0D0F800C065465FF071
:10226000000C6346082B31D25FF0010C1CFA03FC12
:102270006446B1F800C014EA0C0C6246A24223D1B5
:102280005FEA830C64465FF00F0C1CFA04FC6646A0
:10229000B54317FA04FC5CEA050591F803C0BCF1EC
:1022A000280F06D15FF0010C1CFA03FCC0F814C023
:1022B0000AE091F803C0BCF1480F05D15FF0010CB2
:1022C0001CFA03FCC0F810C05B1CCBE70560B1F83A
:1022D00000C04FF4807EF4453FD3D0F804C065467B
:1022E0005FF0000C6346082B36D25FF0010C13F14F
:1022F000080E1CFA0EFC6446B1F800C014EA0C0C7F
:102300006246A24226D15FEA830C64465FF00F0C5E
:102310001CFA04FC6646B54317FA04FC5CEA0505A2
:1023200091F803C0BCF1280F07D15FF0010C13F145
:10233000080E1CFA0EFCC0F814C091F803C0BCF1E2
:10234000480F07D15FF0010C13F1080E1CFA0EFCC8
:10235000C0F810C05B1CC6E74560F0BD010000205E
:10236000DFF8B422914203D14FF4006210005DE027
:10237000DFF8A822914203D14FF40052100055E03B
:10238000DFF89C22914203D15FF4002210004DE05F
:10239000DFF89022914203D15FF48012100045E0F3
:1023A000DFF88422914203D15FF4001210003DE077
:1023B000B1F1804F02D10122100037E0DFF86C222A
:1023C000914202D10222100030E0DFF864229142F3
:1023D00002D10422100029E0DFF85822914202D1F4
:1023E0000822100022E0DFF85022914202D1102290
:1023F00010001BE0DFF84422914202D1202210009D
:1024000014E0DFF83C22914202D1402210000DE09E
:10241000DFF83022914202D18022100006E0DFF87E
:102420002822914202D14FF48072100070472DE9AA
:10243000F04F85B004000D0016001F00764884425E
:1024400002D07648844206D12000FFF787FF0121A1
:10245000FFF7BCFE05E02000FFF780FF0121FFF73A
:10246000C4FE002D41D10021200000F03BF95FF0B7
:10247000000B6948844202D11920834628E0B4F158
:10248000804F02D11C20834622E06848844202D15A
:102490001D2083461CE06648844202D11E208346EC
:1024A00016E06448844202D13220834610E062483C
:1024B000844202D1362083460AE06048844202D139
:1024C0003720834604E05548844201D12C208346BE
:1024D0008DF804B08DF805608DF8067000208DF839
:1024E000070001A800F05BF992E04B4884420BD052
:1024F0004A48844208D04A48844205D04948844228
:1025000002D04948844203D150480068824602E024
:102510004E4800688246642D0BD242F20F7081460D
:1025200042F21070BAFBF0F0B0FBF5F0401E8046AE
:1025300013E040F6B830854209D26320814664201A
:10254000BAFBF0F0B0FBF5F0401E804605E000203D
:102550008146BAFBF5F0401E8046ADF80C80ADF820
:1025600008900020ADF80E000020ADF80A00002011
:102570008DF8100002A9200000F06AF80121200067
:1025800000F0C9F801220121200000F0B9F8012172
:10259000200000F0A7F85FF0000B1F48844202D132
:1025A0001920834628E0B4F1804F02D11C208346D5
:1025B00022E01E48844202D11D2083461CE01C48B4
:1025C000844202D11E20834616E01A48844202D17A
:1025D0003220834610E01848844202D136208346D8
:1025E0000AE01648844202D13720834604E00B48B3
:1025F000844201D12C2083468DF800B08DF8016013
:102600008DF8027001208DF8030000A800F0C7F8D3
:1026100005B0BDE8F08F0000002C014000340140FF
:10262000004C0140005001400054014000040040B3
:1026300000080040000C0040001000400014004062
:1026400000180040001C00400020004058000020FE
:10265000002203881A00DFF81431984212D0DFF804
:10266000243198420ED0B0F1804F0BD0DFF800310A
:10267000984207D0DFF8FC30984203D0DFF8F830FA
:10268000984204D14FF68F731A404B881A43DFF8F3
:10269000EC30984208D0DFF8E830984204D04FF68A
:1026A000FF431A40CB881A4302808B8883850B88AE
:1026B0000385DFF8B83098420FD0DFF8C830984271
:1026C0000BD0DFF8C430984207D0DFF8C030984212
:1026D00003D0DFF8BC30984201D10B7A0386012386
:1026E00083827047C9B2002904D0028852F00102E7
:1026F000028004E002884FF6FE731A4002807047A1
:10270000D2B2002A03D083890B43838102E08389FC
:102710008B4383817047C9B2002904D0028852F0EC
:102720008002028004E002884FF67F731A40028024
:10273000704730B40200002000230024158A0D40A9
:102740002B0095890D402C009BB2002B05D0A4B224
:10275000002C02D00125280001E000252800C0B28D
:1027600030BC704789B2CA4302827047002C0140D6
:102770000004004000080040000C00400010004031
:10278000001400400034014000400140004401407A
:10279000004801401C4901431C4A11607047F0B4D5
:1027A000002300210F22C478002C20D0174C24686D
:1027B00014F4E064D4F5E064240A2300D3F10404A3
:1027C0002100DA4044788C4023008478144023436D
:1027D0001B0104780E4D6355047864110D4D0126DC
:1027E000077817F01F07BE4045F8246009E0047819
:1027F0006411094D0126077817F01F07BE4045F800
:102800002460F0BC704700000000FA050CED00E009
:1028100000E400E000E100E080E100E080B500F0CD
:102820001AF800F045F800F003F800F08BF801BD4D
:1028300080B501210820FFF7C9FC03208DF80200B4
:1028400010208DF803000420ADF8000000A9904886
:10285000FFF7E8FC01BD8D488E4901608B488E4929
:1028600041608A488D49816088484FF48061818148
:1028700086484FF48061C1818448002101828348E9
:102880000021418281480021C182804800210183CA
:102890007E48002141837D48002181827B480021C0
:1028A000C1617A4800210162784800214162704785
:1028B00000B585B001210520FFF788FC01214FF408
:1028C0008040FFF783FC4FF40070ADF80000182043
:1028D0008DF8030003208DF8020000A97048FFF76F
:1028E000A1FC4FF48060ADF8000004208DF80300D7
:1028F00000A96B48FFF796FC5FF4E13001900020DF
:10290000ADF808000020ADF80A000020ADF80C007A
:102910000020ADF810000C20ADF80E0001A95D48B4
:1029200000F0C0F8012240F225515A4800F03AF96F
:102930000121584800F028F94021564800F075F967
:1029400005B000BD80B525208DF8000001208DF870
:10295000010000208DF8020001208DF8030000A87E
:10296000FFF71DFF01BD38B5040040F22551206876
:1029700000F061F900281DD0206800F042F9050040
:10298000E08AA1684554E08A401CE082E18980B277
:10299000884201D30020E082608BE189884202D224
:1029A000608B401C6083606A002803D02800C0B29E
:1029B000616A884740F22771206800F03CF90028DE
:1029C00023D0A08A00280CD1002240F22771206871
:1029D00000F0E8F8012240F22661206800F0E2F8F9
:1029E0003CE0608A6168415C89B2206800F005F9CA
:1029F000608A401C6082A18980B2884201D3002095
:102A00006082A08A401EA08228E040F226612068F1
:102A100000F011F9002821D0A08A00280BD1002253
:102A200040F22661206800F0BDF8206A002815D029
:102A3000206A804712E0608A6168415C89B2206840
:102A400000F0DBF8608A401C6082A18980B2884275
:102A500001D300206082A08A401EA08231BD80B5D3
:102A60000A48FFF780FF01BD38B504000D002100C2
:102A7000C9B289B2074800F0C0F84021054800F00B
:102A8000C4F80028F9D0200032BD0000B04D00206D
:102A9000000C0140003801405C4400205C480020EC
:102AA000000801402DE9F04786B004000D00002623
:102AB00000275FF000085FF000095FF0000AA889B6
:102AC0000028A246208A06004CF6FF700640E888DF
:102AD00006432682A08906004EF6F3100640A88819
:102AE00029890843698908430643A681A08A06000C
:102AF0004FF6FF400640A8890643A68200A8FFF7CC
:102B0000F7FA2048824502D10398070001E00298B5
:102B10000700A089000408D5192000FB07F02968E8
:102B20004900B0FBF1F0804607E0192000FB07F0F8
:102B300029688900B0FBF1F080466420B8FBF0F012
:102B4000000106003009642101FB10808146A08944
:102B5000000409D55FEAC90032306421B0FBF1F00E
:102B600010F00700064308E05FEA091032306421E4
:102B7000B0FBF1F010F00F000643268106B0BDE86F
:102B8000F087000000380140C9B2002904D08289D2
:102B900052F40052828104E082894DF6FF731A409C
:102BA00082817047F0B4002300240025002640F6FF
:102BB0006A1789B2B94206000F00FFB27F09FFB25F
:102BC0003B0089B211F01F073C000127A7403D00E0
:102BD000012B01D10C3604E0022B01D1103600E0AC
:102BE0001436D2B2002A03D037682F43376002E090
:102BF0003768AF433760F0BC7047CA05D20D82809A
:102C000070478088C005C00D7047020000204FF457
:102C1000007389B2994213880B4202D00123180035
:102C200001E000231800C0B2704789B28A0589B25A
:102C3000CA430280704770B40200002300250024BC
:102C4000002040F66A1689B2B1420E00F6B276094B
:102C5000F6B2340089B211F01F063500012616FACB
:102C600005F5012C02D19689354006E0022C02D1EF
:102C7000168A354001E0968A354089B20E0AB6B20E
:102C80003300012616FA03F316883340002D04D0D2
:102C9000002B02D00126300001E000263000C0B237
:102CA00070BC704780B500F027F900F031F900F0F2
:102CB000B1F800F0EFF8FDF76DFBFEE730B5FDB0C1
:102CC0000400FFF79BF80500EDB2002D24D0EDB213
:102CD000012D21D15FF0FF3172480068FEF779FDC8
:102CE000714800F033F9714800F030F900A8FEF7A0
:102CF00052F800A96E4800F029F96E4800F026F954
:102D000000A8FEF7ABF800A9694800F01FF9654874
:102D10000068FEF73EFDFFE70A20FDF707FBD0E75E
:102D200038B504004FF47A75FDF7E2FB00905FF0D0
:102D3000FF315C480068FEF74CFD5F4800F006F983
:102D40005FF0FF3157480068FEF743FD5B4800F035
:102D5000FDF85FF0FF3153480068FEF73AFD584830
:102D600000F0F4F8022000F05AF9032000F057F9BF
:102D70004C480068FEF70DFD4A480068FEF709FD63
:102D800048480068FEF705FD290000A8FDF776FA1F
:102D9000CDE738B5040040F2DC55FDF7A9FB009003
:102DA0005FF0FF313F480068FEF713FD454800F033
:102DB000CDF85FF0FF313B480068FEF70AFD42485E
:102DC00000F0C4F85FF0FF3136480068FEF701FDFF
:102DD0003E4800F0BBF8012000F021F9042000F08B
:102DE0001EF930480068FEF7D4FC2E480068FEF754
:102DF000D0FC2C480068FEF7CCFC290000A8FDF7A9
:102E00003DFACDE710B50400FFF764F90A20FDF79D
:102E10008DFAF9E700B585B00020039000200290FC
:102E2000002001900120009000234FF400722849F7
:102E30002848FDF77DF900200390002002902648E5
:102E400001900220009000234FF40072234924488F
:102E5000FDF76EF9002003900020029021480190B8
:102E60000320009000234FF400721F491F48FDF714
:102E70005FF90020039000200290002001900420C0
:102E8000009000234FF4007219491A48FDF750F9D9
:102E900005B000BD80B50420FEF748FC014908607C
:102EA00001BD0000704E0020CC3300080034000843
:102EB000B035000830340008BC3200080433000884
:102EC0004C330008D8310008243200087032000862
:102ED0005C350008BD2C0008684E002068350008ED
:102EE000212D00086C4E002074350008932D000839
:102EF00080350008052E000880B54FF44070FFF7BC
:102F000049FCFFF78BFC00F033F8FEF75FFF01BDD3
:102F100080B50023012244F620610A48FFF787FAB2
:102F200001BD80B501210748FFF703FC002808D048
:102F300005480068401C0449086001210148FFF76A
:102F400011FC01BD00100040544E00200EB400B52D
:102F500082B003A9009100AB0246012103487844E6
:102F60000A30FEF756FB06BC5DF810FBAD0500000D
:102F700080B501218020FFF729F9012000F02FF80A
:102F8000022000F02CF8032000F029F8042000F0C3
:102F900026F803208DF8020010208DF803004FF46E
:102FA0000060ADF8000000A93248FFF73BF980202F
:102FB000ADF8000000A92F48FFF734F94FF48070F6
:102FC000ADF8000000A92B48FFF72CF94FF4007072
:102FD000ADF8000000A92748FFF724F901BD401E05
:102FE000C0B2002804D124494FF400620A6015E001
:102FF000C0B2012803D1204980220A600EE0C0B28D
:10300000022804D11C494FF480720A6006E0C0B265
:10301000032803D118494FF400720A607047C0B208
:10302000012806D11549096891F40061134A11601D
:103030001EE0C0B2022806D11049096891F0800153
:103040000E4A116014E0C0B2032807D10B49096889
:103050004FF480725140094A116009E0C0B204285F
:1030600006D1064909684FF400725140034A1160C5
:1030700070470000001C0140101C01400C1C014066
:1030800080B54E48006850F001004C4908604C483B
:1030900000684C4908404A490860484800684A4965
:1030A0000840464908604548006830F4802043499C
:1030B00008604348006830F4FE0041490860434816
:1030C0005FF41F01016000F005F841485FF0006106
:1030D000016001BD80B500F001F801BD82B00020A3
:1030E0000190002000903548006850F4803033494A
:1030F00008603248006810F4003000900198401CCD
:1031000001900098002803D10198B0F5A06FF0D18C
:103110002A480068800302D50120009001E00020C9
:1031200000900098012847D12A48006850F010000C
:103130002849086027480068800880002549086001
:103140002448006850F00200224908601C481C49CD
:10315000096801601A481A4909680160184800683E
:1031600050F48060164908601548006830F47C10FF
:10317000134908601248006850F4E81010490860CC
:103180000E48006850F080700C4908600B480068D9
:103190008001FBD50A480068800880000849086063
:1031A0000748006850F002000549086004480068BC
:1031B00010F00C000828F9D102B07047001002404E
:1031C000041002400000FFF8FFFFF6FE0810024066
:1031D00008ED00E000200240C8CECEF176546173C5
:1031E0006B4D736750726FD4DAD4CBD0D0A3ACB52B
:1031F000DA31B2E3B1BBB1A3BBA4B5C4D7CAD4B46E
:10320000A3ACD3C3BBA7BFC9D2D4D4DAD5E2C0EF35
:10321000CCEDBCD3B1BBB1A3BBA4D7CAD4B40D0A07
:1032200000000000C8CECEF1765461736B4D736719
:1032300050726FD4DAD4CBD0D0A3ACB5DA32B2E3CB
:10324000B1BBB1A3BBA4B5C4D7CAD4B4A3ACD3C3D8
:10325000BBA7BFC9D2D4D4DAD5E2C0EFCCEDBCD382
:10326000B1BBB1A3BBA4D7CAD4B40D0A00000000FF
:10327000C8CECEF1765461736B4D736750726FD4C4
:10328000DAD4CBD0D0A3ACB5DA33B2E3B1BBB1A3BF
:10329000BBA4B5C4D7CAD4B4A3ACD3C3BBA7BFC95E
:1032A000D2D4D4DAD5E2C0EFCCEDBCD3B1BBB1A35C
:1032B000BBA4D7CAD4B40D0A00000000C8CECEF11A
:1032C000765461736B4C4544D4DAD4CBD0D0A3ACE4
:1032D000B5DA31B2E3B1BBB1A3BBA4B5C4D7CAD48C
:1032E000B4A3ACD3C3BBA7BFC9D2D4D4DAD5E2C090
:1032F000EFCCEDBCD3B1BBB1A3BBA4D7CAD4B40D42
:103300000A000000C8CECEF1765461736B4C454480
:10331000D4DAD4CBD0D0A3ACB5DA32B2E3B1BBB1FE
:10332000A3BBA4B5C4D7CAD4B4A3ACD3C3BBA7BFF3
:10333000C9D2D4D4DAD5E2C0EFCCEDBCD3B1BBB1A5
:10334000A3BBA4D7CAD4B40D0A000000C8CECEF1E6
:10335000765461736B4C4544D4DAD4CBD0D0A3AC53
:10336000B5DA33B2E3B1BBB1A3BBA4B5C4D7CAD4F9
:10337000B4A3ACD3C3BBA7BFC9D2D4D4DAD5E2C0FF
:10338000EFCCEDBCD3B1BBB1A3BBA4D7CAD4B40DB1
:103390000A0000007047084800221100C9B22A291B
:1033A00009D2C9B20A5C054B1A80054A1288520636
:1033B000FBD5491CF2E7FEE75C3400080438014005
:1033C00000380140FEE7FEE7FEE770473D3D3D3D2A
:1033D0003D3D3D3D3D3D3D3D3D3D3D3D3D3D3D3D1D
:1033E0003D3D3D3D3D3D3D3D3D3D3D3D3D3D3D3D0D
:1033F0003D3D3D3D3D3D3D3D3D3D3D3D3D0D0A009D
:10340000C8CECEF1C3FB202020202020C8CECEF194
:10341000D7B4CCAC20D3C5CFC8BCB6202020CAA31B
:10342000D3E0D5BB20C8CECEF1D0F2BAC50D0A008C
:103430000D0AC8CECEF1C3FB20202020202020D4AE
:10344000CBD0D0BCC6CAFD202020202020202020A8
:10345000CAB9D3C3C2CA0D0A000000000D0A456EE6
:1034600074657220486172644661756C745F48616E
:103470006E646C65722C2053797374656D2048619D
:103480006C742E0D0A00000010B5084979441C31F7
:10349000074C7C441A34A14206D0081D0A68511812
:1034A00088470146A142F8D110BD00BF08000000C6
:1034B000280000001FE0FFFF604E00005C000020BD
:1034C0000000000077DDFFFF5C0000000C02000040
:1034D000000000200000000000F009F8002801D0E2
:1034E000FFF7D2FF0020FFF7DDFB00F002F801201C
:1034F000704700F001B800000746384600F002F8B7
:10350000FBE7000080B5C046C046024A1100182003
:10351000ABBEFBE72600020038B504460D46284640
:1035200000F006F8A84218BF0024204632BD000073
:103530000149FFF799BA00BF00000020092563097F
:1035400025750925750925750D0A00000148804774
:103550000148004781300008A535000876546173A2
:103560006B55736572494600765461736B4C4544E4
:1035700000000000765461736B4D736750726F00EA
:10358000765461736B537461727400000925750978
:1035900009257525250D0A0009257509093C3125E0
:1035A000250D0A00C046C046C046C046FFF794FF3E
:1035B00025730D0A0000000049444C45000000003E
:1035C00008000000FFF7E6BEFFF7E5BEFFF7FABE12
:1035D000FFF7F9BEFFF7F8BEFDF7FBBCFFF7F5BE3E
:1035E000FDF7CEBCFDF7AABDFFF7FEBFFFF7FEBF9C
:1035F000FFF7FEBFFFF7FEBFFFF7FEBFFFF7FEBFFF
:10360000FFF7FEBFFFF7FEBFFFF7FEBFFFF7FEBFEE
:10361000FFF7FEBFFFF7FEBFFFF7FEBFFFF7FEBFDE
:10362000FFF7FEBFFFF7FEBFFFF7FEBFFFF7FEBFCE
:10363000FFF7FEBFFFF7FEBFFFF7FEBFFFF7FEBFBE
:10364000FFF7FEBFFFF7FEBFFFF7FEBFFFF7FEBFAE
:10365000FFF7FEBFFFF7FEBFFFF7FEBFFFF7FEBF9E
:10366000FFF7FEBFFFF7FEBFFFF7FEBFFFF7FEBF8E
:10367000FFF7FEBFFFF7FEBFFFF7FEBFFFF7EFB993
:10368000FFF7FEBFFFF7FEBFFFF7FEBFFFF7FEBF6E
:10369000FFF7FEBFFFF7FEBFFFF7FEBFFFF7FEBF5E
:1036A000FFF7FEBFFFF7FEBFFFF7FEBFFFF7FEBF4E
:1036B000FFF7FEBFFFF7FEBFFFF7FEBFFFF7FEBF3E
:1036C000FFF72FBCFFF7FEBFFFF7FEBFFFF7FEBF00
:1036D000FFF7FEBFFFF7FEBF02040101604D0020AF
:1036E000B04D0020604D0020604D0020604D002056
:1036F0003D00002024000020000000000000000029
:1037000000000000000000000000000000000000B9
:10371000000000000000000000000000010203049F
:103720000102030406070809AAAAAAAA02040608B5
:0437300000A24A04A5
:04000005080035A515
:00000001FF
