:020000040800F2
:10000000D0560020313400086532000867320008FD
:10001000953200089732000899320008000000006D
:10002000000000000000000000000000230F000896
:100030009B32000800000000D10E00088D1000085F
:10004000D1340008D5340008D9340008DD34000864
:10005000E1340008E5340008E9340008ED34000814
:10006000F1340008F5340008F9340008FD340008C4
:100070000135000805350008093500080D35000870
:100080001135000815350008193500081D35000820
:100090002135000825350008293500082D350008D0
:1000A0003135000835350008393500083D35000880
:1000B000892C000845350008493500084D350008F1
:1000C0005135000855350008593500085D350008E0
:1000D00061350008F7280008693500086D3500080B
:1000E0007135000875350008793500087D35000840
:1000F0008135000885350008893500088D350008F0
:100100009135000895350008993500089D3500089F
:10011000A1350008A53500085F2F0008AD3500089F
:10012000B1350008B5350008B9350008BD350008FF
:100130002DE9FB4F834614000C9D0D9E0F9F5846E2
:10014000002802D100F0E3FEFEE7052D02D300F007
:10015000DEFEFEE70E99200080B200F0ABFC814687
:10016000B9F1000F74D0A4B2D9F8300010EB8400BC
:10017000001F82465FEADA0A5FEACA0A1AF007003D
:10018000002802D000F0C3FEFEE7A4B200943B00BA
:100190002A000199484600F0C9FB029A5946504688
:1001A00000F0E0FEC9F80000002E01D0C6F8009073
:1001B00000F03FFFDFF820060068401CDFF818164B
:1001C0000860DFF8C406006800280BD1DFF8B80625
:1001D000C0F80090DFF800060068012811D100F097
:1001E000DEFB0EE0DFF870060068002809D1DFF8BA
:1001F00098060068C06A854203D3DFF88C06C0F811
:100200000090DFF858060068401CDFF850160860C0
:10021000DFF848060068C9F84400DFF844060068C3
:100220000121D9F82C2091400843DFF834160860EA
:1002300019F10401D9F82C001422DFF8283602FB4A
:10024000003000F087FF0120804600F00AFF02E046
:100250005FF0FF308046B8F1010F0CD1DFF8F805F0
:100260000068002807D0DFF820060068C06AA842AE
:1002700001D200F0D5FE4046BDE8FE8F2DE9F843DF
:1002800004000D005FF00008002C02D100F03FFEDA
:10029000FEE7002D02D100F03AFEFEE7DFF80C0881
:1002A0000068002802D000F032FEFEE700F0A2F85D
:1002B000DFF87406D0F8009020682818060020683F
:1002C000814507D2206886420BD2B14509D2012070
:1002D000804606E02068864201D3B14501D2012064
:1002E00080462660B8F1000F17D0DFF89C05006843
:1002F000001D00F058FF00280CD1DFF864050068ED
:100300000121DFF884251268D26A91408843DFF822
:1003100050150860300000F0A3FB00F073F80700F0
:10032000002F01D100F07CFEBDE8F18370B5040020
:100330000026002C29D0DFF874070068002802D0BE
:1003400000F0E5FDFEE700F055F8DFF8DC05006899
:1003500020180500DFF830050068001D00F023FFBD
:1003600000280CD1DFF8F80400680121DFF8182517
:100370001268D26A91408843DFF8E41408602800CC
:1003800000F06EFB00F03EF80600002E01D100F0F8
:1003900047FE70BD1FB50020039000200290002092
:1003A00001900020009000238222DFF808190FF24C
:1003B0006150FFF7BDFE0400012C15D100F0A7FD30
:1003C000DFF8F4085FF0FF310160DFF88C040121F1
:1003D0000160DFF8540500210160DFF8A00A002168
:1003E000016000F0D9FD04E0002C02D100F08FFD87
:1003F000FEE71FBDDFF8B4060068401CDFF8AC164E
:1004000008607047F8B50025DFF8A00600680028EE
:1004100002D100F07CFDFEE700F00BFEDFF88C0659
:100420000068401EDFF884160860DFF88006006868
:10043000002859D1DFF8A0030068002854D0DFF865
:100440007008006800282CD0DFF86408C068C06815
:10045000040014F1180000F0A6FE0600201D00F0B4
:10046000A2FE0700DFF8F80300680121E26A91406C
:100470000843DFF8EC130860211DE06A1422DFF85E
:10048000E43302FB003000F065FEE06ADFF8F813A9
:100490000968C96A8842D2D3DFF8EC0901210160FA
:1004A000CDE7DFF804090068002814D0DFF8F80869
:1004B000006800280FD000F071F8002803D0DFF8A2
:1004C000C80901210160DFF8E0080068401EDFF87C
:1004D000D8180860EAE7DFF8B0090068012803D1FE
:1004E0000120050000F09CFD00F0BBFD2800F2BDDE
:1004F000DFF834140968080070472DE9F041040062
:100500000D00160000275FF00508FFF773FFB248E3
:10051000006885423CD3B8F1010801221420DFF8BD
:10052000441300FB081114EB471000F0E9FAC0195E
:100530000700B8F1000FEED10222DFF8440901688C
:1005400014EB471000F0DCFAC01907000222DFF8B4
:100550003409016814EB471000F0D2FAC019070003
:100560000422DFF8281314EB471000F0C9FAC01971
:1005700007000322DFF8381514EB471000F0C0FA2B
:10058000C0190700002E03D0DFF8040900683060AE
:10059000FFF738FF01003800BDE8F0812DE9F04198
:1005A0000026DFF80805006800287AD1DFF8780314
:1005B0000068401CDFF870130860DFF86C03076800
:1005C000002F1FD1DFF8B80800680068002802D0AB
:1005D00000F09DFCFEE7DFF8A80800688046DFF821
:1005E000A008DFF8A01809680160DFF89808C0F8D3
:1005F0000080DFF898080068401CDFF89018086059
:1006000000F0ECFADFF8B006006887423CD3DFF870
:10061000700800680068002805D1DFF89C065FF0CC
:10062000FF31016030E0DFF858080068C068C0683A
:10063000040060680500AF4203D2DFF87C06056065
:1006400022E0201D00F0AFFDA16A002903D014F1C3
:10065000180000F0A8FD824800680121E26A91407C
:1006600008437F490860211DE06A14227D4B02FB8C
:10067000003000F06FFDE06A83490968C96A88426A
:10068000C5D301200600C2E77F480068C06A142174
:10069000744A01FB00200068022809D301200600EB
:1006A00006E0DFF804070068401CDFF8FC1608606D
:1006B000DFF8D4070068002801D0012006003000D0
:1006C000BDE8F08110B5DFF8E4030068002804D02D
:1006D000DFF8B4070121016048E0DFF8AC07002132
:1006E0000160DFF8B007DFF8941709680160DFF8F0
:1006F000A8070068DFF89C17096888420BD2624897
:100700000068416DDFF88C2712685118DFF88827E0
:100710001268891A4165DFF88007DFF878170968E1
:1007200001604F480068B0FA80F0D0F11F0004006B
:1007300014204C4900FB04100068002802D100F08E
:10074000E6FBFEE71421474A01FB0421080041684B
:1007500049684160416810F10802914202D1416844
:10076000496841604068C0684749086010BD70B57D
:1007700004000D00002C02D100F0C9FBFEE7424846
:10078000006810F11801200000F0F0FC3E480068FD
:10079000001D00F008FD002809D131480068012142
:1007A000394A1268D26A914088432D49086015F190
:1007B000010F07D134480068011DDFF8F40200F092
:1007C000C9FC07E0DFF8D8060068281806003000EA
:1007D00000F046F970BD0000984E0020F8B5040006
:1007E000E068C0680500002D02D100F090FBFEE734
:1007F00015F1180000F0D7FCAC490968002914D1A4
:10080000281D00F0D0FC0700154800680121EA6AA5
:100810009140084312490860291DE86A1422114BCF
:1008200002FB003000F096FC05E015F11801DFF83E
:10083000800400F08FFC14480068C06AE96A8842AE
:1008400006D201200600DFF854060121016001E014
:10085000002006003000F2BDA44E0020B44E00205F
:10086000A04E0020FC4C002010B50400002C02D14A
:1008700000F04DFBFEE7DFF8140600682060DFF8AB
:1008800020060068606010BD884E0020144E0020D5
:10089000F8B504000D00002C02D100F038FBFEE793
:1008A000002D02D100F033FBFEE700F0C2FB1E4832
:1008B0000768286810F1010F02D1002006001DE032
:1008C000DFF8C80500682168884205D06068874263
:1008D00002D30120060011E06068381A29688842B6
:1008E0000AD22868C01B6168081828602000FFF73A
:1008F000BBFF0020060001E00120060000F0B1FB74
:100900003000F2BDDFF8940501210160704700005E
:1009100010B5040000F06FF8DFF88C0500680228BD
:10092000F8D300F07DFBF5E79C4E00202DE9F8435D
:1009300005000E0017009846089C00208146B9F17A
:10094000100F0CD219EB050019F8061080F83410BE
:1009500019F80600002802D019F10109EFE700207C
:1009600085F84300052F01D304200700EF62EF64F0
:1009700000202865281D00F0EAFB15F1180000F0A2
:10098000E6FB2D61D7F10500A8616D620020686566
:100990000020A865002085F85C00BDE8F18310B553
:1009A00000200400052C08D21420DFF8FC1400FB02
:1009B000041000F0BDFB641CF4E7DFF8F00400F065
:1009C000B7FBDFF8EC0400F0B3FBDFF8E40200F063
:1009D000AFFBDFF8E00400F0ABFB354800F0A8FB0C
:1009E000DFF89C04DFF8C4140160DFF89804DFF836
:1009F000C014016010BD70B5DFF8BC0400680028A9
:100A00002DD0FFF7F7FCDFF8AC040068002801D117
:100A1000012400E00024E4B2FFF7F4FC002CEBD149
:100A200000F007FBDFF88C04C068C0680500281DD3
:100A300000F0B9FB0600DFF884040068401EDFF810
:100A40007C140860DFF870040068401EDFF868144A
:100A5000086000F006FB280000F0B7F8CCE770BD96
:100A600010B50400DFF8580400684460DFF8300473
:100A70000068844209D2DFF848040068011DDFF8ED
:100A80000404006800F072FB0EE0DFF83404006834
:100A9000011DDFF8EC03006800F068FB8648006881
:100AA000844201D28448046010BD0000BC4E002086
:100AB000284E0020F8B504000D00002D04D1A4B28A
:100AC000A00000F09BFB00E028000700002F0BD0E7
:100AD000602000F093FB0600002E01D0376305E094
:100AE000380000F00AFC01E000200600002E05D0CE
:100AF000A4B2A200A521306B00F0AAFC3000F2BD28
:100B00002DE9F84304000D0016005FF00009286885
:100B100000284CD02800416849684160416810F1C4
:100B20000802914202D14168496841604068C0684A
:100B300080462800416849684160416810F1080218
:100B4000914202D14168496841604068C06807002D
:100B50005FEA4910075114EB491007F23401416074
:100B600014EB4910796C816014EB4910067314EB97
:100B70004910F96A0161F6B2032E06D1B86A00285D
:100B800003D014EB49100221017314EB4910F96CE6
:100B9000416114EB4910796D8161386B00F00AF8FE
:100BA00014EB4911888319F101094745C1D1484621
:100BB000BDE8F283010000200A78A52A02D1491C71
:100BC000401CF9E7800880B2704710B50400206B24
:100BD00000F093FB200000F090FB10BDA8490968CD
:100BE0000968002904D134495FF0FF320A6007E048
:100BF000A3490968C968C968080041682E4A11609C
:100C0000704738B504002500002C4FD0E86ADFF8A3
:100C1000B0120968C96A884248D2A869002806D477
:100C2000DFF89C020068C06AD0F10500A86168691D
:100C3000E96A1422DFF8703202FB0131884230D1B8
:100C4000281D00F0B0FA002812D1E86A1421DFF85C
:100C5000582201FB00200068002809D1DFF8440277
:100C600000680121EA6A91408843DFF83812086081
:100C7000DFF84C020068C06AE862DFF8280200680A
:100C80000121EA6A91400843DFF818120860291D23
:100C9000E86A1422DFF8103202FB003000F05AFA42
:100CA00004E0DFF81C020068C06AE86231BD0000A1
:100CB000004E00209C340008B84E002070B504009F
:100CC0000D002900200000F0DFFB200000F0FEFBFB
:100CD00006000F2E03DA20203055761CF9E700209D
:100CE0003055301970BD7FB5040000202070DFF84A
:100CF000CC0100680390DFF8C4010068400100F0F7
:100D00007DFA0500002D4ED0002203992800FFF740
:100D1000F4FB0390002002900298039988423FD28E
:100D2000029815EB4010007B012806D011D3032850
:100D300009D005D3042809D00BE0522006000AE0B0
:100D40004220060007E05320060004E0442006008D
:100D500001E000200600029815EB401041682000D9
:100D6000FFF7ACFF0400029815EB4010806801907B
:100D7000029815EB4010808B0090029815EB401004
:100D80000369F6B23200DFF83C11200000F0BEFB30
:100D9000200000F09BFB04190298401C0290BBE766
:100DA000280000F0AAFA7FBDA84E002070B584B0DC
:100DB000040000202070DFF8040100680290DFF8D2
:100DC000FC000068400100F019FA0500002D44D035
:100DD00001AA02992800FFF790FB02900198642174
:100DE000B0FBF1F001900198002833D00020009072
:100DF0000098029988422DD2009815EB4010806926
:100E00000199B0FBF1F00600009815EB4010416825
:100E10002000FFF753FF0400002E0AD03300009893
:100E200015EB40108269DFF8A010200000F06EFB87
:100E300008E0009815EB40108269DFF89010200060
:100E400000F064FB200000F041FB04190098401CF6
:100E50000090CDE7280000F050FA7FBDDFF8600079
:100E60000068002805D0DFF858000068016D491CB3
:100E70000165DFF84C00006870470000544E002008
:100E80008C4E0020904E0020AC4E0020B04E002032
:100E9000544E0020C44E0020C04E0020AC4E002016
:100EA0009C4E0020A04E0020FC4C0020D84D00207D
:100EB000EC4D0020144E0020944E0020984E00204F
:100EC000884E002020340008703400087C3400086C
:100ED000EFF30980BFF36F8F204B1A6820E9F00F02
:100EE000106008B54FF0100080F31188FFF7EAFB9F
:100EF0004FF0000080F31188BDE8084019680868C9
:100F0000B0E8F00F80F30988BFF36F8F7047EFF3FD
:100F100011804FF0100181F31188704780F3118820
:100F200070470E4B19680868B0E8F00F80F3098825
:100F3000BFF36F8F4FF0000080F311884EF00D0E5D
:100F4000704707480068006880F3088862B661B699
:100F5000BFF34F8FBFF36F8F00DF0000884E00207C
:100F600008ED00E0001F5FF080730360001F016068
:100F7000001F0FF20D030360143802602038704721
:100F800080B56048006810F1010F02D0FFF7BFFF85
:100F9000FEE7FFF7BCFFFEE700B583B05A480178D3
:100FA0000191FF21017001788DF800109DF800106B
:100FB00011F01001554A1170554907220A609DF839
:100FC000001009060AD552490968491E504A1160A5
:100FD0009DF8001049008DF80010F0E74C490968B1
:100FE00009024B4A11604A49096811F4E061484A14
:100FF0001160019901704748006850F4700045493C
:1010000008604448006850F070404249086000F0B1
:101010004DF83C4800210160FFF793FF00200EBD12
:101020003D485FF080510160BFF34F8FBFF36F8F7A
:10103000704780B5FFF76BFF32480068401C3149AC
:101040000860BFF34F8FBFF36F8F2E4800680128F1
:1010500006D131480068000602D0FFF758FFFEE7CE
:1010600001BD80B527480068002802D1FFF74FFF77
:10107000FEE724480068401E2249086021480068B5
:10108000002802D10020FFF749FF01BD10B5FFF78E
:101090003EFF0400FFF782FA002803D01E485FF0ED
:1010A000805101600020FFF739FF10BD1B48006828
:1010B0004FF47A71B0FBF1F0401E194908601948ED
:1010C000072101607047000038B5EFF30580040088
:1010D000102C0BD314480068205C05000B480078E6
:1010E000EDB2854202D2FFF712FFFEE70848006822
:1010F0000E49096811F4E061884202D2FFF707FF48
:10110000FEE731BD5000002000E400E0C84E0020A2
:10111000844E002020ED00E004ED00E058000020A7
:1011200014E000E010E000E0A83400080CED00E05E
:1011300010F1080141605FF0FF31816010F108019A
:10114000C16010F1080101610021016070470021B8
:101150000161704742684A6093688B609368596088
:101160009160086103685B1C0360704710B40B68F2
:1011700013F1010F02D10469220008E010F1080404
:10118000220054682468A34201D35268F9E75468E6
:101190004C604C68A1608A60516008610468641CFE
:1011A000046010BC7047010008694A688B6893604E
:1011B0008A684B68536042688A4201D18A684260FB
:1011C00000220A610268521E02600068704710B473
:1011D00050F8041B81B102681218001D50F8043B3E
:1011E000DC0744BFA9F10104E31852F8044B43F8AB
:1011F000044B091FF9D1EBE710BC70472DE9F04112
:1012000004005FF00008FFF7F5F88A48006800283E
:1012100001D100F0A5F888480068044261D1002C93
:1012200012D086480068041914F0070000280BD07B
:1012300014F1080014F00701441A14F00700002804
:1012400002D0FFF764FEFEE7002C4AD07C4800681D
:10125000A04246D37B4806007A48006805006868CB
:10126000A04205D22868002802D02E002D68F6E79B
:1012700070480068854234D0704800683168401872
:101280008046286830606D48006840006968091B26
:1012900088420FD26019070017F00700002802D01B
:1012A000FFF735FEFEE76868001B78606C60380069
:1012B00000F08EF8624800686968401A604908606A
:1012C0005F48006860490968884203D25E485C490B
:1012D0000968016068685849096808436860002027
:1012E0002860FFF78FF818F00701002902D0FFF7F8
:1012F0000EFEFEE74046BDE8F08170B50400260012
:10130000002C2CD04D480068404286193500686892
:1013100049490968084202D1FFF7F9FDFEE728684C
:10132000002802D0FFF7F3FDFEE76868424909682C
:10133000084214D02868002811D168683E4909681D
:1013400088436860FFF756F83D48006869680818E8
:101350003B490860280000F03BF8FFF753F870BDE8
:1013600030B44FF48843394C220012F00704002CAB
:1013700005D0D21DD208D2009B1A344CE3181100BC
:10138000304C21602F4C002565605C1822002B4CEE
:101390002468121BD208D200264C2260254C2468F7
:1013A00000256560234C2468002525600800141A78
:1013B0004460204C246804604468234D2C604468D9
:1013C0001F4D2C601C4C5FF00045256030BC704701
:1013D00010B41C4B1A001368834201D21268FAE75A
:1013E000110053685B18834204D153684468E318C2
:1013F00053601000010043685B181468A34211D1C8
:1014000013680C4C2468A34208D0436814686468CD
:10141000E318436013681B68036005E0054B1B6815
:10142000036001E013680360824200D0106010BCCA
:1014300070470000684E0020744E0020A43400085D
:101440006C4E00204C4E0020704E00205C000020AE
:1014500070B504000D0016002A003100200000F0D5
:101460006FF8200070BD50F8041B61B150F8042BD8
:10147000D30744BFA9F101039A18002342F8043BA3
:10148000091FFAD1EFE770475FEA000C830706D027
:1014900011F8013B00F8013BB3B18307F8D10A68AA
:1014A000B2F1013323EA020313F0803F02BF40F898
:1014B000042B51F8042FF3E711F8013B00F8013B2E
:1014C00013B111F8013BF9E76046704700F10103E1
:1014D000810704D010F8011B89B18107FAD1026895
:1014E000B2F10131914311F0803F04BF50F8042F55
:1014F000F6E710F8011B11B110F8011BFBE7C01A49
:1015000070470268531C0360117070470CB41CB51F
:10151000044604A80190009401AB0A4600A90748BC
:101520007844183000F03FF8009900220A70002833
:101530005CBF0098001B16BC5DF80CFBC7FFFFFFEB
:1015400062F30F2262F31F42401810F0030308D029
:10155000C91A1FD3DB0748BF00F8012D28BF20F8A8
:10156000022D130030B414461546103928BF20E967
:101570003C00FAD8490728BF20E90C0048BF40F8D2
:10158000042D890028BF20F8022D48BF00F8012D46
:1015900030BC7047C91818BF00F8012DCB0728BF11
:1015A00000F8012D70472DE9F04784B08146884648
:1015B00014461E460DF1000A04E014F8011B4046D3
:1015C000C8478046207810B904B0BDE8F0872528C8
:1015D000F3D1641C14F8015B252D6FD0582D51D028
:1015E000632D0ED0642D18BF692D10D06F2D49D0FA
:1015F000702D4CD0732D50D0752D18BF782D41D043
:10160000E0E73068011D31600168C9B2D7E7306892
:10161000011D31600768002F03D52D214046C847C2
:1016200080466F2D08BF082105D045F0200078289E
:1016300014BF0A2110210B203A46642D02D1002F3D
:1016400048BF5242431E1846B2FBF1FC01FB1C226C
:101650003032D2B23A2A24BFA5F1510E724403F8B7
:101660000A2062460AB10128ECDAC0F10B0500A994
:1016700047184046002DA4D017F8011BC8476D1E1F
:10168000FAD19EE73068011D31600768C9E730680C
:10169000011D316007687825C3E73068011D31609E
:1016A00005682846FFF712FF07464046002F88D0FE
:1016B00015F8011BC8477F1EFAD182E725217EE776
:1016C000DFF8CC03006880040BD4DFF8C80300689F
:1016D000C00706D4DFF8C0030068C00501D50120AB
:1016E00000E000207047DFF8A803006880040BD5F5
:1016F000DFF8A0030068C00706D5DFF89C03006888
:10170000C00501D5012000E000207047DFF880030C
:10171000006880040BD5DFF87C030068C00706D49E
:10172000DFF874030068C00501D4012000E0002048
:101730007047DFF85C03006880040BD4DFF85403C3
:101740000068C00706D5DFF850030068C00501D562
:10175000012000E000207047DFF8340300688004B7
:101760000BD5DFF830030068C00706D5DFF8280383
:101770000068C00501D4012000E000207047DFF8B8
:1017800018030068000401D4012000E00020704725
:10179000DFF808030068000701D4012000E0002002
:1017A0007047DFF8F4020068400401D4012000E033
:1017B00000207047DFF8E0020068800401D40120B7
:1017C00000E000207047DFF8D0020068000601D476
:1017D000012000E00020704780B500F07AF800F0AA
:1017E0002EF801BDDFF8B812C97ADFF8B4228854A8
:1017F000AB49C97A491CAA4AD172C9B20A2902D393
:10180000A7490022CA727047A548807AA44AD27AB2
:10181000904201D1002011E0A148807AA04A805C6A
:1018200001009F48807A401C9D4A9072C0B20A28ED
:1018300002D39B48002282720800C0B2704780B574
:1018400001214FF49A7000F0C7F903208DF80200CF
:1018500004208DF803004FF40050ADF8000000A9FB
:10186000914800F0E5F90120ADF8000000A98F488B
:1018700000F0DEF94FF48070ADF8000000A98C484C
:1018800000F0D6F94FF40040ADF8000000A98848F8
:1018900000F0CEF90820ADF8000000A9854800F05E
:1018A000C7F94FF48040ADF8000000A9804800F06F
:1018B000BFF94FF40050ADF8000000A97C4800F0DB
:1018C000B7F98020ADF8000000A9794800F0B0F920
:1018D00001BD734900228A7271490022CA7270499F
:1018E00000220A7300210800C0B20A281FD2C0B229
:1018F0006C4911EB001164220A81C0B2694911EBF5
:10190000001102220A71C0B2664911EB00110022D7
:101910008A72C0B2634911EB00110022CA72C0B2D0
:10192000604911EB001100220A73401CDCE75D499D
:1019300064220A875B49052281F83B2059496422C9
:10194000A1F848205749052281F84B2055496422C7
:10195000A1F858205349052281F85B20514964229F
:10196000A1F868204F49052281F86B204D49524A61
:101970000A604C49514A0A614A49514A0A62494936
:10198000504A0A634749504A0A6446494F4A0A6521
:1019900044494F4A0A6643494E4A0A6741494E4AFA
:1019A000C1F880203F494D4AC1F89020704738B5B2
:1019B0000400E4B23B4810EB04100500286880479F
:1019C000002845D02879052802D2052028715DE03D
:1019D00028790A2803D22879401C287156E0A87A71
:1019E000002809D10120A872E4B2032000FB04F012
:1019F000401CC0B2FFF7F6FE2889012846D3E888CC
:101A0000298988420FD2E888401CE880298980B261
:101A100088423BD1E4B2032000FB04F0C01CC0B2FA
:101A2000FFF7E0FE32E0E87A01282FD3287B401C44
:101A30002873E97AC0B2884228D300202873E4B220
:101A4000032000FB04F0401CC0B2FFF7CBFE1DE0FA
:101A50002879062802D30520287113E02879002868
:101A600003D02879401E28710CE0A87A012809D1FA
:101A70000020A872E4B2032000FB04F0801CC0B276
:101A8000FFF7B0FE0020E8800020287331BD000081
:101A900008100140080801400820014008140140D6
:101AA0003C4E00205C4C002000100140000801402A
:101AB0000020014000140140C1160008E71600088C
:101AC0000D1700087F17000891170008A3170008DA
:101AD000B5170008C7170008331700085917000882
:101AE00010B500200400E4B20A2C05D22000C0B2D8
:101AF000FFF75DFF641CF6E710BD000030B4002165
:101B0000002200230024434D2D6815F00C05290008
:101B10000D00002D04D0042D05D0082D06D026E0A0
:101B20003D4D056025E03C4D056022E0394D2D68B6
:101B300015F470152A00374D2D6815F480352B00EB
:101B4000920C921C002B04D1344D05FB02F505606C
:101B50000CE0304D2D68AD0304D5304D05FB02F58A
:101B6000056003E02C4D05FB02F5056001E02A4D00
:101B70000560284D2D6815F0F00529000909284D4C
:101B80004D5D2C000568E5404560224D2D6815F43B
:101B9000E0652900090A224D4D5D2C004568E540AD
:101BA00085601C4D2D6815F460552900C90A1C4D2F
:101BB0004D5D2C004568E540C560164D2D6815F457
:101BC00040452900890B174D4D5D2C00C568B5FBBC
:101BD000F4F5056130BC7047C9B2002905D0124A3E
:101BE00012680243104B1A6004E00F4A12688243E5
:101BF0000D4B1A607047C9B2002905D00B4A126814
:101C000002430A4B1A6004E0084A12688243074BF9
:101C10001A6070470410024000127A0000093D006B
:101C20004000002054000020181002401C10024008
:101C3000F0B500270022002300240025002691F89B
:101C400003C01CF00F0C674691F803C05FEACC6C30
:101C500003D591F802C05CEA070791F800C05FEA7B
:101C60000C6C3AD0D0F800C065465FF0000C6346BB
:101C7000082B31D25FF0010C1CFA03FC6446B1F86A
:101C800000C014EA0C0C6246A24223D15FEA830C26
:101C900064465FF00F0C1CFA04FC6646B54317FA65
:101CA00004FC5CEA050591F803C0BCF1280F06D1DD
:101CB0005FF0010C1CFA03FCC0F814C00AE091F8B4
:101CC00003C0BCF1480F05D15FF0010C1CFA03FC06
:101CD000C0F810C05B1CCBE70560B1F800C04FF442
:101CE000807EF4453FD3D0F804C065465FF0000C19
:101CF0006346082B36D25FF0010C13F1080E1CFA74
:101D00000EFC6446B1F800C014EA0C0C6246A24214
:101D100026D15FEA830C64465FF00F0C1CFA04FCCA
:101D20006646B54317FA04FC5CEA050591F803C062
:101D3000BCF1280F07D15FF0010C13F1080E1CFA5B
:101D40000EFCC0F814C091F803C0BCF1480F07D1D5
:101D50005FF0010C13F1080E1CFA0EFCC0F810C065
:101D60005B1CC6E74560F0BD70B504000D002600A1
:101D7000002E02D1FFF7CBF8FEE7FFF75AF9F06B20
:101D8000316C326801FB002070600020B063306865
:101D9000B060F06B401E316C326801FB0020F060D7
:101DA0005FF0FF3070645FF0FF30B064002D0BD146
:101DB0003069002810D016F11000FEF70FFD012841
:101DC0000AD1FFF72DF907E016F11000FFF7B0F97F
:101DD00016F12400FFF7ACF9FFF743F9012070BDBD
:101DE0002DE9F84304000D0016005FF00009002CF7
:101DF00002D1FFF78CF8FEE7002D02D100208046CB
:101E000003E005FB04F0401C804618F15400FFF786
:101E1000F5F90700002F0FD0002D01D13F6002E03F
:101E200007F254003860FC633D6401213800FFF77D
:101E30009BFF87F85060B946B9F1000F02D1FFF758
:101E400066F8FEE74846BDE8F28370B504000D0071
:101E5000002C02D1FFF75BF8FEE7AC4202D2FFF79D
:101E600056F8FEE7022200212000FFF7B9FF060026
:101E7000002E00D0B563002E02D1FFF748F8FEE730
:101E8000300070BD2DE9F04104000D00A046B8F10E
:101E9000000F02D1FFF73BF8FEE7D8F8400000281A
:101EA00002D0FFF734F8FEE7D8F80000002803D18D
:101EB000D8F80400002801D1012000E00020C0B2C1
:101EC000002802D1FFF723F8FEE7FFF7FDF8FFF740
:101ED0001EF80700D8F83800D8F83C10884220D205
:101EE000D8F83800401CC8F83800D8F8480010F17D
:101EF000010F0ED1D8F8240000280FD018F12400CB
:101F0000FEF76CFC002809D0002D07D001202860C6
:101F100004E0D8F84800401CC8F84800012006003A
:101F200001E0002006003800FEF7F8FF3000BDE8B1
:101F3000F0812DE9F74304000D001E000027A146A3
:101F4000B9F1000F02D1FEF7E2FFFEE7002D03D149
:101F5000D9F84000002801D1012000E00020C0B2E3
:101F6000002802D1FEF7D3FFFEE7FFF762F8D9F8A9
:101F70003800002834D0D9F80C00804629004846A3
:101F800000F08AF8002E19D1D9F83800401EC9F89F
:101F90003800D9F80000002803D1FEF75FFFC9F828
:101FA0000400D9F81000002816D019F11000FEF72F
:101FB00015FC012810D1FFF733F80DE0C9F80C80AB
:101FC000D9F82400002807D019F12400FEF706FCF8
:101FD000002801D0FFF724F8FFF743F8012059E06B
:101FE0000298002803D1FFF73CF8002052E0002FB0
:101FF00004D100A8FEF738FC01200700FFF731F8F4
:10200000FEF7F8F9FFF715F8D9F8440010F1010FC1
:1020100002D10020C9F84400D9F8480010F1010F9E
:1020200002D10020C9F84800FFF71BF802A900A858
:10203000FEF72EFC002826D1484600F078F800284C
:102040001BD0D9F80000002807D1FEF7F2FFD9F81D
:102050000400FEF7D6FDFFF704F8029919F12400F9
:10206000FEF785FB484600F02DF8FEF7CBF9002877
:102070007FF47BAFFEF7D4FF77E7484600F022F805
:10208000FEF7C0F971E7484600F01CF8FEF7BAF910
:1020900001000020BDE8FE8338B504000D00206C6F
:1020A00000280ED0206CE1684018E060E0686168AC
:1020B000884201D32068E060226CE168280000F0CB
:1020C00046F831BD10B50400FEF7B3FFA06C01283F
:1020D0000EDB606A00280BD014F12400FEF77EFBB3
:1020E000002801D0FEF70EFCA06C401EA064EDE7B6
:1020F0005FF0FF30A064FEF7B4FFFEF79AFF606C5C
:1021000001280EDB206900280BD014F11000FEF727
:1021100065FB002801D0FEF7F5FB606C401E606493
:10212000EDE75FF0FF306064FEF79BFF10BD38B550
:102130000400FEF77EFFA06B002802D101200500FD
:1021400001E000200500FEF78CFF280032BD70B5CD
:1021500004000D00160032002900200000F002F8F3
:10216000200070BD62B38B0708D0521E11F8013BEE
:1021700000F8013B00F024808B07F6D1830740F084
:10218000208000BF103A07D330B4B1E83810103ABD
:10219000A0E83810F9D230BC530724BFB1E80810CA
:1021A000A0E8081044BF51F8043B40F8043BD207B4
:1021B00024BF31F8022B20F8022B44BF0B780370A8
:1021C0007047083A07D3B1E80810083A40F8043BD2
:1021D00040F804CBF7D25307E4E7000001000020E9
:1021E000DFF8B422914203D14FF4006210005DE0A9
:1021F000DFF8A822914203D14FF40052100055E0BD
:10220000DFF89C22914203D15FF4002210004DE0E0
:10221000DFF89022914203D15FF48012100045E074
:10222000DFF88422914203D15FF4001210003DE0F8
:10223000B1F1804F02D10122100037E0DFF86C22AB
:10224000914202D10222100030E0DFF86422914274
:1022500002D10422100029E0DFF85822914202D175
:102260000822100022E0DFF85022914202D1102211
:1022700010001BE0DFF84422914202D1202210001E
:1022800014E0DFF83C22914202D1402210000DE020
:10229000DFF83022914202D18022100006E0DFF800
:1022A0002822914202D14FF48072100070472DE92C
:1022B000F04F85B004000D0016001F0076488442E0
:1022C00002D07648844206D12000FFF787FF012123
:1022D000FFF782FC05E02000FFF780FF0121FFF7F8
:1022E0008AFC002D41D10021200000F03BF95FF075
:1022F000000B6948844202D11920834628E0B4F1DA
:10230000804F02D11C20834622E06848844202D1DB
:102310001D2083461CE06648844202D11E2083466D
:1023200016E06448844202D13220834610E06248BD
:10233000844202D1362083460AE06048844202D1BA
:102340003720834604E05548844201D12C2083463F
:102350008DF804B08DF805608DF8067000208DF8BA
:10236000070001A800F067F992E04B4884420BD0C7
:102370004A48844208D04A48844205D049488442A9
:1023800002D04948844203D150480068824602E0A6
:102390004E4800688246642D0BD242F20F7081468F
:1023A00042F21070BAFBF0F0B0FBF5F0401E804630
:1023B00013E040F6B830854209D26320814664209C
:1023C000BAFBF0F0B0FBF5F0401E804605E00020BF
:1023D0008146BAFBF5F0401E8046ADF80C80ADF8A2
:1023E00008900020ADF80E000020ADF80A00002093
:1023F0008DF8100002A9200000F06AF801212000E9
:1024000000F0C9F801220121200000F0B9F80121F3
:10241000200000F0A7F85FF0000B1F48844202D1B3
:102420001920834628E0B4F1804F02D11C20834656
:1024300022E01E48844202D11D2083461CE01C4835
:10244000844202D11E20834616E01A48844202D1FB
:102450003220834610E01848844202D13620834659
:102460000AE01648844202D13720834604E00B4834
:10247000844201D12C2083468DF800B08DF8016094
:102480008DF8027001208DF8030000A800F0D3F849
:1024900005B0BDE8F08F0000002C01400034014081
:1024A000004C014000500140005401400004004035
:1024B00000080040000C00400010004000140040E4
:1024C00000180040001C0040002000405800002080
:1024D000002203881A00DFF82C31984212D0DFF86E
:1024E0003C3198420ED0B0F1804F0BD0DFF818315C
:1024F000984207D0DFF81431984203D0DFF810314A
:10250000984204D14FF68F731A404B881A43DFF874
:102510000431984208D0DFF80031984204D04FF6D9
:10252000FF431A40CB881A4302808B8883850B882F
:102530000385DFF8D03098420FD0DFF8E0309842C2
:102540000BD0DFF8DC30984207D0DFF8D830984263
:1025500003D0DFF8D430984201D10B7A03860123EF
:1025600083827047C9B2002904D0028852F0010268
:10257000028004E002884FF6FE731A400280704722
:10258000D2B2002A03D083890B43838102E083897E
:102590008B4383817047C9B2002904D0028852F06E
:1025A0008002028004E002884FF67F731A400280A6
:1025B0007047818670470187704781877047A0F810
:1025C00040107047808C704730B402000020002318
:1025D0000024158A0D402B0095890D402C009BB2DC
:1025E000002B05D0A4B2002C02D00125280001E068
:1025F00000252800C0B230BC704789B2CA430282AD
:1026000070470000002C014000040040000800401A
:10261000000C004000100040001400400034014055
:102620000040014000440140004801401C49014372
:102630001C4A11607047F0B4002300210F22C478B7
:10264000002C20D0174C246814F4E064D4F5E06426
:10265000240A2300D3F104042100DA4044788C409A
:1026600023008478144023431B0104780E4D6355E6
:10267000047864110D4D0126077817F01F07BE403E
:1026800045F8246009E004786411094D01260778B3
:1026900017F01F07BE4045F82460F0BC70470000EB
:1026A0000000FA050CED00E000E400E000E100E0CD
:1026B00080E100E080B500F01AF800F045F800F085
:1026C00003F800F08BF801BD80B501210820FFF769
:1026D00083FA03208DF8020010208DF803000420F7
:1026E000ADF8000000A99048FFF7A2FA01BD8D489F
:1026F0008E4901608B488E4941608A488D498160CE
:1027000088484FF48061818186484FF48061C1819F
:1027100084480021018283480021418281480021B0
:10272000C1828048002101837E48002141837D4889
:10273000002181827B480021C1617A480021016229
:10274000784800214162704700B585B0012105201D
:10275000FFF742FA01214FF48040FFF73DFA4FF4B2
:102760000070ADF8000018208DF8030003208DF8EC
:10277000020000A97048FFF75BFA4FF48060ADF8E3
:10278000000004208DF8030000A96B48FFF750FA01
:102790005FF4E13001900020ADF808000020ADF8B2
:1027A0000A000020ADF80C000020ADF810000C204D
:1027B000ADF80E0001A95D4800F0C0F8012240F21A
:1027C00025515A4800F03AF90121584800F028F9FB
:1027D0004021564800F075F905B000BD80B52520B0
:1027E0008DF8000001208DF8010000208DF8020016
:1027F00001208DF8030000A8FFF71DFF01BD38B5CB
:10280000040040F22551206800F061F900281DD035
:10281000206800F042F90500E08AA1684554E08A8A
:10282000401CE082E18980B2884201D30020E0822E
:10283000608BE189884202D2608B401C6083606AB1
:10284000002803D02800C0B2616A884740F227718F
:10285000206800F03CF9002823D0A08A00280CD181
:10286000002240F22771206800F0E8F8012240F2CF
:102870002661206800F0E2F83CE0608A6168415C13
:1028800089B2206800F005F9608A401C6082A18945
:1028900080B2884201D300206082A08A401EA082BC
:1028A00028E040F22661206800F011F9002821D0CC
:1028B000A08A00280BD1002240F22661206800F097
:1028C000BDF8206A002815D0206A804712E0608A8F
:1028D0006168415C89B2206800F0DBF8608A401CC6
:1028E0006082A18980B2884201D300206082A08AE0
:1028F000401EA08231BD80B50A48FFF780FF01BDB0
:1029000038B504000D002100C9B289B2074800F0B3
:10291000C0F84021054800F0C4F80028F9D0200094
:1029200032BD0000B04D0020000C014000380140D5
:102930005C4400205C480020000801402DE9F0477D
:1029400086B004000D00002600275FF000085FF04D
:1029500000095FF0000AA8890028A246208A060024
:102960004CF6FF700640E88806432682A0890600E0
:102970004EF6F3100640A888298908436989084360
:102980000643A681A08A06004FF6FF400640A889AC
:102990000643A68200A8FFF7B1F82048824502D17D
:1029A0000398070001E002980700A089000408D5F9
:1029B000192000FB07F029684900B0FBF1F08046C0
:1029C00007E0192000FB07F029688900B0FBF1F04F
:1029D00080466420B8FBF0F0000106003009642155
:1029E00001FB10808146A089000409D55FEAC90077
:1029F00032306421B0FBF1F010F00700064308E02C
:102A00005FEA091032306421B0FBF1F010F00F00E2
:102A10000643268106B0BDE8F0870000003801407B
:102A2000C9B2002904D0828952F40052828104E0A4
:102A300082894DF6FF731A4082817047F0B40023FB
:102A400000240025002640F66A1789B2B942060024
:102A50000F00FFB27F09FFB23B0089B211F01F07E0
:102A60003C000127A7403D00012B01D10C3604E0BA
:102A7000022B01D1103600E01436D2B2002A03D066
:102A800037682F43376002E03768AF433760F0BCE8
:102A90007047CA05D20D828070478088C005C00D7E
:102AA0007047020000204FF4007389B299421388E6
:102AB0000B4202D00123180001E000231800C0B22D
:102AC000704789B28A0589B2CA430280704770B4E0
:102AD0000200002300250024002040F66A1689B277
:102AE000B1420E00F6B27609F6B2340089B211F0A6
:102AF0001F063500012616FA05F5012C02D196892C
:102B0000354006E0022C02D1168A354001E0968A53
:102B1000354089B20E0AB6B23300012616FA03F325
:102B200016883340002D04D0002B02D0012630003F
:102B300001E000263000C0B270BC70477FB50121B3
:102B40000120FFF758F87B480068400806007A48E3
:102B5000B6FBF0F005004FF6FF7004002000ADF862
:102B60000800ADF804500020ADF80A000020ADF8D0
:102B7000060001A95FF08040FFF7AAFC01215FF089
:102B80008040FFF7EFFC1C208DF8000004208DF83A
:102B9000010000208DF8020001208DF8030000A83C
:102BA000FFF749FD7FBD2DE9F0410400884615007F
:102BB000B8F1050F01D3B8F105085FF08040FFF7C9
:102BC00001FD060018EB06000700E4B2012C13D14A
:102BD0005A480560390089B25FF08040FFF7E9FC90
:102BE00002215FF08040FFF708FD012202215FF023
:102BF0008040FFF7C5FC45E0E4B2022C13D15048F9
:102C00000560390089B25FF08040FFF7D4FC0421F1
:102C10005FF08040FFF7F1FC012204215FF080406B
:102C2000FFF7AEFC2EE0E4B2032C13D1454805605B
:102C3000390089B25FF08040FFF7BFFC08215FF0E8
:102C40008040FFF7DAFC012208215FF08040FFF7A7
:102C500097FC17E0E4B2042C13D13B48056039001F
:102C600089B25FF08040FFF7AAFC10215FF080403E
:102C7000FFF7C3FC012210215FF08040FFF780FCCA
:102C800000E0FFE7BDE8F08180B502215FF0804001
:102C9000FFF79AFC00280DD002215FF08040FFF77B
:102CA000ACFC002202215FF08040FFF769FC234862
:102CB0000068804704215FF08040FFF785FC002812
:102CC0000DD004215FF08040FFF797FC0022042123
:102CD0005FF08040FFF754FC1948006880470821E6
:102CE0005FF08040FFF770FC00280DD008215FF0F6
:102CF0008040FFF782FC002208215FF08040FFF750
:102D00003FFC10480068804710215FF08040FFF7CB
:102D10005BFC00280DD010215FF08040FFF76DFCB8
:102D2000002210215FF08040FFF72AFC064800686F
:102D3000804701BD5800002040420F00584E00203F
:102D40005C4E0020604E0020644E002080B500F0F4
:102D5000EFF800F0FBF800F07FF800F0BDF8FDF7A9
:102D600019FBFEE730B5FDB00400FEF74DFD050090
:102D7000EDB2002D29D0EDB22800012802D00428A0
:102D800018D022E0584800F0FFF8584800F0FCF84E
:102D900000A8FDF7A8FF00A9554800F0F5F8554830
:102DA00000F0F2F800A8FEF701F800A9504800F082
:102DB000EBF80AE0504800F0E7F80FF27D024CF221
:102DC00050310120FFF7EFFEFFE70A20FDF7AEFAD2
:102DD000CBE738B50400C825FDF78AFB0090022038
:102DE00000F03BF9032000F038F9290000A8FDF7B6
:102DF00045FAF4E770B504004FF4967600233200EC
:102E000000213E480068FFF794F80500012D03D12A
:102E10003B4800F0B9F8F1E7012000F01EF904206A
:102E200000F01BF9EAE710B50400FEF759FE0A208E
:102E3000FDF77CFAF9E7000080B50020009000A9BA
:102E40002E480068FFF71EF80098002803D02D4890
:102E50005FF08051016001BD00B585B00020039096
:102E600000200290002001900120009000234FF4E8
:102E7000007225492548FDF75BF9002003900020EA
:102E80000290234801900220009000234FF400722A
:102E900020492148FDF74CF90020039000200290C2
:102EA0001E4801900320009000234FF400721C493B
:102EB0001C48FDF73DF900200390002002900020FF
:102EC00001900420009000234FF400721649174827
:102ED000FDF72EF905B000BD80B500210120FEF7F9
:102EE000B4FF0649086001BD9C320008D0320008DA
:102EF000943400080033000814320008804E00208B
:102F00000C34000804ED00E040340008652D000892
:102F1000784E00204C340008D32D00087C4E002051
:102F200058340008F52D000864340008272E0008E6
:102F300080B54FF44070FFF779FBFFF7BBFB00F063
:102F400035F8FEF749FCFFF7F9FD01BD80B5002318
:102F5000012244F620610A48FFF7A9F901BD80B5B6
:102F600001210748FFF730FB002808D0054800681A
:102F7000401C0449086001210148FFF73EFB01BDE8
:102F800000100040544E00200EB400B582B003A9DA
:102F9000009100AB02460121034878440A30FEF755
:102FA00002FB06BC5DF810FB4104000080B5012166
:102FB0008020FEF711FE012000F02FF8022000F023
:102FC0002CF8032000F029F8042000F026F8032054
:102FD0008DF8020010208DF803004FF40060ADF86A
:102FE000000000A93248FEF723FE8020ADF8000063
:102FF00000A92F48FEF71CFE4FF48070ADF80000CA
:1030000000A92B48FEF714FE4FF40070ADF8000045
:1030100000A92748FEF70CFE01BD401EC0B20028E3
:1030200004D124494FF400620A6015E0C0B20128BF
:1030300003D1204980220A600EE0C0B2022804D1E8
:103040001C494FF480720A6006E0C0B2032803D125
:1030500018494FF400720A607047C0B2012806D1C7
:103060001549096891F40061134A11601EE0C0B26D
:10307000022806D11049096891F080010E4A1160BA
:1030800014E0C0B2032807D10B4909684FF48072DD
:103090005140094A116009E0C0B2042806D106492E
:1030A00009684FF400725140034A116070470000F4
:1030B000001C0140101C01400C1C014080B54E4812
:1030C000006850F001004C4908604C4800684C49C9
:1030D00008404A490860484800684A49084046494B
:1030E00008604548006830F4802043490860434840
:1030F000006830F4FE004149086043485FF41F0156
:10310000016000F005F841485FF00061016001BD19
:1031100080B500F001F801BD82B0002001900020D0
:1031200000903548006850F48030334908603248D8
:10313000006810F4003000900198401C0190009845
:10314000002803D10198B0F5A06FF0D12A4800689B
:10315000800302D50120009001E00020009000983B
:10316000012847D12A48006850F01000284908601B
:1031700027480068800880002549086024480068C6
:1031800050F00200224908601C481C49096801608F
:103190001A481A49096801601848006850F48060AC
:1031A000164908601548006830F47C10134908601F
:1031B0001248006850F4E810104908600E48006892
:1031C00050F080700C4908600B4800688001FBD506
:1031D0000A480068800880000849086007480068BD
:1031E00050F00200054908600448006810F00C0027
:1031F0000828F9D102B070470010024004100240C4
:103200000000FFF8FFFFF6FE0810024008ED00E0A6
:10321000002002404B32BCFCB0B4CFC2A3ACC6F419
:10322000B6AFB5A5B4CEB6A8CAB1C6F7D6D0B6CF9C
:10323000A3AC35306D73BAF3D4DAB6A8CAB1C6F709
:10324000D6D0B6CFB8F8C8CECEF1765461736B4DF8
:10325000736750726FB7A2CBCDCDACB2BDD0C5BA3B
:10326000C50D0A007047084800221100C9B22A297A
:1032700009D2C9B20A5C054B1A80054A1288520667
:10328000FBD5491CF2E7FEE72C3300080438014067
:1032900000380140FEE7FEE7FEE770473D3D3D3D5B
:1032A0003D3D3D3D3D3D3D3D3D3D3D3D3D3D3D3D4E
:1032B0003D3D3D3D3D3D3D3D3D3D3D3D3D3D3D3D3E
:1032C0003D3D3D3D3D3D3D3D3D3D3D3D3D0D0A00CE
:1032D000C8CECEF1C3FB202020202020C8CECEF1C6
:1032E000D7B4CCAC20D3C5CFC8BCB6202020CAA34D
:1032F000D3E0D5BB20C8CECEF1D0F2BAC50D0A00BE
:103300000D0AC8CECEF1C3FB20202020202020D4DF
:10331000CBD0D0BCC6CAFD202020202020202020D9
:10332000CAB9D3C3C2CA0D0A000000000D0A456E17
:1033300074657220486172644661756C745F48619F
:103340006E646C65722C2053797374656D204861CE
:103350006C742E0D0A00000010B5084979441C3128
:10336000074C7C441A34A14206D0081D0A68511843
:1033700088470146A142F8D110BD00BF08000000F7
:1033800028000000E3E0FFFF704E00005C0000201A
:10339000000000003BDEFFFF5C0000002402000094
:1033A000000000200000000000F009F8002801D013
:1033B000FFF7D2FF0020FFF7C9FC00F002F8012060
:1033C000704700F001B800000746384600F002F8E8
:1033D000FBE7000080B5C046C046024A1100182035
:1033E000ABBEFBE72600020038B504460D46284672
:1033F00000F006F8A84218BF0024204632BD0000A5
:103400000149FFF77DBA00BF00000020BDD3CAD537
:10341000B5BDCDACB2BDD0C5BAC50D0A0000000027
:103420000925630925750925750925750D0A00000B
:103430000148804701480047BD3000088934000832
:10344000765461736B5573657249460076546173A7
:103450006B4C454400000000765461736B4D7367FC
:1034600050726F00765461736B5374617274000014
:103470000925750909257525250D0A0009257509F0
:10348000093C3125250D0A00C046C046C046C0464D
:10349000FFF78AFF25730D0A0000000049444C45E0
:1034A0000000000008000000F0E300E0FFF7DABED3
:1034B000FFF7D9BEFFF7EEBEFFF7EDBEFFF7ECBE9C
:1034C000FDF72FBDFFF7E9BEFDF702BDFDF7DEBD3D
:1034D000FFF7FEBFFFF7FEBFFFF7FEBFFFF7FEBF20
:1034E000FFF7FEBFFFF7FEBFFFF7FEBFFFF7FEBF10
:1034F000FFF7FEBFFFF7FEBFFFF7FEBFFFF7FEBF00
:10350000FFF7FEBFFFF7FEBFFFF7FEBFFFF7FEBFEF
:10351000FFF7FEBFFFF7FEBFFFF7FEBFFFF7FEBFDF
:10352000FFF7FEBFFFF7FEBFFFF7FEBFFFF7FEBFCF
:10353000FFF7FEBFFFF7FEBFFFF7FEBFFFF7FEBFBF
:10354000FFF7A2BBFFF7FEBFFFF7FEBFFFF7FEBF0F
:10355000FFF7FEBFFFF7FEBFFFF7FEBFFFF7FEBF9F
:10356000FFF7FEBFFFF7C7B9FFF7FEBFFFF7FEBFCC
:10357000FFF7FEBFFFF7FEBFFFF7FEBFFFF7FEBF7F
:10358000FFF7FEBFFFF7FEBFFFF7FEBFFFF7FEBF6F
:10359000FFF7FEBFFFF7FEBFFFF7FEBFFFF7FEBF5F
:1035A000FFF7FEBFFFF7FEBFFFF7D9BCFFF7FEBF77
:1035B000FFF7FEBFFFF7FEBFFFF7FEBFFFF7FEBF3F
:1035C00002040101604D0020B04D0020604D00203C
:1035D000604D0020604D00203D00002024000020B0
:1035E00000000000000000000000000000000000DB
:1035F00000000000000000000000000000000000CB
:103600000000000001020304010203040607080988
:0C361000AAAAAAAA0204060800A24A0402
:040000050800348932
:00000001FF
