:020000040800F2
:1000000050520020E901000839070008CD0400081B
:1000100035070008910300087D0F0008000000006C
:100020000000000000000000000000004501000882
:10003000B70300080000000089010008E909000872
:10004000030200080302000803020008030200087C
:10005000030200080302000803020008030200086C
:10006000030200080302000803020008030200085C
:10007000030200080302000803020008030200084C
:10008000030200080302000803020008030200083C
:10009000030200080302000803020008030200082C
:1000A000030200080302000803020008030200081C
:1000B000690A00080302000803020008030200089E
:1000C00003020008030200080302000803020008FC
:1000D000030200087D0C0008030200080302000868
:1000E00003020008030200080302000803020008DC
:1000F00003020008030200080302000803020008CC
:1001000003020008030200080302000803020008BB
:100110000302000803020008050B000803020008A0
:10012000030200080302000803020008030200089B
:10013000DFF80CD000F0B4F800480047BD19000803
:1001400050520020204B19680868B0E8F00F80F387
:100150000988BFF36F8F4FF0000080F311884EF0D5
:100160000D0E70470000000006480068006880F32C
:10017000088862B661B6BFF34F8FBFF36F8F00DFA1
:1001800000BF00BF08ED00E0EFF30980BFF36F8F01
:100190000D4B1A6820E9F00F106008B54FF0100001
:1001A00080F3118802F014FB4FF0000080F31188F7
:1001B000BDE8084019680868B0E8F00F80F30988C6
:1001C000BFF36F8F704700BF48000020EFF311802E
:1001D0004FF0100181F31188704780F31188704748
:1001E000EFF3058070470000064880470648004747
:1001F000FEE7FEE7FEE7FEE7FEE7FEE7FEE7FEE7D7
:10020000FEE7FEE7090A00083101000840EA0103A1
:100210009B0703D009E008C9121F08C0042AFAD2BC
:1002200003E011F8013B00F8013B521EF9D2704780
:10023000D2B201E000F8012B491EFBD27047002228
:10024000F6E710B513460A4604461946FFF7F0FFD5
:10025000204610BD421C10F8011B0029FBD1801A5A
:100260007047034611F8012B00F8012B002AF9D141
:100270001846704730B50B46014600202022012465
:1002800009E021FA02F59D4205D303FA02F5491B64
:1002900004FA02F52844151EA2F10102F1DC30BD7A
:1002A000064C074D06E0E06840F0010394E80700C3
:1002B00098471034AC42F6D3FFF73EFFEC3100080C
:1002C0000C32000810B50021012002F0B5FB0149F5
:1002D000086010BD080000201FB500200123CDE9F3
:1002E0000030029003464FF4007217A103901948A2
:1002F00002F05AFD0020184A0223CDE901200093A4
:10030000039003464FF4007214A1174802F04CFD0D
:100310000020164A0323CDE90120009303900346F1
:100320004FF4007212A1154802F03EFD0020042394
:10033000CDE90030029003464FF4007210A1039003
:10034000124802F031FD1FBD765461736B55736521
:10035000724946009128000800000020765461731D
:100360006B4C454400000000C52400080400002038
:10037000765461736B4D736750726F00BD25000832
:10038000765461736B5374617274000049270008DE
:1003900000BFFEE708B525208DF8000001208DF88C
:1003A000010000208DF8020001208DF8030068464E
:1003B00000F0C4F908BD70472DE9F0410246002560
:1003C0000026002000230024002791F803C00CF031
:1003D0000F0591F803C01CF0100F03D091F802C074
:1003E0004CEA050591F800C0BCF1000F31D014684B
:1003F00000202BE04FF0010C0CFA00F3B1F800C024
:100400000CEA03069E4220D183004FF00F0C0CFA39
:1004100003F7BC4305FA03FC4CEA040491F803C05B
:10042000BCF1280F06D14FF0010C0CFA00FCC2F809
:1004300014C00AE091F803C0BCF1480F05D14FF099
:10044000010C0CFA00FCC2F810C0401C0828D1D3E3
:100450001460B1F800C0BCF1FF0F34DD5468002017
:100460002EE000F1080C4FF0010808FA0CF3B1F887
:1004700000C00CEA03069E4221D183004FF00F0C0E
:100480000CFA03F7BC4305FA03FC4CEA040491F8A8
:1004900003C0BCF1280F05D100F1080C08FA0CF8D4
:1004A000C2F8148091F803C0BCF1480F07D100F1E5
:1004B000080C4FF0010808FA0CF8C2F81080401C34
:1004C0000828CED35460BDE8F081000009A10020C7
:1004D0000BE00A5C124B1A8000BF114A121F1288EF
:1004E00012F0400FF9D0421CD0B22A28F1D300BF3D
:1004F000FEE700000D0A456E746572204861726463
:100500004661756C745F48616E646C65722C205333
:10051000797374656D2048616C742E0D0A000000BB
:100520000438014000B585B00121052000F05AF9DA
:100530000121880300F056F94FF40070ADF8100067
:1005400018208DF8130003208DF8120004A9184814
:10055000FFF732FF4FF48060ADF8100004208DF8F3
:10056000130004A91248FFF727FF4FF4E130009071
:100570000020ADF80400ADF80600ADF80800ADF8B5
:100580000C000C20ADF80A0069460A4800F0F0FBA8
:10059000012240F22551074800F0C4FB0121054823
:1005A00000F07DFB4021034800F070FB05B000BD6A
:1005B00000080140003801400948806810F4005FDD
:1005C0000BD10848006810F0010F06D1064880687A
:1005D00010F4807F01D0012070470020FCE700006C
:1005E00000100140080801400020014009488068CF
:1005F00010F4005F0BD00848006810F0010F06D01F
:100600000648806810F4807F01D1012070470020E7
:10061000FCE70000001001400808014000200140F4
:100620000948806810F4005F0BD00848006810F09B
:10063000010F06D00648806810F4807F01D00120A9
:1006400070470020FCE7000000100140080801404E
:10065000002001400948806810F4005F0BD0084872
:10066000006810F0010F06D10648806810F4807F02
:1006700001D1012070470020FCE70000001001407C
:1006800008080140002001400448806810F4004F31
:1006900001D1012070470020FCE70000002001404C
:1006A0000448006810F0080F01D1012070470020B5
:1006B000FCE70000081401400448806810F4804FF3
:1006C00001D1012070470020FCE70000002001401C
:1006D0000448806810F4005F01D1012070470020B9
:1006E000FCE70000002001400448806810F0800F03
:1006F00001D1012070470020FCE7000000200140EC
:100700000948806810F4005F0BD10848006810F0B9
:10071000010F06D00648806810F4807F01D00120C8
:1007200070470020FCE7000000100140080801406D
:100730000020014000BFFEE77047000070B50021B7
:1007400000230F22C4780CB3164C246804F4E06430
:10075000C4F5E064210AC1F10403CA40447804FAF4
:1007600003F184781440214309010F4C0678A15508
:10077000047804F01F050124AC4005786D114FF09A
:10078000E02606EB8505C5F8004109E0047804F091
:100790001F050124AC40054D0678761145F826402A
:1007A00070BD00000CED00E000E400E080E100E03E
:1007B00002490143024A1160704700000000FA0537
:1007C0000CED00E029B1064AD2690243044BDA611C
:1007D00004E0034AD2698243014BDA6170470000AA
:1007E0000010024029B1064A92690243044B9A6103
:1007F00004E0034A92698243014B9A61704700000A
:100800000010024030B500210022002400232D4DAD
:100810006D6805F00C0121B1042905D0082923D108
:1008200005E0294D056022E0274D05601FE0254DBC
:100830006D6805F47012234D6D6805F4803402254F
:1008400005EB92421CB9214D554305600BE01D4D4F
:100850006D6815F4003F03D01C4D5543056002E060
:10086000194D5543056002E0174D056000BF00BFFC
:10087000144D6D6805F0F0010909154D6B5C0568B4
:10088000DD4045600F4D6D6805F4E061090A104DCB
:100890006B5C4568DD4085600A4D6D6805F460510C
:1008A000C90A0B4D6B5C4568DD40C560054D6D6840
:1008B00005F44041890B074D6B5CC568B5FBF3F54A
:1008C000056130BD0010024000127A0000093D00B1
:1008D000200000203000002008B501210820FFF78B
:1008E00081FF03208DF8020010208DF80300042002
:1008F000ADF8000069460248FFF75EFD08BD000044
:10090000000C014010B500F001F810BD0CB500203E
:10091000019000903248006840F48030304908600F
:1009200000BF2F48006800F4003000900198401C80
:100930000190009818B90198B0F5A06FF1D128483E
:10094000006810F4003F02D00120009001E0002078
:1009500000900098012842D12248006840F0100021
:10096000204908600846006820F003000860084637
:10097000006840F002000860194840681849486063
:100980000846406848600846406840F48060486017
:100990000846406820F47C1048600846406840F4EF
:1009A000E81048600846006840F08070086000BFAA
:1009B0000B48006810F0007FFAD00948406820F02A
:1009C0000300074948600846406840F0020048605C
:1009D00000BF0348406800F00C000828F9D10CBDA6
:1009E000001002400020024010B5FFF7EFFB02F0BC
:1009F0007DFA18B14FF08050024908600020FFF7DF
:100A0000ECFB10BD04ED00E010B51348006840F0A9
:100A100001001149086008464068104908400E4925
:100A20004860084600680E4908400B4908600846BF
:100A3000006820F4802008600846406820F4FE002A
:100A400048604FF41F008860FFF75CFF4FF00060C4
:100A50000449086010BD0000001002400000FFF8CB
:100A6000FFFFF6FE08ED00E010B50221480700F098
:100A70008FF858B10221480700F078F800220221CF
:100A8000480700F096F81B480068804704210807D3
:100A900000F07EF858B10421080700F067F8002242
:100AA0000421080700F085F81348006880470821F2
:100AB000C80600F06DF858B10821C80600F056F8D5
:100AC00000220821C80600F074F80C48006880472E
:100AD0001021880600F05CF858B11021880600F05B
:100AE00045F800221021880600F063F804480068E9
:100AF000804710BD100000201400002018000020C6
:100B00001C00002010B50121064800F041F840B15A
:100B100005480068401C044908600121014800F0B4
:100B200025F810BD001000400C00002021B1028803
:100B300042F08002028004E002884FF67F731A4080
:100B40000280704708B5002000906946054800689B
:100B500002F0A6F8009818B14FF0805002490860E2
:100B600008BD00000800002004ED00E0CA43028236
:100B7000704721B1028842F00102028004E002883D
:100B80004FF6FE731A40028070470146888C70470A
:100B900030B50246002000230024158A05EA01032F
:100BA000958905EA010413B10CB1012000E0002091
:100BB00030BD1AB183890B43838102E083898B4363
:100BC00083817047818670470187704781877047AE
:100BD000A0F8401070470000002202881D4B984288
:100BE0000ED01D4B98420BD0B0F1804F08D01B4B5C
:100BF000984205D01A4B984202D01A4B984204D121
:100C00004FF68F731A404B881A43174B984207D000
:100C1000164B984204D04FF6FF431A40CB881A4334
:100C200002808B8883850B8803850A4B98420BD002
:100C3000094B984208D00E4B984205D00D4B984274
:100C400002D00D4B984201D10B7A03860123838297
:100C500070470000002C01400034014000040040B7
:100C600000080040000C004000100040001400404C
:100C700000400140004401400048014010B50248D6
:100C800000F0EBF810BD00006001002001F40072DC
:100C9000B2F5007F00D100BFCA430280704721B186
:100CA000828942F40052828104E082894DF6FF730A
:100CB0001A408281704702460020B1F5007F00D1C2
:100CC00000BF13880B4201D0012000E000207047D4
:100CD00070B502460024002300250020A1F510660F
:100CE0006A3E00D100BFC1F3421501F01F03012687
:100CF00006FA03F3012D02D19689334006E0022D56
:100D000002D1168A334001E0968A33400C12012644
:100D100006FA04F41688344013B10CB1012000E047
:100D2000002070BDF0B503460024002600250020F9
:100D3000A1F510676A3F00D100BF1846C1F3421405
:100D400001F01F06012707FA06F5012C01D10C302E
:100D500004E0022C01D1103000E014301AB1076811
:100D60002F43076002E00768AF430760F0BD000053
:100D70002DE9F04786B005460E460024A24600BF86
:100D8000A1460027B08900B100BF2F462C8A4CF63F
:100D9000FF700440F08804432C82AC894EF6F310B7
:100DA0000440B08831890843718908430443AC8109
:100DB000AC8A4FF6FF400440B0890443AC8201A8DE
:100DC000FFF720FD1F48874202D1DDF810A001E0A7
:100DD000DDF80CA0A88910F4004F08D00AEBCA0077
:100DE00000EB0A1031684900B0FBF1F807E00AEBAC
:100DF000CA0000EB0A1031688900B0FBF1F86420EA
:100E0000B8FBF0F004012009642101FB1089A889D6
:100E100010F4004F08D0322000EBC900B0FBF1F015
:100E200000F00700044308E0322000EB09106421C1
:100E3000B0FBF1F000F00F0004432C8106B0BDE8D8
:100E4000F08700000038014001468888C0F30800A0
:100E50007047C1F308028280704770B5044640F2C3
:100E600025512068FFF734FFE0B12068FFF7ECFF61
:100E7000C5B2E18AA0684554E08A401C80B2E08295
:100E8000E189884201DB0020E082608BE1898842B1
:100E900002DA608B401C6083606A10B12846616A88
:100EA000884700BF40F227712068FFF711FF08B3A1
:100EB000A08A60B9002240F227712068FFF732FF54
:100EC000012240F226612068FFF72CFF37E0638A99
:100ED0006268D15C2068FFF7BCFF608A401C80B26A
:100EE0006082A189884201DB00206082A08A401EC6
:100EF000A08224E040F226612068FFF7E9FEF0B10D
:100F0000A08A50B9002240F226612068FFF70AFF4C
:100F1000206AA0B1206A804711E0638A6268D15CD0
:100F20002068FFF796FF608A401C80B26082A1892A
:100F3000884201DB00206082A08A401EA08270BD32
:100F40000A480B4908600B4848600B4888604FF41A
:100F500080608881C881002008824882C882088316
:100F600048838882C861086248627047003801403F
:100F700060010020880100208805002000BFFEE7F6
:100F80000FB4054B10B503A9044A029800F02CF8E1
:100F900010BC5DF814FB000099190008AC0000209B
:100FA0000FB4084B10B504A902AA039800F01CF86E
:100FB000044602A9002000F0F3F8204610BC5DF8BA
:100FC00014FB0000A111000802E008C8121F08C1AC
:100FD000002AFAD170477047002001E001C1121FBA
:100FE000002AFBD1704700002DE9FF4F8BB09A46D5
:100FF0000F4605460026C9E0252837D100246D1C80
:101000006649A04601222B78203B02FA03F00842F1
:1010100002D004436D1CF6E728782E2817D115F866
:10102000010F44F004042A280ED06FF02F02287814
:10103000A0F1300109290AD808EB880102EB41012F
:1010400000EB01086D1CF2E757F8048B6D1C287843
:1010500069283FD006DC002871D063280CD06428B2
:1010600004D137E0732811D075284ED052460D991F
:10107000904706F1010688E017F8040B8DF8000090
:1010800000208DF80100E946012003E057F8049B99
:101090004FF0FF3061074FF0000401D40AE0641CF8
:1010A00044450DDA8442FADB19F804100029F6D120
:1010B00006E0641C8442FCDB19F804100029F8D116
:1010C000264404E019F8010B52460D999047641E1E
:1010D000F8D25AE001CF4FF00A0B002804DAC0F131
:1010E00000004FF02D0102E0210504D52B218DF8E1
:1010F0002410012103E0E10705D02021F7E70DF1DD
:10110000200908910CE00021F9E701CF4FF00A0B0C
:10111000F9E75946FFF7AEF801F1300209F8012D61
:101120000028F6D1ADEB090000F1200B600701D4D7
:101130004FF00108D84503DDA8EB0B0001E029E0E2
:1011400000208046002406E009A85246005D0D9963
:101150009047761C641C08988442F5DB04E030203C
:1011600052460D999047761CB8F10001A8F101088C
:10117000F5DC05E019F8010B52460D999047761CF5
:10118000BBF10001ABF1010BF4DC6D1C28780028E9
:101190007FF432AF0FB03046BDE8F08F0928010070
:1011A0000A68531C0B6010707047000070B505464C
:1011B000304800EB05142068804700283ED0207995
:1011C000052802DA0520207152E020790A2803DA86
:1011D0002079401C20714BE0A07A38B90120A07220
:1011E00005EB4501491CC8B200F05CFA20890028D3
:1011F0003EDDE088218988420DDAE088401C80B21B
:10120000E0802189884233D105EB4501C91CC8B271
:1012100000F048FA2CE0E07A002829DD207B401C11
:10122000C0B22073E17A884222DB0020207305EBF4
:101230004501491CC8B200F035FA19E020790528AB
:1012400002DD0520207110E0207918B12079401EC0
:1012500020710AE0A07A012807D10020A07205EBD6
:101260004501891CC8B200F01DFA0020E0802073FF
:1012700070BD0000B00000200B48807A0A4AD27A84
:10128000904201D1002070470748807A064A115CDD
:101290001046807A401CC0B290720A2801DB002000
:1012A00090720846EFE70000500100200146002040
:1012B000244A914201D1C81442E0234A914201D10B
:1012C00048143DE0214A914202D14FF4002037E01A
:1012D0001F4A914202D14FF4801031E01D4A9142E1
:1012E00002D14FF400102BE0B1F1804F01D1012069
:1012F00026E0194A914201D1022021E0174A914289
:1013000001D104201CE0164A914201D1082017E0C7
:10131000144A914201D1102012E0134A914201D1A6
:1013200020200DE0114A914201D1402008E0104AEE
:10133000914201D1802003E00E4A914200D18815EC
:1013400070470000002C014000340140004C014077
:1013500000500140005401400004004000080040DB
:10136000000C004000100040001400400018004035
:10137000001C00400020004010B54FF44070FFF703
:1013800017FA00F035F900F0FBF800F037F800F03C
:1013900001F810BD7FB501210846FFF713FA154883
:1013A000006846081448B6FBF0F085B24FF6FF74AB
:1013B000ADF80840ADF804500020ADF80A00ADF8D3
:1013C000060001A94FF08040FFF706FC01218807C5
:1013D000FFF7CFFB1C208DF8000004208DF80100E2
:1013E00000208DF8020001208DF803006846FFF709
:1013F000A5F97FBD3400002040420F0010B500F079
:1014000055F800F001F810BD08B501214FF49A70AD
:10141000FFF7E8F903208DF8020004208DF803009F
:10142000C002ADF8000069461C48FEF7C5FF012068
:10143000ADF8000069461A48FEF7BEFF4FF4807011
:10144000ADF8000069461748FEF7B6FF4FF40040BC
:10145000ADF8000069461348FEF7AEFF0820ADF86E
:10146000000069461048FEF7A7FF4FF48040ADF832
:10147000000069460B48FEF79FFF4FF40050ADF89F
:10148000000069460748FEF797FF8020ADF800008E
:1014900069460448FEF790FF08BD000000100140B7
:1014A0000008014000200140001401400021284AAA
:1014B0009172D1721173002018E06421254A02EB69
:1014C000001211810221234A02EB00121171002146
:1014D000204A02EB001291721E4A02EB0012D172F6
:1014E0001C4A02EB00121173411CC8B20A28E4DB4B
:1014F000642218490A87052281F83B206422A1F85A
:101500004820052281F84B206422A1F858200522AA
:1015100081F85B206422A1F86820052281F86B2005
:101520000D490C4A11600D4911610D4911620D49B7
:1015300011630D4911640D4911650D4911660D497D
:1015400011670D49C2F880100C49C2F8901070471D
:1015500050010020B0000020B90500082106000855
:101560005506000889060008A1060008B90600080B
:10157000D1060008E906000801070008ED0500088B
:1015800008B501218020FFF72DF9012000F046F871
:10159000022000F043F8032000F040F8042000F09F
:1015A0003DF803208DF8020010208DF80300C001E3
:1015B000ADF8000069460D48FEF7FEFE8020ADF84C
:1015C000000069460948FEF7F7FE4FF48070ADF859
:1015D000000069460548FEF7EFFE4FF40070ADF8D5
:1015E000000069460148FEF7E7FE08BD001C014007
:1015F00010B5FFF7A5FCFEF795FFFFF76DF9FEF7B5
:10160000C9FE10BD10B5002404E02046FFF7CEFD52
:10161000601CC4B20A2CF8DB10BD0000411EC8B229
:1016200020B94FF400610B4A116011E0012803D189
:101630008021084A11600BE0022803D1C101054A4C
:10164000116005E0032803D14FF40071014A1160D5
:1016500070470000101C0140012806D1104909689C
:1016600081F400610E4A116019E0022806D10C498C
:10167000096881F080010A4A116010E0032806D150
:101680000749096881F48071054A116007E0042860
:1016900005D10349096881F40071014A116070475E
:1016A0000C1C01400649C97A054A50541146C97AB2
:1016B000491CC9B2D1720A2901DB0021D1727047DD
:1016C000500100202DE9FF5F04460D4691469A46E1
:1016D0007448844202D07448844207D12046FFF700
:1016E000E5FD83460121FFF77DF806E02046FFF780
:1016F000DDFD83460121FFF765F8002D41D1002172
:101700002046FFF736FAAB466648844202D14FF0D6
:10171000190B28E0B4F1804F02D14FF01C0B22E0EE
:101720006248844202D14FF01D0B1CE060488442A5
:1017300002D14FF01E0B16E05E48844202D14FF0FA
:10174000320B10E05C48844202D14FF0360B0AE0C5
:101750005A48844202D14FF0370B04E05248844289
:1017600001D14FF02C0B8DF800B08DF801908DF861
:1017700002A000208DF803006846FEF7DFFFBDE8F9
:10178000FF9F484884420BD04748844208D04C48C9
:10179000844205D04B48844202D04B48844202D157
:1017A0004A48066801E049480668642D0AD242F2B8
:1017B0000F7842F21070B6FBF0F0B0FBF5F0401E6F
:1017C00087B213E040F6B830854209D24FF0630883
:1017D0006420B6FBF0F0B0FBF5F0401E87B205E0E8
:1017E0004FF00008B6FBF5F0401E87B2ADF8087068
:1017F000ADF804800020ADF80A00ADF806008DF8C1
:101800000C0001A92046FFF7E7F901212046FFF768
:101810008DF9012211462046FFF7CBF90121204620
:10182000FFF7A7F94FF0000B1E48844202D14FF09A
:10183000190B28E0B4F1804F02D14FF01C0B22E0CD
:101840001A48844202D14FF01D0B1CE01848844214
:1018500002D14FF01E0B16E01648844202D14FF021
:10186000320B10E01448844202D14FF0360B0AE0EC
:101870001248844202D14FF0370B04E00A488442F8
:1018800001D14FF02C0B8DF800B08DF801908DF840
:1018900002A001208DF803006846FEF74FFF00BF4D
:1018A0006DE70000002C01400034014000040040BE
:1018B00000080040000C00400010004000140040F0
:1018C000004C014000500140005401403400002011
:1018D0002DE9F04104460F461546052F00D37F1F22
:1018E0004FF08040FFF751F9804608EB0706012CC6
:1018F0000FD125480560B1B2A007FFF763F90221B7
:101900004807FFF733F9012202214807FFF751F991
:1019100038E0022C0FD11D480560B1B26007FFF717
:1019200053F904210807FFF721F9012204210807D0
:10193000FFF73FF926E0032C10D115480560B1B23E
:101940004FF08040FFF742F90821C806FFF70EF973
:1019500001220821C806FFF72CF913E0042C0FD14F
:101960000C480560B1B22007FFF732F91021880654
:10197000FFF7FCF8012210218806FFF71AF901E0B1
:10198000BDE8F08100BFFBE710000020140000203C
:10199000180000201C00002070B504460D46E1B27E
:1019A0000548FFF756FA00BF40210348FFF783F9C7
:1019B0000028F9D0204670BD00380140FFF7DCFC5C
:1019C00000F07CFCFEF788FCFEF77CFC00F0C4FE17
:1019D00000BFFEE710B504460E48006844600E489C
:1019E0000068844207D20B480168091D0B48006853
:1019F00000F080FB0CE007480168091D08480068FA
:101A000000F078FB07480068844201D20548046072
:101A100010BD000048000020540000208400002079
:101A200080000020700000202DE9F04105460F469F
:101A30001FB9A80000F040FA00E03846064656B14B
:101A4000602000F039FA04460CB1266304E0304609
:101A500000F0AEFB00E0002424B1A900A522206B19
:101A6000FEF7E6FB2046BDE8F081000070B523E0FC
:101A700000F0A6FE1348006808B9012000E000202D
:101A8000054601F017FBBDB900F05AFB0D48C068D0
:101A9000C468201D00F0B8FA0B480068401E0A49CF
:101AA00008600A480068401E0849086000F06AFBA8
:101AB000204600F022F800BF044800680028D7D173
:101AC00070BD0000280A0020500000204C000020BB
:101AD00070B504460D46206C70B1216CE068084476
:101AE000E0606168E068884201D32068E0602846D1
:101AF000226CE168FEF78AFB70BD10B50446206BCE
:101B000000F056FB204600F053FB10BD30B54FF4FB
:101B10008843174810F0070F05D0C01D20F00700BC
:101B2000134C041B1B1B0246124C22600024114D57
:101B30006C60D018083820F007000F4C206000249B
:101B40000D4D2D686C600C4D2D682C601146441AAB
:101B50004C60094C24680C60084D4C682C60084DA2
:101B60004C682C604FF00044064D2C6030BD0000E6
:101B7000500A0020A4000020940000209C000020B7
:101B800098000020A000002000BFFFF76FFF03486F
:101B900000680128F9D900F085FBF6E788090020E4
:101BA0002DE9F04704460F4615469946DDF820809A
:101BB000002607E0B95D04F134008155B85D00B935
:101BC00002E0761C102EF5D300BF00214320015502
:101BD000052D00D30425E562E56400202065201D65
:101BE00000F085FA04F1180000F081FA2461C5F1D3
:101BF0000500A061646200206065A06584F85C0057
:101C0000BDE8F08710B5002407E004EB84010F4A1B
:101C100002EB810000F05EFA641C052CF5D30C4841
:101C200000F058FA0B4800F055FA0B4800F052FA51
:101C30000A4800F04FFA0A4800F04CFA04480949F3
:101C4000086004480849086010BD000088090020A9
:101C5000EC090020000A0020140A0020280A0020B5
:101C60003C0A0020800000208400002010B50146BE
:101C7000164800E0006803688B42FBD302464368C5
:101C800013448B4204D143684C68234443600146AB
:101C90000A464B6813440468A34211D10C4C0368F4
:101CA0002468A34208D04B680468646823444B60EE
:101CB00003681B680B6005E0054B1B680B6001E0C7
:101CC00003680B60884200D0016010BDA4000020B2
:101CD0009400002070B5054600F032FAA86B08B9F0
:101CE000012400E0002400F04DFA204670BD2DE9EB
:101CF000F04706460C4690460025206800284BD049
:101D0000204641684968416000F1080142688A4202
:101D100002D14168496841604168D1F80C9000BF28
:101D2000204641684968416000F1080142688A42E2
:101D300002D14168496841604168CF6806EB4510AF
:101D4000076007F1340006EB45114860786C06EB3C
:101D50004511886006EB451080F80C80F86A06EBA8
:101D600045110861B8F1030F05D1B86A18B1022016
:101D700006EB45110873F86C06EB45114861786D68
:101D800006EB45118861386B00F024F806EB45112D
:101D900088836D1C4F45C3D12846BDE8F0870000FD
:101DA0000A490968096809B9012100E0002121B147
:101DB0004FF0FF31064A116006E004490968C9681E
:101DC000C868034A41681160704700008000002025
:101DD000700000200246002101E0521C491C1078CE
:101DE000A528FAD0890888B2704700000748006823
:101DF000401C01D1012000E0002018B9FEF7E6F9EF
:101E000000BFFEE7FEF7E2F900BFFEE78800002012
:101E100010B5044600F094F911E0606A08B9012099
:101E200000E0002038B904F1240001F0FDF818B1F9
:101E300000F0BEFB00E005E0A06C401EA064A06CBA
:101E40000028EADC00BF4FF0FF30A06400F09AF9F0
:101E500000F076F911E0206908B9012000E00020C7
:101E600050B904F1100001F0DFF808B100F0A0FB58
:101E7000606C401E606400E002E0606C0028EADCF8
:101E800000BF4FF0FF30606400F07CF910BD70B50A
:101E900005460E4631462846FEF7E3F92846FEF78A
:101EA000D9F9044602E020202855641C0F2CFADBE7
:101EB00000202855281970BD2DE9F04104464FF047
:101EC000000800F07DFC3B48006808B9FFF71EFEE3
:101ED0003948006804425DD19CB1083414F0070F02
:101EE0000FD004F00700C0F10800044414F0070FFD
:101EF00001D1012000E0002018B9FEF767F900BF0A
:101F0000FEE7002C46D02D480068844242D82C4E73
:101F10003046056801E02E462D686868A04202D26E
:101F200028680028F7D123480068854232D03068FD
:101F300000F10808286830606868001B102812D972
:101F40002F1917F0070F01D1012000E0002018B968
:101F5000FEF73CF900BFFEE76868001B78606C6024
:101F60003846FFF783FE154968680968081A13495F
:101F700008600846006813490968884203D20F4880
:101F80000068104908600C4968680968084368607F
:101F90000020286001F08EF818F0070F01D1012011
:101FA00000E0002018B9FEF711F900BFFEE7404637
:101FB000BDE8F08194000020A000002098000020DF
:101FC000A40000209C0000200648006830B10549AC
:101FD000096801F15000096D491C01600148006861
:101FE0007047000048000020001F4FF0807303601E
:101FF000001F0160001F034B03601438026020388B
:1020000070470000ED1D000801460A69D1E9013062
:102010009860D1E9010358605068884201D188680E
:102020005060002008611068401E10601068704702
:102030002DE9F0410546884616460024052700F0A4
:10204000BFFB1D480068804530D300BF7F1E07EBF3
:1020500087021A4B03EB820105EB44100122FFF7C4
:1020600046FE0444002FF1D105EB4410022214492E
:102070000968FFF73CFE044405EB441002221149B5
:102080000968FFF734FE044405EB441004220E49AE
:10209000FFF72DFE044405EB441003220B49FFF724
:1020A00026FE044416B10A480068306001F002F8C8
:1020B0002046BDE8F0810000500000208809002083
:1020C0008000002084000020280A00203C0A002014
:1020D0000C00002000F1080141604FF0FF318160E9
:1020E00000F10801C1600161002101607047002119
:1020F0000161704710B502460B685C1C01D1106984
:1021000007E002F1080000E04068446824689C424F
:10211000FAD944684C604C68A160886041600A61EB
:102120001468641C146010BD42684A6093688B6038
:10213000936859609160086103685B1C0360704795
:1021400010B5FEF743F80D480068401C0B490860C5
:10215000BFF34F8FBFF36F8F0846006801280CD183
:102160000748006810F0FF0F01D1012000E00020B7
:1021700018B9FEF72BF800BFFEE710BD880000205D
:1021800004ED00E010B50948006818B9FEF71EF824
:1021900000BFFEE705480068401E04490860084685
:1021A000006810B90020FEF718F810BD8800002064
:1021B00070B506463546002E31D0083D2C461849EC
:1021C00060680968084201D0012000E0002018B9C9
:1021D000FDF7FCFF00BFFEE7206808B9012000E022
:1021E000002018B9FDF7F2FF00BFFEE70C49606858
:1021F0000968084213D0206888B9094960680968ED
:102200008843606000F0DCFA0649606809680844A9
:10221000044908602046FFF729FD00F04BFF70BD20
:10222000A000002098000020064800684FF47A7152
:10223000B0FBF1F0401E4FF0E0214861072008613B
:10224000704700003400002070B5FDF7C9FF044658
:10225000102C10D34FF0E020204490F8F0530E489B
:102260000078854201DB012000E0002018B9FDF76D
:10227000ADFF00BFFEE70948006800F4E0600849D0
:102280000968884201D8012000E0002018B9FDF754
:102290009DFF00BFFEE770BD8C0000200CED00E04C
:1022A000900000204FF0805003490860BFF34F8F2B
:1022B000BFF36F8F7047000004ED00E010B50023FE
:1022C000012244F620610248FFF7FCF910BD00002E
:1022D0000010004070B50446002634B3154800686D
:1022E00008B9012000E0002018B9FDF76FFF00BF1A
:1022F000FEE700F065FA1048006805190F4800680D
:10230000001DFFF781FE50B90C48006890F82C10B2
:10231000012088400A49096881430948016028462C
:10232000FFF758FB00F0C6FE06460EB9FFF7BAFFEE
:1023300070BD000074000020540000204800002000
:10234000580000202DE9F04704460E464FF00009E2
:102350001CB9FDF73BFF00BFFEE70EB1012000E016
:10236000002018B9FDF732FF00BFFEE721480068E2
:1023700008B9012000E0002018B9FDF727FF00BFD1
:10238000FEE700F01DFA1C48D0F80080206885198F
:102390002068404507D92068A8420BD9454509D98E
:1023A0004FF0010906E02068A84201D8454501D94F
:1023B0004FF001092560B9F1000F13D00F480068F4
:1023C000001DFFF721FE50B90C48006890F82C1052
:1023D000012088400A49096881430948016028466C
:1023E000FFF7F8FA00F066FE07460FB9FFF75AFF4D
:1023F000BDE8F08774000020540000204800002051
:1024000058000020FEB505460020287026480068C8
:102410000290254909684801FFF74EFD0446002C4B
:1024200040D06A4620460299FFF702FE02906421DE
:102430000098B0FBF1F00090009800282FD0002009
:10244000019028E0019804EB401080690099B0FBEE
:10245000F1F6019804EB401041682846FFF717FD9C
:1024600005464EB1019804EB401033460FA1826936
:102470002846FEF795FD07E0019804EB40100EA1F9
:1024800082692846FEF78CFD2846FDF7E3FE0544E9
:102490000198401C0190DDE901018842D2D3204619
:1024A000FFF786FEFEBD00005000002009257509DB
:1024B00009257525250D0A0009257509093C3125D1
:1024C000250D0A0008B500BF00F00AFD009009E0E4
:1024D0000220FFF7C1F80320FFF7BEF8C8216846C5
:1024E000FFF730FFF4E700007FB5054600202870B5
:1024F0002A4800680390294909684801FFF7DCFC75
:102500000446002C49D0002220460399FFF790FD95
:1025100003900020029039E0029804EB4010007B09
:10252000012806D0022806D0032806D0042808D1A6
:1025300005E0522607E0422605E0532603E0442644
:1025400001E0002600BF00BF029804EB4010416884
:102550002846FFF79CFC0546029804EB4010806873
:10256000029904EB4111898BCDE90010029804EB2C
:10257000401032460AA103692846FEF711FD28469D
:10258000FDF768FE05440298401C0290DDE9020157
:102590008842C1D32046FFF70BFE7FBD50000020CC
:1025A0000925630925750925750925750D0A00009A
:1025B00001200149086070476400002000BF14E05A
:1025C00000234FF4967219460848006800F08EFA0E
:1025D0000446012C03D106A0FEF7D2FC05E0012041
:1025E000FFF73AF80420FFF737F8E9E70800002082
:1025F000BDD3CAD5B5BDCDACB2BDD0C5BAC50D0A27
:102600000000000070B505460C461DB9FDF7DEFD63
:1026100000BFFEE71348016818312846FFF76AFD3E
:1026200010480068001DFFF7EFFC50B90D48006826
:1026300090F82C10012088400B49096881430A4812
:102640000160601C06D107480168091D0748FFF7B3
:102650006BFD05E00648006806193046FFF7BAF939
:1026600070BD000048000020580000203C0A0020F7
:102670005400002070B505462C46002D4BD026494D
:10268000E06A0968C96A884245D2A06910F0004F23
:1026900005D121480068C06AC0F10500A061E16A67
:1026A00001EB81011D4A02EB81016069884201D181
:1026B000012000E0002050B3201DFFF7A5FC78B9F1
:1026C000E06A00EB8000154951F8200040B994F809
:1026D0002C1001208840124909688143104801608C
:1026E0000D480068C06AE06294F82C100120884010
:1026F0000B49096808430A490860E16A01EB810156
:10270000064A02EB8100211DFFF70EFD03E002489F
:102710000068C06AE06270BD48000020880900209F
:102720005800002010B504461CB9FDF74FFD00BF4E
:10273000FEE703480068206002480068606010BD42
:10274000680000205400002004E0FEF75BFF0A2030
:10275000FFF7C0FDF9E700001FB5002000900190D1
:102760000290034682220FA10390104800F01CFB48
:102770000446012C0FD1FDF729FDA01E0C4908606D
:1027800001200C49086000200B4908600B490860D3
:1027900000F002F904E01CB9FDF718FD00BFFEE7E8
:1027A0001FBD000049444C4500000000891B000883
:1027B000700000205C000020540000200C0000206D
:1027C00002480068401C01490860704774000020FE
:1027D00010B52748006818B101202649086045E077
:1027E00000202449086024480068244908600846FD
:1027F00000682349096888420BD92249096801F118
:102800005400496D1D4A12681D4B1B68D21A1144B1
:1028100001601A4800681A4908601B480068B0FA4D
:1028200080F0C0F11F0404EB8400184951F8200027
:1028300008B1012000E0002018B9FDF7C7FC00BF77
:10284000FEE704EB8401114A02EB8100416849680C
:10285000416000F1080142688A4202D1416849683A
:1028600041604168C968074A116000BF10BD00009F
:1028700074000020640000200C0000207C00002078
:10288000780000204800002058000020880900201F
:10289000FEB030E0FEF7F0FC0446002C28D0012CFE
:1028A00002D0042C22D117E013A0FEF769FB1FA071
:1028B000FEF766FB01A8FFF717FE01A927A0FEF7A8
:1028C0005FFB28A0FEF75CFB01A8FFF79BFD01A9B9
:1028D00022A0FEF755FB0AE02D48FEF751FB2D4ADA
:1028E0004CF250310120FEF7F3FF00E000BF00BFC3
:1028F0000A20FFF7EFFCCDE73D3D3D3D3D3D3D3D31
:102900003D3D3D3D3D3D3D3D3D3D3D3D3D3D3D3DF7
:102910003D3D3D3D3D3D3D3D3D3D3D3D3D3D3D3DE7
:102920003D3D3D3D3D3D3D3D3D0D0A00C8CECEF116
:10293000C3FB202020202020C8CECEF1D7B4CCACC1
:1029400020D3C5CFC8BCB6202020CAA3D3E0D5BBB6
:1029500020C8CECEF1D0F2BAC50D0A0025730D0AFB
:10296000000000000D0AC8CECEF1C3FB20202020BD
:10297000202020D4CBD0D0BCC6CAFD2020202020CF
:1029800020202020CAB9D3C3C2CA0D0A000000000B
:102990009C310008450B00081CB522480146097807
:1029A0000191FF21024611700146097800919DF8BE
:1029B000001001F010011C4A117007211B4A116020
:1029C00009E01A490968491E184A11609DF800106B
:1029D0004906090E00919DF8001001F08001802940
:1029E000EFD0124909680902104A1160114609889E
:1029F00001F4E06111600B4A019911700C48006804
:102A000040F470000A4908600846006840F07040D1
:102A10000860FFF709FC002006490860FDF7A4FBE9
:102A200000201CBD00E400E08C000020900000208D
:102A300020ED00E08800002070B505460E460DB17F
:102A4000012000E0002018B9FDF7C0FB00BFFEE741
:102A5000AE4201D8012000E0002018B9FDF7B6FB16
:102A600000BFFEE702220021284600F00AF80446D3
:102A700004B1A6631CB9FDF7A9FB00BFFEE7204621
:102A800070BD2DE9F04706460D4690464FF000090F
:102A90000EB1012000E0002018B9FDF797FB00BF40
:102AA000FEE70DB9002702E006FB05F0471C07F121
:102AB0005400FFF701FA044674B10DB9246002E036
:102AC00004F154002060E66325640121204600F0F3
:102AD000ABF884F85080A146B9F1000F03D1FDF79F
:102AE00075FB00BFFEE74846BDE8F0872DE9FF43D0
:102AF00083B005460E461F464FF000092C461CB910
:102B0000FDF764FB00BFFEE70EB9206C08B9012099
:102B100000E0002018B9FDF759FB00BFFEE700BF39
:102B2000FFF70EFBA06B90B3D4F80C803146204623
:102B3000FEF7CEFFB7B9A06B401EA063206810B9A6
:102B4000FFF742FA6060206908B9012000E0002028
:102B5000B8B904F1100000F067FA012811D1FFF7AD
:102B6000A1FB0EE0C4F80C80606A08B9012000E007
:102B7000002030B904F1240000F056FA08B1FFF744
:102B800091FBFFF7FFFA012007B0BDE8F083FFE7F4
:102B9000059818B9FFF7F6FA0020F5E7B9F1000F2C
:102BA00004D101A8FFF7BEFD4FF00109FFF7EAFAD3
:102BB000FFF706FEFFF7C4FA606C401C00D16064AA
:102BC000A06C401C00D1A064FFF7DCFA05A901A8A5
:102BD00000F0B0F808BB2046FFF77CF8B8B12068D9
:102BE00030B9FFF7ADFA6068FFF744FDFFF7CAFAA6
:102BF00004F124000599FFF705FD2046FFF708F9C9
:102C000000F058FA00288BD1FFF74CFB88E72046EC
:102C1000FFF7FEF800F04EFA82E72046FFF7F8F8DB
:102C200000F048FA0020AFE770B505460E462C4686
:102C30001CB9FDF7CBFA00BFFEE7FFF781FAD4E934
:102C40000F12206801FB020060600020A063206872
:102C5000A060E06B401E226C216800FB0210E06067
:102C60004FF0FF306064A06476B9206908B9012094
:102C700000E0002080B904F1100000F0D5F901282F
:102C80000AD1FFF70FFB07E004F11000FFF722FA6B
:102C900004F12400FFF71EFAFFF774FA012070BD5B
:102CA0002DE9F04105460E462C461CB9FDF78EFA7B
:102CB00000BFFEE7206C08B9012000E0002018B931
:102CC000FDF784FA00BFFEE7206808B9606808B91C
:102CD000012000E0002018B9FDF778FA00BFFEE7F8
:102CE000FFF7B2FAFDF772FA8046A06BE16B8842FB
:102CF00019D2A06B401CA063A06C401C0ED1606A6E
:102D000008B9012000E0002058B904F1240000F0C7
:102D10008BF930B12EB10120306002E0A06C401C74
:102D2000A064012700E000274046FDF756FA384628
:102D3000BDE8F0812DE9F04104460D461CB9FDF7D0
:102D400045FA00BFFEE71DB9FDF740FA00BFFEE7F8
:102D5000FFF7F6F9124807682868401C01D10026E1
:102D600019E0104920680968884204D06068B842B8
:102D700001D801260FE06068381A2968884209D214
:102D800028686168791A401A28602046FFF7CAFC53
:102D9000002600E00126FFF7F5F93046BDE8F08196
:102DA00054000020680000202DE9FF4F81B08046CC
:102DB00016469A46DDE90E5BB8F1000F03D1FDF728
:102DC00005FA00BFFEE7052D01D2012000E000203A
:102DD00018B9FDF7FBF900BFFEE730461099FEF782
:102DE00023FE0446002C5DD0701E216B01EB800990
:102DF00029F0070919F0070F01D1012000E0002098
:102E000018B9FDF7E3F900BFFEE700962A46204611
:102E1000119B0299FEF7C4FE524641464846FFF711
:102E2000E3F82060BBF1000F01D0CBF80040FFF7C2
:102E300087F925480068401C23490860234800683A
:102E400040B9224804600846006801280CD1FEF70A
:102E5000D9FE09E01E48006830B91C480068C06A05
:102E6000A84201D8194804601A480068401C194952
:102E7000086008460068606494F82C1001208840BF
:102E800015490968084314490860E16A01EB8101AA
:102E9000124A02EB8100211DFFF746F90127FFF7D7
:102EA00071F901E04FF0FF37012F09D108480068A0
:102EB00030B106480068C06AA84201D2FFF7F2F9B3
:102EC000384605B0BDE8F08F5000002048000020D3
:102ED0005C0000206C0000205800002088090020C1
:102EE0000149086870470000540000202DE9F041B6
:102EF0004FF0000841480068002872D1404800683F
:102F0000401C3F49086008460668DEB93D48006835
:102F1000006808B9012000E0002018B9FDF756F953
:102F200000BFFEE737480768374800683549086042
:102F30003548076035480068401C34490860FEF792
:102F40002FFF00BF3248006886423CD300BF2D48A7
:102F50000068006808B9012000E0002020B14FF0AF
:102F6000FF302B4908602DE026480068C068C4681F
:102F70006568AE4202D22648056023E0201DFFF7B7
:102F800043F8A06A18B104F11800FFF73DF894F86F
:102F90002C10012088401F49096808431D4908601A
:102FA000E16A01EB81011C4A02EB8100211DFFF760
:102FB000BBF81A49E06A0968C96A8842C7D34FF06A
:102FC0000108C4E700BF15480068C06A00EB800034
:102FD000114951F82000012808D94FF0010805E0F7
:102FE000FFE70F480068401C0D4908600D48006865
:102FF00008B14FF001084046BDE8F08174000020A0
:103000005400002080000020840000206800002080
:10301000700000205800002088090020480000208F
:10302000600000206400002070B50646F068C468A7
:103030001CB9FDF7CBF800BFFEE704F11800FEF75E
:10304000E3FF16480068A8B9201DFEF7DDFF94F8DD
:103050002C10012088401249096808431049086073
:10306000E16A01EB81010F4A02EB8100211DFFF7AC
:103070005BF804E004F118010B48FFF755F80B4921
:10308000E06A0968C96A884204D901250120084913
:10309000086000E00025284670BD00007400002094
:1030A0005800002088090020140A00204800002051
:1030B0006400002070B500253048006818B9FDF79D
:1030C00085F800BFFEE7FFF73BF82C480068401E7C
:1030D0002A4908600846006800284BD12848006843
:1030E000002847D024E02748C068C46804F11800CD
:1030F000FEF78AFF201DFEF787FF94F82C100120B1
:1031000088402149096808431F490860E16A01EBCA
:1031100081011E4A02EB8100211DFFF705F81C49C1
:10312000E06A0968C96A884202D301201949086027
:103130001448006808B9012000E000200028D2D01F
:103140001548006878B10AE0FFF7D0FE10B1012001
:103150001049086010480068401E0F4908600E487A
:1031600000680028F0D10B480068012802D1012531
:10317000FFF798F8FFF706F8284670BD74000020A6
:1031800050000020140A0020580000208809002068
:103190004800002064000020600000204B32BCFC8E
:1031A000B0B4CFC2A3ACC6F4B6AFB5A5B4CEB6A882
:1031B000CAB1C6F7D6D0B6CFA3AC35306D73BAF36B
:1031C000D4DAB6A8CAB1C6F7D6D0B6CFB8F8C8CE4A
:1031D000CEF1765461736B4D736750726FB7A2CBAB
:1031E000CDCDACB2BDD0C5BAC50D0A000C320008B9
:1031F00000000020B0000000C80F0008BC3200082A
:10320000B0000020A0510000D80F0008000000000E
:1032100000000000000000000000000000000000AE
:10322000000000000000000000000000000000009E
:103230000102030401020304060708090204060848
:1032400000A24A0400000000000000000102030484
:103250000607080900000000000000000000000050
:10326000000000000000000000000000000000005E
:10327000000000000000000000000000000000004E
:10328000000000000000000000000000000000003E
:1032900000000000AAAAAAAA000000000000000086
:1032A000000000000000000000000000000000001E
:0C32B00000000000000000000000000012
:0400000508000131BD
:00000001FF
