:020000040800F2
:10000000C8EC0020552D02080D2702080F27020812
:100010003D2702083F270208412702080000000090
:100020000000000000000000000000006FFB00085E
:1000300043270208000000001DFB00080D03010813
:100040004D2E0208512E0208552E0208592E020884
:100050005D2E0208612E0208652E0208692E020834
:100060006D2E0208712E0208752E0208792E0208E4
:100070007D2E0208812E0208852E0208892E020894
:100080008D2E0208912E0208952E0208992E020844
:100090009D2E0208A12E0208A52E0208A92E0208F4
:1000A000AD2E0208B12E0208B52E0208B92E0208A4
:1000B000BD2E0208C12E0208C52E0208C92E020854
:1000C000CD2E0208D12E0208D52E0208D92E020804
:1000D000DD2E020863FC0108E52E0208E92E020865
:1000E000ED2E0208F12E0208F52E0208F92E020864
:1000F000FD2E0208012F0208052F0208092F020811
:100100000D2F0208813E0008152F0208192F020842
:100110001D2F0208212F0208B3F40108292F02081D
:100120002D2F0208312F0208352F0208893E0008C2
:1001300000000000000000000000000000000000BF
:1001400000000000000000000000000000000000AF
:10015000000000000000000000000000000000009F
:10016000000000000000000000000000000000008F
:10017000000000000000000000000000000000007F
:10018000000000000000000000000000000000006F
:10019000000000000000000000000000000000005F
:1001A000000000000000000000000000000000004F
:1001B000000000000000000000000000000000003F
:1001C000000000000000000000000000000000002F
:1001D000000000000000000000000000000000001F
:1001E000000000000000000000000000000000000F
:1001F00000000000000000000000000000000000FF
:1002000000000000000000000000000000000000EE
:1002100000000000000000000000000000000000DE
:1002200000000000000000000000000000000000CE
:1002300000000000000000000000000000000000BE
:1002400000000000000000000000000000000000AE
:10025000000000000000000000000000000000009E
:10026000000000000000000000000000000000008E
:10027000000000000000000000000000000000007E
:10028000000000000000000000000000000000006E
:10029000000000000000000000000000000000005E
:1002A000000000000000000000000000000000004E
:1002B000000000000000000000000000000000003E
:1002C000000000000000000000000000000000002E
:1002D000000000000000000000000000000000001E
:1002E000000000000000000000000000000000000E
:1002F00000000000000000000000000000000000FE
:1003000000000000000000000000000000000000ED
:1003100000000000000000000000000000000000DD
:1003200000000000000000000000007FF00000005E
:100330000000007FF00000000000007FF0000000DF
:100340000000007FF00000000000007FF0000000CF
:100350000000007FF00000000000007FF0000000BF
:100360000000007FF00000000000007FF0000000AF
:100370000000007FF00000000000007FF00000009F
:100380000000007FF00000000000007FF00000008F
:100390000000007FF00000000000007FF00000007F
:1003A0000000007FF00000000000007FF00000006F
:1003B0000000007FF00000000000007FF00000005F
:1003C0000000007FF00000000000007FF00000004F
:1003D0000000007FF00000000FFFFFFFFFFFFF8025
:1003E0000FFFFFFFFFFFFF800FFFFFFFFFFFFF80FB
:1003F0000FFFFFFFFFFFFF800FFFFFFFFFFFFF80EB
:100400000FFFFFFFFFFFFF800FFFFFFFFFFFFF80DA
:100410000FFFFFFFFFFFFF800FFFFFFFFFFFFF80CA
:100420000FFFFFFFFFFFFF800FFFFFFFFFFFFF80BA
:100430000000007FF00000000000007FF0000000DE
:100440000000007FF00000000000007FF0000000CE
:100450000000007FF00000000000007FF0000000BE
:100460000000007FF00000000000007FF0000000AE
:100470000000007FF00000000000007FF00000009E
:100480000000007FF00000000000007FF00000008E
:100490000000007FF00000000000007FF00000007E
:1004A0000000007FF00000000000007FF00000006E
:1004B0000000007FF00000000000007FF00000005E
:1004C0000000007FF00000000000007FF00000004E
:1004D0000000007FF00000000000007FF00000003E
:1004E000000000000000000000000000000000000C
:1004F00000000000000000000000000000000000FC
:1005000000000000000000000000000000000000EB
:1005100000000000000000000000000000000000DB
:1005200000000000000000000000000000000000CB
:1005300000000000000000000000000000000000BB
:1005400000000000000000000000000000000000AB
:10055000000000000000000000000000000000009B
:10056000000000000000000000000000000000008B
:10057000000000000000000000000000000000007B
:10058000000000000000000000000000000000006B
:10059000000000000000000000000000000000005B
:1005A000000000000000000000000000000000004B
:1005B000000000000000000000000000000000003B
:1005C000000000000000000000000000000000002B
:1005D000000000000000000000000000000000001B
:1005E000000000000000000000000000000000000B
:1005F00000000000000000000000000000000000FB
:1006000000000000000000000000000000000000EA
:1006100000000000000000000000000000000000DA
:1006200000000000000000000000000000000000CA
:1006300000000000000000000000000000000000BA
:1006400000000000000000000000000000000000AA
:1006500000000000000000000FFFFFFFFFFFFF8011
:100660000FFFFFFFFFFFFF800FFFFFFFFFFFFF8078
:100670000FFFFFFFFFFFFF800FFFFFFFFFFFFF8068
:100680000FFFFFFFFFFFFF800FFFFFFFFFFFFF8058
:100690000FFFFFFFFFFFFF800FFFFFFFFFFFFF8048
:1006A0000FFFFFFFFFFFFF800FFFFFFFFFFFFF8038
:1006B000000000000000000000000000000000003A
:1006C000000000000000000000000000000000002A
:1006D000000000000000000000000000000000001A
:1006E000000000000000000000000000000000000A
:1006F00000000000000000000000000000000000FA
:1007000000000000000000000000000000000000E9
:1007100000000000000000000000000000000000D9
:1007200000000000000000000000000000000000C9
:1007300000000000000000000000000000000000B9
:1007400000000000000000000000000000000000A9
:100750000000000000000000000000000000000099
:100760000000000000000000000000000000000089
:100770000000000000000000000000000000000079
:100780000000000000000000000000000000000069
:100790000000000000000000000000000000000059
:1007A0000000000000000000000000000000000049
:1007B0000000000000000000000000000000000039
:1007C0000000000000000000000000000000000029
:1007D0000000000000000000000000000000000019
:1007E0000000000000000000000000000000000009
:1007F00000000000000000000000000000000000F9
:1008000000000000000000000000000000000000E8
:1008100000000000000000000000000000000000D8
:1008200000000000000000000000000000000000C8
:1008300000000000000000000000000000000000B8
:1008400000000000000000000000000000000000A8
:100850000000000000000000000000000000000098
:100860000000000000000000000000000000000088
:1008700000FFFE0000FFFE0000FFFE0000FFFE0084
:1008800000FFFE0000FFFE0000FFFE0000FFFE0074
:1008900000FFFE0000FFFE0000FFFE0000FFFE0064
:1008A00000FFFE0000FFFE0000FFFE000000000051
:1008B0000000000000000000000000000000000038
:1008C0000000000000000000000000000000000028
:1008D0000000000000000000000000000000000018
:1008E0000000000000000000000000000000000008
:1008F00000000000000000000000000000000000F8
:1009000000000000000000000000000000000000E7
:1009100000000000000000000000000000000000D7
:1009200000000000000000000000000000000000C7
:1009300000000000000000000000000000000000B7
:1009400000000000000000000000000000000000A7
:100950000000000000000000000000000000000097
:100960000000000000000000000000000000000087
:100970000000000000000000000000000000000077
:100980000000000000000000000000000000000067
:1009900000000000000000000000000000FFFE005A
:1009A00000FFFE0000FFFE0000FFFE0000FFFC0055
:1009B00001FFFC0001FFFC0001FFFC0001FFF8004B
:1009C00001FFF80003FFF80003FFF80003FFF00049
:1009D00003FFF00003FFF00007FFF00007FFE00057
:1009E00007FFE00007FFE00007FFE0000000000055
:1009F0000000003FE0000000000003FFFE000000D8
:100A000000001FFFFF80000000003FFFFFE000002C
:100A10000000FFFFFFF800000001FFFFFFFC0000E7
:100A20000003FFFFFFFE00000007FFFFFFFF0000C5
:100A3000000FFFFFFFFF8000000FFFFFFFFF8000A0
:100A4000001FFFE03FFFC000003FFF800FFFE000FE
:100A5000003FFF0007FFE000007FFE0003FFF00003
:100A6000007FFC0001FFF00000FFF80000FFF8002D
:100A700000FFF80000FFF80000FFF000007FF80022
:100A800001FFF000007FFC0001FFE000003FFC00E0
:100A900001FFE000003FFC0003FFE000003FFE001C
:100AA00003FFE000003FFE0003FFC000001FFE0048
:100AB00003FFC000001FFE0007FFC000001FFF0073
:100AC00007FFC000001FFF0007FFC000001FFF005E
:100AD00007FF8000000FFF0007FF8000000FFF00EE
:100AE00007FF8000000FFF0007FF8000000FFF00DE
:100AF0000FFF8000000FFF800FFF8000000FFF80BE
:100B00000FFF8000000FFF800FFF8000000FFF80AD
:100B10000FFF8000000FFF800FFF8000000FFF809D
:100B20000FFF8000000FFF800FFF8000000FFF808D
:100B30000FFF8000000FFF800FFF8000000FFF807D
:100B40000FFF8000000FFF800FFF8000000FFF806D
:100B50000FFF8000000FFF800FFF8000000FFF805D
:100B60000FFF8000000FFF800FFF8000000FFF804D
:100B700007FF8000000FFF0007FF8000000FFF004D
:100B800007FF8000000FFF0007FF8000000FFF003D
:100B900007FFC000001FFF0007FFC000001FFF008D
:100BA00007FFC000001FFF0003FFC000001FFE0082
:100BB00003FFC000001FFE0003FFE000003FFE0037
:100BC00003FFE000003FFE0001FFE000003FFC00EB
:100BD00001FFE000003FFC0001FFF000007FFC008F
:100BE00000FFF000007FF80000FFF80000FFF800B1
:100BF00000FFF80000FFF800007FFC0001FFF0009C
:100C0000007FFE0003FFF000003FFF0007FFE00051
:100C1000003FFF800FFFE000001FFFE03FFFC0002C
:100C2000000FFFFFFFFF8000000FFFFFFFFF8000AE
:100C30000007FFFFFFFF00000003FFFFFFFE0000B3
:100C40000001FFFFFFFC00000000FFFFFFF80000B5
:100C500000003FFFFFE0000000001FFFFFC000009A
:100C6000000003FFFE0000000000003FE000000065
:100C700000000007FE00000000000007FE0000006A
:100C800000000007FE0000000000000FFE00000052
:100C90000000000FFE0000000000001FFE0000002A
:100CA0000000001FFE0000000000003FFE000000EA
:100CB0000000007FFE000000000000FFFE000000BA
:100CC000000001FFFE000000000003FFFE00000026
:100CD00000000FFFFE00000000007FFFFE0000008C
:100CE0000007FFFFFE00000003FFFFFFFE00000003
:100CF00003FFFFFFFE00000003FFFFFFFE000000F8
:100D000003FFFFFFFE00000003FFFFFFFE000000E7
:100D100003FFFFFFFE00000003FFFFFFFE000000D7
:100D200003FFFFFFFE00000003FFFFFFFE000000C7
:100D300003FFFFFFFE0000000000007FFE00000038
:100D40000000007FFE0000000000007FFE000000A9
:100D50000000007FFE0000000000007FFE00000099
:100D60000000007FFE0000000000007FFE00000089
:100D70000000007FFE0000000000007FFE00000079
:100D80000000007FFE0000000000007FFE00000069
:100D90000000007FFE0000000000007FFE00000059
:100DA0000000007FFE0000000000007FFE00000049
:100DB0000000007FFE0000000000007FFE00000039
:100DC0000000007FFE0000000000007FFE00000029
:100DD0000000007FFE0000000000007FFE00000019
:100DE0000000007FFE0000000000007FFE00000009
:100DF0000000007FFE0000000000007FFE000000F9
:100E00000000007FFE0000000000007FFE000000E8
:100E10000000007FFE0000000000007FFE000000D8
:100E20000000007FFE0000000000007FFE000000C8
:100E30000000007FFE0000000000007FFE000000B8
:100E40000000007FFE0000000000007FFE000000A8
:100E50000000007FFE0000000000007FFE00000098
:100E60000000007FFE0000000000007FFE00000088
:100E70000000007FFE0000000000007FFE00000078
:100E80000000007FFE0000000000007FFE00000068
:100E90000000007FFE0000000000007FFE00000058
:100EA0000000007FFE0000000000007FFE00000048
:100EB0000000007FFE0000000000007FFE00000038
:100EC0000000007FFE0000000000007FFE00000028
:100ED0000000007FFE0000000000007FFE00000018
:100EE0000000007FFE0000000000007FFE00000008
:100EF0000000001FF8000000000001FFFF8000005C
:100F000000000FFFFFF0000000003FFFFFFC0000AB
:100F10000000FFFFFFFF00000001FFFFFFFF800058
:100F20000003FFFFFFFFC0000007FFFFFFFFE0001F
:100F3000000FFFFFFFFFF000001FFFFFFFFFF800A3
:100F4000001FFFE01FFFF800003FFF8003FFFC00D1
:100F5000007FFF0001FFFC00007FFC00007FFE001F
:100F600000FFFC00007FFE0000FFF800003FFF00D4
:100F700001FFF000001FFF0001FFF000001FFF0055
:100F800001FFF000001FFF0003FFE000000FFF80E3
:100F900003FFE000000FFF8003FFE000000FFF8071
:100FA00003FFE000000FFF8003FFC000000FFF8081
:100FB00003FFC000000FFF8007FFC000000FFF808D
:100FC00007FFC000000FFF8007FFC000000FFF00F9
:100FD00007FFC000001FFF0007FFC000001FFF0049
:100FE00000000000003FFF0000000000003FFF0085
:100FF00000000000003FFE0000000000007FFE0037
:101000000000000000FFFC000000000001FFFC00E9
:101010000000000003FFF8000000000007FFF000E0
:10102000000000000FFFF000000000001FFFE000C4
:10103000000000003FFFC000000000007FFF8000B4
:1010400000000001FFFF000000000003FFFE0000A1
:101050000000000FFFFC00000000001FFFF8000070
:101060000000007FFFF00000000000FFFFE0000034
:10107000000001FFFF800000000007FFFF000000EC
:1010800000000FFFFE00000000003FFFF80000001E
:1010900000007FFFF00000000000FFFFC000000024
:1010A0000001FFFF800000000003FFFE00000000C1
:1010B0000007FFFC00000000000FFFF00000000030
:1010C000001FFFE000000000003FFFC00000000024
:1010D000003FFF8000000000007FFF0000000000D4
:1010E00000FFFE000000000000FFFC000000000008
:1010F00001FFF8000000000001FFF0000000000008
:1011000003FFF0000000000003FFE000000000000B
:1011100003FFE0000000000007FFFFFFFFFFFF806C
:1011200007FFFFFFFFFFFF8007FFFFFFFFFFFF80BD
:101130000FFFFFFFFFFFFF800FFFFFFFFFFFFF809D
:101140000FFFFFFFFFFFFF800FFFFFFFFFFFFF808D
:101150000FFFFFFFFFFFFF800FFFFFFFFFFFFF807D
:101160000FFFFFFFFFFFFF800FFFFFFFFFFFFF806D
:101170000000003FF0000000000003FFFF0000003F
:1011800000001FFFFFC0000000007FFFFFF800000D
:101190000000FFFFFFFC00000003FFFFFFFF000057
:1011A0000007FFFFFFFF8000000FFFFFFFFFC000F1
:1011B000001FFFFFFFFFE000001FFFFFFFFFE00039
:1011C000003FFFE03FFFF000007FFF8007FFF800D7
:1011D000007FFE0003FFF80000FFFC0001FFFC00A1
:1011E00000FFF80000FFFC0001FFF000007FFC00A2
:1011F00001FFF000007FFC0001FFE000003FFE0067
:1012000003FFE000003FFE0003FFE000003FFE00A0
:1012100003FFC000003FFE0003FFC000003FFE00D0
:1012200003FFC000003FFE0007FFC000003FFE00BC
:1012300007FFC000003FFC0007FFC000007FFC006C
:1012400000000000007FFC0000000000007FFC00A8
:101250000000000000FFF8000000000001FFF8009F
:101260000000000003FFF0000000000007FFE000A6
:10127000000000001FFFE00000000000FFFFC000B2
:101280000000007FFFFF00000000007FFFFE000065
:101290000000007FFFF800000000007FFFF8000062
:1012A0000000007FFFFF00000000007FFFFFC00084
:1012B0000000007FFFFFE0000000007FFFFFF00064
:1012C0000000007FFFFFF800000000003FFFFC006F
:1012D0000000000003FFFC000000000000FFFE0013
:1012E00000000000007FFF0000000000003FFF0042
:1012F00000000000001FFF0000000000000FFF8042
:1013000000000000000FFF8000000000000FFF80C1
:10131000000000000007FF801FFF00000007FFC063
:101320001FFF00000007FFC01FFF00000007FFC0F5
:101330001FFF00000007FFC00FFF00000007FFC0F5
:101340000FFF00000007FFC00FFF00000007FFC0F5
:101350000FFF80000007FF800FFF8000000FFF805D
:1013600007FFC000000FFF8007FFC000001FFF80C5
:1013700007FFE000001FFF0003FFE000003FFF0049
:1013800003FFF800007FFF0003FFFC0001FFFE00E9
:1013900001FFFE0003FFFC0000FFFFC01FFFFC0079
:1013A00000FFFFFFFFFFF800007FFFFFFFFFF000DF
:1013B000003FFFFFFFFFE000001FFFFFFFFFC00037
:1013C000000FFFFFFFFF80000003FFFFFFFE000094
:1013D0000001FFFFFFFC000000007FFFFFE00000B6
:1013E00000000FFFFF000000000000FFF000000001
:1013F0000000000007FF0000000000000FFF0000D9
:10140000000000000FFF0000000000001FFF0000B0
:10141000000000003FFF0000000000003FFF000050
:10142000000000007FFF000000000000FFFF000040
:1014300000000001FFFF000000000001FFFF0000AE
:1014400000000003FFFF000000000007FFFF000096
:1014500000000007FFFF00000000000FFFFF00007A
:101460000000001FFFFF00000000001FFFFF000042
:101470000000003FFFFF00000000007FFFFF0000B2
:10148000000000FFEFFF0000000000FFCFFF0000A2
:10149000000001FFCFFF0000000003FF8FFF0000EE
:1014A000000003FF0FFF0000000007FE0FFF000019
:1014B00000000FFE0FFF000000001FFC0FFF0000E8
:1014C00000001FF80FFF000000003FF80FFF0000B2
:1014D00000007FF00FFF000000007FE00FFF000022
:1014E0000000FFE00FFF00000001FFC00FFF000041
:1014F0000003FF800FFF00000003FF800FFF0000CC
:101500000007FF000FFF0000000FFE000FFF0000AC
:10151000000FFE000FFF0000001FFC000FFF000087
:10152000003FF8000FFF0000007FF8000FFF0000F1
:10153000007FF0000FFF000000FFE0000FFF000041
:1015400001FFE0000FFF000001FFC0000FFF0000DF
:1015500003FF80000FFF000007FF80000FFF000067
:1015600007FF00000FFF00000FFE00000FFF00004C
:101570001FFC00000FFF00001FFC00000FFF000019
:101580001FF800000FFF00001FFFFFFFFFFFFFC05D
:101590001FFFFFFFFFFFFFC01FFFFFFFFFFFFFC099
:1015A0001FFFFFFFFFFFFFC01FFFFFFFFFFFFFC089
:1015B0001FFFFFFFFFFFFFC01FFFFFFFFFFFFFC079
:1015C0001FFFFFFFFFFFFFC01FFFFFFFFFFFFFC069
:1015D0001FFFFFFFFFFFFFC0000000000FFF000024
:1015E000000000000FFF0000000000000FFF0000DF
:1015F000000000000FFF0000000000000FFF0000CF
:10160000000000000FFF0000000000000FFF0000BE
:10161000000000000FFF0000000000000FFF0000AE
:10162000000000000FFF0000000000000FFF00009E
:10163000000000000FFF0000000000000FFF00008E
:10164000000000000FFF0000000000000FFF00007E
:10165000000000000FFF0000000000000FFF00006E
:10166000000000000FFF0000000000000FFF00005E
:101670000003FFFFFFFFFC000003FFFFFFFFFC0074
:101680000003FFFFFFFFFC000003FFFFFFFFFC0064
:101690000007FFFFFFFFFC000007FFFFFFFFFC004C
:1016A0000007FFFFFFFFFC000007FFFFFFFFFC003C
:1016B0000007FFFFFFFFFC00000FFFFFFFFFFC0024
:1016C000000FFFFFFFFFFC00000FFF000000000005
:1016D000000FFE0000000000000FFE0000000000F0
:1016E000001FFE0000000000001FFE0000000000C0
:1016F000001FFE0000000000001FFC0000000000B2
:10170000001FFC0000000000003FFC000000000083
:10171000003FFC0000000000003FF8000000000057
:10172000003FF80000000000003FF800000000004B
:10173000007FF80000000000007FF80000000000BB
:10174000007FF003FC000000007FF03FFFC00000BE
:10175000007FF0FFFFF8000000FFF3FFFFFC000038
:1017600000FFF7FFFFFF000000FFEFFFFFFF80001B
:1017700000FFFFFFFFFFC00000FFFFFFFFFFE000D3
:1017800001FFFFFFFFFFF00001FFFFFFFFFFF80079
:1017900001FFFFC01FFFFC0001FFFE0007FFFC0070
:1017A00001FFFC0001FFFE0003FFF80000FFFE0048
:1017B00003FFF000007FFF0003FFE000003FFF0099
:1017C00003FFE000001FFF0000000000001FFF807B
:1017D00000000000000FFF8000000000000FFF80ED
:1017E00000000000000FFF80000000000007FF80E5
:1017F000000000000007FFC0000000000007FFC05D
:10180000000000000007FFC0000000000007FFC04C
:10181000000000000007FFC0000000000007FFC03C
:10182000000000000007FFC0000000000007FFC02C
:10183000000000000007FFC00FFF80000007FF80CE
:101840000FFF80000007FF8007FF8000000FFF8070
:1018500007FFC000000FFF8007FFC000000FFF0060
:1018600007FFC000001FFF0007FFE000001FFF0090
:1018700003FFE000003FFE0003FFF000003FFE001A
:1018800003FFF800007FFC0001FFFC0001FFFC00EB
:1018900000FFFF0003FFF80000FFFFE01FFFF8005C
:1018A000007FFFFFFFFFF000003FFFFFFFFFE000B2
:1018B000001FFFFFFFFFC000000FFFFFFFFF8000C2
:1018C0000007FFFFFFFF00000003FFFFFFFC000019
:1018D0000000FFFFFFF8000000003FFFFFE00000F6
:1018E000000007FFFF0000000000007FF000000084
:1018F0000000000FF8000000000000FFFF80000063
:10190000000007FFFFE0000000000FFFFFF80000ED
:1019100000003FFFFFFE000000007FFFFFFF000010
:101920000000FFFFFFFF80000001FFFFFFFFC0007E
:101930000003FFFFFFFFE0000007FFFFFFFFF000D5
:10194000000FFFF80FFFF800001FFFC003FFF800B3
:10195000001FFF8001FFFC00003FFF0000FFFC00B4
:10196000003FFE00007FFE00007FFC00003FFE0005
:10197000007FF800003FFE0000FFF800001FFE009F
:1019800000FFF000001FFF0001FFF000001FFF003C
:1019900001FFF000000FFF0001FFE0000000000069
:1019A00001FFE0000000000003FFE0000000000075
:1019B00003FFC0000000000003FFC00000000000A3
:1019C00007FFC0000000000007FFC000000000008B
:1019D00007FFC003FC00000007FF803FFFC00000BE
:1019E00007FF80FFFFF8000007FF83FFFFFC0000F8
:1019F00007FF87FFFFFF00000FFF8FFFFFFF800043
:101A00000FFF9FFFFFFFC0000FFFBFFFFFFFE000C2
:101A10000FFFFFFFFFFFF0000FFFFFFFFFFFF800CA
:101A20000FFFFFF01FFFFC000FFFFF8003FFFC0014
:101A30000FFFFF0001FFFE000FFFFE00007FFE0012
:101A40000FFFFC00003FFF000FFFF800003FFF000A
:101A50000FFFF000001FFF000FFFF000001FFF80CE
:101A60000FFFE000000FFF800FFFE000000FFF807E
:101A70000FFFE000000FFF8007FFC0000007FF809E
:101A800007FFC0000007FFC007FFC0000007FFC03E
:101A900007FFC0000007FFC007FFC0000007FFC02E
:101AA00007FFC0000007FFC007FFC0000007FFC01E
:101AB00003FFC0000007FFC003FFC0000007FFC016
:101AC00003FFC0000007FF8003FFE000000FFF805E
:101AD00001FFE000000FFF8001FFE000000FFF802A
:101AE00001FFF000001FFF8001FFF000001FFF005A
:101AF00000FFF800003FFF0000FFFC00007FFE0039
:101B0000007FFE0000FFFE00007FFF0001FFFC00E1
:101B1000003FFF8003FFFC00003FFFF01FFFF800C5
:101B2000001FFFFFFFFFF000000FFFFFFFFFF000AF
:101B30000007FFFFFFFFE0000003FFFFFFFFC00003
:101B40000001FFFFFFFF00000000FFFFFFFE00009D
:101B500000007FFFFFF8000000001FFFFFF0000003
:101B6000000003FFFF8000000000003FF8000000BD
:101B70000FFFFFFFFFFFFF800FFFFFFFFFFFFF8053
:101B80000FFFFFFFFFFFFF800FFFFFFFFFFFFF8043
:101B90000FFFFFFFFFFFFF800FFFFFFFFFFFFF8033
:101BA0000FFFFFFFFFFFFF800FFFFFFFFFFFFF8023
:101BB0000FFFFFFFFFFFFF800FFFFFFFFFFFFF8013
:101BC0000FFFFFFFFFFFFF8000000000000FFF80FE
:101BD00000000000000FFF0000000000001FFE00DA
:101BE00000000000001FFC0000000000003FFC009F
:101BF00000000000007FF8000000000000FFF0007F
:101C00000000000001FFE0000000000003FFC00032
:101C10000000000003FFC0000000000007FF80007C
:101C2000000000000FFF0000000000001FFE000089
:101C3000000000001FFE0000000000003FFC00004C
:101C4000000000007FF80000000000007FF80000A6
:101C500000000000FFF0000000000001FFE00000B5
:101C600000000001FFE0000000000003FFC00000D2
:101C700000000003FFC0000000000007FF8000001C
:101C80000000000FFF8000000000000FFF000000B8
:101C90000000001FFF0000000000001FFE00000009
:101CA0000000003FFE0000000000003FFC000000BC
:101CB0000000007FFC0000000000007FF800000032
:101CC000000000FFF8000000000000FFF00000002E
:101CD000000001FFF0000000000001FFE000000034
:101CE000000003FFE0000000000003FFE000000030
:101CF000000003FFC0000000000007FFC00000005C
:101D0000000007FF8000000000000FFF80000000BF
:101D100000000FFF8000000000000FFF80000000A7
:101D200000001FFF0000000000001FFF0000000077
:101D300000001FFF0000000000003FFE0000000048
:101D400000003FFE0000000000003FFE0000000019
:101D500000007FFE0000000000007FFC000000008B
:101D600000007FFC0000000000007FFC000000007D
:101D70000000FFFC000000000000FFFC000000006D
:101D80000000FFF8000000000000FFF80000000065
:101D90000000FFF8000000000001FFF80000000054
:101DA0000001FFF8000000000001FFF80000000043
:101DB0000001FFF8000000000001FFF0000000003B
:101DC0000001FFF0000000000001FFF00000000033
:101DD0000003FFF0000000000003FFF0000000001F
:101DE0000003FFF0000000000003FFF0000000000F
:101DF0000000007FF8000000000007FFFF800000E7
:101E000000003FFFFFF000000000FFFFFFFC0000AC
:101E10000001FFFFFFFE00000007FFFFFFFF800043
:101E2000000FFFFFFFFF8000000FFFFFFFFFC0005C
:101E3000001FFFFFFFFFE000003FFFFFFFFFF0007C
:101E4000003FFFE01FFFF000007FFF8007FFF8006A
:101E5000007FFE0001FFF80000FFFC0000FFFC0017
:101E600000FFF800007FFC0000FFF800007FFC008E
:101E700001FFF000003FFE0001FFF000003FFE0008
:101E800001FFE000001FFE0001FFE000001FFE0058
:101E900001FFE000001FFE0001FFE000001FFE0048
:101EA00001FFE000001FFE0001FFE000001FFE0038
:101EB00000FFE000001FFC0000FFE000001FFC002E
:101EC00000FFF000003FFC0000FFF000003FF800C2
:101ED000007FF000007FF800003FF800007FF00076
:101EE000003FFC0000FFF000001FFE0001FFE000CB
:101EF000000FFF8007FFC0000007FFE01FFF00008A
:101F00000001FFFFFFFE000000007FFFFFF8000060
:101F100000007FFFFFF800000003FFFFFFFE00004E
:101F2000000FFFFFFFFF8000001FFFFFFFFFC0004B
:101F3000007FFFFFFFFFF00000FFFFFFFFFFF80043
:101F400001FFFFFFFFFFFC0001FFFFC01FFFFC00C0
:101F500003FFFE0003FFFE0007FFF80000FFFF0085
:101F600007FFF000007FFF0007FFE000003FFF00D9
:101F70000FFFC000001FFF800FFF8000001FFF80C9
:101F80000FFF8000000FFF801FFF8000000FFFC0C9
:101F90001FFF00000007FFC01FFF00000007FFC079
:101FA0001FFF00000007FFC01FFF00000007FFC069
:101FB0001FFF00000007FFC01FFF00000007FFC059
:101FC0001FFF00000007FFC00FFF00000007FF8099
:101FD0000FFF8000000FFF800FFF8000000FFF80C9
:101FE0000FFF8000000FFF8007FFC000001FFF00F1
:101FF00007FFE000001FFF0007FFE000003FFF00B9
:1020000003FFF000007FFE0003FFFC0001FFFE0065
:1020100001FFFE0003FFFC0001FFFFC01FFFFC00EB
:1020200000FFFFFFFFFFF800007FFFFFFFFFF00052
:10203000003FFFFFFFFFE000001FFFFFFFFFC000AA
:10204000000FFFFFFFFF80000003FFFFFFFE000007
:102050000000FFFFFFF8000000003FFFFFE000006E
:10206000000007FFFF0000000000007FF0000000FC
:102070000000007FF0000000000007FFFF000000EC
:1020800000003FFFFFE000000000FFFFFFF800003E
:102090000001FFFFFFFC00000007FFFFFFFE000044
:1020A000000FFFFFFFFF8000001FFFFFFFFF80000A
:1020B000003FFFFFFFFFC000007FFFFFFFFFE000CA
:1020C000007FFFC03FFFF00000FFFF0007FFF000B0
:1020D00000FFFC0003FFF80001FFF80001FFF8001B
:1020E00001FFF00000FFFC0003FFF000007FFC0098
:1020F00003FFE000003FFE0007FFE000003FFE009E
:1021000007FFC000001FFE0007FFC000001FFE0009
:1021100007FFC000001FFF0007FF8000000FFF0047
:102120000FFF8000000FFF000FFF8000000FFF0077
:102130000FFF8000000FFF800FFF8000000FFF8067
:102140000FFF8000000FFF800FFF8000000FFF8057
:102150000FFF8000000FFF800FFF8000000FFF8047
:102160000FFF8000000FFF8007FF8000001FFFC0EF
:1021700007FFC000001FFFC007FFC000001FFFC017
:1021800007FFC000001FFFC007FFE000003FFFC0C7
:1021900003FFE000003FFFC003FFF000007FFFC02F
:1021A00003FFF80000FFFFC001FFF80001FFFFC0C0
:1021B00001FFFE0003FFFFC000FFFF0007FFFFC09D
:1021C00000FFFFC03FFFFFC0007FFFFFFFFFFFC01A
:1021D000003FFFFFFFFFFFC0001FFFFFFFF7FFC033
:1021E000000FFFFFFFE7FFC00007FFFFFFC7FF80F3
:1021F0000003FFFFFF87FF800000FFFFFF07FF8056
:1022000000003FFFFC07FF8000000FFFF007FF808A
:10221000000000FF800FFF8000000000000FFF8023
:1022200000000000000FFF0000000000000FFF0092
:1022300000000000000FFF0000000000001FFE0073
:1022400000000000001FFE0007FF8000001FFE00CE
:1022500007FFC000003FFE0007FFC000003FFC007A
:1022600003FFC000007FFC0003FFE000007FF800D8
:1022700003FFE00000FFF80003FFF00001FFF000A3
:1022800001FFF80003FFF00001FFFC0007FFE00082
:1022900000FFFE000FFFC00000FFFFC07FFFC00077
:1022A000007FFFFFFFFF8000003FFFFFFFFF0000F8
:1022B000001FFFFFFFFE0000000FFFFFFFFC0000FC
:1022C0000007FFFFFFF800000003FFFFFFF0000022
:1022D0000000FFFFFFC0000000003FFFFF00000004
:1022E00000000FFFFC000000000000FFC000000025
:1022F00000000000000000000000000000000000DE
:1023000000000000000000000000000000000000CD
:1023100000000000000000000000000000000000BD
:1023200000000000000000000000000000000000AD
:10233000000000000000000000000000000000009D
:1023400000000000000000000000000000FFFE0090
:1023500000FFFE0000FFFE0000FFFE0000FFFE0089
:1023600000FFFE0000FFFE0000FFFE0000FFFE0079
:1023700000FFFE0000FFFE0000FFFE0000FFFE0069
:1023800000FFFE0000FFFE00000000000000000053
:10239000000000000000000000000000000000003D
:1023A000000000000000000000000000000000002D
:1023B000000000000000000000000000000000001D
:1023C000000000000000000000000000000000000D
:1023D00000000000000000000000000000000000FD
:1023E00000000000000000000000000000000000ED
:1023F00000FFFE0000FFFE0000FFFE0000FFFE00E9
:1024000000FFFE0000FFFE0000FFFE0000FFFE00D8
:1024100000FFFE0000FFFE0000FFFE0000FFFE00C8
:1024200000FFFE0000FFFE0000FFFE0000000000B5
:102430001F1F0400300100083D3D08007002000825
:102440001F1F0400B00800083D3D0800F00400080C
:102450001F1F0400700700083D3D0800F009000838
:102460003D3D0800700C00083D3D0800F00E0008DE
:102470003D3D0800701100083D3D0800F0130008C4
:102480003D3D0800701600083D3D0800F0180008AA
:102490003D3D0800701B00083D3D0800F01D000890
:1024A0003D3D0800702000081F1F0400F0220008B6
:1024B00030003A0058240008000000002B002E00D5
:1024C00038240008B0240008200020003024000830
:1024D000BC2400085D190208251A02085D1A0208CA
:1024E000631A0208000000000000000050500101C3
:1024F000C82400085000500080B500208DF800006E
:1025000001F0A4FC01F0F5FB01F0C2FC00F087F83B
:102510008DF800009DF80000002802D09DF8000012
:1025200045E000F0A6F98DF800009DF800000028B5
:1025300002D09DF800003AE0DFF8F00B01210175B0
:10254000DFF8E80B00210160DFF8E00B00214160BB
:10255000DFF8D80B00218160DFF8D00B0021C160CB
:10256000DFF8C80B00210161DFF8C00B01F0ACFC03
:10257000DFF84C0C00F04EFA8DF800009DF80000DA
:10258000002808D1DFF8380CB0F85400000400F03F
:102590008FFC8DF800009DF80000002805D14FF455
:1025A000006000F021FC8DF800009DF8000002BDE5
:1025B00010B5042400F00DF80400E4B2042C01D19D
:1025C000002005E0E4B2FF2C01D1022000E0012050
:1025D00010BD80B50020009000F010F801280BD14C
:1025E00000A800F0A3FF002801D0FF2005E000981C
:1025F000400A10F00F0000E0FF2002BD80B501206E
:102600008DF800008021DFF8F40C01F0ADFD00280A
:1026100002D000208DF800009DF8000002BDF8B542
:1026200000208DF800000024002500260027DFF898
:10263000FC0AB2210175DFF8F40A00210160DFF81D
:10264000EC0A00214160DFF8E40A00218160DFF834
:10265000DC0A0021C160DFF8D40A00210161DFF843
:10266000CC0A01F031FC032001F047FC012001F00D
:1026700040FCDFF8500B00210160DFF8480B00211F
:102680004160DFF8400B00218160DFF8380B00214A
:10269000C160DFF8300B4FF480610161DFF8240B7B
:1026A00001F046FC00F0E4FF8DF800009DF800000A
:1026B000002802D09DF80000DAE0DFF8080B4FF4A4
:1026C000D5710160DFF8FC0A08214160DFF8F40AE7
:1026D00040218160DFF8EC0A0021C160DFF8E40AE4
:1026E0004FF480610161DFF8DC0A01F021FC00F0A9
:1026F000DBFF8DF800009DF80000002807D1DFF80F
:10270000000C012101605FF0804007001DE0DFF850
:10271000B40A00210160DFF8AC0A37214160DFF81C
:10272000A40A40218160DFF89C0A0021C160DFF823
:10273000940A4FF480610161DFF8880A01F0F8FB28
:10274000372000F0E7FF8DF80000DFF8780A00215D
:102750000160DFF8700A37214160DFF8680A402124
:102760008160DFF8600A0021C160DFF8580A4FF489
:1027700080610161DFF84C0A01F0DAFB372000F0DC
:10278000C9FF8DF800009DF8000000286ED1002ED2
:102790005AD14FF6FF70854256D2DFF8280A002141
:1027A0000160DFF8200A37214160DFF8180A402174
:1027B0008160DFF8100A0021C160DFF8080A4FF4D9
:1027C00080610161DFF8FC0901F0B2FB372000F005
:1027D000A1FF8DF800009DF80000002802D09DF8B0
:1027E000000045E0DFF81C0B3843DFF8D81908601B
:1027F000DFF8D00929214160DFF8C8094021816054
:10280000DFF8C0090021C160DFF8B8094FF480612A
:102810000161DFF8B00901F08BFB01F008F88DF8D9
:1028200000009DF80000002802D09DF800001FE085
:10283000002001F095FB0400E00F012801D10126E2
:1028400000E000266D1CA2E74FF6FF70854205D31D
:102850001B208DF800009DF8000009E014F0804472
:10286000002C03D0DFF8980A022101609DF80000D7
:10287000F2BD10B582B000240120ADF8000001F0D7
:102880003FFB002804D1252004002000C0B2C0E096
:10289000DFF86C0A0068042839D0DFF82809002125
:1028A0000160DFF8200902214160DFF81809C0212A
:1028B0008160DFF810090021C160DFF808094FF4DA
:1028C00080610161DFF8FC0801F032FB00F0D0FF0D
:1028D0000400E4B2002C02D02000C0B299E0002035
:1028E00001F03EFBDFF8201A0860042001F038FBFD
:1028F000DFF8141A4860082001F032FBDFF8081AEC
:1029000088600C2001F02CFBDFF8FC19C860DFF8B0
:10291000F009006800280ED0DFF8E40900680128FB
:1029200009D0DFF8DC090068062804D0DFF8D009F8
:102930000068022823D1DFF88C0800210160DFF84D
:10294000840803214160DFF87C0840218160DFF8C2
:1029500074080021C160DFF86C084FF480610161E8
:10296000DFF8600801F0E4FA00A9032000F0AEFFF0
:102970000400E4B2002C02D02000C0B249E0DFF82D
:1029800080090068042840D0DFF8540BBDF800101F
:102990000160BDF800000004DFF828180860DFF8C7
:1029A000240809214160DFF81C08C0218160DFF89C
:1029B00014080021C160DFF80C084FF48061016148
:1029C000DFF8000801F0B4FA00F052FF0400E4B2AE
:1029D000002C02D02000C0B21BE0002001F0C0FAA1
:1029E000DFF8441B0860042001F0BAFADFF8381B56
:1029F0004860082001F0B4FADFF82C1B88600C2036
:102A000001F0AEFADFF8201BC860002004002000AF
:102A1000C0B216BD2DE9F003010000200022DFF84E
:102A2000E0381B6881F85630DFF8B43A1B68A1F82B
:102A30005430DFF8F43A1B681B0E1A00D2B2930927
:102A40000B70C2F383034B7012F003038B70DFF83B
:102A5000D83A1B681B0C1A00CA70DFF8CC3A1B6806
:102A60001B0A1A000A71DFF8C03A1B681A004A7183
:102A7000DFF8B43A5B681B0E1A00D2B21301CB80A8
:102A8000DFF8A43A5B681B0C1A00CB88D2B2140999
:102A9000E4B22343CB8012F00F030B72DFF8883AC5
:102AA0005B681B0A1A00D2B2D3094B72C2F38013BF
:102AB0008B72C2F34013CB72C2F300130B7300236B
:102AC0004B73DFF83C381B68002B04D0DFF830383C
:102AD0001B68012B5ED1D2B212F003039B020B6183
:102AE000DFF8443A5B681A000B69D2B253EA8203FA
:102AF0000B61DFF8343A9B681B0E1A000B69D2B2E7
:102B00009409E4B223430B61C2F3C2030B7512F0C4
:102B100007034B75DFF8103A9B681B0C1A00D2B202
:102B200053098B75C2F38203CB7512F003035B006C
:102B30000B76DFF8F4399B681B0A1A000B7ED2B2C1
:102B400053EAD2130B760B695C1C0025C1E91245D0
:102B5000D1E9126701230C7EA41C13FA04F4E517D3
:102B6000A4FB068904FB079905FB0699C1E91289B4
:102B7000012391F90840A3400B65D1E912670C6D60
:102B80000025A4FB068904FB079905FB0699C1E90A
:102B9000128931E0DFF868371B68022B2CD1DFF88F
:102BA00088395B681A00D2B212F03F031B040B6134
:102BB000DFF874399B681B0E1A000B69D2B253EA16
:102BC00002230B61DFF860399B681B0C1A000B694C
:102BD000D2B213430B61DFF850399B681B0A1A000D
:102BE0000B695B1C5FF4002404FB03F40025C1E9BE
:102BF00012454FF400730B65C2F380134B7612F04D
:102C00003F035B008B76DFF820399B681A008B7ED0
:102C1000D2B253EAD2138B7612F07F03CB76DFF871
:102C20000839DB681B0E1A00D2B2D3090B77C2F346
:102C300041134B77C2F382038B7712F003039B009F
:102C4000CB77DFF8E438DB681B0C1A00CB7FD2B2FD
:102C500053EA9213CB77C2F3401381F8203000235C
:102C600081F8213012F0010381F82230DFF8B83802
:102C7000DB681B0A1A00D2B2D30981F82330C2F3F1
:102C8000801381F82430C2F3401381F82530C2F359
:102C9000001381F82630C2F3810381F8273012F047
:102CA000030381F82830DFF88038DB681A00D2B2DD
:102CB000530881F82930012381F82A30DFF848369B
:102CC0001B681B0E1A0081F82C20DFF83C361B68AD
:102CD0001B0C1A00D2B21302CB85DFF82C361B680E
:102CE0001B0A1A00CB8DD2B21343CB85DFF81836FE
:102CF0001B681A00D2B213060B63DFF80C365B6850
:102D00001B0E1A000B6BD2B253EA02430B63DFF8BF
:102D1000F8355B681B0C1A000B6BD2B253EA022326
:102D20000B63DFF8E4355B681B0A1A000B6BD2B249
:102D300013430B63DFF8D0355B681A0081F8342049
:102D4000DFF8C4359B681B0E1A0081F83520DFF8C8
:102D5000B8359B681B0C1A00D2B213068B63DFF8E0
:102D6000A8359B681B0A1A008B6BD2B253EA024348
:102D70008B63DFF894359B681A008B6BD2B253EAF1
:102D800002238B63DFF88035DB681B0E1A008B6B28
:102D9000D2B213438B63DFF87035DB681B0C1A006B
:102DA00091F83C30D2B253EA121381F83C30D2B2DF
:102DB00012F00F031B02CB87DFF84C35DB681B0AD0
:102DC0001A00CB8FD2B21343CB87DFF83C35DB68D8
:102DD0001A00D2B2530881F84030012381F8413003
:102DE000C0B2BDE8F003704738B504000025DFF835
:102DF00010050068032804D1272005002800C0B270
:102E000055E0DFF8FC040068002809D0DFF8F00482
:102E10000068012804D0DFF8E8040068022844D1E3
:102E2000B4F5805F04D1272005002800C0B23EE041
:102E3000B4F5006F1DD1012000F0A4FD0500EDB236
:102E4000002D32D1B94801210175B8480021016037
:102E5000B64800214160B54800218160B3484FF475
:102E60000061C160B14800210161B04801F02CF857
:102E70001BE0002000F086FD0500EDB2002D14D10E
:102E8000AA4801210175A94800210160A748002135
:102E90004160A64800218160A4480021C160A34888
:102EA00000210161A14801F00FF82800C0B232BD35
:102EB00038B504000025C3480460C24807214160BA
:102EC000C04840218160BF480021C160BD484FF427
:102ED00080610161BB4801F02BF8072000F01AFC6B
:102EE00005002800C0B232BD2DE9F04106001400F3
:102EF0001D00069F5FF00008DFF86C0700210170DD
:102F0000DFF8680700210160DFF8F80700210160A1
:102F1000DFF8F40700210160DFF8E403006802280D
:102F200006D14FF400700700640A44EAC5546D0AE4
:102F3000A448BFB20760A34810214160A1484021C6
:102F40008160A0480021C1609E484FF4806101610A
:102F50009C4800F0EDFF102000F0DCFB80465FFA9B
:102F600088F8B8F1000F02D04046C0B249E0DFF85F
:102F70009C07DFF89C170160DFF89007BFB247603D
:102F8000DFF8880790218160DFF880070221C160A7
:102F9000DFF8780700210161DFF870070121416146
:102FA000DFF8680700F0E7FF8648046085481121D4
:102FB000416084484021816082480021C16081488D
:102FC0004FF4806101617F4800F0B2FF112000F0F2
:102FD000A1FB80465FFA88F8B8F1000F02D04046A6
:102FE000C0B20EE0012140F22A3000F08EFF012035
:102FF00000F09AFFBFB23900300000F0DDFE40461D
:10300000C0B2BDE8F0812DE9F843814614001D00EF
:10301000089E099F5FF00008DFF84C060021017050
:10302000DFF8480600210160DFF8D80601210160C1
:10303000DFF8D40600210160B1480068022806D1FB
:103040004FF400700600640A44EAC5546D0A5D48F6
:10305000B6B206605B48102141605A484021816049
:1030600058480021C16057484FF4806101615548BC
:1030700000F05EFF102000F04DFB80465FFA88F8FC
:10308000B8F1000F02D04046C0B24CE0DFF87C0639
:10309000DFF87C160160B6B206FB07F0DFF86C16AD
:1030A0004860DFF8680690218160DFF86006022141
:1030B000C160DFF8580600210161DFF850060121E8
:1030C0004161DFF8480600F056FF3E4804603D4885
:1030D000122141603B48402181603A480021C16093
:1030E00038484FF480610161364800F021FF12201A
:1030F00000F010FB80465FFA88F8B8F1000F02D0AC
:103100004046C0B20FE0012140F22A3000F0FDFE3F
:10311000012000F009FFB6B206FB07F1484600F0B7
:103120004BFE4046C0B2BDE8F28300003CE2002006
:1031300038B50024DFF8D8050500DFF88C070068F3
:1031400000280DD1DFF824050068002808D1DFF839
:1031500018050078002803D1002D01D06D1EECE782
:10316000DFF8640700210160DFF8A4050500DFF83F
:103170000C080068800403D5002D01D06D1EF6E711
:10318000DFF880050068012802D100F0ABF90400E7
:10319000002D04D1E4B2002C01D10420040040F23F
:1031A000FF5000F00FFFDFF8C0040078002803D0C4
:1031B000DFF8B404007801E02000C0B232BD0000A6
:1031C000D0DF002084E200202DE9F0410600140049
:1031D0001D00069F5FF00008DFF88C0400210170DD
:1031E000DFF8880400210160DFF818050021016084
:1031F000DFF814050021016041480068022806D16B
:103200004FF400700700640A44EAC5546D0ADFF801
:103210007007BFB20760DFF8680710214160DFF870
:10322000600740218160DFF858070021C160DFF8A6
:1032300050074FF480610161DFF8440700F078FE29
:10324000102000F067FA80465FFA88F8B8F1000FA6
:1032500002D04046C0B24FE0DFF824070460DFF838
:10326000200718214160DFF8180740218160DFF84E
:1032700010070021C160DFF808074FF48061016189
:10328000DFF8FC0600F054FE182000F043FA8046F8
:103290005FFA88F8B8F1000F02D04046C0B22BE0C8
:1032A000DFF86804DFF868140160DFF86004BFB27B
:1032B0004760DFF8580490218160DFF85004002156
:1032C000C160DFF8480400210161DFF840040121FA
:1032D0004161DFF8380400F04EFE012140F22A304F
:1032E00000F013FEBFB23900300000F030FD0120C5
:1032F00000F01AFE4046C0B2BDE8F0810010014067
:10330000ECE300200000108080E300202DE9F8436A
:10331000814614001D00089E099F5FF00008DFF839
:10332000480300210170DFF8440300210160DFF849
:10333000D40301210160DFF8D00300210160DFF830
:10334000DC070068022806D14FF400700600640A0A
:1033500044EAC5546D0ADFF82806B6B20660DFF805
:10336000200610214160DFF8180640218160DFF857
:1033700010060021C160DFF808064FF4806101618A
:10338000DFF8FC0500F0D4FD102000F0C3F9804602
:103390005FFA88F8B8F1000F02D04046C0B29DE055
:1033A0004F4800680004DFF8D8150860DFF8D00542
:1033B00037214160DFF8C80540218160DFF8C00592
:1033C0000021C160DFF8B8054FF480610161DFF8CA
:1033D000B00500F0ADFD372000F09CF980465FFAA3
:1033E00088F8B8F1000F02D04046C0B276E0DFF8AE
:1033F00090050760DFF8880517214160DFF8800538
:1034000040218160DFF878050021C160DFF8700598
:103410004FF480610161DFF8680500F089FD172035
:1034200000F078F980465FFA88F8B8F1000F02D012
:103430004046C0B252E0DFF848050460DFF84005BE
:1034400019214160DFF8380540218160DFF830053F
:103450000021C160DFF828054FF480610161DFF8C9
:10346000200500F065FD192000F054F980465FFA50
:1034700088F8B8F1000F02D04046C0B22EE0DFF865
:103480008C02DFF88C120160B6B206FB07F0DFF8A1
:103490007C124860DFF8740290218160DFF86C02D2
:1034A0000021C160DFF8640200210161DFF85C02E5
:1034B00001214161DFF8540200F05DFD012140F27D
:1034C0002A3000F022FD012000F02EFDB6B206FBEE
:1034D00007F1484600F03BFC4046C0B2BDE8F2832D
:1034E000F0E3002010B50024DFF89404002101600F
:1034F000DFF88C040C214160DFF8840440218160F6
:10350000DFF87C040021C160DFF874044FF48061AF
:103510000161DFF86C0400F00BFD0C2000F0FAF8FC
:1035200004002000C0B210BD70E3002038B50400D4
:103530000025002C04D1262005002800C0B22BE075
:10354000DFF8700800680004DFF8D0180860DFF8C2
:10355000CC080D214160DFF8C40840218160DFF80C
:10356000BC080021C160DFF8B4084FF4806101613C
:10357000DFF8A80800F0DCFC0D2000F0CBF8050017
:10358000EDB2002D02D02800C0B205E0002000F00E
:10359000E7FC20602800C0B232BD80B54FF48070D7
:1035A00000F013FD00280AD02F48002101704FF4CD
:1035B000807000F017FD2D48012101603CE00220E1
:1035C00000F003FD002806D0022000F00BFD264885
:1035D0000221017030E0082000F0F7FC002806D03E
:1035E000082000F0FFFC20480421017024E0202086
:1035F00000F0EBFC002806D0202000F0F3FC1A4875
:103600000621017018E0102000F0DFFC002806D031
:10361000102000F0E7FC1448052101700CE04FF485
:10362000007000F0D2FC002806D04FF4007000F0CB
:10363000D9FC0D480721017000214CF23A3000F00E
:1036400064FC0948007802BD80B5DFF8D80700683F
:10365000DFF8D417084206D09B4801210160DFF84B
:10366000CC0700F0CFFD01BDBCE40020F8E3002052
:1036700038B500245FF480300500002D06D080208E
:1036800000F093FC002801D16D1EF6E7002D04D157
:10369000032004002000C0B205E040F2FF5000F01B
:1036A00091FC2000C0B232BD70B500245FF48035BB
:1036B000B2480068060016F04500002806D1002D2B
:1036C00004D06D1EAD4800680600F4E7002D02D05E
:1036D0003000400707D503200400042000F072FCEE
:1036E0002000C0B20CE03000400607D500200400E6
:1036F000402000F067FC2000C0B201E02000C0B212
:1037000070BD0000F4E300202C80014054E2002052
:10371000FFFF0F00F8B50400002598480068060078
:1037200016F04500002803D1944800680600F7E72A
:103730003000400707D503200500042000F042FCBC
:103740002800C0B272E03000C00707D50120050094
:10375000012000F037FC2800C0B267E000F0FCFB5D
:10376000E4B2A04204D0102005002800C0B25DE001
:1037700040F2FF5000F026FC002000F0F1FB0700B3
:10378000DFF8AC06074202D12800C0B24EE0002F9D
:1037900001D51C204AE0780001D5092046E0B80098
:1037A00001D50A2042E0F80001D50B203EE03801A7
:1037B00001D50C203AE0780101D50D2036E0F80162
:1037C00001D50E2032E0380201D50F202EE078021C
:1037D00001D510202AE0B80201D5112026E0F80218
:1037E00001D5122022E0380301D513201EE0780312
:1037F00001D514201AE0B80301D5152016E0F8030E
:1038000001D5162012E0380401D517200EE0780407
:1038100001D518200AE0B80401D5192006E03800C7
:10382000000701D51A2001E02800C0B2F2BD38B56A
:103830000024DFF800060068050015F045000028A8
:1038400004D1DFF8F00500680500F6E7280040071E
:1038500007D503200400042000F0B4FB2000C0B210
:1038600005E040F2FF5000F0ADFB2000C0B232BDD9
:1038700038B50024DFF8BC050068050015F04500E8
:10388000002804D1DFF8AC0500680500F6E7280041
:10389000400707D503200400042000F093FB20001C
:1038A000C0B210E02800C00707D5012004000120A5
:1038B00000F088FB2000C0B205E040F2FF5000F0AD
:1038C00081FB2000C0B232BDFCE300202DE9F041B5
:1038D00004000D000026DFF85C050068070017F003
:1038E0004500002804D1DFF84C0500680700F6E722
:1038F0003800400707D503200600042000F062FBD3
:103900003000C0B238E03800C00707D501200600FB
:10391000012000F057FB3000C0B22DE000F01CFB8E
:10392000E4B2A04204D0102006003000C0B223E070
:1039300040F2FF5000F046FB002000F011FB8046F3
:103940004FF4604018EA000F05D15FEA1840288064
:103950003000C0B210E05FEA884001D513200BE0D0
:103960005FEA484001D5102006E05FEA084001D533
:103970000F2001E03000C0B2BDE8F081348001408A
:1039800084E2002030B583B00400002500A80021A7
:10399000002206C00838002000F0E2FA800104D5B9
:1039A0000E2005002800C0B2B7E000A9DFF804042B
:1039B000006880B200F0B4F80500EDB2002D02D02E
:1039C0002800C0B2A9E0E4B2012C53D10198400311
:1039D0004BD5DFF8E00300680004DFF8401408600E
:1039E000DFF8380437214160DFF83004402181607E
:1039F000DFF828040021C160DFF820044FF4806163
:103A00000161DFF8180400F093FA3720FFF782FE17
:103A10000500EDB2002D02D02800C0B27DE0DFF835
:103A2000FC0302210160DFF8F40306214160DFF8A6
:103A3000EC0340218160DFF8E4030021C160DFF87E
:103A4000DC034FF480610161DFF8D00300F070FA0D
:103A50000620FFF75FFE0500EDB2002D02D0280022
:103A6000C0B25AE02800C0B257E025200500280067
:103A7000C0B252E00198C0034BD5DFF838030068AC
:103A80000004DFF898130860DFF8900337214160E5
:103A9000DFF8880340218160DFF880030021C160E6
:103AA000DFF878034FF480610161DFF8700300F004
:103AB0003FFA3720FFF72EFE0500EDB2002D02D0B1
:103AC0002800C0B229E0DFF8540300210160DFF8CC
:103AD0004C0306214160DFF8440340218160DFF898
:103AE0003C030021C160DFF834034FF480610161C1
:103AF000DFF8280300F01CFA0620FFF70BFE050094
:103B0000EDB2002D02D02800C0B206E02800C0B2FD
:103B100003E0252005002800C0B23EBDECE30020F4
:103B2000F0B583B004000D000026002700A8002196
:103B3000002206C00838B94808210160B7481021A2
:103B40004160B64840218160B4480021C160B3485B
:103B50004FF480610161B14800F0EAF91020FFF7ED
:103B6000D9FD0700FFB2002F02D03800C0B2BFE07D
:103B7000904800680004A9490860A84837214160BE
:103B8000A64840218160A5480021C160A3484FF4A8
:103B900080610161A14800F0CBF93720FFF7BAFD41
:103BA0000700FFB2002F02D03800C0B2A0E0A24848
:103BB0009B490160A048082141609F4830218160F5
:103BC0009D480221C1609C48002101619A48012161
:103BD0004161994800F0CFF99048002101608F4879
:103BE000332141608D48402181608C480021C160B3
:103BF0008A484FF480610161884800F099F93320C8
:103C0000FFF788FD0700FFB2002F02D03800C0B2D6
:103C10006EE08848006840F22A6108420CD15FF4E7
:103C2000001000F0C2F90028F3D000F0BBF900A9A1
:103C300041F82600761CECE7082000F0B6F90028D1
:103C400007D0082000F0BEF9042007003800C0B2F9
:103C50004EE0022000F0A9F9002807D0022000F071
:103C6000B1F9022007003800C0B241E0202000F086
:103C70009CF9002807D0202000F0A4F906200700B6
:103C80003800C0B234E04FF4007000F08EF9002824
:103C900008D04FF4007000F095F9072007003800B5
:103CA000C0B225E040F2FF5000F08CF90098009976
:103CB00011F47F41090251EA00600099090A11F4E8
:103CC0007F410843009950EA1160686001980199AA
:103CD00011F47F41090251EA00600199090A11F4C7
:103CE0007F410843019950EA116028603800C0B252
:103CF000FEBD80B50121302000F00FFB4FF4F850DD
:103D0000ADF8000003208DF8020018208DF80300A4
:103D100000A94A4800F08CF90420ADF8000000A981
:103D2000474800F085F98020ADF8000048208DF864
:103D3000030000A9414800F07BF901214FF48060A5
:103D400000F0DCFA0121022000F0D8FA01BD30B504
:103D50008BB004000D00354800F054FA00213948BA
:103D600000F037FA38480090019410200290A8081B
:103D7000039000200490802005904FF4007006907E
:103D80004FF400600790002008904FF40050099015
:103D900000200A9000A92B4800F0FCF90122022122
:103DA000284800F024FA0121264800F012FA0BB04E
:103DB00030BD0000F0E3002030B58BB004000D00F2
:103DC0001A4800F01FFA00211E4800F002FA1E48AF
:103DD0000090019400200290A80803900020049015
:103DE000802005904FF4007006904FF4006007901B
:103DF000002008904FF40050099000200A9000A97C
:103E0000104800F0C7F9012202210E4800F0EFF936
:103E100001210C4800F0DDF90BB030BD84E2002038
:103E2000FFFF0F00000402400020001000F000100F
:103E300008E0FFFD3480014054E200200010014002
:103E400000140140440402408080014080B53120CC
:103E50008DF8000001208DF8010000208DF802008F
:103E600001208DF8030000A800F08BFA3B208DF8AC
:103E7000000002208DF8010000A800F082FA01BDC8
:103E800080B5FFF78AFB01BD80B5FFF7DDFB01BD03
:103E90005648002101605648002101605548002124
:103EA00001605548002101605448002101605448D8
:103EB00000210160534800210160534853490160CB
:103EC00053480021016070470021494A12681100DF
:103ED000504A1140027D83681A4343681A43C368FD
:103EE0001A4303681A4303691A431143404A116095
:103EF00070474949C0B2086070473C490860704744
:103F00003A48006810F003007047C9B2002905D094
:103F10003F4A126802433E4B1A6004E03C4A126872
:103F200082433B4B1A6070473C49C0B208607047FF
:103F30000021304A036813602F4A12681100C90A31
:103F4000C902426883681A43C3681A4303691A4363
:103F50001143294A1160704731480068C0B2704768
:103F600081B00100002000902E4840180090009879
:103F7000006801B070470021204A0368136042685E
:103F80001F4B1A601F4A1268110031F0F701826856
:103F9000C3681A4303691A4343691A431143194A10
:103FA00011607047204800687047010000201F4AD8
:103FB00012680A4202D00122100001E00022100023
:103FC000C0B2704710490860704701000020174ACE
:103FD00012680A4202D00122100001E00022100003
:103FE000C0B2704708490860704700000080014077
:103FF00004800140088001400C8001402480014081
:10400000288001402C80014038800140FF07C0001B
:104010003C8001400081FFFFA00030428C0530420F
:1040200010800140148001408080014034800140B4
:10403000F0B500270022002300240025002691F877
:1040400003C01CF00F0C674691F803C05FEACC6C0C
:1040500003D591F802C05CEA070791F800C05FEA57
:104060000C6C3AD0D0F800C065465FF0000C634697
:10407000082B31D25FF0010C1CFA03FC6446B1F846
:1040800000C014EA0C0C6246A24223D15FEA830C02
:1040900064465FF00F0C1CFA04FC6646B54317FA41
:1040A00004FC5CEA050591F803C0BCF1280F06D1B9
:1040B0005FF0010C1CFA03FCC0F814C00AE091F890
:1040C00003C0BCF1480F05D15FF0010C1CFA03FCE2
:1040D000C0F810C05B1CCBE70560B1F800C04FF41E
:1040E000807EF4453FD3D0F804C065465FF0000CF5
:1040F0006346082B36D25FF0010C13F1080E1CFA50
:104100000EFC6446B1F800C014EA0C0C6246A242F0
:1041100026D15FEA830C64465FF00F0C1CFA04FCA6
:104120006646B54317FA04FC5CEA050591F803C03E
:10413000BCF1280F07D15FF0010C13F1080E1CFA37
:104140000EFCC0F814C091F803C0BCF1480F07D1B1
:104150005FF0010C13F1080E1CFA0EFCC0F810C041
:104160005B1CC6E74560F0BD0200002093689BB26F
:104170000B4202D00123180001E000231800C0B256
:104180007047D2B2002A02D089B2016101E089B23F
:104190004161704710B4002203681A001F4B1A4097
:1041A0008B680C6A23430C6923434C6923438C6955
:1041B0002343CC6923434C6A23438C6A23431A4329
:1041C0000260CB6843600B6883604B68C36010BCBF
:1041D0007047C9B2002904D0026852F0010202609F
:1041E00004E002684FF6FE731A4002607047D2B2D4
:1041F000002A03D003680B43036002E003688B438B
:1042000003607047C10002D50349086001E001491D
:104210000860704704000240040402400F80FFFF62
:1042200030B400210022002300244B4D2D6815F0EE
:104230000C0529000D00002D04D0042D05D0082DFB
:1042400006D026E0454D056025E0444D056022E09E
:10425000414D2D6815F470152A003F4D2D6815F459
:1042600080352B00920C921C002B04D13C4D05FB99
:1042700002F505600CE0384D2D68AD0304D5384DCE
:1042800005FB02F5056003E0344D05FB02F5056012
:1042900001E0324D0560304D2D6815F0F005290024
:1042A0000909304D4D5D2C000568E54045602A4DFB
:1042B0002D6815F4E0652900090A2A4D4D5D2C0092
:1042C0004568E5408560244D2D6815F4605529004A
:1042D000C90A244D4D5D2C004568E540C5601E4D62
:1042E0002D6815F440452900890B1F4D4D5D2C00AC
:1042F000C568B5FBF4F5056130BC7047C9B200294B
:1043000005D01A4A12680243184B1A6004E0174A93
:1043100012688243154B1A607047C9B2002905D054
:10432000134A12680243124B1A6004E0104A1268E2
:1043300082430F4B1A607047C9B2002905D00D4A5D
:10434000126802430B4B1A6004E00A4A1268824367
:10435000084B1A60704700000410024000127A00F7
:1043600000093D00BC03002030040020141002406E
:10437000181002401C1002401C4901431C4A1160E5
:104380007047F0B4002300210F22C478002C20D005
:10439000174C246814F4E064D4F5E064240A230084
:1043A000D3F104042100DA4044788C40230084785F
:1043B000144023431B0104780E4D635504786411A7
:1043C0000D4D0126077817F01F07BE4045F8246001
:1043D00009E004786411094D0126077817F01F07DA
:1043E000BE4045F82460F0BC704700000000FA05AC
:1043F0000CED00E000E400E000E100E080E100E01E
:1044000030B403000C0015006A1E002D04D025787E
:104410001D70641C5B1CF6E730BC704710B40300D1
:104420001400621E002C02D019705B1CF8E710BC4F
:10443000704770B403001C000D0000201600721EAF
:10444000002E06D020782E78801B6D1C641C00285E
:10445000F4D070BC70470278002A04D002788A42F7
:1044600001D0401CF7E70078704730B400242300E7
:104470002200032A23D20C247D4D04FB025424681D
:10448000002C18D00C247A4D04FB025424680568D3
:10449000AC4212D10C24764D04FB0254646885684A
:1044A000AC420AD10C24724D04FB02542489C58805
:1044B000AC4202D103E001242300521CD9E7032AB5
:1044C00008D1002B01D1022901D1002000E01220E7
:1044D000C0B20EE0002908D10C20654900FB021093
:1044E00040894FF48071884201D1102000E0002003
:1044F000C0B230BC704700210800032808D20C214C
:104500005B4A01FB00210968002901D0401CF4E747
:10451000032801D1002000E00120704730B40200E0
:1045200000200300032B19D20C20514C00FB034048
:1045300000681468A0420FD10C204D4C00FB0340D2
:1045400040689468A04207D10C20494C00FB03400E
:104550000089D488A04201D05B1CE3E7032B28D15B
:1045600000200300032B08D20C20414C00FB034029
:104570000068002801D05B1CF4E7032B01D1002068
:1045800033E00C203A4C00FB0340146804600C201C
:10459000374C00FB0340946844600C20344C00FB13
:1045A0000340D48804810C20314C00FB03400024DC
:1045B0004481002908D00C202D4C00FB0340408989
:1045C000002801D0002010E0002902D04FF48070B4
:1045D00005E00C20264C00FB03404089401C0C24C5
:1045E000234D04FB03546081581C30BC704710B449
:1045F0000100491E032921D20C231D4C03FB01435A
:104600005B891A004FF4807392B29A4201D1002361
:104610001A0092B2002A00D0521E0C23144C03FB45
:1046200001435A8192B2002A05D10C23104C03FB9E
:10463000014300241C600023180001E0022318003D
:10464000C0B210BC70470022110003290ED20C2208
:10465000074B02FB01321268824205D10C22044B47
:1046600002FB013200231360491CEEE77047000093
:10467000DCE10020F8B5040000272079002823D0D1
:10468000E06A050001232A0014F13001607801F08E
:10469000FEFB002802D00120070015E00020207159
:1046A000206A281AA16988420ED2E0780600022EFC
:1046B0000AD3A069451901232A0014F1300160785A
:1046C00001F0E5FB761EF2E73800C0B2F2BD70B52E
:1046D00004000D000026E06A854215D02000FFF797
:1046E000C9FF0600F6B2002E0ED101232A0014F1F4
:1046F0003001607801F06CFB002804D05FF0FF30DF
:10470000050001200600E5623000C0B270BD38B57A
:1047100004002000FFF7AEFF0500EDB2002D5FD1D1
:104720002078032853D16079012850D14FF40072CA
:10473000002114F13000FFF771FE552084F82E029D
:10474000AA2084F82F02522084F83000522084F8E6
:104750003100612084F83200412084F83300722057
:1047600084F81402722084F81502412084F816029D
:10477000612084F81702206984F81802206980B249
:10478000000A84F819022069000C84F81A022069D2
:10479000000E84F81B02E06884F81C02E06880B216
:1047A000000A84F81D02E068000C84F81E02E0682C
:1047B000000E84F81F02E069401CE0620123E26AF7
:1047C00014F13001607801F062FB0020607100227A
:1047D0000021607801F0BFFB002801D00120050016
:1047E0002800C0B232BD0200891E5069801E81427D
:1047F00001D3002003E09078926A00FB012070470B
:104800002DE9F84304000D00022D02D360698542B2
:1048100002D30120814681E05FF0FF30814620789D
:10482000012804D078D3032851D034D374E02F006A
:1048300017EB5707206A10EB57212000FFF747FFBF
:1048400000286BD14FF40070B7FBF0F101FB107141
:10485000081990F8300006007F1C206A10EB5721E1
:104860002000FFF734FF002858D14FF40070B7FB49
:10487000F0F101FB1071081990F8300056EA00269B
:104880002800C00702D55FEA161903E05FEA06595F
:104890005FEA195942E0206A10EB15212000FFF76A
:1048A00016FF00283AD168004FF40071B0FBF1F216
:1048B00002FB1102101900F23000804698F8010046
:1048C00098F8001051EA002080B2814626E0206A64
:1048D00010EBD5112000FFF7FAFE00281ED1A8002A
:1048E0004FF40071B0FBF1F202FB1102101900F25B
:1048F0003000804698F8030098F80210090451EA45
:10490000006098F8011050EA012098F80010084360
:1049100000010009814601E0012081464846BDE8CA
:10492000F2832DE9F84304000D001600022D02D396
:104930006069854202D302208146AAE020780128DE
:1049400005D0C0F0A480032874D052D39FE02F007C
:1049500017EB5707206A10EB57212000FFF7B7FE2F
:1049600081465FFA89F9B9F1000F40F092804FF467
:104970000070B7FBF0F101FB1071081900F2300074
:1049800080467F1C2800C00706D598F8000010F06C
:104990000F0050EA061000E0300088F80000012007
:1049A0002071206A10EB57212000FFF790FE81460E
:1049B0005FFA89F9B9F1000F6BD14FF40070B7FBC2
:1049C000F0F101FB1071081900F230008046280058
:1049D000C00701D5300907E098F8000010F0F0009A
:1049E000310A11F00F01084388F8000001202071FE
:1049F0004FE0206A10EB15212000FFF768FE81468A
:104A00005FFA89F9B9F1000F43D168004FF40071E2
:104A1000B0FBF1F202FB1102101900F230008046E7
:104A200088F80060300080B2000A88F80100012098
:104A300020712EE0206A10EBD5112000FFF747FE11
:104A400081465FFA89F9B9F1000F22D1A8004FF42D
:104A50000071B0FBF1F202FB1102101900F23000FC
:104A6000804698F80300000610F07040064388F86E
:104A70000060300080B2000A88F80100300C88F82D
:104A80000200300E88F803000120207101E00220AE
:104A900081464846C0B2BDE8F283F8B504000D0077
:104AA000022D02D36069854202D3022006002CE069
:104AB000002006006069854227D229002000FFF708
:104AC0009FFE0700002F20D0012F02D102200600F8
:104AD0001BE017F1010F02D10120060015E00022B2
:104AE00029002000FFF71DFF0600F6B2002E0CD1B2
:104AF000206910F1010F06D02069401C2061607907
:104B000050F0010060713D00D4E73000C0B2F2BD4A
:104B10002DE9F84304000D00002D0AD1E06880461D
:104B2000B8F1000F02D06069804516D3012080469D
:104B300013E029002000FFF763FE0600022E01D2D9
:104B4000012058E016F1010F01D1300053E06069F7
:104B5000864201D230004EE0A84647467F1C60697D
:104B6000874205D302200700B84501D2002042E069
:104B700039002000FFF744FE0600002E0CD17FF024
:104B8000704239002000FFF7CCFE81465FFA89F9B8
:104B9000B9F1000F13D10AE016F1010F01D0012E77
:104BA00001D1300027E04745D8D1002023E0002D77
:104BB00005D03A0029002000FFF7B3FE81465FFAD6
:104BC00089F9B9F1000F0CD1E760206910F1010FEC
:104BD00010D02069401E2061607950F001006071A2
:104BE00008E05FFA89F9B9F1010F02D15FF0FF37F0
:104BF00000E001273800BDE8F2832DE9F041040010
:104C00000D00E580A0680600012E03D020684069F1
:104C1000864201D3022048E0002E06D120680078A9
:104C2000032802D12068406A0600002E09D12068BE
:104C30000089854201D3022037E02068406A0700DE
:104C40001FE02068807800018046454514D331007C
:104C50002068FFF7D5FD060016F1010F01D10120F4
:104C600023E0022E03D320684069864201D302204C
:104C70001BE0B5EB0805E8E731002068FFF7B3FD5E
:104C80000700E660002F01D102200EE017EB15109F
:104C900020611020B5FBF0F101FB1051206810EBF2
:104CA000411000F2300060610020BDE8F0812DE984
:104CB000F04104000D00E088401C0700380402D0D9
:104CC0002069002801D1042085E01020B7FBF0F115
:104CD00001FB1071002971D12069401C2061E0683E
:104CE000002805D120680089874267D3042072E03C
:104CF00020688078401E10EA171F5FD1E1682068A5
:104D0000FFF77EFD0600022E01D2022063E016F1BD
:104D1000010F01D101205EE020684069864247D33F
:104D2000002D01D1042056E0E1682068FFF7F0FE75
:104D30000600002E01D107204DE0012E01D10220F6
:104D400049E016F1010F01D1012044E02068FFF78E
:104D500091FC002801D001203DE04FF400720021B9
:104D600020683030FFF75AFB31002068FFF73BFD29
:104D70002168C8620020804620688078804511D272
:104D80002068012101712068FFF774FC002801D020
:104D9000012020E02068C06A401C2168C86218F128
:104DA0000108E9E72068C06AB0EB08002168C86222
:104DB000E66031002068FFF716FD2061E7801020D3
:104DC000B7FBF0F101FB1071206810EB411000F20D
:104DD000300060610020BDE8F081F8B504000D00EE
:104DE00000212000FFF709FF0600F6B2002E1FD1B8
:104DF0000020070021692068FFF769FC0600F6B271
:104E0000002E15D160690078E52803D0606900782C
:104E1000002803D17F1CAF4202D109E00020070027
:104E200001212000FFF743FF0600F6B2002EE1D07B
:104E3000F6B2042E01D1072006003000C0B2F2BD48
:104E400010B40200CB7E8C7E54EA03239BB2180080
:104E50001378032B06D14B7D0C7D54EA03239BB2C0
:104E600050EA034010BC704781760A0092B2120AE1
:104E7000C2760A0C02750A0C92B2120A4275704789
:104E8000F8B5040000212000FFF7B7FE0700FFB2CD
:104E9000002F02D03800C0B225E021692068FFF75A
:104EA00016FC0700FFB2002F1BD1606906003078A6
:104EB0000500EDB2002D02D10420070011E0F07AC8
:104EC000000706D40B22A1693000FFF7B2FA0028D0
:104ED00007D000212000FFF7EAFE0700FFB2002FF5
:104EE000DBD03800C0B2F2BD38B50400012120008B
:104EF000FFF773FF0500EDB2002D14D12169206882
:104F0000FFF7E5FB0500EDB2002D0CD120220021BA
:104F10006069FFF783FA0B22A1696069FFF770FAF5
:104F20002068012101712800C0B232BD2DE9F34F84
:104F300081B00298006883469BF800002F2803D0B8
:104F40009BF800005C2802D11BF1010BF4E70198EB
:104F5000806907000B2220213800FFF75FFA00204C
:104F60000400C0B2824681460820804619F80B0032
:104F7000050019F10109EDB2212D05D3EDB22F2D58
:104F800002D0EDB25C2D07D119EB0B00029908603D
:104F9000EDB2212D61D25EE0EDB22E2D01D0C245E1
:104FA0000DD3B8F1080F02D1EDB22E2D01D006209D
:104FB00072E0082082460B208046A400D6E7EDB2BE
:104FC000802D01D354F00304EDB2812D22D3EDB234
:104FD000FF2D1FD219F80B00060019F10109F6B2D6
:104FE000402E02D3F6B27F2E05D3F6B2802E06D322
:104FF000F6B2FF2E03D2B8F10100824501D306209C
:105000004AE00AF807501AF1010A0AF807601AF193
:10501000010AABE7EDB22900DFF8B406FFF71BFA8F
:10502000002801D0062037E0EDB2412D05D3EDB2C6
:105030005B2D02D254F0020408E0EDB2612D05D3DD
:10504000EDB27B2D02D254F00104203D0AF8075046
:105050001AF1010A8AE7042500E00025BAF1000FE1
:1050600001D1062018E03878E52801D105203870F4
:10507000B8F1080F00D1A400E4B214F00300012835
:1050800001D155F01005E4B214F00C00042801D150
:1050900055F00805FD720020BDE8FE8FF2B5040052
:1050A000009800782F2803D0009800785C2802D15F
:1050B0000098401C00900020A060009800782028F4
:1050C00007D200212000FFF798FD05000020606155
:1050D00029E000A92000FFF729FF0500EDB2002D0F
:1050E00021D12000FFF7CCFE0500A069C07A07009F
:1050F000EDB2002D07D0EDB2042D03D1780701D415
:10510000052005000FE078070DD460690600F07AED
:10511000C00602D40520050005E031002068FFF735
:105120008FFEA060D5E72800C0B2F2BD30B4010008
:105130005FF0FF300D68002D1ED00D682B001D782C
:10514000212D04D31D783A2D01D05B1CF7E71D7883
:105150003A2D0FD10D682A001578303D2C00521CD5
:105160000A2C06D29A4204D1022C02D220005B1CE7
:105170000B6001E00025280030BC704738B5040002
:105180000D00002020715FF0FF30E0622900200058
:10519000FFF79DFA002801D003202DE094F82F029C
:1051A00094F82E1251EA00204AF6552180B2884226
:1051B00001D0022020E094F8680094F867100902FA
:1051C00051EA004094F866100843DFF80815884259
:1051D00001D1002010E094F8840094F883100902B3
:1051E00051EA004094F882100843DFF8E81488423E
:1051F00001D1002000E0012032BD2DE9F74F8AB037
:105200000A98002101600B98FFF790FF0490049822
:10521000002801D50B2007E20498DFF8BC1451F8F0
:1052200020008146B9F1000F01D10C20FCE10A9861
:10523000C0F8009099F80000002812D099F80100F9
:1052400000F092FD83465FEACB700AD49DF83000EF
:10525000002804D05FEA4B7001D50A20E4E1002069
:10526000E2E1002089F80000049889F8010099F82B
:10527000010000F08DFD83465FEACB7001D503206D
:10528000D2E19DF83000002804D05FEA4B7001D5D0
:105290000A20C9E10020060031004846FFF76EFFF2
:1052A0000400E4B2012C3AD100208246BAF1040F86
:1052B00019D219EB0A1000F2EE1005002879002827
:1052C0000AD0E87AA97A090451EA0060697A50EABA
:1052D0000120297A084300E0002005A941F82A00AE
:1052E0001AF1010AE2E700208246BAF1000F01D06C
:1052F000BAF1010A05A850F82A000600002E04D0D1
:1053000031004846FFF73AFF00E002200400E4B213
:10531000002C04D01AF1010ABAF1040FEAD3E4B266
:10532000032C01D101207FE1E4B2002C01D00D203B
:105330007AE199F83C0099F83B1051EA00204FF4CB
:10534000007180B2884201D00D206DE199F84700CC
:1053500099F8461051EA002080B20700002F0ED1C4
:1053600099F8570099F85610090451EA006099F825
:10537000551050EA012099F8541008430700C9F865
:10538000187099F8400089F8030099F80300012883
:1053900005D099F80300022801D00D2044E199F8C6
:1053A0000300474399F83D0089F8020099F802008C
:1053B000002806D099F8020099F80210491E084208
:1053C00001D00D2030E199F8420099F8411051EADE
:1053D0000020A9F80800B9F808001021B0FBF1F28C
:1053E00002FB1102002A01D00D201DE199F84400B2
:1053F00099F8431051EA002080B2019001980028EA
:105400000ED199F8530099F85210090451EA00603E
:1054100099F8511050EA012099F850100843019072
:1054200099F83F0099F83E1051EA0020ADF80800C5
:10543000BDF80800002801D10D20F5E0BDF80800F6
:105440003818B9F8081010EB11100390019803995F
:10545000884201D20D20E7E001980399401A99F89B
:105460000210B0FBF1F000900098002801D10D204F
:10547000DAE001200400009840F6F671884201D37A
:105480000220040000984FF6F671884201D30320F1
:1054900004000098801CC9F81400C9F81C60BDF80D
:1054A00008008019C9F8200003988019C9F828005D
:1054B000E4B2032C1AD1B9F80800002801D00D205D
:1054C000B2E099F85F0099F85E10090451EA0060B3
:1054D00099F85D1050EA012099F85C100843C9F86A
:1054E0002400D9F81400800080461CE0B9F80800B8
:1054F000002801D10D2097E0D9F820003818C9F80C
:105500002400E4B2022C04D1D9F814005FEA400868
:1055100009E0D9F814000321484399F8141011F058
:10552000010111EB5008D9F8180008F2FF11B0EB97
:10553000512F01D20D2077E05FF0FF30C9F8100045
:10554000C9F80C00802089F80500E4B2032C5ED174
:1055500099F8610099F8601051EA002080B20128A2
:1055600055D1711C4846FFF7B2F800284FD10020F2
:1055700089F8050099F82F0299F82E1251EA0020B7
:105580004AF6552180B2884241D199F8330099F802
:105590003210090451EA006099F8311050EA0120F4
:1055A00099F8301008434D49884230D199F81702D4
:1055B00099F81612090451EA006099F8151250EA98
:1055C000012099F814120843454988421FD199F8DF
:1055D0001B0299F81A12090451EA006099F819128D
:1055E00050EA012099F818120843C9F8100099F8F8
:1055F0001F0299F81E12090451EA006099F81D1261
:1056000050EA012099F81C120843C9F80C0089F8E7
:10561000004034480088401C32490880A9F8060040
:105620004846FFF710F800200DB0BDE8F08F38B500
:1056300004002500002D0BD02868002808D0286819
:105640000078002804D02868C088A988884201D042
:10565000092008E02868407800F086FBC00701D5E3
:10566000032000E0002032BDF3B581B014000298A1
:10567000009000A8FFF75AFD0600002E01D50B2070
:1056800024E0154850F826000500002D04D028001D
:10569000FEF7D9FF002028700198002802D0019859
:1056A000002101700C48019940F82610019800284B
:1056B00002D0E4B2012C01D0002007E0002202A9B0
:1056C00001A8FFF79AFD07003800C0B2FEBD000038
:1056D000342D020846415400B4E300205252614187
:1056E00072724161AEE400202DE9F2438CB00400F7
:1056F0001500002C01D10920D9E00020206015F010
:105700001F0515F0FE020CA900A8FFF776FD0600A4
:10571000F6B2002E40F0C98008A806900C9900A8A7
:10572000FFF7BCFC060005980700F6B2002E0ED16C
:10573000002F02D10620060009E0FE20054201D01C
:10574000012100E0002100A8FEF78FFE06001C20CA
:10575000054261D0F6B2002E11D0F6B2042E09D166
:10576000FEF7C9FE002803D000A8FFF7BDFB00E04C
:105770001220060055F00805059807000AE0F87A9F
:105780001121084202D00720060003E0680701D576
:1057900008200600F6B2002E4ED128074CD500F0A6
:1057A00030FC804687F80E80404680B2000AF873CD
:1057B0005FEA184038745FEA186078740020F87265
:1057C00000203877002078770020B8770020F8771D
:1057D00039000098FFF734FB814600213800FFF7BD
:1057E00043FB009801210171B9F1000F24D000980A
:1057F000C06A804649460098FFF74FF90600F6B2A6
:10580000002E19D10098B9F10101C16041460098FC
:10581000FEF75DFF06000FE0F6B2002E0CD1F87A1D
:10582000C00602D50420060006E0A80704D5F87AD1
:10583000C00701D507200600F6B2002E16D12807B2
:1058400001D555F020050098C06AE0612762FE206E
:10585000054201D0012100E0002100A8FEF75EFE14
:105860006062606A002801D102200600F6B2002EB4
:105870001BD1A5710020E07139000098FFF7E0FA14
:105880002061F87FB97F090451EA0060797F50EA0E
:105890000120397F0843E0600020A0600020A06163
:1058A000009820602068C088A0803000C0B20DB091
:1058B000BDE8F0832DE9FB4F04001500DDF804A0DE
:1058C0000298002101602000FFF7B1FE8DF8000072
:1058D0009DF80000002802D09DF80000FFE0E0796C
:1058E000002801D0E079FAE0A079800701D40720F0
:1058F000F5E0A0682818A168884201D200200500C0
:10590000002D00F0E180A0684FF40071B0FBF1F2CF
:1059100002FB1102002A40F0A880A068400A21681A
:105920008978491E084083465FFA8BFBBBF1000F64
:1059300026D1A068002809D120690600002E0AD1CE
:1059400000212068FFF7E4F8060004E061692068A0
:10595000FFF7DEF80600002E00F0B680012E03D11E
:105960000220E0710220BAE016F1010F03D10120FC
:10597000E0710120B3E066612069002800D1266152
:10598000A079400611D50123A26914F128012068ED
:10599000407800F07CFA002803D00120E07101205B
:1059A0009DE0A07910F0BF00A07161692068FEF74A
:1059B0001AFF0700002F03D10220E07102208EE0C1
:1059C0005FFA8BFB1BEB0707680A8146B9F1000FF2
:1059D00035D0206880785FFA8BFB19EB0B01884289
:1059E00006D2206880785FFA8BFBB0EB0B00814613
:1059F0004B463A0051462068407800F048FA0028AB
:105A000003D00120E071012069E0A069C01B484576
:105A10000FD24FF40072A069C01B4FF4007101FB5C
:105A200000A114F12800FEF7EBFCA07910F0BF00F4
:105A3000A0714FF4007000FB09F0804635E0A069CA
:105A4000B84211D0A068E16888420DD201233A0023
:105A500014F128012068407800F0BAF9002803D03A
:105A60000120E07101203AE0A7614FF40070A168C5
:105A70004FF40072B1FBF2F303FB1213C01A80461D
:105A8000454500D2A84642465146A0684FF40073EF
:105A9000B0FBF3FC0CFB130C1CEB04002830FEF7EE
:105AA000AFFCA07950F04000A07118EB0A0AA06882
:105AB00018EB0000A0600298006818EB0000029943
:105AC0000860B5EB08051BE7E068A168884201D2D1
:105AD000A068E060A07950F02000A0710020BDE82F
