:020000040800F2
:1000000050520020E901000801070008950400088B
:10001000FD06000859030008590F00080000000001
:100020000000000000000000000000004501000882
:100030007F0300080000000089010008B1090008E2
:10004000030200080302000803020008030200087C
:10005000030200080302000803020008030200086C
:10006000030200080302000803020008030200085C
:10007000030200080302000803020008030200084C
:10008000030200080302000803020008030200083C
:10009000030200080302000803020008030200082C
:1000A000030200080302000803020008030200081C
:1000B000310A0008030200080302000803020008D6
:1000C00003020008030200080302000803020008FC
:1000D00003020008590C000803020008030200088C
:1000E00003020008030200080302000803020008DC
:1000F00003020008030200080302000803020008CC
:1001000003020008030200080302000803020008BB
:100110000302000803020008CD0A000803020008D9
:10012000030200080302000803020008030200089B
:10013000DFF80CD000F0A2F8004800479919000839
:1001400050520020204B19680868B0E8F00F80F387
:100150000988BFF36F8F4FF0000080F311884EF0D5
:100160000D0E70470000000006480068006880F32C
:10017000088862B661B6BFF34F8FBFF36F8F00DFA1
:1001800000BF00BF08ED00E0EFF30980BFF36F8F01
:100190000D4B1A6820E9F00F106008B54FF0100001
:1001A00080F3118802F0A8FA4FF0000080F3118864
:1001B000BDE8084019680868B0E8F00F80F30988C6
:1001C000BFF36F8F704700BF44000020EFF3118032
:1001D0004FF0100181F31188704780F31188704748
:1001E000EFF3058070470000064880470648004747
:1001F000FEE7FEE7FEE7FEE7FEE7FEE7FEE7FEE7D7
:10020000FEE7FEE7D109000831010008D2B201E0A3
:1002100000F8012B491EFBD270470022F6E710B50B
:1002200013460A4604461946FFF7F0FF204610BD64
:10023000421C10F8011B0029FBD1801A70470346AD
:1002400011F8012B00F8012B002AF9D1184670474C
:1002500030B50B46014600202022012409E021FA96
:1002600002F59D4205D303FA02F5491B04FA02F593
:100270002844151EA2F10102F1DC30BD064C074DE9
:1002800006E0E06840F0010394E807009847103466
:10029000AC42F6D3FFF750FF142D0008342D0008B0
:1002A0001FB500200123CDE90030029003464FF432
:1002B000007217A10390194802F052FB0020184A5F
:1002C0000223CDE901200093039003464FF400720E
:1002D00014A1174802F044FB0020164A0323CDE97D
:1002E00001200093039003464FF4007212A11548B9
:1002F00002F036FB00200423CDE9003002900346D3
:100300004FF4007210A10390124802F029FB1FBDA8
:10031000765461736B55736572494600B9270008BE
:1003200000000020765461736B4C454400000000CF
:100330007124000804000020765461736B4D7367CC
:1003400050726F005D250008765461736B537461C1
:10035000727400007126000800BFFEE708B5252072
:100360008DF8000001208DF8010000208DF80200BA
:1003700001208DF80300684600F0C4F908BD7047FD
:100380002DE9F0410246002500260020002300242C
:10039000002791F803C00CF00F0591F803C01CF082
:1003A000100F03D091F802C04CEA050591F800C087
:1003B000BCF1000F31D0146800202BE04FF0010C8D
:1003C0000CFA00F3B1F800C00CEA03069E4220D1FB
:1003D00083004FF00F0C0CFA03F7BC4305FA03FC43
:1003E0004CEA040491F803C0BCF1280F06D14FF089
:1003F000010C0CFA00FCC2F814C00AE091F803C02A
:10040000BCF1480F05D14FF0010C0CFA00FCC2F80A
:1004100010C0401C0828D1D31460B1F800C0BCF152
:10042000FF0F34DD546800202EE000F1080C4FF07F
:10043000010808FA0CF3B1F800C00CEA03069E426A
:1004400021D183004FF00F0C0CFA03F7BC4305FADF
:1004500003FC4CEA040491F803C0BCF1280F05D159
:1004600000F1080C08FA0CF8C2F8148091F803C0E7
:10047000BCF1480F07D100F1080C4FF0010808FA51
:100480000CF8C2F81080401C0828CED35460BDE898
:10049000F081000009A100200BE00A5C124B1A80D9
:1004A00000BF114A121F128812F0400FF9D0421CEF
:1004B000D0B22A28F1D300BFFEE700000D0A456E36
:1004C00074657220486172644661756C745F48613E
:1004D0006E646C65722C2053797374656D2048616D
:1004E0006C742E0D0A0000000438014000B585B080
:1004F0000121052000F05AF90121880300F056F986
:100500004FF40070ADF8100018208DF81300032090
:100510008DF8120004A91848FFF732FF4FF48060ED
:10052000ADF8100004208DF8130004A91248FFF75D
:1005300027FF4FF4E13000900020ADF80400ADF843
:100540000600ADF80800ADF80C000C20ADF80A006C
:1005500069460A4800F0FAFB012240F2255107489B
:1005600000F0CEFB0121054800F087FB4021034845
:1005700000F07AFB05B000BD0008014000380140E2
:100580000948806810F4005F0BD10848006810F03B
:10059000010F06D10648806810F4807F01D0012049
:1005A00070470020FCE700000010014008080140EF
:1005B000002001400948806810F4005F0BD0084813
:1005C000006810F0010F06D00648806810F4807FA4
:1005D00001D1012070470020FCE70000001001401D
:1005E00008080140002001400948806810F4005FBD
:1005F0000BD00848006810F0010F06D0064880684C
:1006000010F4807F01D0012070470020FCE700003B
:10061000001001400808014000200140094880689E
:1006200010F4005F0BD00848006810F0010F06D1ED
:100630000648806810F4807F01D1012070470020B7
:10064000FCE70000001001400808014000200140C4
:100650000448806810F4004F01D101207047002049
:10066000FCE70000002001400448006810F0080F7B
:1006700001D1012070470020FCE700000814014070
:100680000448806810F4804F01D101207047002099
:10069000FCE70000002001400448806810F4005F7F
:1006A00001D1012070470020FCE70000002001403C
:1006B0000448806810F0800F01D1012070470020AD
:1006C000FCE70000002001400948806810F4005F4A
:1006D0000BD10848006810F0010F06D0064880686A
:1006E00010F4807F01D0012070470020FCE700005B
:1006F00000100140080801400020014000BFFEE753
:100700007047000070B5002100230F22C4780CB39D
:10071000164C246804F4E064C4F5E064210AC1F1D5
:100720000403CA40447804FA03F184781440214356
:1007300009010F4C0678A155047804F01F05012427
:10074000AC4005786D114FF0E02606EB8505C5F845
:10075000004109E0047804F01F050124AC40054D78
:100760000678761145F8264070BD00000CED00E0DB
:1007700000E400E080E100E002490143024A116028
:10078000704700000000FA050CED00E029B1064AB0
:10079000D2690243044BDA6104E0034AD26982431E
:1007A000014BDA61704700000010024029B1064A8F
:1007B00092690243044B9A6104E0034A92698243BE
:1007C000014B9A61704700000010024030B50021D3
:1007D0000022002400232D4D6D6805F00C0121B18D
:1007E000042905D0082923D105E0294D056022E020
:1007F000274D05601FE0254D6D6805F47012234DEF
:100800006D6805F48034022505EB92421CB9214D38
:10081000554305600BE01D4D6D6815F4003F03D096
:100820001C4D5543056002E0194D5543056002E03B
:10083000174D056000BF00BF144D6D6805F0F00155
:100840000909154D6B5C0568DD4045600F4D6D680D
:1008500005F4E061090A104D6B5C4568DD40856078
:100860000A4D6D6805F46051C90A0B4D6B5C456813
:10087000DD40C560054D6D6805F44041890B074DAD
:100880006B5CC568B5FBF3F5056130BD0010024037
:1008900000127A0000093D001C0000202C000020FE
:1008A00008B501210820FFF781FF03208DF8020021
:1008B00010208DF803000420ADF8000069460248BE
:1008C000FFF75EFD08BD0000000C014010B500F010
:1008D00001F810BD0CB5002001900090324800686E
:1008E00040F480303049086000BF2F48006800F4B1
:1008F000003000900198401C0190009818B90198B0
:10090000B0F5A06FF1D12848006810F4003F02D084
:100910000120009001E0002000900098012842D1C1
:100920002248006840F0100020490860084600682E
:1009300020F0030008600846006840F002000860EC
:1009400019484068184948600846406848600846A9
:10095000406840F4806048600846406820F47C109D
:1009600048600846406840F4E8104860084600685F
:1009700040F08070086000BF0B48006810F0007FF6
:10098000FAD00948406820F003000749486008464B
:10099000406840F00200486000BF0348406800F033
:1009A0000C000828F9D10CBD0010024000200240C4
:1009B00010B5FFF70BFC02F075F818B14FF080503E
:1009C000024908600020FFF708FC10BD04ED00E0BC
:1009D00010B51348006840F001001149086008464E
:1009E0004068104908400E494860084600680E49B2
:1009F00008400B4908600846006820F48020086021
:100A00000846406820F4FE0048604FF41F008860EC
:100A1000FFF75CFF4FF000600449086010BD000064
:100A2000001002400000FFF8FFFFF6FE08ED00E0B6
:100A300010B50221480700F099F858B10221480783
:100A400000F082F800220221480700F0A0F81B48BD
:100A5000006880470421080700F088F858B1042195
:100A6000080700F071F800220421080700F08FF851
:100A70001348006880470821C80600F077F858B18D
:100A80000821C80600F060F800220821C80600F01E
:100A90007EF80C48006880471021880600F066F850
:100AA00058B11021880600F04FF800221021880666
:100AB00000F06DF804480068804710BD0C0000206D
:100AC00010000020140000201800002010B50121A3
:100AD000064800F04BF840B105480068401C044946
:100AE00008600121014800F02FF810BD00100040FF
:100AF0000800002021B1028842F08002028004E058
:100B000002884FF67F731A400280704708B50020B4
:100B1000009069460A48006801F050FD694608489F
:100B2000006801F04BFD69460548006801F046FD8C
:100B3000009818B14FF080500249086008BD0000CD
:100B40000400002004ED00E0CA430282704721B196
:100B5000028842F00102028004E002884FF6FE7330
:100B60001A40028070470146888C704730B50246B3
:100B7000002000230024158A05EA0103958905EA6F
:100B8000010413B10CB1012000E0002030BD1AB106
:100B900083890B43838102E083898B438381704780
:100BA000818670470187704781877047A0F84010A1
:100BB00070470000002202881D4B98420ED01D4B4A
:100BC00098420BD0B0F1804F08D01B4B984205D013
:100BD0001A4B984202D01A4B984204D14FF68F73A9
:100BE0001A404B881A43174B984207D0164B98422D
:100BF00004D04FF6FF431A40CB881A4302808B88FB
:100C000083850B8803850A4B98420BD0094B984289
:100C100008D00E4B984205D00D4B984202D00D4B98
:100C2000984201D10B7A038601238382704700002A
:100C3000002C014000340140000400400008004046
:100C4000000C004000100040001400400040014033
:100C5000004401400048014010B5024800F0EBF8A4
:100C600010BD00005C01002001F40072B2F5007FAD
:100C700000D100BFCA430280704721B1828942F48B
:100C80000052828104E082894DF6FF731A4082810E
:100C9000704702460020B1F5007F00D100BF1388E5
:100CA0000B4201D0012000E00020704770B50246E1
:100CB0000024002300250020A1F510666A3E00D123
:100CC00000BFC1F3421501F01F03012606FA03F32A
:100CD000012D02D19689334006E0022D02D1168AF9
:100CE000334001E0968A33400C12012606FA04F4E0
:100CF0001688344013B10CB1012000E0002070BD13
:100D0000F0B503460024002600250020A1F5106759
:100D10006A3F00D100BF1846C1F3421401F01F061C
:100D2000012707FA06F5012C01D10C3004E0022C52
:100D300001D1103000E014301AB107682F4307606A
:100D400002E00768AF430760F0BD00002DE9F047FF
:100D500086B005460E460024A24600BFA1460027E5
:100D6000B08900B100BF2F462C8A4CF6FF700440BA
:100D7000F08804432C82AC894EF6F3100440B0880E
:100D800031890843718908430443AC81AC8A4FF62A
:100D9000FF400440B0890443AC8201A8FFF716FD70
:100DA0001F48874202D1DDF810A001E0DDF80CA059
:100DB000A88910F4004F08D00AEBCA0000EB0A1013
:100DC00031684900B0FBF1F807E00AEBCA0000EB1C
:100DD0000A1031688900B0FBF1F86420B8FBF0F02C
:100DE00004012009642101FB1089A88910F4004F37
:100DF00008D0322000EBC900B0FBF1F000F0070092
:100E0000044308E0322000EB09106421B0FBF1F04C
:100E100000F00F0004432C8106B0BDE8F08700000D
:100E20000038014001468888C0F308007047C1F3CC
:100E300008028280704770B5044640F22551206850
:100E4000FFF734FFE0B12068FFF7ECFFC5B2E18A9D
:100E5000A0684554E08A401C80B2E082E189884263
:100E600001DB0020E082608BE189884202DA608B3E
:100E7000401C6083606A10B12846616A884700BFE1
:100E800040F227712068FFF711FF08B3A08A60B90C
:100E9000002240F227712068FFF732FF012240F262
:100EA00026612068FFF72CFF37E0638A6268D15C17
:100EB0002068FFF7BCFF608A401C80B26082A18975
:100EC000884201DB00206082A08A401EA08224E0CC
:100ED00040F226612068FFF7E9FEF0B1A08A50B920
:100EE000002240F226612068FFF70AFF206AA0B1C5
:100EF000206A804711E0638A6268D15C2068FFF74E
:100F000096FF608A401C80B26082A189884201DB22
:100F100000206082A08A401EA08270BD0A480B4952
:100F200008600B4848600B4888604FF480608881F7
:100F3000C881002008824882C8820883488388824A
:100F4000C861086248627047003801405C010020B7
:100F5000840100208405002000BFFEE70FB4054B8C
:100F600010B503A9044A029800F02CF810BC5DF8F3
:100F700014FB000075190008A80000200FB4084BEE
:100F800010B504A902AA039800F01CF8044602A9AF
:100F9000002000F0F3F8204610BC5DF814FB0000C0
:100FA0007D11000802E008C8121F08C1002AFAD10A
:100FB00070477047002001E001C1121F002AFBD1D9
:100FC000704700002DE9FF4F8BB09A460F4605464B
:100FD0000026C9E0252837D100246D1C6649A046AB
:100FE00001222B78203B02FA03F0084202D004438E
:100FF0006D1CF6E728782E2817D115F8010F44F05C
:1010000004042A280ED06FF02F022878A0F13001B6
:1010100009290AD808EB880102EB410100EB01081D
:101020006D1CF2E757F8048B6D1C287869283FD0B7
:1010300006DC002871D063280CD0642804D137E086
:10104000732811D075284ED052460D99904706F15D
:10105000010688E017F8040B8DF8000000208DF8D9
:101060000100E946012003E057F8049B4FF0FF30F0
:1010700061074FF0000401D40AE0641C44450DDA16
:101080008442FADB19F804100029F6D106E0641C4A
:101090008442FCDB19F804100029F8D1264404E04E
:1010A00019F8010B52460D999047641EF8D25AE088
:1010B00001CF4FF00A0B002804DAC0F100004FF016
:1010C0002D0102E0210504D52B218DF824100121EA
:1010D00003E0E10705D02021F7E70DF12009089191
:1010E0000CE00021F9E701CF4FF00A0BF9E7594670
:1010F000FFF7AEF801F1300209F8012D0028F6D112
:10110000ADEB090000F1200B600701D44FF001089E
:10111000D84503DDA8EB0B0001E029E00020804664
:10112000002406E009A85246005D0D999047761C00
:10113000641C08988442F5DB04E0302052460D9987
:101140009047761CB8F10001A8F10108F5DC05E034
:1011500019F8010B52460D999047761CBBF100011E
:10116000ABF1010BF4DC6D1C287800287FF432AF62
:101170000FB03046BDE8F08F092801000A68531C03
:101180000B6010707047000070B50546304800EBEA
:1011900005142068804700283ED02079052802DA0F
:1011A0000520207152E020790A2803DA2079401CBA
:1011B00020714BE0A07A38B90120A07205EB4501FF
:1011C000491CC8B200F05CFA208900283EDDE088A6
:1011D000218988420DDAE088401C80B2E0802189B4
:1011E000884233D105EB4501C91CC8B200F048FA6A
:1011F0002CE0E07A002829DD207B401CC0B220735F
:10120000E17A884222DB0020207305EB4501491C6E
:10121000C8B200F035FA19E02079052802DD052072
:10122000207110E0207918B12079401E20710AE069
:10123000A07A012807D10020A07205EB4501891C86
:10124000C8B200F01DFA0020E080207370BD0000DD
:10125000AC0000200B48807A0A4AD27A904201D131
:10126000002070470748807A064A115C1046807A51
:10127000401CC0B290720A2801DB00209072084620
:10128000EFE700004C01002001460020244A914273
:1012900001D1C81442E0234A914201D148143DE0F3
:1012A000214A914202D14FF4002037E01F4A914277
:1012B00002D14FF4801031E01D4A914202D14FF427
:1012C00000102BE0B1F1804F01D1012026E0194A36
:1012D000914201D1022021E0174A914201D104201C
:1012E0001CE0164A914201D1082017E0144A9142AD
:1012F00001D1102012E0134A914201D120200DE0CB
:10130000114A914201D1402008E0104A914201D196
:10131000802003E00E4A914200D1881570470000FA
:10132000002C014000340140004C014000500140BD
:10133000005401400004004000080040000C004040
:10134000001000400014004000180040001C004045
:101350000020004010B54FF44070FFF70DFA00F088
:1013600035F900F0FBF800F037F800F001F810BD97
:101370007FB501210846FFF709FA154800684608BD
:101380001448B6FBF0F085B24FF6FF74ADF8084094
:10139000ADF804500020ADF80A00ADF8060001A930
:1013A0004FF08040FFF706FC01218807FFF7CFFBD5
:1013B0001C208DF8000004208DF8010000208DF81D
:1013C000020001208DF803006846FFF79BF97FBDFE
:1013D0003000002040420F0010B500F055F800F03A
:1013E00001F810BD08B501214FF49A70FFF7DEF93E
:1013F00003208DF8020004208DF80300C002ADF830
:10140000000069461C48FEF7BBFF0120ADF8000054
:1014100069461A48FEF7B4FF4FF48070ADF800003B
:1014200069461748FEF7ACFF4FF40040ADF80000E6
:1014300069461348FEF7A4FF0820ADF8000069468E
:101440001048FEF79DFF4FF48040ADF8000069465C
:101450000B48FEF795FF4FF40050ADF800006946C9
:101460000748FEF78DFF8020ADF80000694604486C
:10147000FEF786FF08BD0000001001400008014093
:1014800000200140001401400021284A9172D172CD
:101490001173002018E06421254A02EB001211812B
:1014A0000221234A02EB001211710021204A02EBB3
:1014B000001291721E4A02EB0012D1721C4A02EB1A
:1014C00000121173411CC8B20A28E4DB64221849D7
:1014D0000A87052281F83B206422A1F848200522D2
:1014E00081F84B206422A1F85820052281F85B2066
:1014F0006422A1F86820052281F86B200D490C4A6E
:1015000011600D4911610D4911620D4911630D49B9
:1015100011640D4911650D4911660D4911670D4999
:10152000C2F880100C49C2F8901070474C0100209E
:10153000AC00002081050008E90500081D06000830
:10154000510600086906000881060008990600088F
:10155000B1060008C9060008B505000808B5012154
:101560008020FFF723F9012000F046F8022000F068
:1015700043F8032000F040F8042000F03DF8032079
:101580008DF8020010208DF80300C001ADF80000B6
:1015900069460D48FEF7F4FE8020ADF8000069466C
:1015A0000948FEF7EDFE4FF48070ADF80000694683
:1015B0000548FEF7E5FE4FF40070ADF800006946FF
:1015C0000148FEF7DDFE08BD001C014010B5FFF725
:1015D000A5FCFEF78BFFFFF763F9FEF7BFFE10BD1A
:1015E00010B5002404E02046FFF7CEFD601CC4B215
:1015F0000A2CF8DB10BD0000411EC8B220B94FF420
:1016000000610B4A116011E0012803D18021084AD2
:1016100011600BE0022803D1C101054A116005E009
:10162000032803D14FF40071014A11607047000094
:10163000101C0140012806D11049096881F400619D
:101640000E4A116019E0022806D10C49096881F0A0
:1016500080010A4A116010E0032806D10749096891
:1016600081F48071054A116007E0042805D103491F
:10167000096881F40071014A116070470C1C014037
:101680000649C97A054A50541146C97A491CC9B25B
:10169000D1720A2901DB0021D17270474C01002070
:1016A0002DE9FF5F04460D4691469A4674488442F0
:1016B00002D07448844207D12046FFF7E5FD8346F7
:1016C0000121FFF773F806E02046FFF7DDFD8346B2
:1016D0000121FFF75BF8002D41D100212046FFF7E3
:1016E00036FAAB466648844202D14FF0190B28E027
:1016F000B4F1804F02D14FF01C0B22E062488442CB
:1017000002D14FF01D0B1CE06048844202D14FF023
:101710001E0B16E05E48844202D14FF0320B10E0FF
:101720005C48844202D14FF0360B0AE05A488442AA
:1017300002D14FF0370B04E05248844201D14FF000
:101740002C0B8DF800B08DF801908DF802A00020D0
:101750008DF803006846FEF7D5FFBDE8FF9F4848B7
:1017600084420BD04748844208D04C48844205D07C
:101770004B48844202D04B48844202D14A48066812
:1017800001E049480668642D0AD242F20F7842F21D
:101790001070B6FBF0F0B0FBF5F0401E87B213E01E
:1017A00040F6B830854209D24FF063086420B6FB9A
:1017B000F0F0B0FBF5F0401E87B205E04FF00008F6
:1017C000B6FBF5F0401E87B2ADF80870ADF80480A6
:1017D0000020ADF80A00ADF806008DF80C0001A954
:1017E0002046FFF7E7F901212046FFF783F90122A0
:1017F00011462046FFF7CBF901212046FFF7A7F954
:101800004FF0000B1E48844202D14FF0190B28E024
:10181000B4F1804F02D14FF01C0B22E01A488442F1
:1018200002D14FF01D0B1CE01848844202D14FF04A
:101830001E0B16E01648844202D14FF0320B10E026
:101840001448844202D14FF0360B0AE01248844219
:1018500002D14FF0370B04E00A48844201D14FF027
:101860002C0B8DF800B08DF801908DF802A00120AE
:101870008DF803006846FEF745FF00BF6DE70000E6
:10188000002C0140003401400004004000080040EA
:10189000000C00400010004000140040004C0140CB
:1018A0000050014000540140300000202DE9F0417B
:1018B00004460F461546052F00D37F1F4FF080408A
:1018C000FFF751F9804608EB0706012C0FD1254898
:1018D0000560B1B2A007FFF763F902214807FFF7DF
:1018E00033F9012202214807FFF751F938E0022CB1
:1018F0000FD11D480560B1B26007FFF753F904210D
:101900000807FFF721F9012204210807FFF73FF933
:1019100026E0032C10D115480560B1B24FF080408D
:10192000FFF742F90821C806FFF70EF90122082146
:10193000C806FFF72CF913E0042C0FD10C48056002
:10194000B1B22007FFF732F910218806FFF7FCF843
:10195000012210218806FFF71AF901E0BDE8F081A5
:1019600000BFFBE70C000020100000201400002046
:101970001800002070B504460D46E1B20548FFF797
:1019800056FA00BF40210348FFF783F90028F9D039
:10199000204670BD00380140FFF7DCFC00F064FC1D
:1019A000FEF77EFC00F06CFE00BFFEE710B50446BB
:1019B0000E48006844600E480068844207D20B4815
:1019C0000168091D0B48006800F06AFB0CE007483D
:1019D0000168091D0848006800F062FB07480068BC
:1019E000844201D20548046010BD0000440000207C
:1019F00050000020800000207C0000206C000020AF
:101A00002DE9F04105460F461FB9A80000F0E0F9A6
:101A100000E03846064656B1602000F0D9F9044689
:101A20000CB1266304E0304600F098FB00E000248F
:101A300024B1A900A522206BFEF7E8FB2046BDE8F3
:101A4000F081000070B523E000F04EFE13480068FE
:101A500008B9012000E00020054601F0C1F8BDB939
:101A600000F044FB0D48C068C468201D00F0A2FAD5
:101A70000B480068401E0A4908600A480068401E7A
:101A80000849086000F054FB204600F00DF800BF44
:101A9000044800680028D7D170BD0000240A002047
:101AA0004C0000204800002010B50446206B00F0D8
:101AB00055FB204600F052FB10BD000030B54FF43E
:101AC0008843174810F0070F05D0C01D20F007000D
:101AD000134C041B1B1B0246124C22600024114DA8
:101AE0006C60D018083820F007000F4C20600024EC
:101AF0000D4D2D686C600C4D2D682C601146441AFC
:101B00004C60094C24680C60084D4C682C60084DF2
:101B10004C682C604FF00044064D2C6030BD000036
:101B20004C0A0020A0000020900000209800002017
:101B3000940000209C00002000BFFFF783FF0348B3
:101B400000680128F9D900F083FBF6E7840900203A
:101B50002DE9F04704460F4615469946DDF82080EA
:101B6000002607E0B95D04F134008155B85D00B985
:101B700002E0761C102EF5D300BF00214320015552
:101B8000052D00D30425E562E56400202065201DB5
:101B900000F083FA04F1180000F07FFA2461C5F127
:101BA0000500A061646200206065A06584F85C00A7
:101BB000BDE8F08710B5002407E004EB84010F4A6C
:101BC00002EB810000F05CFA641C052CF5D30C4894
:101BD00000F056FA0B4800F053FA0B4800F050FAA8
:101BE0000A4800F04DFA0A4800F04AFA0448094948
:101BF000086004480849086010BD000084090020FE
:101C0000E8090020FC090020100A0020240A002016
:101C1000380A00207C0000208000002010B501461A
:101C2000164800E0006803688B42FBD30246436815
:101C300013448B4204D143684C68234443600146FB
:101C40000A464B6813440468A34211D10C4C036844
:101C50002468A34208D04B680468646823444B603E
:101C600003681B680B6005E0054B1B680B6001E017
:101C700003680B60884200D0016010BDA000002006
:101C8000900000202DE9F04706460C4690460025BE
:101C9000206800284BD0204641684968416000F127
:101CA000080142688A4202D141684968416041683E
:101CB000D1F80C9000BF204641684968416000F1AE
:101CC000080142688A4202D141684968416041681E
:101CD000CF6806EB4510076007F1340006EB4511AD
:101CE0004860786C06EB4511886006EB451080F87B
:101CF0000C80F86A06EB45110861B8F1030F05D1B5
:101D0000B86A18B1022006EB45110873F86C06EBAF
:101D100045114861786D06EB45118861386B00F01C
:101D200023F806EB451188836D1C4F45C3D1284627
:101D3000BDE8F0870A490968096809B9012100E08E
:101D4000002121B14FF0FF31064A116006E004493D
:101D50000968C968C868034A416811607047000093
:101D60007C0000206C0000200246002101E0521C93
:101D7000491C1078A528FAD0890888B2704700005D
:101D800007480068401C01D1012000E0002018B97C
:101D9000FEF71CFA00BFFEE7FEF718FA00BFFEE7E9
:101DA0008400002070B505460E4631462846FEF7F1
:101DB00046FA2846FEF73CFA044602E02020285561
:101DC000641C0F2CFADB00202855281970BD000078
:101DD0002DE9F04104464FF0000800F085FC3B4837
:101DE000006808B9FFF76AFE3948006804425DD10F
:101DF0009CB1083414F0070F0FD004F00700C0F1B5
:101E00000800044414F0070F01D1012000E0002075
:101E100018B9FEF7DBF900BFFEE7002C46D02D48CD
:101E20000068844242D82C4E3046056801E02E46B8
:101E30002D686868A04202D228680028F7D123489C
:101E40000068854232D0306800F1080828683060A8
:101E50006868001B102812D92F1917F0070F01D13D
:101E6000012000E0002018B9FEF7B0F900BFFEE73E
:101E70006868001B78606C603846FFF7CFFE154934
:101E800068680968081A1349086008460068134919
:101E90000968884203D20F480068104908600C495D
:101EA00068680968084368600020286000F098FEB0
:101EB00018F0070F01D1012000E0002018B9FEF74B
:101EC00085F900BFFEE74046BDE8F08190000020A4
:101ED0009C00002094000020A0000020980000201A
:101EE000001F4FF080730360001F0160001F034B51
:101EF000036014380260203870470000811D00081C
:101F00002DE9F04106460C4600F0F0F8254800683F
:101F1000806D38BB01202349096881F85C000CB34F
:101F200020480068001D00F045F850B91D480068C1
:101F300090F82C10012088401B49096881431A48F9
:101F40000160601C06D117480168091D174800F0A0
:101F5000C1F805E01648006807193846FFF726FD66
:101F600000F076F900F0E4F800F0C0F80D480068E1
:101F7000856D65B126B100200A490968886506E0CB
:101F80000849096801F15800896D491E0160002067
:101F90000449096881F85C0000F0CAF82846BDE8E9
:101FA000F08100004400002054000020380A002086
:101FB0005000002001460A69D1E901309860D1E95A
:101FC000010358605068884201D188685060002041
:101FD00008611068401E1060106870472DE9F041DC
:101FE0000546884616460024052700F07DFB1D485F
:101FF0000068804530D300BF7F1E07EB87021A4B75
:1020000003EB820105EB44100122FFF73BFE044481
:10201000002FF1D105EB4410022214490968FFF7A3
:1020200031FE044405EB4410022211490968FFF710
:1020300029FE044405EB441004220E49FFF722FE5A
:10204000044405EB441003220B49FFF71BFE044434
:1020500016B10A480068306000F0C2FD2046BDE8B5
:10206000F08100004C000020840900207C0000204A
:1020700080000020240A0020380A002008000020E8
:1020800000F1080141604FF0FF31816000F108016B
:10209000C16001610021016070470021016170474A
:1020A00010B502460B685C1C01D1106907E002F113
:1020B000080000E04068446824689C42FAD94468FB
:1020C0004C604C68A160886041600A611468641CBF
:1020D000146010BD42684A6093688B6093685960D1
:1020E0009160086103685B1C0360704710B5FEF7E0
:1020F0006DF80D480068401C0B490860BFF34F8F16
:10210000BFF36F8F0846006801280CD107480068AC
:1021100010F0FF0F01D1012000E0002018B9FEF7F8
:1021200055F800BFFEE710BD8400002004ED00E07C
:1021300010B50948006818B9FEF748F800BFFEE777
:1021400005480068401E044908600846006810B948
:102150000020FEF742F810BD8400002070B506464E
:102160003546002E31D0083D2C4618496068096874
:10217000084201D0012000E0002018B9FEF726F83F
:1021800000BFFEE7206808B9012000E0002018B970
:10219000FEF71CF800BFFEE70C49606809680842BA
:1021A00013D0206888B9094960680968884360606D
:1021B00000F09AFA06496068096808440449086012
:1021C0002046FFF72BFD00F00BFD70BD9C000020AA
:1021D00094000020064800684FF47A71B0FBF1F0DB
:1021E000401E4FF0E0214861072008617047000061
:1021F0003000002070B5FDF7F3FF0446102C10D31B
:102200004FF0E020204490F8F0530E4800788542CB
:1022100001DB012000E0002018B9FDF7D7FF00BF67
:10222000FEE70948006800F4E06008490968884250
:1022300001D8012000E0002018B9FDF7C7FF00BF5A
:10224000FEE770BD880000200CED00E08C0000204F
:102250004FF0805003490860BFF34F8FBFF36F8F7B
:102260007047000004ED00E010B50023012244F6A1
:1022700020610248FFF714FA10BD00000010004072
:1022800070B50446002634B31548006808B901202B
:1022900000E0002018B9FDF799FF00BFFEE700F04D
:1022A00023FA1048006805190F480068001DFFF761
:1022B00081FE50B90C48006890F82C10012088402D
:1022C0000A4909688143094801602846FFF76EFB07
:1022D00000F086FC06460EB9FFF7BAFF70BD00009D
:1022E0007000002050000020440000205400002016
:1022F0002DE9F04704460E464FF000091CB9FDF7E2
:1023000065FF00BFFEE70EB1012000E0002018B914
:10231000FDF75CFF00BFFEE72148006808B9012017
:1023200000E0002018B9FDF751FF00BFFEE700F004
:10233000DBF91C48D0F800802068851920684045EA
:1023400007D92068A8420BD9454509D94FF00109A2
:1023500006E02068A84201D8454501D94FF001099F
:102360002560B9F1000F13D00F480068001DFFF77A
:1023700021FE50B90C48006890F82C1001208840CC
:102380000A4909688143094801602846FFF70EFBA6
:1023900000F026FC07460FB9FFF75AFFBDE8F087AB
:1023A0007000002050000020440000205400002055
:1023B000FEB5054600202870264800680290254991
:1023C00009684801FFF704FD0446002C40D06A4626
:1023D00020460299FFF702FE029064210098B0FBAC
:1023E000F1F00090009800282FD00020019028E004
:1023F000019804EB401080690099B0FBF1F6019858
:1024000004EB401041682846FFF7CCFC05464EB16E
:10241000019804EB401033460FA182692846FEF76D
:10242000ADFD07E0019804EB40100EA1826928463B
:10243000FEF7A4FD2846FDF7FBFE05440198401C6D
:102440000190DDE901018842D2D32046FFF786FEE4
:10245000FEBD00004C0000200925750909257525E1
:10246000250D0A0009257509093C3125250D0A00AD
:1024700008B500BF00F010FB009009E00220FFF754
:10248000D9F80320FFF7D6F8C8216846FFF730FFD8
:10249000F4E700007FB50546002028702A48006850
:1024A0000390294909684801FFF792FC0446002C73
:1024B00049D0002220460399FFF790FD03900020A9
:1024C000029039E0029804EB4010007B012806D00E
:1024D000022806D0032806D0042808D105E0522699
:1024E00007E0422605E0532603E0442601E00026EB
:1024F00000BF00BF029804EB401041682846FFF778
:1025000051FC0546029804EB40108068029904EBE8
:102510004111898BCDE90010029804EB401032463E
:102520000AA103692846FEF729FD2846FDF780FE2B
:1025300005440298401C0290DDE902018842C1D3A3
:102540002046FFF70BFE7FBD4C00002009256309E4
:1025500025750925750925750D0A000000BF11E0D4
:102560004FF4FA710020FFF7CBFC044624B121465A
:1025700005A0FEF7F3FC05E00120FFF75BF804205F
:10258000FFF758F8ECE70000C8CECEF1765461733F
:102590006B4D736750726FBDD3CAD5B5BDCFFBCF3E
:1025A000A2A3AC756C4E6F74696669656456616C04
:1025B0007565203D2025640D0A0000002DE9F041DD
:1025C00005460E461DB9FDF701FE00BFFEE7FFF709
:1025D00011FE2C46FDF7FAFD804694F85C7002204F
:1025E00084F85C00A06D401CA065012F30D1A06A6A
:1025F00008B9012000E0002018B9FDF7E7FD00BF91
:10260000FEE716480068A8B9201DFFF7D3FC94F830
:102610002C100120884012490968084310490860BD
:10262000E16A01EB81010F4A02EB8100211DFFF7F6
:1026300051FD04E004F118010B48FFF74BFD0B4975
:10264000E06A0968C96A884202D90EB10120306087
:102650004046FDF7C2FDBDE8F0810000700000209B
:102660005400002084090020100A002044000020AB
:1026700004E0FEF7B5FF0A20FFF702FEF9E70000CD
:102680001FB50020009001900290034682220FA106
:102690000390104800F064F90446012C0FD1FDF7B7
:1026A00095FDA01E0C49086001200C49086000201F
:1026B0000B4908600B49086000F002F904E01CB9FE
:1026C000FDF784FD00BFFEE71FBD000049444C45F7
:1026D00000000000391B00086C000020580000209A
:1026E000500000200800002002480068401C0149FA
:1026F000086070477000002010B52748006818B1C6
:1027000001202649086045E000202449086024484B
:10271000006824490860084600682349096888421F
:102720000BD92249096801F15400496D1D4A12680C
:102730001D4B1B68D21A114401601A4800681A49DF
:1027400008601B480068B0FA80F0C0F11F0404EB79
:102750008400184951F8200008B1012000E0002051
:1027600018B9FDF733FD00BFFEE704EB8401114A01
:1027700002EB810041684968416000F1080142684C
:102780008A4202D14168496841604168C968074A84
:10279000116000BF10BD000070000020600000202C
:1027A0000800002078000020740000204400002071
:1027B0005400002084090020FEB030E0FEF74AFDFE
:1027C0000446002C28D0012C02D0042C22D117E082
:1027D00013A0FEF7C3FB1FA0FEF7C0FB01A8FFF785
:1027E00059FE01A927A0FEF7B9FB28A0FEF7B6FB0A
:1027F00001A8FFF7DDFD01A922A0FEF7AFFB0AE06B
:102800002D48FEF7ABFB2D4A4CF250310120FFF76B
:102810004DF800BF00BF00BF0A20FFF731FDCDE734
:102820003D3D3D3D3D3D3D3D3D3D3D3D3D3D3D3DD8
:102830003D3D3D3D3D3D3D3D3D3D3D3D3D3D3D3DC8
:102840003D3D3D3D3D3D3D3D3D3D3D3D3D3D3D3DB8
:102850003D0D0A00C8CECEF1C3FB20202020202051
:10286000C8CECEF1D7B4CCAC20D3C5CFC8BCB6202F
:102870002020CAA3D3E0D5BB20C8CECEF1D0F2BA77
:10288000C50D0A0025730D0A000000000D0AC8CE10
:10289000CEF1C3FB20202020202020D4CBD0D0BCE0
:1028A000C6CAFD202020202020202020CAB9D3C362
:1028B000C2CA0D0A00000000C82C00080D0B000859
:1028C0001CB52248014609780191FF21024611708A
:1028D0000146097800919DF8001001F010011C4A92
:1028E000117007211B4A116009E01A490968491E45
:1028F000184A11609DF800104906090E00919DF8D4
:10290000001001F080018029EFD012490968090206
:10291000104A11601146098801F4E06111600B4A08
:10292000019911700C48006840F470000A49086071
:102930000846006840F070400860FFF74BFC00203C
:1029400006490860FDF710FC00201CBD00E400E013
:10295000880000208C00002020ED00E08400002092
:102960002DE9FF4F81B0804616469A46DDE90E5BA1
:10297000B8F1000F03D1FDF729FC00BFFEE7052DDC
:1029800001D2012000E0002018B9FDF71FFC00BFB4
:10299000FEE730461099FFF733F80446002C5DD06F
:1029A000701E216B01EB800929F0070919F0070F50
:1029B00001D1012000E0002018B9FDF707FC00BF9D
:1029C000FEE700962A462046119B0299FFF7C0F8C1
:1029D000524641464846FFF783FA2060BBF1000F9C
:1029E00001D0CBF80040FFF781FB25480068401C70
:1029F000234908602348006840B92248046008461B
:102A0000006801280CD1FFF7D5F809E01E480068DE
:102A100030B91C480068C06AA84201D8194804604F
:102A20001A480068401C194908600846006860643C
:102A300094F82C100120884015490968084314496E
:102A40000860E16A01EB8101124A02EB8100211D5D
:102A5000FFF740FB0127FFF76BFB01E04FF0FF376B
:102A6000012F09D10848006830B106480068C06AE3
:102A7000A84201D2FFF7ECFB384605B0BDE8F08F65
:102A80004C00002044000020580000206800002076
:102A900054000020840900200149086870470000A4
:102AA000500000202DE9F0414FF000084148006837
:102AB000002872D140480068401C3F490860084621
:102AC0000668DEB93D480068006808B9012000E0EA
:102AD000002018B9FDF77AFB00BFFEE7374807680A
:102AE0003748006835490860354807603548006850
:102AF000401C34490860FFF71DF900BF32480068E8
:102B000086423CD300BF2D480068006808B9012008
:102B100000E0002020B14FF0FF302B4908602DE08D
:102B200026480068C068C4686568AE4202D226487C
:102B3000056023E0201DFFF73DFAA06A18B104F1FB
:102B40001800FFF737FA94F82C10012088401F492D
:102B5000096808431D490860E16A01EB81011C4ACC
:102B600002EB8100211DFFF7B5FA1A49E06A0968F6
:102B7000C96A8842C7D34FF00108C4E700BF1548AF
:102B80000068C06A00EB8000114951F8200001285C
:102B900008D94FF0010805E0FFE70F480068401C26
:102BA0000D4908600D48006808B14FF00108404623
:102BB000BDE8F08170000020500000207C00002063
:102BC00080000020640000206C00002054000020E1
:102BD00084090020440000205C00002060000020E8
:102BE00070B500253048006818B9FDF7EFFA00BF4E
:102BF000FEE7FFF77BFA2C480068401E2A49086070
:102C00000846006800284BD128480068002847D0B3
:102C100024E02748C068C46804F11800FFF7CAF927
:102C2000201DFFF7C7F994F82C1001208840214996
:102C3000096808431F490860E16A01EB81011E4AE7
:102C400002EB8100211DFFF745FA1C49E06A096883
:102C5000C96A884202D301201949086014480068F3
:102C600008B9012000E000200028D2D015480068F3
:102C700078B10AE0FFF716FF10B101201049086093
:102C800010480068401E0F4908600E480068002880
:102C9000F0D10B480068012802D10125FFF7D8FACE
:102CA000FFF746FA284670BD700000204C00002057
:102CB000100A002054000020840900204400002055
:102CC000600000205C0000204B32BCFCB0B4CFC2DE
:102CD000A3ACC6F4B6AFB5A5B4CEB6A8CAB1C6F714
:102CE000D6D0B6CFA3AC35306D73BAF3D4DAB6A86C
:102CF000CAB1C6F7D6D0B6CFB8F8C8CECEF17654A2
:102D000061736B4D736750726FB7A2CFFBCFA20D8B
:102D10000A000000342D000800000020AC00000074
:102D2000A40F0008E02D0008AC000020A451000012
:102D3000B40F0008000000000000000000000000C8
:102D40000000000000000000000000000000000083
:102D50000000000001020304010203040607080941
:102D60000204060800A24A0400000000000000005F
:102D7000010203040607080900000000000000002B
:102D80000000000000000000000000000000000043
:102D90000000000000000000000000000000000033
:102DA0000000000000000000000000000000000023
:102DB0000000000000000000AAAAAAAA000000006B
:102DC0000000000000000000000000000000000003
:102DD00000000000000000000000000000000000F3
:0400000508000131BD
:00000001FF
