:020000040800F2
:1000000048570020ED380008D5360008D7360008DC
:10001000053700080737000809370008000000000E
:10002000000000000000000000000000CF0F0008EA
:100030000B370008000000007D0F00083911000890
:10004000893900088D390008913900089539000870
:10005000993900089D390008A1390008A539000820
:10006000A9390008AD390008B1390008B5390008D0
:10007000B9390008BD390008C1390008C539000880
:10008000C9390008CD390008D1390008D539000830
:10009000D9390008DD390008E1390008E5390008E0
:1000A000E9390008ED390008F1390008F539000890
:1000B000F9390008FD390008013A0008053A00083E
:1000C000093A00080D3A0008113A0008153A0008EC
:1000D000193A0008032C0008213A0008253A0008C4
:1000E000293A00082D3A0008313A0008353A00084C
:1000F000393A00083D3A0008413A0008453A0008FC
:10010000493A00084D3A0008513A0008553A0008AB
:10011000593A00085D3A0008EB180008653A0008F3
:10012000693A00086D3A0008713A0008753A00080B
:100130002DE9FB4F834614000C9D0D9E0F9F5846E2
:10014000002802D100F039FFFEE7052D02D300F0B0
:1001500034FFFEE70E99200080B200F0ADFC81462E
:10016000B9F1000F74D0A4B2D9F8300010EB8400BC
:10017000001F82465FEADA0A5FEACA0A1AF007003D
:10018000002802D000F019FFFEE7A4B200943B0063
:100190002A000199484600F0CBFB029A5946504686
:1001A00000F036FFC9F80000002E01D0C6F800901C
:1001B00000F095FFDFF820060068401CDFF81816F5
:1001C0000860DFF8C406006800280BD1DFF8B80625
:1001D000C0F80090DFF800060068012811D100F097
:1001E000E0FB0EE0DFF870060068002809D1DFF8B8
:1001F00098060068C06A854203D3DFF88C06C0F811
:100200000090DFF858060068401CDFF850160860C0
:10021000DFF848060068C9F84400DFF844060068C3
:100220000121D9F82C2091400843DFF834160860EA
:1002300019F10401D9F82C001422DFF8283602FB4A
:10024000003000F0BBFF0120804600F060FF02E0BC
:100250005FF0FF308046B8F1010F0CD1DFF8F805F0
:100260000068002807D0DFF820060068C06AA842AE
:1002700001D200F02BFF4046BDE8FE8F2DE9F84388
:1002800004000D005FF00008002C02D100F095FE84
:10029000FEE7002D02D100F090FEFEE7DFF8100827
:1002A0000068002802D000F088FEFEE700F0A2F807
:1002B000DFF87806D0F8009020682818060020683B
:1002C000814507D2206886420BD2B14509D2012070
:1002D000804606E02068864201D3B14501D2012064
:1002E00080462660B8F1000F17D0DFF89C05006843
:1002F000001D00F08CFF00280CD1DFF864050068B9
:100300000121DFF884251268D26A91408843DFF822
:1003100050150860300000F0A5FB00F073F80700EE
:10032000002F01D100F0D2FEBDE8F18370B50400CA
:100330000026002C29D0DFF878070068002802D0BA
:1003400000F03BFEFEE700F055F8DFF8E00500683E
:1003500020180500DFF830050068001D00F057FF89
:1003600000280CD1DFF8F80400680121DFF8182517
:100370001268D26A91408843DFF8E41408602800CC
:1003800000F070FB00F03EF80600002E01D100F0F6
:100390009DFE70BD1FB5002003900020029000203C
:1003A00001900020009000238222DFF8B4190FF2A0
:1003B0006150FFF7BDFE0400012C15D100F0FDFDDA
:1003C000DFF8A0095FF0FF310160DFF88C04012144
:1003D0000160DFF8580500210160DFF84C0B0021B7
:1003E000016000F02FFE04E0002C02D100F0E5FDDA
:1003F000FEE71FBDDFF8B8060068401CDFF8B01646
:1004000008607047F8B50025DFF8A40600680028EA
:1004100002D100F0D2FDFEE700F061FEDFF89006A9
:100420000068401EDFF888160860DFF88406006860
:10043000002859D1DFF8A0030068002854D0DFF865
:100440001C09006800282CD0DFF81009C068C068BB
:10045000040014F1180000F0DAFE0600201D00F080
:10046000D6FE0700DFF8F80300680121E26A914038
:100470000843DFF8EC130860211DE06A1422DFF85E
:10048000E43302FB003000F099FEE06ADFF8F81375
:100490000968C96A8842D2D3DFF8980A012101604D
:1004A000CDE7DFF8B0090068002814D0DFF8A40910
:1004B000006800280FD000F071F8002803D0DFF8A2
:1004C000740A01210160DFF88C090068401EDFF822
:1004D00084190860EAE7DFF85C0A0068012803D1A4
:1004E0000120050000F0F2FD00F011FE2800F2BD31
:1004F000DFF838140968080070472DE9F04104005E
:100500000D00160000275FF00508FFF773FFB248E3
:10051000006885423CD3B8F1010801221420DFF8BD
:10052000441300FB081114EB471000F0EBFAC0195C
:100530000700B8F1000FEED10222DFF8F0090168E0
:1005400014EB471000F0DEFAC01907000222DFF8B2
:10055000E009016814EB471000F0D4FAC019070055
:100560000422DFF8281314EB471000F0CBFAC0196F
:1005700007000322DFF83C1514EB471000F0C2FA25
:10058000C0190700002E03D0DFF8B0090068306002
:10059000FFF738FF01003800BDE8F0812DE9F04198
:1005A0000026DFF80C05006800287AD1DFF87C030C
:1005B0000068401CDFF874130860DFF870030768F8
:1005C000002F1FD1DFF8640900680068002802D0FE
:1005D00000F0F3FCFEE7DFF8540900688046DFF81E
:1005E0004C09DFF84C1909680160DFF84409C0F8CC
:1005F0000080DFF844090068401CDFF83C190860FF
:1006000000F0EEFADFF85C07006887423CD3DFF8C1
:100610001C0900680068002805D1DFF848075FF072
:10062000FF31016030E0DFF804090068C068C0688D
:10063000040060680500AF4203D2DFF828070560B8
:1006400022E0201D00F0E3FDA16A002903D014F18F
:10065000180000F0DCFD824800680121E26A914048
:1006600008437F490860211DE06A14227D4B02FB8C
:10067000003000F0A3FDE06A83490968C96A884236
:10068000C5D301200600C2E77F480068C06A142174
:10069000744A01FB00200068022809D301200600EB
:1006A00006E0DFF8B0070068401CDFF8A817086014
:1006B000DFF880080068002801D001200600300023
:1006C000BDE8F08110B5DFF8E8030068002804D029
:1006D000DFF860080121016048E0DFF858080021D8
:1006E0000160DFF85C08DFF8401809680160DFF896
:1006F00054080068DFF84818096888420BD262483D
:100700000068416DDFF8382812685118DFF8342886
:100710001268891A4165DFF82C08DFF82418096887
:1007200001604F480068B0FA80F0D0F11F0004006B
:1007300014204C4900FB04100068002802D100F08E
:100740003CFCFEE71421474A01FB042108004168F4
:1007500049684160416810F10802914202D1416844
:10076000496841604068C0684749086010BD70B57D
:1007700004000D00002C02D100F01FFCFEE74248EF
:10078000006810F11801200000F024FD3E480068C8
:10079000001D00F03CFD002809D13148006801210E
:1007A000394A1268D26A914088432D49086015F190
:1007B000010F07D134480068011DDFF8F80200F08E
:1007C000FDFC07E0DFF88407006828180600300009
:1007D00000F048F970BD0000144F0020F8B5040087
:1007E000E068C0680500002D02D100F0E6FBFEE7DE
:1007F00015F1180000F00BFDAD490968002914D16E
:10080000281D00F004FD0700154800680121EA6A70
:100810009140084312490860291DE86A1422114BCF
:1008200002FB003000F0CAFC05E015F11801DFF80A
:100830002C0500F0C3FC14480068C06AE96A8842CD
:1008400006D201200600DFF800070121016001E067
:10085000002006003000F2BD204F0020304F002065
:100860001C4F0020FC4C002010B50400002C02D1CD
:1008700000F0A3FBFEE7DFF8C00600682060DFF8A9
:10088000CC060068606010BD044F0020784E002048
:10089000F8B504000D00002C02D100F08EFBFEE73D
:1008A000002D02D100F089FBFEE700F018FC1F4884
:1008B0000768286810F1010F02D1002006001DE032
:1008C000DFF8740600682168884205D060688742B6
:1008D00002D30120060011E06068381A29688842B6
:1008E0000AD22868C01B6168081828602000FFF73A
:1008F000BBFF0020060001E00120060000F007FC1D
:100900003000F2BDDFF840060121016070470000B1
:1009100010B5040000F071F8DFF83806006802280E
:1009200001D300F0D3FB00F0A3FDF3E7184F002044
:100930002DE9F84305000E0017009846089C00209A
:100940008146B9F1100F0CD219EB050019F8061009
:1009500080F8341019F80600002802D019F10109B6
:10096000EFE7002085F84300052F01D3042007009E
:10097000EF62EF6400202865281D00F01CFC15F1D3
:10098000180000F018FC2D61D7F10500A8616D6218
:10099000002068650020A865002085F85C00BDE89F
:1009A000F18310B500200400052C08D21420DFF8D4
:1009B000A41500FB041000F0EFFB641CF4E7DFF863
:1009C000980500F0E9FBDFF8940500F0E5FBDFF89F
:1009D0008C0300F0E1FBDFF8880500F0DDFB354813
:1009E00000F0DAFBDFF84405DFF86C150160DFF892
:1009F0004005DFF86815016010BD70B5DFF86405CB
:100A0000006800282DD0FFF7F5FCDFF854050068DA
:100A1000002801D1012400E00024E4B2FFF7F2FC39
:100A2000002CEBD100F05BFBDFF83405C068C06838
:100A30000500281D00F0EBFB0600DFF82C05006820
:100A4000401EDFF824150860DFF818050068401E16
:100A5000DFF81015086000F05AFB280000F0B7F826
:100A6000CCE770BD10B50400DFF8000500684460F5
:100A7000DFF8D8040068844209D2DFF8F004006887
:100A8000011DDFF8AC04006800F0A4FB0EE0DFF805
:100A9000DC040068011DDFF89404006800F09AFB94
:100AA000B0480068844201D2AE48046010BD000026
:100AB000384F00208C4E0020F8B504000D00002DAA
:100AC00004D1A4B2A00000F059FD00E02800070006
:100AD000002F0BD0602000F051FD0600002E01D049
:100AE000376305E0380000F0C8FD01E00020060093
:100AF000002E05D0A4B2A200A521306B00F068FE44
:100B00003000F2BD2DE9F84304000D0016005FF03F
:100B10000009286800284CD02800416849684160D5
:100B2000416810F10802914202D141684968416070
:100B30004068C06880462800416849684160416853
:100B400010F10802914202D1416849684160406851
:100B5000C06807005FEA4910075114EB491007F21B
:100B60003401416014EB4910796C816014EB491039
:100B7000067314EB4910F96A0161F6B2032E06D12F
:100B8000B86A002803D014EB49100221017314EB5A
:100B90004910F96C416114EB4910796D8161386B32
:100BA00000F00AF814EB4911888319F1010947454F
:100BB000C1D14846BDE8F283010000200A78A52A89
:100BC00002D1491C401CF9E7800880B2704710B57B
:100BD0000400206B00F051FD200000F04EFD10BD20
:100BE000D24909680968002904D15E495FF0FF32E3
:100BF0000A6007E0CD490968C968C968080041680A
:100C0000584A1160704738B504002500002C4FD0B9
:100C1000E86ADFF858130968C96A884248D2A869A7
:100C2000002806D4DFF844030068C06AD0F105004C
:100C3000A8616869E96A1422DFF8183302FB013100
:100C4000884230D1281D00F0E2FA002812D1E86A6B
:100C50001421DFF8002301FB00200068002809D1DF
:100C6000DFF8EC0200680121EA6A91408843DFF86E
:100C7000E0120860DFF8F4020068C06AE862DFF89A
:100C8000D00200680121EA6A91400843DFF8C012EF
:100C90000860291DE86A1422DFF8B83202FB003030
:100CA00000F08CFA04E0DFF8C4020068C06AE86271
:100CB00031BD70B5040025000026002C4AD0DFF8B5
:100CC000AC020068854202D000F077F9FEE7286D9B
:100CD000002802D100F071F9FEE7286D401E28655A
:100CE000E86AE96C884235D0286D002832D1281D89
:100CF00000F08DFA002812D1E86A1421DFF854229E
:100D000001FB00200068002809D1DFF844020068D8
:100D10000121EA6A91408843DFF834120860E86CE8
:100D2000E862E86AD0F10500A861DFF824020068F3
:100D30000121EA6A91400843DFF814120860291D76
:100D4000E86A1422DFF80C3202FB003000F036FAB9
:100D500001200600300070BD00000000644E00203D
:100D600058390008344F002070B504000D002900E8
:100D7000200000F049FD200000F068FD06000F2E65
:100D800003DA20203055761CF9E700203055301961
:100D900070BD7FB5040000202070DFF8CC01006832
:100DA0000390DFF8C4010068400100F0E7FB050094
:100DB000002D4ED0002203992800FFF79EFB0390E0
:100DC000002002900298039988423FD2029815EBC6
:100DD0004010007B012806D011D3032809D005D389
:100DE000042809D00BE0522006000AE04220060049
:100DF00007E05320060004E04420060001E0002044
:100E00000600029815EB401041682000FFF7ACFF88
:100E10000400029815EB401080680190029815EBD1
:100E20004010808B0090029815EB40100369F6B2D9
:100E30003200DFF83C11200000F028FD200000F017
:100E400005FD04190298401C0290BBE7280000F041
:100E500014FC7FBD244F002070B584B00400002036
:100E60002070DFF8040100680290DFF8FC000068E1
:100E7000400100F083FB0500002D44D001AA029937
:100E80002800FFF73AFB029001986421B0FBF1F0D3
:100E900001900198002833D000200090009802991A
:100EA00088422DD2009815EB401080690199B0FB63
:100EB000F1F00600009815EB401041682000FFF7A4
:100EC00053FF0400002E0AD03300009815EB4010A9
:100ED0008269DFF8A010200000F0D8FC08E000983C
:100EE00015EB40108269DFF89010200000F0CEFC76
:100EF000200000F0ABFC04190098401C0090CDE7E6
:100F0000280000F0BAFB7FBDDFF860000068002811
:100F100005D0DFF858000068016D491C0165DFF855
:100F20004C00006870470000B84E0020084F0020B9
:100F30000C4F0020284F00202C4F0020B84E0020DE
:100F4000404F00203C4F0020284F0020184F002029
:100F50001C4F0020FC4C00203C4E0020504E002036
:100F6000784E0020104F0020144F0020044F002026
:100F7000DC3800082C39000838390008EFF3098004
:100F8000BFF36F8F204B1A6820E9F00F106008B58F
:100F90004FF0100080F31188FFF794FB4FF0000032
:100FA00080F31188BDE8084019680868B0E8F00FC0
:100FB00080F30988BFF36F8F7047EFF311804FF014
:100FC000100181F31188704780F3118870470E4B30
:100FD00019680868B0E8F00F80F30988BFF36F8FD5
:100FE0004FF0000080F311884EF00D0E7047074857
:100FF0000068006880F3088862B661B6BFF34F8F5F
:10100000BFF36F8F00DF0000044F002008ED00E009
:10101000001F5FF080730360001F0160001F0FF26C
:101020000D030360143802602038704780B55148C2
:10103000006810F1010F02D0FFF7BFFFFEE7FFF7D6
:10104000BCFFFEE700B583B04B4801780191FF215A
:10105000017001788DF800109DF8001011F010015A
:10106000464A1170464907220A609DF80010090699
:101070000AD543490968491E414A11609DF800108C
:1010800049008DF80010F0E73D49096809023C4A23
:1010900011603B49096811F4E061394A1160019916
:1010A00001703848006850F47000364908603548CF
:1010B000006850F070403349086000F04DF82D484A
:1010C00000210160FFF793FF00200EBD2E485FF066
:1010D00080510160BFF34F8FBFF36F8F704780B5B2
:1010E000FFF76BFF23480068401C22490860BFF3EC
:1010F0004F8FBFF36F8F1F480068012806D1224829
:101100000068000602D0FFF758FFFEE701BD80B57A
:1011100018480068002802D1FFF74FFFFEE7154886
:101120000068401E1349086012480068002802D178
:101130000020FFF749FF01BD10B5FFF73EFF040097
:10114000FFF72CFA002803D00F485FF080510160B0
:101150000020FFF739FF10BD0C4800684FF47A718A
:10116000B0FBF1F0401E0A4908600A4807210160FF
:10117000704700005000002000E400E0464F0020CF
:10118000004F002020ED00E004ED00E058000020BA
:1011900014E000E010E000E010F1080141605FF0B1
:1011A000FF31816010F10801C16010F10801016197
:1011B00000210160704700210161704742684A6068
:1011C00093688B60936859609160086103685B1C49
:1011D0000360704710B40B6813F1010F02D104696A
:1011E000220008E010F10804220054682468A34299
:1011F00001D35268F9E754684C604C68A1608A607A
:10120000516008610468641C046010BC70470100F0
:1012100008694A688B6893608A684B6853604268C3
:101220008A4201D18A68426000220A610268521E25
:1012300002600068704710B450F8041B81B1026866
:101240001218001D50F8043BDC0744BFA9F101044B
:10125000E31852F8044B43F8044B091FF9D1EBE7AC
:1012600010BC704780B500F02BFB00F035FB00F0A0
:1012700003F900F0F1F800F03FF9FFF78BF8FEE713
:1012800030B5FDB0040000F0E9FB0500EDB2002D23
:1012900028D0EDB22800012802D0042818D021E07F
:1012A0009D4800F055FD9D4800F052FD00A8FFF755
:1012B00070FD00A99A4800F04BFD9A4800F048FDE7
:1012C00000A8FFF7C9FD00A9954800F041FD09E01D
:1012D000954800F03DFD002300220021934800685E
:1012E00000F0B9FD0A20FFF721F8CCE738B504007B
:1012F000C825FFF7FDF80090012001F0AAF80220B0
:1013000001F0A7F8290000A8FEF7B8FFF4E770B5D0
:1013100004004FF4967600233200002183480068D1
:1013200000F03AFE0500012D03D1814800F010FDC8
:10133000F1E7032001F08DF8042001F08AF8EAE7D4
:1013400010B5040000F0F6FC0A20FEF7EFFFF9E705
:1013500038B504000D00A08E002807D040F21221FD
:10136000401A14D0401E23D0133832D100227149C4
:101370007148006800F073FF704908606F480068AA
:1013800010F1040F0BD140F21220A08621E00022C0
:1013900068496948006800F062FF6849086067486A
:1013A000006810F1050F06D140F21320A08610E06E
:1013B0006248012101605F480078401C5D49087067
:1013C00000214FF47A7001F0C4F840F22620A08684
:1013D000FFE731BD38B504000D00A08E002806D00F
:1013E0004FF41971401A14D0401E23D033E05FF03F
:1013F000FF3253495048006800F078FF51490860B7
:101400005048006810F1040F0BD14FF41970A086FA
:1014100021E000224A494848006800F067FF494936
:1014200008604848006810F1050F06D140F26520B9
:10143000A08610E04348012101604248006801286D
:10144000D5D1FFF74CFE3E4801783F4800F080FCC4
:10145000FFF75DFECBE731BD80B5002200213B48A0
:1014600001F028F800220121394801F023F801BDDC
:1014700080B501F019F901BD00B585B000200390D9
:1014800000200290002001900120009000234FF4E2
:10149000007230493048FEF74BFE002003900020D8
:1014A00002902E4801900220009000234FF4007219
:1014B0002B492C48FEF73CFE0020039000200290B0
:1014C000294801900320009000234FF4007227491F
:1014D0002748FEF72DFE00200390002002900020F8
:1014E00001900420009000234FF40072214922480B
:1014F000FEF71EFE05B000BD80B5032200210120CD
:1015000000F074FC0949086000220121052000F068
:101510006DFC0949086001BD0C3700084037000820
:1015200050390008A037000870370008F04E00203E
:10153000C8380008444F0020F44E0020F84E002028
:10154000454F0020FC4E002048380008D513000805
:1015500051130008FC38000881120008E84E0020F2
:1015600008390008ED120008EC4E0020143900087C
:101570000F13000820390008411300082DE9F0413D
:1015800004005FF00008FEF735FF8A480068002875
:1015900001D100F0A5F888480068044261D1002C10
:1015A00012D086480068041914F0070000280BD0F8
:1015B00014F1080014F00701441A14F00700002881
:1015C00002D0FFF7FAFCFEE7002C4AD07C48006806
:1015D000A04246D37B4806007A4800680500686848
:1015E000A04205D22868002802D02E002D68F6E718
:1015F00070480068854234D07048006831684018EF
:101600008046286830606D48006840006968091BA2
:1016100088420FD26019070017F00700002802D097
:10162000FFF7CBFCFEE76868001B78606C60380051
:1016300000F08EF8624800686968401A60490860E6
:101640005F48006860490968884203D25E485C4987
:1016500009680160686858490968084368600020A3
:101660002860FEF7CFFE18F00701002902D0FFF72F
:10167000A4FCFEE74046BDE8F08170B504002600FA
:10168000002C2CD04D48006840428619350068680F
:1016900049490968084202D1FFF78FFCFEE7286834
:1016A000002802D0FFF789FCFEE768684249096814
:1016B000084214D02868002811D168683E4909689A
:1016C00088436860FEF796FE3D4800686968081820
:1016D0003B490860280000F03BF8FEF793FE70BD20
:1016E00030B44FF48843394C220012F00704002C28
:1016F00005D0D21DD208D2009B1A344CE318110039
:10170000304C21602F4C002565605C1822002B4C6A
:101710002468121BD208D200264C2260254C246873
:1017200000256560234C2468002525600800141AF4
:101730004460204C246804604468234D2C60446855
:101740001F4D2C601C4C5FF00045256030BC70477D
:1017500010B41C4B1A001368834201D21268FAE7D6
:10176000110053685B18834204D153684468E3183E
:1017700053601000010043685B181468A34211D144
:1017800013680C4C2468A34208D04368146864684A
:10179000E318436013681B68036005E0054B1B6892
:1017A000036001E013680360824200D0106010BC47
:1017B00070470000D84E0020E44E00206039000839
:1017C000DC4E0020B04E0020E04E00205C000020E7
:1017D00070B504000D0016002A003100200000F052
:1017E000EBFF200070BD50F8041B61B150F8042BD2
:1017F000D30744BFA9F101039A18002342F8043B20
:10180000091FFAD1EFE770475FEA000C830706D0A3
:1018100011F8013B00F8013BB3B18307F8D10A6826
:10182000B2F1013323EA020313F0803F02BF40F814
:10183000042B51F8042FF3E711F8013B00F8013BAA
:1018400013B111F8013BF9E76046704700F101035D
:10185000810704D010F8011B89B18107FAD1026811
:10186000B2F10131914311F0803F04BF50F8042FD1
:10187000F6E710F8011B11B110F8011BFBE7C01AC5
:1018800070470268531C0360117070470CB41CB59C
:10189000044604A80190009401AB0A4600A9074839
:1018A0007844183000F0BBFF009900220A7000282D
:1018B0005CBF0098001B16BC5DF80CFBC7FFFFFF68
:1018C00080B54FF4407001F037F801F079F800F07E
:1018D00069FD00F0ABF801BD80B50023012244F69C
:1018E00020610A4801F019FA01BD80B501210748BD
:1018F00001F095FB002808D005480068401C044909
:1019000008600121014801F0A3FB01BD0010004067
:10191000B84E0020DFF8CC03006880040BD4DFF859
:10192000C8030068C00706D4DFF8C0030068C0051C
:1019300001D5012000E000207047DFF8A80300680F
:1019400080040BD5DFF8A0030068C00706D5DFF8D8
:101950009C030068C00501D5012000E0002070470D
:10196000DFF88003006880040BD5DFF87C03006893
:10197000C00706D4DFF874030068C00501D4012055
:1019800000E000207047DFF85C03006880040BD49F
:10199000DFF854030068C00706D5DFF8500300687D
:1019A000C00501D5012000E000207047DFF83403B6
:1019B000006880040BD5DFF830030068C00706D547
:1019C000DFF828030068C00501D4012000E00020F2
:1019D0007047DFF818030068000401D4012000E01C
:1019E00000207047DFF808030068000701D40120D9
:1019F00000E000207047DFF8F4020068400401D4E2
:101A0000012000E000207047DFF8E0020068800459
:101A100001D4012000E000207047DFF8D002006808
:101A2000000601D4012000E00020704780B500F0DE
:101A30007AF800F02EF801BDDFF8B812C97ADFF8A5
:101A4000B4228854AB49C97A491CAA4AD172C9B296
:101A50000A2902D3A7490022CA727047A548807A92
:101A6000A44AD27A904201D1002011E0A148807AA4
:101A7000A04A805C01009F48807A401C9D4A907279
:101A8000C0B20A2802D39B48002282720800C0B26A
:101A9000704780B501214FF49A7001F05FFB03207D
:101AA0008DF8020004208DF803004FF40050ADF8CB
:101AB000000000A9914801F07DFB0120ADF8000075
:101AC00000A98F4801F076FB4FF48070ADF800005C
:101AD00000A98C4801F06EFB4FF40040ADF8000007
:101AE00000A9884801F066FB0820ADF8000000A9B5
:101AF000854801F05FFB4FF48040ADF8000000A97D
:101B0000804801F057FB4FF40050ADF8000000A9E9
:101B10007C4801F04FFB8020ADF8000000A9794817
:101B200001F048FB01BD734900228A72714900220D
:101B3000CA72704900220A7300210800C0B20A2844
:101B40001FD2C0B26C4911EB001164220A81C0B2ED
:101B5000694911EB001102220A71C0B2664911EB0A
:101B6000001100228A72C0B2634911EB00110022F9
:101B7000CA72C0B2604911EB001100220A73401C06
:101B8000DCE75D4964220A875B49052281F83B2036
:101B900059496422A1F848205749052281F84B2071
:101BA00055496422A1F858205349052281F85B2049
:101BB00051496422A1F868204F49052281F86B2021
:101BC0004D49524A0A604C49514A0A614A49514AB0
:101BD0000A624949504A0A634749504A0A644649D9
:101BE0004F4A0A6544494F4A0A6643494E4A0A67C2
:101BF00041494E4AC1F880203F494D4AC1F89020E2
:101C0000704738B50400E4B23B4810EB04100500FF
:101C100028688047002845D02879052802D2052069
:101C200028715DE028790A2803D22879401C2871A0
:101C300056E0A87A002809D10120A872E4B2032056
:101C400000FB04F0401CC0B2FFF7F6FE2889012813
:101C500046D3E888298988420FD2E888401CE8806A
:101C6000298980B288423BD1E4B2032000FB04F012
:101C7000C01CC0B2FFF7E0FE32E0E87A01282FD3A3
:101C8000287B401C2873E97AC0B2884228D3002000
:101C90002873E4B2032000FB04F0401CC0B2FFF73D
:101CA000CBFE1DE02879062802D30520287113E019
:101CB0002879002803D02879401E28710CE0A87AE2
:101CC000012809D10020A872E4B2032000FB04F02F
:101CD000801CC0B2FFF7B0FE0020E880002028730F
:101CE00031BD0000081001400808014008200140F3
:101CF00008140140A04E00205C4C00200010014060
:101D0000000801400020014000140140151900089E
:101D10003B19000861190008D3190008E5190008EB
:101D2000F7190008091A00081B1A0008871900088B
:101D3000AD19000810B500200400E4B20A2C05D249
:101D40002000C0B2FFF75DFF641CF6E710BD000085
:101D50000EB400B582B003A9009100AB0246012188
:101D6000034878440A3000F05AFD06BC5DF810FBC9
:101D7000351B000070B504000D002600002E02D1B6
:101D8000FFF71BF9FEE7FFF7AAF9F06B316C326839
:101D900001FB002070600020B0633068B060F06B21
:101DA000401E316C326801FB0020F0605FF0FF30B4
:101DB00070645FF0FF30B064002D0BD130690028F3
:101DC00010D016F11000FEF709FD01280AD1FFF727
:101DD0007DF907E016F11000FFF7DEF916F1240097
:101DE000FFF7DAF9FFF793F9012070BD2DE9F84309
:101DF00004000D0016005FF00009002C02D1FFF76F
:101E0000DCF8FEE7002D02D10020804603E005FB50
:101E100004F0401C804618F15400FFF7AFFB0700A8
:101E2000002F0FD0002D01D13F6002E007F25400D7
:101E30003860FC633D6401213800FFF79BFF87F8A1
:101E40005060B946B9F1000F02D1FFF7B6F8FEE7CE
:101E50004846BDE8F2832DE9F74304000D001E005B
:101E60005FF00008A146B9F1000F02D1FFF7A5F815
:101E7000FEE7002D03D1D9F84000002801D1012050
:101E800000E00020C0B2002802D1FFF796F8FEE77C
:101E9000022E03D1D9F83C00012801D1012000E035
:101EA0000020C0B2002802D1FFF787F8FEE7FFF755
:101EB00016F9D9F83800D9F83C10884201D3022E1F
:101EC0001AD132002900484600F019F90700D9F864
:101ED0002400002808D019F12400FEF77FFC012817
:101EE00006D1FFF7F3F803E0002F01D0FFF7EEF87B
:101EF000FFF70DF901204DE00298002803D1FFF70C
:101F000006F9002046E0B8F1000F04D100A8FEF762
:101F1000ABFC01208046FFF7FAF8FEF76BFAFFF7FB
:101F2000DEF8D9F8440010F1010F02D10020C9F801
:101F30004400D9F8480010F1010F02D10020C9F87F
:101F40004800FFF7E4F802A900A8FEF7A1FC00286A
:101F500019D1484600F072F900280ED0029919F103
:101F60001000FEF704FC484600F023F9FEF74AFA99
:101F700000289CD1FFF7AAF899E7484600F019F924
:101F8000FEF740FA93E7484600F013F9FEF73AFAF5
:101F900001000020BDE8FE832DE9F74304000D0099
:101FA0001E000027A146B9F1000F02D1FFF705F886
:101FB000FEE7002D03D1D9F84000002801D101200F
:101FC00000E00020C0B2002802D1FEF7F6FFFEE7D5
:101FD000FFF785F8D9F83800002834D0D9F80C007C
:101FE00080462900484600F0CEF8002E19D1D9F8D5
:101FF0003800401EC9F83800D9F80000002803D185
:10200000FEF782FFC9F80400D9F81000002816D0A6
:1020100019F11000FEF7E2FB012810D1FFF756F886
:102020000DE0C9F80C80D9F82400002807D019F178
:102030002400FEF7D3FB002801D0FFF747F8FFF795
:1020400066F8012059E00298002803D1FFF75FF8F5
:10205000002052E0002F04D100A8FEF705FC01206B
:102060000700FFF754F8FEF7C5F9FFF738F8D9F87D
:10207000440010F1010F02D10020C9F84400D9F842
:10208000480010F1010F02D10020C9F84800FFF705
:102090003EF802A900A8FEF7FBFB002826D148461F
:1020A00000F0BCF800281BD0D9F80000002807D1A8
:1020B000FFF715F8D9F80400FEF7A5FDFFF727F89C
:1020C000029919F12400FEF752FB484600F071F81E
:1020D000FEF798F900287FF47BAFFEF7F7FF77E76C
:1020E000484600F066F8FEF78DF971E7484600F0C3
:1020F00060F8FEF787F901000020BDE8FE83F8B51F
:1021000004000D0016000027206C002809D120686B
:10211000002833D16068FEF7CCFD07000020606026
:102120002CE0002E0FD1226C2900A06801F0DEF80F
:10213000216CA2688918A160A168626891421DD3D0
:102140002068A0601AE0226C2900E06801F0CEF857
:10215000216C4942E2688918E160E1682268914295
:1021600004D2206C404261684018E060022E05D124
:10217000A06B002802D0A06B401EA063A06B401C87
:10218000A0633800F2BD38B504000D00206C0028B3
:102190000ED0206CE1684018E060E0686168884219
:1021A00001D32068E060226CE168280001F09EF80D
:1021B00031BD10B50400FEF792FFA06C01280EDBC4
:1021C000606A00280BD014F12400FEF707FB0028FA
:1021D00001D0FEF797FBA06C401EA064EDE75FF016
:1021E000FF30A064FEF793FFFEF779FF606C0128D3
:1021F0000EDB206900280BD014F11000FEF7EEFA78
:10220000002801D0FEF77EFB606C401E6064EDE7A5
:102210005FF0FF306064FEF77AFF10BD38B5040050
:10222000FEF75DFFA06B002802D10120050001E050
:1022300000200500FEF76BFF280032BD38B5040012
:10224000FEF74DFFA06BE16B884202D10120050033
:1022500001E000200500FEF75AFF280032BD2DE9FD
:10226000F04104000D001600A046FEF7A6FE404611
:10227000FFF7E4FF002811D0002E0AD018F110015A
:10228000300000F066F90020FEF79EFE7FF00300AC
:102290002AE00020FEF798FE002025E00020FEF74F
:1022A00093FEFEF78AFED8F83800D8F83C10884232
:1022B00014D2002229004046FFF721FF0120070029
:1022C000D8F8240000280BD018F1240000F041FABF
:1022D000002805D07FF00400070001E0002007007F
:1022E0000020FEF771FE3800BDE8F0812DE9F041D5
:1022F00004000D001600A046FEF75FFED8F8380077
:10230000002811D1002E0AD018F12401300000F06D
:1023100020F90020FEF758FE7FF0030040E0002087
:10232000FEF752FE00203BE00020FEF74DFEFEF7D8
:1023300044FED8F8380000282CD0D8F84000D8F84F
:102340000C104018C8F80C00D8F80C00D8F804108D
:10235000884203D3D8F80000C8F80C00D8F8380039
:10236000401EC8F83800D8F84020D8F80C102800D3
:1023700000F0BCFF01210F00D8F8101000290BD08D
:1023800018F1100000F0E5F9002805D07FF00400F6
:10239000070001E0002007000020FEF715FE3800CE
:1023A000BDE8F08180B50121802000F0D7FE01203A
:1023B00000F02FF8022000F02CF8032000F029F89C
:1023C000042000F026F803208DF8020010208DF87C
:1023D00003004FF40060ADF8000000A9324800F09F
:1023E000E9FE8020ADF8000000A92F4800F0E2FED1
:1023F0004FF48070ADF8000000A92B4800F0DAFE21
:102400004FF40070ADF8000000A9274800F0D2FE9C
:1024100001BD401EC0B2002804D124494FF400621F
:102420000A6015E0C0B2012803D1204980220A6069
:102430000EE0C0B2022804D11C494FF480720A6039
:1024400006E0C0B2032803D118494FF400720A60B5
:102450007047C0B2012806D11549096891F400619E
:10246000134A11601EE0C0B2022806D11049096863
:1024700091F080010E4A116014E0C0B2032807D128
:102480000B4909684FF480725140094A116009E014
:10249000C0B2042806D1064909684FF400725140C1
:1024A000034A116070470000001C0140101C0140ED
:1024B0000C1C01402DE9F04104000D0016003820ED
:1024C000FFF75CF88046B8F1000F3CD0AF480068D9
:1024D000002804D1AD48C0F8008000F01DF9022D9D
:1024E00001D3012005000020A8F83400C8F82C50C2
:1024F000C8F83060C8F8004018F10400FEF75BFE31
:1025000018F11800FEF757FEC8F81080C8F82480AC
:10251000D5F10200C8F818009D480068D8F82C10C2
:10252000884203D2D8F82C009949086018F10401B8
:10253000D8F82C001422974B02FB0030FEF73EFE29
:102540000120070002E05FF0FF3007003800BDE81F
:10255000F08170B504000D008F4800682018060057
:102560008A480068001DFEF752FE884909684E60DF
:10257000894909688E4207D284480068011D87484E
:102580000068FEF727FE06E080480068011D8448C9
:102590000068FEF71FFE002D06D07C48006810F191
:1025A00018012800FEF716FE70BD38B57D4800689A
:1025B000002821D0FEF701FD7A48C068C0680400F9
:1025C00014F11800FEF723FE05000020FEF7FCFCC6
:1025D000201DFEF71CFE6E490968E26A914202D294
:1025E000E06A6B490860211DE06A1422694B02FB16
:1025F0000030FEF7E3FDD9E731BD10B5FDF778FFF8
:1026000069490968401A69490860684800680028F3
:1026100045D061480068401C5F4908606348006815
:10262000401E624908605C480068002808D15C4987
:10263000096808005A49594A12680A6057490860EF
:102640005748006800680028DFD055480068C06817
:10265000C06804005048006861688842D5D3FEF71E
:10266000ACFC201DFEF7D3FDA16A002903D014F1B4
:102670001800FEF7CCFD0020FEF7A6FC44480068D9
:10268000E16A884202D2E06A41490860211DE06A9D
:102690001422404B02FB0030FEF790FDD0E7424889
:1026A0003D490968016010BD80B5FFF77EFFFFF767
:1026B000A4FF374800681421364A01FB0020006857
:1026C000002809D132480068002824D0304800682A
:1026D000401E2F490860ECE72D49096814222D4B54
:1026E00002FB01310800416849684160416810F10E
:1026F0000802914202D14168496841604068C0685F
:102700002249086021480068016B204800681F4A80
:1027100012681268904701BD10B500200400022C19
:1027200007D214201B4900FB0410FEF735FD641C82
:10273000F5E71F48FEF730FD1E48FEF72DFD19484E
:10274000FEF72AFD16481A4901601448194901602C
:1027500010BDF8B50400E068C068050015F1180068
:10276000FEF755FD070015F118010E48FEF726FD8E
:10277000E86A06490968C96A884202D3012006004E
:1027800001E0002006003000F2BD0000C44E002031
:10279000C84E0020D84D0020CC4E0020C04E002056
:1027A000BC4E0020284E0020D04E0020D44E0020E9
:1027B000004E0020144E002062F30F2262F31F42ED
:1027C000401810F0030308D0C91A1FD3DB0748BF15
:1027D00000F8012D28BF20F8022D130030B4144654
:1027E0001546103928BF20E93C00FAD8490728BF10
:1027F00020E90C0048BF40F8042D890028BF20F8CC
:10280000022D48BF00F8012D30BC7047C91818BF11
:1028100000F8012DCB0728BF00F8012D70472DE9E6
:10282000F04784B08146884614461E460DF1000AE2
:1028300004E014F8011B4046C8478046207810B9D0
:1028400004B0BDE8F0872528F3D1641C14F8015BBF
:10285000252D6FD0582D51D0632D0ED0642D18BF6B
:10286000692D10D06F2D49D0702D4CD0732D50D0C4
:10287000752D18BF782D41D0E0E73068011D31601B
:102880000168C9B2D7E73068011D31600768002FC1
:1028900003D52D214046C84780466F2D08BF08212B
:1028A00005D045F02000782814BF0A2110210B2004
:1028B0003A46642D02D1002F48BF5242431E1846AB
:1028C000B2FBF1FC01FB1C223032D2B23A2A24BF07
:1028D000A5F1510E724403F80A2062460AB101289C
:1028E000ECDAC0F10B0500A947184046002DA4D032
:1028F00017F8011BC8476D1EFAD19EE73068011D0D
:1029000031600768C9E73068011D316007687825C4
:10291000C3E73068011D316005682846FEF796FF61
:1029200007464046002F88D015F8011BC8477F1E78
:10293000FAD182E725217EE71C4901431C4A116038
:102940007047F0B4002300210F22C478002C20D05F
:10295000174C246814F4E064D4F5E064240A2300DE
:10296000D3F104042100DA4044788C4023008478B9
:10297000144023431B0104780E4D63550478641101
:102980000D4D0126077817F01F07BE4045F824605B
:1029900009E004786411094D0126077817F01F0734
:1029A000BE4045F82460F0BC704700000000FA0506
:1029B0000CED00E000E400E000E100E080E100E078
:1029C00080B500F01AF800F045F800F003F800F0C8
:1029D0008BF801BD80B50121082000F0BFFB03206A
:1029E0008DF8020010208DF803000420ADF80000DF
:1029F00000A9904800F0DEFB01BD8D488E490160C2
:102A00008B488E4941608A488D49816088484FF4DF
:102A10008061818186484FF48061C18184480021B2
:102A2000018283480021418281480021C18280487F
:102A3000002101837E48002141837D48002181825D
:102A40007B480021C1617A48002101627848002159
:102A50004162704700B585B00121052000F07EFB82
:102A600001214FF4804000F079FB4FF40070ADF885
:102A7000000018208DF8030003208DF8020000A943
:102A8000704800F097FB4FF48060ADF80000042020
:102A90008DF8030000A96B4800F08CFB5FF4E13077
:102AA00001900020ADF808000020ADF80A000020D9
:102AB000ADF80C000020ADF810000C20ADF80E00B1
:102AC00001A95D4800F01EFC012240F225515A4840
:102AD00000F098FC0121584800F086FC402156483F
:102AE00000F0D3FC05B000BD80B525208DF80000B6
:102AF00001208DF8010000208DF8020001208DF8E2
:102B0000030000A8FFF71DFF01BD38B5040040F227
:102B10002551206800F0BFFC00281DD0206800F07F
:102B2000A0FC0500E08AA1684554E08A401CE082D0
:102B3000E18980B2884201D30020E082608BE18984
:102B4000884202D2608B401C6083606A002803D0F8
:102B50002800C0B2616A884740F22771206800F0FF
:102B60009AFC002823D0A08A00280CD1002240F231
:102B70002771206800F046FC012240F2266120689F
:102B800000F040FC3CE0608A6168415C89B22068EA
:102B900000F063FC608A401C6082A18980B2884298
:102BA00001D300206082A08A401EA08228E040F26B
:102BB0002661206800F06FFC002821D0A08A002840
:102BC0000BD1002240F22661206800F01BFC206A35
:102BD000002815D0206A804712E0608A6168415C55
:102BE00089B2206800F039FC608A401C6082A189AB
:102BF00080B2884201D300206082A08A401EA08259
:102C000031BD80B50A48FFF780FF01BD38B504002B
:102C10000D002100C9B289B2074800F01EFC402116
:102C2000054800F022FC0028F9D0200032BD000049
:102C3000B04D0020000C0140003801405C440020F1
:102C40005C4800200008014001000020DFF8B422A9
:102C5000914203D14FF4006210005DE0DFF8A8223A
:102C6000914203D14FF40052100055E0DFF89C224E
:102C7000914203D15FF4002210004DE0DFF8902272
:102C8000914203D15FF48012100045E0DFF8842206
:102C9000914203D15FF4001210003DE0B1F1804F8A
:102CA00002D10122100037E0DFF86C22914202D1FC
:102CB0000222100030E0DFF86422914202D10422A7
:102CC000100029E0DFF85822914202D108221000BA
:102CD00022E0DFF85022914202D1102210001BE0C6
:102CE000DFF84422914202D12022100014E0DFF8E4
:102CF0003C22914202D1402210000DE0DFF8302248
:102D0000914202D18022100006E0DFF82822914291
:102D100002D14FF48072100070472DE9F04F85B05A
:102D200004000D0016001F007648844202D0764849
:102D3000844206D12000FFF787FF012100F00EFA40
:102D400005E02000FFF780FF012100F016FA002DBA
:102D500041D10021200000F03BF95FF0000B6948F1
:102D6000844202D11920834628E0B4F1804F02D179
:102D70001C20834622E06848844202D11D208346FD
:102D80001CE06648844202D11E20834616E0644857
:102D9000844202D13220834610E06248844202D14C
:102DA000362083460AE06048844202D137208346B9
:102DB00004E05548844201D12C2083468DF804B0AC
:102DC0008DF805608DF8067000208DF8070001A8C9
:102DD000FFF7B7FD92E04B4884420BD04A4884424B
:102DE00008D04A48844205D04948844202D0494824
:102DF000844203D150480068824602E04E48006891
:102E00008246642D0BD242F20F70814642F210705E
:102E1000BAFBF0F0B0FBF5F0401E804613E040F640
:102E2000B830854209D2632081466420BAFBF0F0B5
:102E3000B0FBF5F0401E804605E000208146BAFB5D
:102E4000F5F0401E8046ADF80C80ADF808900020EB
:102E5000ADF80E000020ADF80A0000208DF810003B
:102E600002A9200000F06AF80121200000F0C9F852
:102E700001220121200000F0B9F80121200000F01A
:102E8000A7F85FF0000B1F48844202D11920834647
:102E900028E0B4F1804F02D11C20834622E01E4876
:102EA000844202D11D2083461CE01C48844202D18A
:102EB0001E20834616E01A48844202D132208346FF
:102EC00010E01848844202D1362083460AE01648B2
:102ED000844202D13720834604E00B48844201D16A
:102EE0002C2083468DF800B08DF801608DF80270BB
:102EF00001208DF8030000A8FFF723FD05B0BDE811
:102F0000F08F0000002C014000340140004C0140D3
:102F100000500140005401400004004000080040FF
:102F2000000C004000100040001400400018004059
:102F3000001C0040002000405800002000220388B0
:102F40001A00DFF81431984212D0DFF82431984289
:102F50000ED0B0F1804F0BD0DFF80031984207D08F
:102F6000DFF8FC30984203D0DFF8F830984204D103
:102F70004FF68F731A404B881A43DFF8EC309842B3
:102F800008D0DFF8E830984204D04FF6FF431A40EB
:102F9000CB881A4302808B8883850B880385DFF8F2
:102FA000B83098420FD0DFF8C83098420BD0DFF825
:102FB000C430984207D0DFF8C030984203D0DFF821
:102FC000BC30984201D10B7A03860123838270477B
:102FD000C9B2002904D0028852F00102028004E044
:102FE00002884FF6FE731A4002807047D2B2002A60
:102FF00003D083890B43838102E083898B438381E0
:103000007047C9B2002904D0028852F080020280C1
:1030100004E002884FF67F731A400280704730B494
:103020000200002000230024158A0D402B00958902
:103030000D402C009BB2002B05D0A4B2002C02D076
:103040000125280001E000252800C0B230BC7047EF
:1030500089B2CA4302827047002C0140000400403C
:1030600000080040000C0040001000400014004028
:10307000003401400040014000440140004801404C
:1030800030B40021002200230024434D2D6815F0A8
:103090000C0529000D00002D04D0042D05D0082DAD
:1030A00006D026E03D4D056025E03C4D056022E060
:1030B000394D2D6815F470152A00374D2D6815F41B
:1030C00080352B00920C921C002B04D1344D05FB53
:1030D00002F505600CE0304D2D68AD0304D5304D90
:1030E00005FB02F5056003E02C4D05FB02F50560CC
:1030F00001E02A4D0560284D2D6815F0F0052900E6
:103100000909284D4D5D2C000568E5404560224DBC
:103110002D6815F4E0652900090A224D4D5D2C004B
:103120004568E54085601C4D2D6815F46055290003
:10313000C90A1C4D4D5D2C004568E540C560164D23
:103140002D6815F440452900890B174D4D5D2C0065
:10315000C568B5FBF4F5056130BC7047C9B20029FC
:1031600005D0124A12680243104B1A6004E00F4A5D
:10317000126882430D4B1A607047C9B2002905D00E
:103180000B4A126802430A4B1A6004E0084A1268AC
:103190008243074B1A6070470410024000127A0005
:1031A00000093D004000002054000020181002409B
:1031B0001C100240F0B50027002200230024002547
:1031C000002691F803C01CF00F0C674691F803C06D
:1031D0005FEACC6C03D591F802C05CEA070791F86E
:1031E00000C05FEA0C6C3AD0D0F800C065465FF0D2
:1031F000000C6346082B31D25FF0010C1CFA03FC73
:103200006446B1F800C014EA0C0C6246A24223D115
:103210005FEA830C64465FF00F0C1CFA04FC664600
:10322000B54317FA04FC5CEA050591F803C0BCF14C
:10323000280F06D15FF0010C1CFA03FCC0F814C083
:103240000AE091F803C0BCF1480F05D15FF0010C12
:103250001CFA03FCC0F810C05B1CCBE70560B1F89A
:1032600000C04FF4807EF4453FD3D0F804C06546DB
:103270005FF0000C6346082B36D25FF0010C13F1AF
:10328000080E1CFA0EFC6446B1F800C014EA0C0CDF
:103290006246A24226D15FEA830C64465FF00F0CBF
:1032A0001CFA04FC6646B54317FA04FC5CEA050503
:1032B00091F803C0BCF1280F07D15FF0010C13F1A6
:1032C000080E1CFA0EFCC0F814C091F803C0BCF143
:1032D000480F07D15FF0010C13F1080E1CFA0EFC29
:1032E000C0F810C05B1CC6E74560F0BD70B50400B7
:1032F0000D00160032002900200000F003F9200024
:1033000070BD00002DE9F04786B004000D000026D6
:1033100000275FF000085FF000095FF0000AA8894D
:103320000028A246208A06004CF6FF700640E88876
:1033300006432682A08906004EF6F3100640A888B0
:1033400029890843698908430643A681A08A0600A3
:103350004FF6FF400640A8890643A68200A8FFF763
:103360008FFE2048824502D10398070001E00298B1
:103370000700A089000408D5192000FB07F0296880
:103380004900B0FBF1F0804607E0192000FB07F090
:1033900029688900B0FBF1F080466420B8FBF0F0AA
:1033A000000106003009642101FB10808146A089DC
:1033B000000409D55FEAC90032306421B0FBF1F0A6
:1033C00010F00700064308E05FEA0910323064217C
:1033D000B0FBF1F010F00F000643268106B0BDE807
:1033E000F087000000380140C9B2002904D082896A
:1033F00052F40052828104E082894DF6FF731A4034
:1034000082817047F0B4002300240025002640F696
:103410006A1789B2B94206000F00FFB27F09FFB2F6
:103420003B0089B211F01F073C000127A7403D0077
:10343000012B01D10C3604E0022B01D1103600E043
:103440001436D2B2002A03D037682F43376002E027
:103450003768AF433760F0BC7047CA05D20D828031
:1034600070478088C005C00D7047020000204FF4EF
:10347000007389B2994213880B4202D001231800CD
:1034800001E000231800C0B2704789B28A0589B2F2
:10349000CA430280704770B4020000230025002454
:1034A000002040F66A1689B2B1420E00F6B27609E3
:1034B000F6B2340089B211F01F063500012616FA63
:1034C00005F5012C02D19689354006E0022C02D187
:1034D000168A354001E0968A354089B20E0AB6B2A6
:1034E0003300012616FA03F316883340002D04D06A
:1034F000002B02D00126300001E000263000C0B2CF
:1035000070BC704762B38B0708D0521E11F8013BA4
:1035100000F8013B00F024808B07F6D1830740F0D0
:10352000208000BF103A07D330B4B1E83810103A09
:10353000A0E83810F9D230BC530724BFB1E8081016
:10354000A0E8081044BF51F8043B40F8043BD20700
:1035500024BF31F8022B20F8022B44BF0B780370F4
:103560007047083A07D3B1E80810083A40F8043B1E
:1035700040F804CBF7D25307E4E7000080B54E488B
:10358000006850F001004C4908604C4800684C4904
:1035900008404A490860484800684A490840464986
:1035A00008604548006830F480204349086043487B
:1035B000006830F4FE004149086043485FF41F0191
:1035C000016000F005F841485FF00061016001BD55
:1035D00080B500F001F801BD82B00020019000200C
:1035E00000903548006850F4803033490860324814
:1035F000006810F4003000900198401C0190009881
:10360000002803D10198B0F5A06FF0D12A480068D6
:10361000800302D50120009001E000200090009876
:10362000012847D12A48006850F010002849086056
:103630002748006880088000254908602448006801
:1036400050F00200224908601C481C4909680160CA
:103650001A481A49096801601848006850F48060E7
:10366000164908601548006830F47C10134908605A
:103670001248006850F4E810104908600E480068CD
:1036800050F080700C4908600B4800688001FBD541
:103690000A480068800880000849086007480068F8
:1036A00050F00200054908600448006810F00C0062
:1036B0000828F9D102B070470010024004100240FF
:1036C0000000FFF8FFFFF6FE0810024008ED00E0E2
:1036D000002002407047084800221100C9B22A2980
:1036E00009D2C9B20A5C054B1A80054A12885206F3
:1036F000FBD5491CF2E7FEE7CC370008043801404F
:1037000000380140FEE7FEE7FEE770473D3D3D3DE6
:103710003D3D3D3D3D3D3D3D3D3D3D3D3D3D3D3DD9
:103720003D3D3D3D3D3D3D3D3D3D3D3D3D3D3D3DC9
:103730003D3D3D3D3D3D3D3D3D3D3D3D3D0D0A0059
:10374000C8CECEF1C3FB202020202020C8CECEF151
:10375000D7B4CCAC20D3C5CFC8BCB6202020CAA3D8
:10376000D3E0D5BB20C8CECEF1D0F2BAC50D0A0049
:103770004B32BCFCB0B4CFC2A3ACD6B1BDD3B7A260
:10378000CBCDCDACB2BDD0C5BAC5B8F8C8CECEF1A0
:10379000765461736B4D736750726F0D0A000000B1
:1037A0000D0AC8CECEF1C3FB20202020202020D43B
:1037B000CBD0D0BCC6CAFD20202020202020202035
:1037C000CAB9D3C3C2CA0D0A000000000D0A456E73
:1037D00074657220486172644661756C745F4861FB
:1037E0006E646C65722C2053797374656D2048612A
:1037F0006C742E0D0A00000010B5084979441C3184
:10380000074C7C441A34A14206D0081D0A6851189E
:1038100088470146A142F8D110BD00BF0800000052
:1038200028000000C3DFFFFFEC4E00005C0000201A
:103830000000000003DAFFFF5C0000003C02000013
:103840000000002000000000BACFD7F7CABDC8CEE4
:10385000CEF1756352656369657665203D20256408
:103860000D0A000000F009F8002801D0FFF7C4FF9E
:103870000020FDF7F7FC00F002F80120704700F08F
:1038800001B800000746384600F002F8FBE70000E8
:1038900080B5C046C046024A11001820ABBEFBE707
:1038A0002600020038B504460D46284600F006F80A
:1038B000A84218BF0024204632BD00000149FFF78E
:1038C000A5B900BF00000020BDD3CAD5B5BDCDACA1
:1038D000B2BDD0C5BAC50D0A0000000009256309B4
:1038E00025750925750925750D0A000001488047D1
:1038F000014800477D35000845390008765461735A
:103900006B55736572494600765461736B4C454440
:1039100000000000765461736B4D736750726F0046
:10392000765461736B5374617274000009257509D4
:1039300009257525250D0A0009257509093C31253C
:10394000250D0A00C046C046C046C046FFF78AFFA4
:1039500025730D0A0000000049444C45000000009A
:1039600008000000FFF7B6BEFFF7B5BEFFF7CABEFE
:10397000FFF7C9BEFFF7C8BEFDF729BBFFF7C5BEFD
:10398000FDF7FCBAFDF7D8BBFFF7FEBFFFF7FEBFA0
:10399000FFF7FEBFFFF7FEBFFFF7FEBFFFF7FEBF5B
:1039A000FFF7FEBFFFF7FEBFFFF7FEBFFFF7FEBF4B
:1039B000FFF7FEBFFFF7FEBFFFF7FEBFFFF7FEBF3B
:1039C000FFF7FEBFFFF7FEBFFFF7FEBFFFF7FEBF2B
:1039D000FFF7FEBFFFF7FEBFFFF7FEBFFFF7FEBF1B
:1039E000FFF7FEBFFFF7FEBFFFF7FEBFFFF7FEBF0B
:1039F000FFF7FEBFFFF7FEBFFFF7FEBFFFF7FEBFFB
:103A0000FFF7FEBFFFF7FEBFFFF7FEBFFFF7FEBFEA
:103A1000FFF7FEBFFFF7FEBFFFF7FEBFFFF7F1B8EE
:103A2000FFF7FEBFFFF7FEBFFFF7FEBFFFF7FEBFCA
:103A3000FFF7FEBFFFF7FEBFFFF7FEBFFFF7FEBFBA
:103A4000FFF7FEBFFFF7FEBFFFF7FEBFFFF7FEBFAA
:103A5000FFF7FEBFFFF7FEBFFFF7FEBFFFF7FEBF9A
:103A6000FDF743BFFFF7FEBFFFF7FEBFFFF7FEBF47
:103A7000FFF7FEBFFFF7FEBF02040101604D00200B
:103A8000B04D0020604D0020604D0020604D0020B2
:103A90003D00002024000020000000000000000085
:103AA0000000000000000000000000000000000016
:103AB00000000000000000000000000001020304FC
:103AC0000102030406070809AAAAAAAA0204060812
:043AD00000A24A0402
:040000050800394571
:00000001FF
