:020000040800F2
:10000000B8560020452D0008D12A0008D32A000840
:10001000012B0008032B0008052B0008000000003E
:10002000000000000000000000000000830E000837
:10003000072B000800000000310E0008ED0F00083B
:10004000E12D0008E52D0008E92D0008ED2D000840
:10005000F12D0008F52D0008F92D0008FD2D0008F0
:10006000012E0008052E0008092E00080D2E00089C
:10007000112E0008152E0008192E00081D2E00084C
:10008000212E0008252E0008292E00082D2E0008FC
:10009000312E0008352E0008392E00083D2E0008AC
:1000A000412E0008452E0008492E00084D2E00085C
:1000B000512E0008552E0008592E00085D2E00080C
:1000C000612E0008652E0008692E00086D2E0008BC
:1000D000712E000887230008792E00087D2E000865
:1000E000812E0008852E0008892E00088D2E00081C
:1000F000912E0008952E0008992E00089D2E0008CC
:10010000A12E0008A52E0008A92E0008AD2E00087B
:10011000B12E0008B52E0008E3270008BD2E000808
:10012000C12E0008C52E0008C92E0008CD2E0008DB
:100130002DE9FB4F834614000C9D0D9E0F9F5846E2
:10014000002802D100F093FEFEE7052D02D300F057
:100150008EFEFEE70E99200080B200F0E9FB81469A
:10016000B9F1000F74D0A4B2D9F8300010EB8400BC
:10017000001F82465FEADA0A5FEACA0A1AF007003D
:10018000002802D000F073FEFEE7A4B200943B000A
:100190002A000199484600F007FB029A594650464A
:1001A00000F090FEC9F80000002E01D0C6F80090C3
:1001B00000F0EFFEDFF8B8050068401CDFF8B0156E
:1001C0000860DFF8C005006800280BD1DFF8B4052F
:1001D000C0F80090DFF898050068012811D100F000
:1001E0001CFB0EE0DFF88C050068002809D1DFF861
:1001F00094050068C06A854203D3DFF88805C0F81B
:100200000090DFF874050068401CDFF86C1508608A
:10021000DFF864050068C9F84400DFF8600500688D
:100220000121D9F82C2091400843DFF850150860CF
:1002300019F10401D9F82C001422DFF8443502FB2F
:10024000003000F015FF0120804600F0BAFE02E009
:100250005FF0FF308046B8F1010F0CD1DFF81405D4
:100260000068002807D0DFF81C050068C06AA842B3
:1002700001D200F085FE4046BDE8FE8F2DE9F8432F
:1002800004000D005FF00008002C02D100F0EFFD2B
:10029000FEE7002D02D100F0EAFDFEE7DFF8880658
:1002A0000068002802D000F0E2FDFEE700F0A2F8AE
:1002B000DFF8F004D0F800902068281806002068C5
:1002C000814507D2206886420BD2B14509D2012070
:1002D000804606E02068864201D3B14501D2012064
:1002E00080462660B8F1000F17D0DFF89804006848
:1002F000001D00F0E6FE00280CD1DFF88004006845
:100300000121DFF880241268D26A91408843DFF827
:100310006C140860300000F0E1FA00F073F8070098
:10032000002F01D100F02CFEBDE8F18370B5040070
:100330000026002C29D0DFF8F0050068002802D044
:1003400000F095FDFEE700F055F8DFF8580400686E
:1003500020180500DFF82C040068001D00F0B1FE35
:1003600000280CD1DFF8140400680121DFF8142400
:100370001268D26A91408843DFF8001408602800B0
:1003800000F0ACFA00F03EF80600002E01D100F0BB
:10039000F7FD70BD1FB500200390002002900020E3
:1003A00001900020009000238222DFF8D8160FF27F
:1003B000DD30FFF7BDFE0400012C15D100F057FD24
:1003C000DFF8C4065FF0FF310160DFF8A803012108
:1003D0000160DFF8D00300210160DFF85008002140
:1003E000016000F089FD04E0002C02D100F03FFD27
:1003F000FEE71FBDDFF830050068401CDFF8281558
:1004000008607047F8B50025DFF81C050068002873
:1004100002D100F02CFDFEE700F0BBFDDFF808057F
:100420000068401EDFF800150860DFF8FC04006873
:10043000002859D1DFF838030068002854D0DFF8CD
:100440004006006800282CD0DFF83406C068C06879
:10045000040014F1180000F034FE0600201D00F026
:1004600030FE0700DFF8140300680121E26A9140C2
:100470000843DFF808130860211DE06A1422DFF842
:10048000003302FB003000F0F3FDE06ADFF8F41205
:100490000968C96A8842D2D3DFF89C07012101604C
:1004A000CDE7DFF8D4060068002814D0DFF8C806CE
:1004B000006800280FD000F071F8002803D0DFF8A2
:1004C000780701210160DFF8B0060068401EDFF800
:1004D000A8160860EAE7DFF860070068012803D182
:1004E0000120050000F04CFD00F06BFD2800F2BD7E
:1004F000DFF8B0120968080070472DE9F0410400E8
:100500000D00160000275FF00508FFF773FF9848FD
:10051000006885423CD3B8F1010801221420DFF8BD
:10052000601200FB081114EB471000F027FAC01905
:100530000700B8F1000FEED10222DFF8F4060168DF
:1005400014EB471000F01AFAC01907000222DFF876
:10055000E406016814EB471000F010FAC019070018
:100560000422DFF8241214EB471000F007FAC01938
:1005700007000322DFF8B41314EB471000F0FEF974
:10058000C0190700002E03D0DFF880070068306034
:10059000FFF738FF01003800BDE8F0812DE9F04198
:1005A0000026DFF88403006800287AD1DFF8F40120
:1005B0000068401CDFF8EC110860DFF8E80107680C
:1005C000002F1FD1DFF8680600680068002802D0FD
:1005D00000F04DFCFEE7DFF8580600688046DFF8C3
:1005E0005006DFF8501609680160DFF84806C0F8C9
:1005F0000080DFF848060068401CDFF840160860FD
:1006000000F02AFADFF88004006887423CD3DFF864
:10061000200600680068002805D1DFF86C045FF050
:10062000FF31016030E0DFF808060068C068C0688C
:10063000040060680500AF4203D2DFF84C04056097
:1006400022E0201D00F03DFDA16A002903D014F135
:10065000180000F036FD494800680121E26A914027
:10066000084346490860211DE06A1422444B02FBFE
:10067000003000F0FDFCE06A42490968C96A88421E
:10068000C5D301200600C2E73E480068C06A1421B5
:100690003B4A01FB00200068022809D30120060024
:1006A00006E0DFF8D4040068401CDFF8CC140860D2
:1006B000DFF884050068002801D001200600300022
:1006C000BDE8F08110B5DFF860020068002804D0B2
:1006D000DFF864050121016048E0DFF85C050021D6
:1006E0000160DFF82C06DFF8441509680160DFF8C7
:1006F00024060068DFF81816096888420BD22148E2
:100700000068416DDFF8082612685118DFF80426EA
:100710001268891A4165DFF8FC05DFF8F4150968ED
:10072000016016480068B0FA80F0D0F11F000400A4
:100730001420134900FB04100068002802D100F0C7
:1007400096FBFEE714210E4A01FB042108004168D4
:1007500049684160416810F10802914202D1416844
:10076000496841604068C0680649086010BD0000E3
:10077000844E0020904E0020A04E00208C4E002081
:10078000FC4C0020744E0020144E002010B50400D4
:1007900000F06FF8DFF86C0600680228F8D300F06C
:1007A000EFFBF5E7884E00202DE9F84305000E0029
:1007B00017009846089C00208146B9F1100F0CD212
:1007C00019EB050019F8061080F8341019F8060026
:1007D000002802D019F10109EFE7002085F8430055
:1007E000052F01D304200700EF62EF640020286585
:1007F000281D00F03AFC15F1180000F036FC2D61C0
:10080000D7F10500A8616D62002068650020A86529
:10081000002085F85C00BDE8F18310B500200400DD
:10082000052C08D21420DFF8DC1500FB041000F0C2
:100830000DFC641CF4E7DFF8D00500F007FCDFF8DE
:10084000CC0500F003FCDFF8380200F0FFFBDFF816
:10085000C00500F0FBFB354800F0F8FBDFF8D003E3
:10086000DFF8A4150160DFF8CC03DFF8A015016004
:1008700010BD70B5DFF89C05006800282DD0FFF78B
:10088000B9FDDFF88C050068002801D1012400E0E3
:100890000024E4B2FFF7B6FD002CEBD100F079FBA9
:1008A000DFF86C05C068C0680500281D00F009FC71
:1008B0000600DFF864050068401EDFF85C1508607C
:1008C000DFF850050068401EDFF84815086000F0AA
:1008D00078FB280000F0B7F8CCE770BD10B5040035
:1008E000DFF8380500684460DFF8100500688442CE
:1008F00009D2DFF828050068011DDFF83803006819
:1009000000F0C2FB0EE0DFF814050068011DDFF8FF
:100910002003006800F0B8FB5B480068844201D205
:100920005948046010BD0000A84E0020284E002049
:10093000F8B504000D00002D04D1A4B2A00000F011
:10094000EBFB00E028000700002F0BD0602000F038
:10095000E3FB0600002E01D0376305E0380000F00D
:100960005AFC01E000200600002E05D0A4B2A2002F
:10097000A521306B00F0FAFC3000F2BD2DE9F84300
:1009800004000D0016005FF00009286800284CD014
:100990002800416849684160416810F108029142AD
:1009A00002D14168496841604068C06880462800BB
:1009B000416849684160416810F10802914202D1E2
:1009C0004168496841604068C06807005FEA4910B3
:1009D000075114EB491007F23401416014EB491040
:1009E000796C816014EB4910067314EB4910F96AB5
:1009F0000161F6B2032E06D1B86A002803D014EBC9
:100A000049100221017314EB4910F96C416114EB98
:100A10004910796D8161386B00F00AF814EB4911C7
:100A2000888319F101094745C1D14846BDE8F283E1
:100A3000010000200A78A52A02D1491C401CF9E7D0
:100A4000800880B2704710B50400206B00F0E3FB13
:100A5000200000F0E0FB10BD754909680968002915
:100A600004D109495FF0FF320A6007E07049096864
:100A7000C968C96808004168034A116070470000EE
:100A8000004E0020B02D0008A44E002070B50400D8
:100A90000D002900200000F085FC200000F0A4FCDF
:100AA00006000F2E03DA20203055761CF9E70020CF
:100AB0003055301970BD7FB5040000202070DFF87C
:100AC000580300680390DFF850030068400100F00D
:100AD00023FB0500002D4ED0002203992800FFF7CC
:100AE0000CFD0390002002900298039988423FD2A7
:100AF000029815EB4010007B012806D011D3032883
:100B000009D005D3042809D00BE0522006000AE0E2
:100B10004220060007E05320060004E044200600BF
:100B200001E000200600029815EB4010416820000B
:100B3000FFF7ACFF0400029815EB401080680190AD
:100B4000029815EB4010808B0090029815EB401036
:100B50000369F6B23200DFF8C812200000F064FC2E
:100B6000200000F041FC04190298401C0290BBE7F1
:100B7000280000F050FB7FBD944E002070B584B07B
:100B8000040000202070DFF8900200680290DFF877
:100B900088020068400100F0BFFA0500002D44D033
:100BA00001AA02992800FFF7A8FC0290019864218D
:100BB000B0FBF1F001900198002833D000200090A4
:100BC0000098029988422DD2009815EB4010806958
:100BD0000199B0FBF1F00600009815EB4010416858
:100BE0002000FFF753FF0400002E0AD033000098C6
:100BF00015EB40108269DFF82C12200000F014FC85
:100C000008E0009815EB40108269DFF81C12200004
:100C100000F00AFC200000F0E7FB04190098401CDB
:100C20000090CDE7280000F0F6FA7FBD544E00207A
:100C3000784E00207C4E0020984E00209C4E0020D4
:100C40002DE9F84304000D0016001F0000F0A1F983
:100C5000DFF8C801006890F85C00022832D0DFF8A5
:100C6000BC010068816DA1438165DFF8B0010068B7
:100C7000012180F85C10002F24D0DFF8A00100686B
:100C8000001D00F01EFA002809D15D48006801210E
:100C9000624A1268D26A914088435949086017F144
:100CA000010F06D15D480068011D604800F0E0F9C1
:100CB00006E052480068381880464046FFF70EFEAE
:100CC00000F05EF900F07DF900F063F9002E03D02A
:100CD00052480068806D30605048006890F85C00B1
:100CE000012802D10020814606E04C480068816D51
:100CF000A94381650120814648480068002180F8A9
:100D00005C1000F05EF94846BDE8F283544E0020C6
:100D1000B04E0020AC4E00202DE9F84F04000D002D
:100D200016001F005FF0010A002C02D100F09FF8AE
:100D3000FEE7A04600F02DF9002F02D0D8F85800A9
:100D4000386098F85C008146022088F85C00F6B2B2
:100D5000002E20D0022E0AD003D3042E10D00CD3A4
:100D600019E0D8F858002843C8F8580013E0D8F81C
:100D70005800401CC8F858000DE0C8F858500AE068
:100D80005FFA89F9B9F1020F02D0C8F8585001E0B2
:100D900000208246FFE75FFA89F9B9F1010F27D1F8
:100DA00018F1040000F08DF9834615480068012110
:100DB000D8F82C20914008431149086018F104012B
:100DC000D8F82C0014220F4B02FB003000F050F931
:100DD000D8F82800002802D000F049F8FEE70F48B4
:100DE0000068C06AD8F82C10884201D200F0C8F818
:100DF00000F0E7F85046BDE8F28F0000884E002072
:100E00008C4E0020FC4C0020D84D0020EC4D0020E2
:100E1000144E0020804E0020844E0020744E00208E
:100E2000342D0008842D0008902D0008284E002045
:100E3000EFF30980BFF36F8F204B1A6820E9F00FA2
:100E4000106008B54FF0100080F31188FFF73AFCEE
:100E50004FF0000080F31188BDE808401968086869
:100E6000B0E8F00F80F30988BFF36F8F7047EFF39E
:100E700011804FF0100181F31188704780F31188C1
:100E800070470E4B19680868B0E8F00F80F30988C6
:100E9000BFF36F8F4FF0000080F311884EF00D0EFE
:100EA000704707480068006880F3088862B661B63A
:100EB000BFF34F8FBFF36F8F00DF0000744E002031
:100EC00008ED00E0001F5FF080730360001F016009
:100ED000001F0FF20D0303601438026020387047C2
:100EE00080B55148006810F1010F02D0FFF7BFFF35
:100EF000FEE7FFF7BCFFFEE700B583B04B48017883
:100F00000191FF21017001788DF800109DF800100B
:100F100011F01001464A1170464907220A609DF8F7
:100F2000001009060AD543490968491E414A116063
:100F30009DF8001049008DF80010F0E73D49096860
:100F400009023C4A11603B49096811F4E061394AE1
:100F50001160019901703848006850F470003649FA
:100F600008603548006850F070403349086000F070
:100F70004DF82D4800210160FFF793FF00200EBDC2
:100F80002E485FF080510160BFF34F8FBFF36F8F2A
:100F9000704780B5FFF76BFF23480068401C22496B
:100FA0000860BFF34F8FBFF36F8F1F4800680128A1
:100FB00006D122480068000602D0FFF758FFFEE77E
:100FC00001BD80B518480068002802D1FFF74FFF27
:100FD000FEE715480068401E134908601248006883
:100FE000002802D10020FFF749FF01BD10B5FFF72F
:100FF0003EFF0400FFF7D2FA002803D00F485FF04D
:10100000805101600020FFF739FF10BD0C480068D7
:101010004FF47A71B0FBF1F0401E0A4908600A48AB
:1010200007210160704700005000002000E400E04C
:10103000B44E0020704E002020ED00E004ED00E0F2
:101040005800002014E000E010E000E010F108017A
:1010500041605FF0FF31816010F10801C16010F163
:1010600008010161002101607047002101617047A2
:1010700042684A6093688B60936859609160086128
:1010800003685B1C0360704710B40B6813F1010F19
:1010900002D10469220008E010F10804220054681B
:1010A0002468A34201D35268F9E754684C604C6845
:1010B000A1608A60516008610468641C046010BC0F
:1010C0007047010008694A688B6893608A684B68BA
:1010D000536042688A4201D18A68426000220A61F4
:1010E0000268521E02600068704710B450F8041B7A
:1010F00081B102681218001D50F8043BDC0744BFA0
:10110000A9F10104E31852F8044B43F8044B091FFA
:10111000F9D1EBE710BC70472DE9F04104005FF016
:101120000008FFF767F98A480068002801D100F03D
:10113000A5F888480068044261D1002C12D0864886
:101140000068041914F0070000280BD014F10800FF
:1011500014F00701441A14F00700002802D0FFF72A
:1011600086FEFEE7002C4AD07C480068A04246D3A9
:101170007B4806007A48006805006868A04205D2EE
:101180002868002802D02E002D68F6E77048006815
:10119000854234D07048006831684018804628681D
:1011A00030606D48006840006968091B88420FD2B2
:1011B0006019070017F00700002802D0FFF757FE5C
:1011C000FEE76868001B78606C60380000F08EF8FD
:1011D000624800686968401A604908605F480068B2
:1011E00060490968884203D25E485C490968016029
:1011F0006868584909680843686000202860FFF75C
:1012000001F918F00701002902D0FFF730FEFEE7D0
:101210004046BDE8F08170B504002600002C2CD0BB
:101220004D48006840428619350068684949096898
:10123000084202D1FFF71BFEFEE72868002802D013
:10124000FFF715FEFEE7686842490968084214D0B6
:101250002868002811D168683E4909688843686099
:10126000FFF7C8F83D480068696808183B490860FE
:10127000280000F03BF8FFF7C5F870BD30B44FF41C
:101280008843394C220012F00704002C05D0D21DEF
:10129000D208D2009B1A344CE3181100304C216064
:1012A0002F4C002565605C1822002B4C2468121B13
:1012B000D208D200264C2260254C246800256560A7
:1012C000234C2468002525600800141A4460204C33
:1012D000246804604468234D2C6044681F4D2C60D2
:1012E0001C4C5FF00045256030BC704710B41C4BAF
:1012F0001A001368834201D21268FAE7110053689A
:101300005B18834204D153684468E31853601000AB
:10131000010043685B181468A34211D113680C4C98
:101320002468A34208D0436814686468E3184360E3
:1013300013681B68036005E0054B1B68036001E050
:1013400013680360824200D0106010BC7047000038
:10135000584E0020644E0020B82D00085C4E00203E
:101360004C4E0020604E00205C00002070B5040050
:101370000D0016002A003100200000F06FF8200058
:1013800070BD50F8041B61B150F8042BD30744BF63
:10139000A9F101039A18002342F8043B091FFAD16E
:1013A000EFE770475FEA000C830706D011F8013BB6
:1013B00000F8013BB3B18307F8D10A68B2F10133F9
:1013C00023EA020313F0803F02BF40F8042B51F8D8
:1013D000042FF3E711F8013B00F8013B13B111F8BA
:1013E000013BF9E76046704700F10103810704D033
:1013F00010F8011B89B18107FAD10268B2F10131FD
:10140000914311F0803F04BF50F8042FF6E710F825
:10141000011B11B110F8011BFBE7C01A70470268ED
:10142000531C0360117070470CB41CB5044604A82B
:101430000190009401AB0A4600A90748784418308F
:1014400000F03FF8009900220A7000285CBF009865
:10145000001B16BC5DF80CFBC7FFFFFF62F30F22F9
:1014600062F31F42401810F0030308D0C91A1FD3BB
:10147000DB0748BF00F8012D28BF20F8022D13001C
:1014800030B414461546103928BF20E93C00FAD87C
:10149000490728BF20E90C0048BF40F8042D890007
:1014A00028BF20F8022D48BF00F8012D30BC70473E
:1014B000C91818BF00F8012DCB0728BF00F8012D6F
:1014C00070472DE9F04784B08146884614461E4691
:1014D0000DF1000A04E014F8011B4046C84780469D
:1014E000207810B904B0BDE8F0872528F3D1641C3A
:1014F00014F8015B252D6FD0582D51D0632D0ED0DF
:10150000642D18BF692D10D06F2D49D0702D4CD08F
:10151000732D50D0752D18BF782D41D0E0E730687D
:10152000011D31600168C9B2D7E73068011D316023
:101530000768002F03D52D214046C84780466F2DF0
:1015400008BF082105D045F02000782814BF0A21E3
:1015500010210B203A46642D02D1002F48BF524281
:10156000431E1846B2FBF1FC01FB1C223032D2B202
:101570003A2A24BFA5F1510E724403F80A206246AC
:101580000AB10128ECDAC0F10B0500A94718404662
:10159000002DA4D017F8011BC8476D1EFAD19EE795
:1015A0003068011D31600768C9E73068011D31608E
:1015B00007687825C3E73068011D31600568284653
:1015C000FFF712FF07464046002F88D015F8011B91
:1015D000C8477F1EFAD182E725217EE7DFF8CC03DA
:1015E000006880040BD4DFF8C8030068C00706D485
:1015F000DFF8C0030068C00501D5012000E000202D
:101600007047DFF8A803006880040BD5DFF8A0035B
:101610000068C00706D5DFF89C030068C00501D547
:10162000012000E000207047DFF88003006880049C
:101630000BD5DFF87C030068C00706D4DFF874031D
:101640000068C00501D4012000E000207047DFF8E9
:101650005C03006880040BD4DFF854030068C00703
:1016600006D5DFF850030068C00501D5012000E071
:1016700000207047DFF83403006880040BD5DFF8E2
:1016800030030068C00706D5DFF828030068C005EE
:1016900001D4012000E000207047DFF81803006843
:1016A000000401D4012000E000207047DFF80803A7
:1016B0000068000701D4012000E000207047DFF837
:1016C000F4020068400401D4012000E000207047CB
:1016D000DFF8E0020068800401D4012000E000206F
:1016E0007047DFF8D0020068000601D4012000E056
:1016F0000020704780B500F07AF800F02EF801BDA8
:10170000DFF8B812C97ADFF8B4228854AB49C97A35
:10171000491CAA4AD172C9B20A2902D3A749002298
:10172000CA727047A548807AA44AD27A904201D101
:10173000002011E0A148807AA04A805C01009F4807
:10174000807A401C9D4A9072C0B20A2802D39B48FE
:10175000002282720800C0B2704780B501214FF4A8
:101760009A7000F0C7F903208DF8020004208DF86C
:1017700003004FF40050ADF8000000A9914800F0BC
:10178000E5F90120ADF8000000A98F4800F0DEF96E
:101790004FF48070ADF8000000A98C4800F0D6F935
:1017A0004FF40040ADF8000000A9884800F0CEF9E1
:1017B0000820ADF8000000A9854800F0C7F94FF4F3
:1017C0008040ADF8000000A9804800F0BFF94FF458
:1017D0000050ADF8000000A97C4800F0B7F9802067
:1017E000ADF8000000A9794800F0B0F901BD7349D7
:1017F00000228A7271490022CA72704900220A735B
:1018000000210800C0B20A281FD2C0B26C4911EBF7
:10181000001164220A81C0B2694911EB0011022251
:101820000A71C0B2664911EB001100228A72C0B27F
:10183000634911EB00110022CA72C0B2604911EB7A
:10184000001100220A73401CDCE75D4964220A870C
:101850005B49052281F83B2059496422A1F84820C0
:101860005749052281F84B2055496422A1F8582098
:101870005349052281F85B2051496422A1F8682070
:101880004F49052281F86B204D49524A0A604C4964
:10189000514A0A614A49514A0A624949504A0A630F
:1018A0004749504A0A6446494F4A0A6544494F4AE3
:1018B0000A6643494E4A0A6741494E4AC1F88020A8
:1018C0003F494D4AC1F89020704738B50400E4B252
:1018D0003B4810EB0410050028688047002845D0DD
:1018E0002879052802D2052028715DE028790A2888
:1018F00003D22879401C287156E0A87A002809D123
:101900000120A872E4B2032000FB04F0401CC0B226
:10191000FFF7F6FE2889012846D3E88829898842FE
:101920000FD2E888401CE880298980B288423BD1E8
:10193000E4B2032000FB04F0C01CC0B2FFF7E0FEDD
:1019400032E0E87A01282FD3287B401C2873E97AFB
:10195000C0B2884228D300202873E4B2032000FBE1
:1019600004F0401CC0B2FFF7CBFE1DE0287906282A
:1019700002D30520287113E02879002803D02879A4
:10198000401E28710CE0A87A012809D10020A87215
:10199000E4B2032000FB04F0801CC0B2FFF7B0FEED
:1019A0000020E8800020287331BD000008100140AD
:1019B0000808014008200140081401403C4E002066
:1019C0005C4C002000100140000801400020014054
:1019D00000140140DD150008031600082916000850
:1019E0009B160008AD160008BF160008D1160008A7
:1019F000E31600084F1600087516000810B5002001
:101A00000400E4B20A2C05D22000C0B2FFF75DFF4B
:101A1000641CF6E710BD000030B400210022002352
:101A20000024434D2D6815F00C0529000D00002DF4
:101A300004D0042D05D0082D06D026E03D4D0560CC
:101A400025E03C4D056022E0394D2D6815F47015F8
:101A50002A00374D2D6815F480352B00920C921C0E
:101A6000002B04D1344D05FB02F505600CE0304D30
:101A70002D68AD0304D5304D05FB02F5056003E08C
:101A80002C4D05FB02F5056001E02A4D0560284D4F
:101A90002D6815F0F00529000909284D4D5D2C0031
:101AA0000568E5404560224D2D6815F4E065290084
:101AB000090A224D4D5D2C004568E54085601C4DAE
:101AC0002D6815F460552900C90A1C4D4D5D2C0088
:101AD0004568E540C560164D2D6815F44045290060
:101AE000890B174D4D5D2C00C568B5FBF4F50561FC
:101AF00030BC7047C9B2002905D0124A12680243AF
:101B0000104B1A6004E00F4A126882430D4B1A60B2
:101B10007047C9B2002905D00B4A126802430A4B2C
:101B20001A6004E0084A12688243074B1A60704743
:101B30000410024000127A0000093D00400000201D
:101B400054000020181002401C100240F0B500277D
:101B50000022002300240025002691F803C01CF079
:101B60000F0C674691F803C05FEACC6C03D591F87F
:101B700002C05CEA070791F800C05FEA0C6C3AD03B
:101B8000D0F800C065465FF0000C6346082B31D2E8
:101B90005FF0010C1CFA03FC6446B1F800C014EAC3
:101BA0000C0C6246A24223D15FEA830C64465FF0CC
:101BB0000F0C1CFA04FC6646B54317FA04FC5CEAF9
:101BC000050591F803C0BCF1280F06D15FF0010CA8
:101BD0001CFA03FCC0F814C00AE091F803C0BCF181
:101BE000480F05D15FF0010C1CFA03FCC0F810C0CF
:101BF0005B1CCBE70560B1F800C04FF4807EF44574
:101C00003FD3D0F804C065465FF0000C6346082B54
:101C100036D25FF0010C13F1080E1CFA0EFC64467C
:101C2000B1F800C014EA0C0C6246A24226D15FEA69
:101C3000830C64465FF00F0C1CFA04FC6646B54347
:101C400017FA04FC5CEA050591F803C0BCF1280F03
:101C500007D15FF0010C13F1080E1CFA0EFCC0F85E
:101C600014C091F803C0BCF1480F07D15FF0010C1C
:101C700013F1080E1CFA0EFCC0F810C05B1CC6E77E
:101C80004560F0BD01000020DFF8B422914203D18D
:101C90004FF4006210005DE0DFF8A822914203D10A
:101CA0004FF40052100055E0DFF89C22914203D11E
:101CB0005FF4002210004DE0DFF89022914203D142
:101CC0005FF48012100045E0DFF88422914203D1D6
:101CD0005FF4001210003DE0B1F1804F02D101220B
:101CE000100037E0DFF86C22914202D1022210008E
:101CF00030E0DFF86422914202D10422100029E092
:101D0000DFF85822914202D10822100022E0DFF8C9
:101D10005022914202D1102210001BE0DFF8442231
:101D2000914202D12022100014E0DFF83C229142BF
:101D300002D1402210000DE0DFF83022914202D1A2
:101D40008022100006E0DFF82822914202D14FF4F1
:101D50008072100070472DE9F04F85B004000D002F
:101D600016001F007648844202D07648844206D18D
:101D70002000FFF787FF0121FFF7BCFE05E02000F0
:101D8000FFF780FF0121FFF7C4FE002D41D10021A4
:101D9000200000F03BF95FF0000B6948844202D15B
:101DA0001920834628E0B4F1804F02D11C208346DD
:101DB00022E06848844202D11D2083461CE0664828
:101DC000844202D11E20834616E06448844202D138
:101DD0003220834610E06248844202D13620834696
:101DE0000AE06048844202D13720834604E0554827
:101DF000844201D12C2083468DF804B08DF8056013
:101E00008DF8067000208DF8070001A800F05BF93E
:101E100092E04B4884420BD04A48844208D04A485A
:101E2000844205D04948844202D04948844203D1C3
:101E300050480068824602E04E4800688246642DA1
:101E40000BD242F20F70814642F21070BAFBF0F0F2
:101E5000B0FBF5F0401E804613E040F6B8308542F6
:101E600009D2632081466420BAFBF0F0B0FBF5F0A4
:101E7000401E804605E000208146BAFBF5F0401E7A
:101E80008046ADF80C80ADF808900020ADF80E004B
:101E90000020ADF80A0000208DF8100002A92000F3
:101EA00000F06AF80121200000F0C9F801220121A8
:101EB000200000F0B9F80121200000F0A7F85FF041
:101EC000000B1F48844202D11920834628E0B4F158
:101ED000804F02D11C20834622E01E48844202D15A
:101EE0001D2083461CE01C48844202D11E208346EC
:101EF00016E01A48844202D13220834610E0184886
:101F0000844202D1362083460AE01648844202D138
:101F10003720834604E00B48844201D12C208346BD
:101F20008DF800B08DF801608DF8027001208DF8F9
:101F3000030000A800F0C7F805B0BDE8F08F00006E
:101F4000002C014000340140004C01400050014091
:101F5000005401400004004000080040000C004014
:101F6000001000400014004000180040001C004019
:101F70000020004058000020002203881A00DFF8EB
:101F80001431984212D0DFF8243198420ED0B0F1CB
:101F9000804F0BD0DFF80031984207D0DFF8FC30DB
:101FA000984203D0DFF8F830984204D14FF68F738F
:101FB0001A404B881A43DFF8EC30984208D0DFF81B
:101FC000E830984204D04FF6FF431A40CB881A43BA
:101FD00002808B8883850B880385DFF8B8309842B0
:101FE0000FD0DFF8C83098420BD0DFF8C4309842E9
:101FF00007D0DFF8C030984203D0DFF8BC309842F9
:1020000001D10B7A0386012383827047C9B200296C
:1020100004D0028852F00102028004E002884FF6E8
:10202000FE731A4002807047D2B2002A03D083891F
:102030000B43838102E083898B4383817047C9B25C
:10204000002904D0028852F08002028004E0028855
:102050004FF67F731A400280704730B402000020B0
:1020600000230024158A0D402B0095890D402C007B
:102070009BB2002B05D0A4B2002C02D00125280071
:1020800001E000252800C0B230BC704789B2CA43C5
:1020900002827047002C014000040040000800400C
:1020A000000C0040001000400014004000340140CB
:1020B0000040014000440140004801401C490143E8
:1020C0001C4A11607047F0B4002300210F22C4782D
:1020D000002C20D0174C246814F4E064D4F5E0649C
:1020E000240A2300D3F104042100DA4044788C4010
:1020F00023008478144023431B0104780E4D63555C
:10210000047864110D4D0126077817F01F07BE40B3
:1021100045F8246009E004786411094D0126077828
:1021200017F01F07BE4045F82460F0BC7047000060
:102130000000FA050CED00E000E400E000E100E042
:1021400080E100E080B500F01AF800F045F800F0FA
:1021500003F800F08BF801BD80B501210820FFF7DE
:10216000C9FC03208DF8020010208DF80300042024
:10217000ADF8000000A99048FFF7E8FC01BD8D48CC
:102180008E4901608B488E4941608A488D49816043
:1021900088484FF48061818186484FF48061C18115
:1021A0008448002101828348002141828148002126
:1021B000C1828048002101837E48002141837D48FF
:1021C000002181827B480021C1617A48002101629F
:1021D000784800214162704700B585B00121052093
:1021E000FFF788FC01214FF48040FFF783FC4FF498
:1021F0000070ADF8000018208DF8030003208DF862
:10220000020000A97048FFF7A1FC4FF48060ADF810
:10221000000004208DF8030000A96B48FFF796FC2E
:102220005FF4E13001900020ADF808000020ADF827
:102230000A000020ADF80C000020ADF810000C20C2
:10224000ADF80E0001A95D4800F0C0F8012240F28F
:1022500025515A4800F03AF90121584800F028F970
:102260004021564800F075F905B000BD80B5252025
:102270008DF8000001208DF8010000208DF802008B
:1022800001208DF8030000A8FFF71DFF01BD38B540
:10229000040040F22551206800F061F900281DD0AB
:1022A000206800F042F90500E08AA1684554E08A00
:1022B000401CE082E18980B2884201D30020E082A4
:1022C000608BE189884202D2608B401C6083606A27
:1022D000002803D02800C0B2616A884740F2277105
:1022E000206800F03CF9002823D0A08A00280CD1F7
:1022F000002240F22771206800F0E8F8012240F245
:102300002661206800F0E2F83CE0608A6168415C88
:1023100089B2206800F005F9608A401C6082A189BA
:1023200080B2884201D300206082A08A401EA08231
:1023300028E040F22661206800F011F9002821D041
:10234000A08A00280BD1002240F22661206800F00C
:10235000BDF8206A002815D0206A804712E0608A04
:102360006168415C89B2206800F0DBF8608A401C3B
:102370006082A18980B2884201D300206082A08A55
:10238000401EA08231BD80B50A48FFF780FF01BD25
:1023900038B504000D002100C9B289B2074800F029
:1023A000C0F84021054800F0C4F80028F9D020000A
:1023B00032BD0000B04D0020000C0140003801404B
:1023C0005C4400205C480020000801402DE9F047F3
:1023D00086B004000D00002600275FF000085FF0C3
:1023E00000095FF0000AA8890028A246208A06009A
:1023F0004CF6FF700640E88806432682A089060056
:102400004EF6F3100640A8882989084369890843D5
:102410000643A681A08A06004FF6FF400640A88921
:102420000643A68200A8FFF7F7FA2048824502D1AA
:102430000398070001E002980700A089000408D56E
:10244000192000FB07F029684900B0FBF1F0804635
:1024500007E0192000FB07F029688900B0FBF1F0C4
:1024600080466420B8FBF0F00001060030096421CA
:1024700001FB10808146A089000409D55FEAC900EC
:1024800032306421B0FBF1F010F00700064308E0A1
:102490005FEA091032306421B0FBF1F010F00F0058
:1024A0000643268106B0BDE8F087000000380140F1
:1024B000C9B2002904D0828952F40052828104E01A
:1024C00082894DF6FF731A4082817047F0B4002371
:1024D00000240025002640F66A1789B2B94206009A
:1024E0000F00FFB27F09FFB23B0089B211F01F0756
:1024F0003C000127A7403D00012B01D10C3604E030
:10250000022B01D1103600E01436D2B2002A03D0DB
:1025100037682F43376002E03768AF433760F0BC5D
:102520007047CA05D20D828070478088C005C00DF3
:102530007047020000204FF4007389B2994213885B
:102540000B4202D00123180001E000231800C0B2A2
:10255000704789B28A0589B2CA430280704770B455
:102560000200002300250024002040F66A1689B2EC
:10257000B1420E00F6B27609F6B2340089B211F01B
:102580001F063500012616FA05F5012C02D19689A1
:10259000354006E0022C02D1168A354001E0968AC9
:1025A000354089B20E0AB6B23300012616FA03F39B
:1025B00016883340002D04D0002B02D001263000B5
:1025C00001E000263000C0B270BC704780B500F05A
:1025D000F3F800F0FDF800F088F8FDF7DBFEFEE709
:1025E00070B5FEB004000025FFF79CF80600F6B2B7
:1025F000002E42D0F6B23000012804D004281AD0B0
:10260000072825D039E0594800F000F9584800F073
:10261000FDF800A8FEF74FFA00A9564800F0F6F8BA
:10262000554800F0F3F800A8FEF7A8FA00A95148B1
:1026300000F0ECF821E0514800F0E8F80023032214
:10264000EDB229004E480068FEF766FB6D1C14E0F1
:102650004C4800F0DBF800230422EDB22900484882
:102660000068FEF759FB6D1C012803D1464800F0B5
:10267000CDF802E0454800F0C9F80A20FDF756FE03
:10268000B2E738B50400C825FDF732FF00900220FC
:1026900000F025F9032000F022F9290000A8FDF739
:1026A000EDFDF4E770B582B004004FF4FA76330024
:1026B00000AA5FF0FF310020FEF7C2FA0500012DED
:1026C00004D10099324800F0A1F8F0E7012000F0B1
:1026D00006F9042000F003F9E9E710B50400FFF75C
:1026E0008DF90A20FDF722FEF9E700B585B000203C
:1026F0000390002002900020019001200090002310
:102700004FF4007223492448FDF712FD0020039086
:1027100000200290214801900220009000234FF4F5
:1027200000721F491F48FDF703FD002003900020A1
:102730000290134801900320009000234FF4007290
:1027400019491A48FDF7F4FC00200390002002907C
:10275000002001900420009000234FF400721449DF
:102760001448FDF7E5FC05B000BD0000082B00088B
:10277000702B0008A82D0008D02B00083C2B000867
:102780006C4E0020982A0008FC2B0008A02B0008A3
:10279000282C0008542D0008E1250008684E002070
:1027A000602D0008832600086C2D0008A52600086F
:1027B000782D0008DB26000880B54FF44070FFF745
:1027C0007DFCFFF7BFFC00F033F8FEF793FF01BD7F
:1027D00080B50023012244F620610A48FFF7BBFAC6
:1027E00001BD80B501210748FFF737FC002808D05C
:1027F00005480068401C0449086001210148FFF7B2
:1028000045FC01BD00100040544E00200EB400B540
:1028100082B003A9009100AB02460121034878442D
:102820000A30FEF74EFE06BC5DF810FBE504000022
:1028300080B501218020FFF75DF9012000F02FF81D
:10284000022000F02CF8032000F029F8042000F00A
:1028500026F803208DF8020010208DF803004FF4B5
:102860000060ADF8000000A93248FFF76FF9802042
:10287000ADF8000000A92F48FFF768F94FF4807009
:10288000ADF8000000A92B48FFF760F94FF4007085
:10289000ADF8000000A92748FFF758F901BD401E18
:1028A000C0B2002804D124494FF400620A6015E048
:1028B000C0B2012803D1204980220A600EE0C0B2D4
:1028C000022804D11C494FF480720A6006E0C0B2AD
:1028D000032803D118494FF400720A607047C0B250
:1028E000012806D11549096891F40061134A116065
:1028F0001EE0C0B2022806D11049096891F080019B
:102900000E4A116014E0C0B2032807D10B490968D0
:102910004FF480725140094A116009E0C0B20428A6
:1029200006D1064909684FF400725140034A11600C
:1029300070470000001C0140101C01400C1C0140AD
:1029400080B54E48006850F001004C4908604C4882
:1029500000684C4908404A490860484800684A49AC
:102960000840464908604548006830F480204349E3
:1029700008604348006830F4FE004149086043485D
:102980005FF41F01016000F005F841485FF000614D
:10299000016001BD80B500F001F801BD82B00020EA
:1029A0000190002000903548006850F48030334991
:1029B00008603248006810F4003000900198401C14
:1029C00001900098002803D10198B0F5A06FF0D1D4
:1029D0002A480068800302D50120009001E0002011
:1029E00000900098012847D12A48006850F0100054
:1029F0002849086027480068800880002549086049
:102A00002448006850F00200224908601C481C4914
:102A1000096801601A481A49096801601848006885
:102A200050F48060164908601548006830F47C1046
:102A3000134908601248006850F4E8101049086013
:102A40000E48006850F080700C4908600B48006820
:102A50008001FBD50A4800688008800008490860AA
:102A60000748006850F00200054908600448006803
:102A700010F00C000828F9D102B070470010024095
:102A8000041002400000FFF8FFFFF6FE08100240AD
:102A900008ED00E0002002404B33BCFCB0B4CFC2D4
:102AA000A3ACB7A2CBCDD3CACFE4CAFDBEDDB8F884
:102AB000C8CECEF1765461736B4D736750726FA3BD
:102AC000ACB7C7B8B2B8C7B7BDCABD0D0A000000E1
:102AD0007047084800221100C9B22A2909D2C9B298
:102AE0000A5C054B1A80054A12885206FBD5491C20
:102AF000F2E7FEE7542C000804380140003801409A
:102B0000FEE7FEE7FEE770473D3D3D3D3D3D3D3D77
:102B10003D3D3D3D3D3D3D3D3D3D3D3D3D3D3D3DE5
:102B20003D3D3D3D3D3D3D3D3D3D3D3D3D3D3D3DD5
:102B30003D3D3D3D3D3D3D3D3D0D0A004B32BCFC24
:102B4000B0B4CFC2A3ACB7A2CBCDD3CACFE4CAFD39
:102B5000BEDDB8F8C8CECEF1765461736B4D7367A5
:102B600050726FA3ACB8B2B8C7B7BDCABD0D0A00EA
:102B7000C8CECEF1C3FB202020202020C8CECEF12D
:102B8000D7B4CCAC20D3C5CFC8BCB6202020CAA3B4
:102B9000D3E0D5BB20C8CECEF1D0F2BAC50D0A0025
:102BA000C8CECEF1765461736B4D736750726FB5BA
:102BB000C46E6F74696669636174696F6E20766153
:102BC0006C7565CEB4B1BBB8FCD0C20D0A00000074
:102BD0000D0AC8CECEF1C3FB20202020202020D417
:102BE000CBD0D0BCC6CAFD20202020202020202011
:102BF000CAB9D3C3C2CA0D0A00000000C8CECEF1C4
:102C0000765461736B4D736750726FB5C46E6F7499
:102C1000696669636174696F6E2076616C7565B110
:102C2000BBB8FCD0C20D0A00BDD3CAD5B5BDCFFB21
:102C3000CFA2D3CACFE4CAFDBEDD756C4E6F7469F6
:102C40006669656456616C7565203D2025640D0AD2
:102C5000000000000D0A456E7465722048617264C0
:102C60004661756C745F48616E646C65722C2053AC
:102C7000797374656D2048616C742E0D0A00000034
:102C800010B5084979441C31074C7C441A34A142E0
:102C900006D0081D0A68511888470146A142F8D19C
:102CA00010BD00BF0800000028000000D7E6FFFFAD
:102CB0005C4E00005C000020000000002FE4FFFFDD
:102CC0005C0000000C02000000000020000000007A
:102CD00000F009F8002801D0FFF7D2FF0020FFF72D
:102CE00075FC00F002F80120704700F001B8000008
:102CF0000746384600F002F8FBE7000080B5C04602
:102D0000C046024A11001820ABBEFBE726000200B5
:102D100038B504460D46284600F006F8A84218BF0C
:102D20000024204632BD00000149FFF731BB00BF3F
:102D300000000020092563092575092575092575F9
:102D40000D0A00000148804701480047412900085A
:102D50009D2D0008765461736B557365724946006A
:102D6000765461736B4C45440000000076546173E7
:102D70006B4D736750726F00765461736B5374615F
:102D8000727400000925750909257525250D0A00AD
:102D900009257509093C3125250D0A00C046C046A4
:102DA000C046C046FFF794FF25730D0A00000000DF
:102DB00049444C450000000008000000FFF788BEB1
:102DC000FFF787BEFFF79CBEFFF79BBEFFF79ABEDB
:102DD000FEF757B8FFF797BEFEF72AB8FEF706B919
:102DE000FFF7FEBFFFF7FEBFFFF7FEBFFFF7FEBF17
:102DF000FFF7FEBFFFF7FEBFFFF7FEBFFFF7FEBF07
:102E0000FFF7FEBFFFF7FEBFFFF7FEBFFFF7FEBFF6
:102E1000FFF7FEBFFFF7FEBFFFF7FEBFFFF7FEBFE6
:102E2000FFF7FEBFFFF7FEBFFFF7FEBFFFF7FEBFD6
:102E3000FFF7FEBFFFF7FEBFFFF7FEBFFFF7FEBFC6
:102E4000FFF7FEBFFFF7FEBFFFF7FEBFFFF7FEBFB6
:102E5000FFF7FEBFFFF7FEBFFFF7FEBFFFF7FEBFA6
:102E6000FFF7FEBFFFF7FEBFFFF7FEBFFFF7FEBF96
:102E7000FFF7FEBFFFF787BAFFF7FEBFFFF7FEBF02
:102E8000FFF7FEBFFFF7FEBFFFF7FEBFFFF7FEBF76
:102E9000FFF7FEBFFFF7FEBFFFF7FEBFFFF7FEBF66
:102EA000FFF7FEBFFFF7FEBFFFF7FEBFFFF7FEBF56
:102EB000FFF7FEBFFFF7FEBFFFF793BCFFF7FEBFB4
:102EC000FFF7FEBFFFF7FEBFFFF7FEBFFFF7FEBF36
:102ED00002040101604D0020B04D0020604D002033
:102EE000604D0020604D00203D00002024000020A7
:102EF00000000000000000000000000000000000D2
:102F000000000000000000000000000000000000C1
:102F1000000000000102030401020304060708097F
:0C2F2000AAAAAAAA0204060800A24A04F9
:0400000508002D9D25
:00000001FF
