:020000040800F2
:1000000038520020E9010008FD06000891040008AC
:10001000F906000855030008650E000800000000FE
:100020000000000000000000000000004501000882
:100030007B0300080000000089010008AD090008EA
:10004000030200080302000803020008030200087C
:10005000030200080302000803020008030200086C
:10006000030200080302000803020008030200085C
:10007000030200080302000803020008030200084C
:10008000030200080302000803020008030200083C
:10009000030200080302000803020008030200082C
:1000A000030200080302000803020008030200081C
:1000B000030200080302000803020008030200080C
:1000C00003020008030200080302000803020008FC
:1000D00003020008650B0008030200080302000881
:1000E00003020008030200080302000803020008DC
:1000F00003020008030200080302000803020008CC
:1001000003020008030200080302000803020008BB
:1001100003020008030200082D0A00080302000879
:10012000030200080302000803020008030200089B
:10013000DFF80CD000F0A2F8004800477117000863
:1001400038520020204B19680868B0E8F00F80F39F
:100150000988BFF36F8F4FF0000080F311884EF0D5
:100160000D0E70470000000006480068006880F32C
:10017000088862B661B6BFF34F8FBFF36F8F00DFA1
:1001800000BF00BF08ED00E0EFF30980BFF36F8F01
:100190000D4B1A6820E9F00F106008B54FF0100001
:1001A00080F3118802F0B6F84FF0000080F3118858
:1001B000BDE8084019680868B0E8F00F80F30988C6
:1001C000BFF36F8F704700BF30000020EFF3118046
:1001D0004FF0100181F31188704780F31188704748
:1001E000EFF3058070470000064880470648004747
:1001F000FEE7FEE7FEE7FEE7FEE7FEE7FEE7FEE7D7
:10020000FEE7FEE7CD09000831010008D2B201E0A7
:1002100000F8012B491EFBD270470022F6E710B50B
:1002200013460A4604461946FFF7F0FF204610BD64
:10023000421C10F8011B0029FBD1801A70470346AD
:1002400011F8012B00F8012B002AF9D1184670474C
:1002500030B50B46014600202022012409E021FA96
:1002600002F59D4205D303FA02F5491B04FA02F593
:100270002844151EA2F10102F1DC30BD064C074DE9
:1002800006E0E06840F0010394E807009847103466
:10029000AC42F6D3FFF750FFCC280008EC2800084A
:1002A0001FB500200123CDE90030029003464FF432
:1002B000007217A10390194802F054F90020184A5F
:1002C0000223CDE901200093039003464FF400720E
:1002D00014A1174802F046F900200323CDE90030AD
:1002E000029003464FF4007212A10390144802F0EA
:1002F00039F900200423CDE90030029003464FF481
:10030000007210A10390124802F02CF91FBD0000EA
:10031000765461736B55736572494600D5230008A6
:1003200000000020765461736B4C454400000000CF
:1003300039210008765461736B4D736750726F00FA
:1003400049220008765461736B5374617274000023
:100350008D22000800BFFEE708B525208DF80000BB
:1003600001208DF8010000208DF8020001208DF899
:100370000300684600F0C4F908BD70472DE9F0415C
:10038000024600250026002000230024002791F8C3
:1003900003C00CF00F0591F803C01CF0100F03D040
:1003A00091F802C04CEA050591F800C0BCF1000FBD
:1003B00031D0146800202BE04FF0010C0CFA00F350
:1003C000B1F800C00CEA03069E4220D183004FF032
:1003D0000F0C0CFA03F7BC4305FA03FC4CEA0404C7
:1003E00091F803C0BCF1280F06D14FF0010C0CFAB4
:1003F00000FCC2F814C00AE091F803C0BCF1480F39
:1004000005D14FF0010C0CFA00FCC2F810C0401CE2
:100410000828D1D31460B1F800C0BCF1FF0F34DD5F
:10042000546800202EE000F1080C4FF0010808FA93
:100430000CF3B1F800C00CEA03069E4221D1830000
:100440004FF00F0C0CFA03F7BC4305FA03FC4CEA1F
:10045000040491F803C0BCF1280F05D100F1080C89
:1004600008FA0CF8C2F8148091F803C0BCF1480FE8
:1004700007D100F1080C4FF0010808FA0CF8C2F897
:100480001080401C0828CED35460BDE8F0810000E5
:1004900009A100200BE00A5C124B1A8000BF114A30
:1004A000121F128812F0400FF9D0421CD0B22A2835
:1004B000F1D300BFFEE700000D0A456E746572209F
:1004C000486172644661756C745F48616E646C6506
:1004D000722C2053797374656D2048616C742E0DF5
:1004E0000A0000000438014000B585B00121052054
:1004F00000F05AF90121880300F056F94FF400701A
:10050000ADF8100018208DF8130003208DF81200AC
:1005100004A91848FFF732FF4FF48060ADF81000CF
:1005200004208DF8130004A91248FFF727FF4FF4A9
:10053000E13000900020ADF80400ADF80600ADF801
:100540000800ADF80C000C20ADF80A0069460A4816
:1005500000F082FB012240F22551074800F056FBD3
:100560000121054800F00FFB4021034800F002FB89
:1005700005B000BD0008014000380140094880680E
:1005800010F4005F0BD10848006810F0010F06D18D
:100590000648806810F4807F01D001207047002059
:1005A000FCE7000000100140080801400020014065
:1005B0000948806810F4005F0BD00848006810F00C
:1005C000010F06D00648806810F4807F01D1012019
:1005D00070470020FCE700000010014008080140BF
:1005E000002001400948806810F4005F0BD00848E3
:1005F000006810F0010F06D00648806810F4807F74
:1006000001D0012070470020FCE7000000100140ED
:1006100008080140002001400948806810F4005F8C
:100620000BD00848006810F0010F06D1064880681A
:1006300010F4807F01D1012070470020FCE700000A
:100640000010014008080140002001400448806873
:1006500010F4004F01D1012070470020FCE700009A
:10066000002001400448006810F0080F01D101206B
:1006700070470020FCE7000008140140044880682F
:1006800010F4804F01D1012070470020FCE70000EA
:10069000002001400448806810F4005F01D101206F
:1006A00070470020FCE700000020014004488068FB
:1006B00010F0800F01D1012070470020FCE70000FE
:1006C000002001400948806810F4005F0BD1084801
:1006D000006810F0010F06D00648806810F4807F93
:1006E00001D0012070470020FCE70000001001400D
:1006F000080801400020014000BFFEE770470000ED
:1007000070B5002100230F22C4780CB3164C246866
:1007100004F4E064C4F5E064210AC1F10403CA40B2
:10072000447804FA03F184781440214309010F4C02
:100730000678A155047804F01F050124AC40057823
:100740006D114FF0E02606EB8505C5F8004109E084
:10075000047804F01F050124AC40054D067876119D
:1007600045F8264070BD00000CED00E000E400E01C
:1007700080E100E002490143024A11607047000035
:100780000000FA050CED00E029B1064AD2690243E7
:10079000044BDA6104E0034AD2698243014BDA6117
:1007A000704700000010024029B1064A92690243D6
:1007B000044B9A6104E0034A92698243014B9A61B7
:1007C000704700000010024030B5002100220024D4
:1007D00000232D4D6D6805F00C0121B1042905D0D1
:1007E000082923D105E0294D056022E0274D056049
:1007F0001FE0254D6D6805F47012234D6D6805F4FA
:100800008034022505EB92421CB9214D5543056009
:100810000BE01D4D6D6815F4003F03D01C4D554392
:10082000056002E0194D5543056002E0174D056073
:1008300000BF00BF144D6D6805F0F0010909154DAA
:100840006B5C0568DD4045600F4D6D6805F4E06147
:10085000090A104D6B5C4568DD4085600A4D6D6886
:1008600005F46051C90A0B4D6B5C4568DD40C560FD
:10087000054D6D6805F44041890B074D6B5CC568FB
:10088000B5FBF3F5056130BD0010024000127A009F
:1008900000093D00080000201800002008B50121D3
:1008A0000820FFF781FF03208DF8020010208DF84B
:1008B00003000420ADF8000069460248FFF75EFD22
:1008C00008BD0000000C014010B500F001F810BD9B
:1008D0000CB50020019000903248006840F4803050
:1008E0003049086000BF2F48006800F400300090D5
:1008F0000198401C0190009818B90198B0F5A06FBC
:10090000F1D12848006810F4003F02D00120009087
:1009100001E0002000900098012842D122480068A0
:1009200040F01000204908600846006820F00300ED
:1009300008600846006840F00200086019484068F6
:10094000184948600846406848600846406840F4D6
:10095000806048600846406820F47C104860084683
:10096000406840F4E81048600846006840F0807035
:10097000086000BF0B48006810F0007FFAD00948FB
:10098000406820F00300074948600846406840F08E
:100990000200486000BF0348406800F00C000828CF
:1009A000F9D10CBD001002400020024010B5FFF745
:1009B0000DFC01F079FE18B14FF08050024908603B
:1009C0000020FFF70AFC10BD04ED00E010B513484D
:1009D000006840F00100114908600846406810496D
:1009E00008400E494860084600680E4908400B4917
:1009F00008600846006820F48020086008464068C7
:100A000020F4FE0048604FF41F008860FFF75CFF91
:100A10004FF000600449086010BD00000010024063
:100A20000000FFF8FFFFF6FE08ED00E010B5012121
:100A3000064800F02AF840B105480068401C044907
:100A400008600121014800F011F810BD00100040BD
:100A50000400002021B1028842F08002028004E0FC
:100A600002884FF67F731A4002807047CA430282A1
:100A7000704721B1028842F00102028004E002883E
:100A80004FF6FE731A400280704730B502460020D0
:100A900000230024158A05EA0103958905EA01046B
:100AA00013B10CB1012000E0002030BD1AB18389E0
:100AB0000B43838102E083898B438381704700006D
:100AC000002202881D4B98420ED01D4B98420BD03D
:100AD000B0F1804F08D01B4B984205D01A4B98427A
:100AE00002D01A4B984204D14FF68F731A404B88AC
:100AF0001A43174B984207D0164B984204D04FF632
:100B0000FF431A40CB881A4302808B8883850B8869
:100B100003850A4B98420BD0094B984208D00E4BE4
:100B2000984205D00D4B984202D00D4B984201D10E
:100B30000B7A03860123838270470000002C01405A
:100B4000003401400004004000080040000C004058
:100B500000100040001400400040014000440140EB
:100B60000048014010B5024800F0EBF810BD00004D
:100B70004801002001F40072B2F5007F00D100BFEF
:100B8000CA430280704721B1828942F400528281B7
:100B900004E082894DF6FF731A4082817047024655
:100BA0000020B1F5007F00D100BF13880B4201D0B7
:100BB000012000E00020704770B5024600240023A9
:100BC00000250020A1F510666A3E00D100BFC1F3E8
:100BD000421501F01F03012606FA03F3012D02D18D
:100BE0009689334006E0022D02D1168A334001E097
:100BF000968A33400C12012606FA04F41688344013
:100C000013B10CB1012000E0002070BDF0B5034627
:100C10000024002600250020A1F510676A3F00D1BE
:100C200000BF1846C1F3421401F01F06012707FA5E
:100C300006F5012C01D10C3004E0022C01D110305A
:100C400000E014301AB107682F43076002E007681C
:100C5000AF430760F0BD00002DE9F04786B00546C0
:100C60000E460024A24600BFA1460027B08900B16D
:100C700000BF2F462C8A4CF6FF700440F0880443D6
:100C80002C82AC894EF6F3100440B08831890843B9
:100C9000718908430443AC81AC8A4FF6FF4004409D
:100CA000B0890443AC8201A8FFF78EFD1F4887423C
:100CB00002D1DDF810A001E0DDF80CA0A88910F445
:100CC000004F08D00AEBCA0000EB0A103168490057
:100CD000B0FBF1F807E00AEBCA0000EB0A1031683C
:100CE0008900B0FBF1F86420B8FBF0F004012009A2
:100CF000642101FB1089A88910F4004F08D032202C
:100D000000EBC900B0FBF1F000F00700044308E07D
:100D1000322000EB09106421B0FBF1F000F00F006D
:100D200004432C8106B0BDE8F08700000038014084
:100D300001468888C0F308007047C1F3080282802A
:100D4000704770B5044640F225512068FFF734FF24
:100D5000E0B12068FFF7ECFFC5B2E18AA068455416
:100D6000E08A401C80B2E082E189884201DB0020F9
:100D7000E082608BE189884202DA608B401C6083EC
:100D8000606A10B12846616A884700BF40F2277147
:100D90002068FFF711FF08B3A08A60B9002240F273
:100DA00027712068FFF732FF012240F22661206898
:100DB000FFF72CFF37E0638A6268D15C2068FFF799
:100DC000BCFF608A401C80B26082A189884201DB3E
:100DD00000206082A08A401EA08224E040F22661AA
:100DE0002068FFF7E9FEF0B1A08A50B9002240F276
:100DF00026612068FFF70AFF206AA0B1206A8047B9
:100E000011E0638A6268D15C2068FFF796FF608A10
:100E1000401C80B26082A189884201DB0020608290
:100E2000A08A401EA08270BD0A480B4908600B488A
:100E300048600B4888604FF480608881C88100203A
:100E400008824882C882088348838882C861086211
:100E500048627047003801404801002070010020BE
:100E60007005002000BFFEE70FB4054B10B503A9C5
:100E7000044A029800F02CF810BC5DF814FB000046
:100E80004D170008940000200FB4084B10B504A9BA
:100E900002AA039800F01CF8044602A9002000F002
:100EA000F3F8204610BC5DF814FB00008910000820
:100EB00002E008C8121F08C1002AFAD17047704723
:100EC000002001E001C1121F002AFBD17047000081
:100ED0002DE9FF4F8BB09A460F4605460026C9E024
:100EE000252837D100246D1C6649A04601222B78A5
:100EF000203B02FA03F0084202D004436D1CF6E7DF
:100F000028782E2817D115F8010F44F004042A2858
:100F10000ED06FF02F022878A0F1300109290AD8ED
:100F200008EB880102EB410100EB01086D1CF2E7C0
:100F300057F8048B6D1C287869283FD006DC002800
:100F400071D063280CD0642804D137E0732811D005
:100F500075284ED052460D99904706F1010688E05B
:100F600017F8040B8DF8000000208DF80100E94609
:100F7000012003E057F8049B4FF0FF3061074FF06A
:100F8000000401D40AE0641C44450DDA8442FADB13
:100F900019F804100029F6D106E0641C8442FCDB39
:100FA00019F804100029F8D1264404E019F8010BBF
:100FB00052460D999047641EF8D25AE001CF4FF087
:100FC0000A0B002804DAC0F100004FF02D0102E006
:100FD000210504D52B218DF82410012103E0E10720
:100FE00005D02021F7E70DF1200908910CE0002140
:100FF000F9E701CF4FF00A0BF9E75946FFF728F957
:1010000001F1300209F8012D0028F6D1ADEB0900FD
:1010100000F1200B600701D44FF00108D84503DD33
:10102000A8EB0B0001E029E000208046002406E048
:1010300009A85246005D0D999047761C641C0898DB
:101040008442F5DB04E0302052460D999047761C2F
:10105000B8F10001A8F10108F5DC05E019F8010B71
:1010600052460D999047761CBBF10001ABF1010B84
:10107000F4DC6D1C287800287FF432AF0FB03046C6
:10108000BDE8F08F092801000A68531C0B6010703E
:101090007047000070B50546304800EB0514206825
:1010A000804700283ED02079052802DA05202071EB
:1010B00052E020790A2803DA2079401C20714BE0A5
:1010C000A07A38B90120A07205EB4501491CC8B2CD
:1010D00000F026FA208900283EDDE0882189884238
:1010E0000DDAE088401C80B2E0802189884233D14B
:1010F00005EB4501C91CC8B200F012FA2CE0E07AF9
:10110000002829DD207B401CC0B22073E17A884290
:1011100022DB0020207305EB4501491CC8B200F01A
:10112000FFF919E02079052802DD0520207110E083
:10113000207918B12079401E20710AE0A07A012898
:1011400007D10020A07205EB4501891CC8B200F050
:10115000E7F90020E080207370BD000098000020B7
:101160000B48807A0A4AD27A904201D10020704717
:101170000748807A064A115C1046807A401CC0B24B
:1011800090720A2801DB002090720846EFE7000009
:101190003801002001460020244A914201D1C814A0
:1011A00042E0234A914201D148143DE0214A914254
:1011B00002D14FF4002037E01F4A914202D14FF490
:1011C000801031E01D4A914202D14FF400102BE013
:1011D000B1F1804F01D1012026E0194A914201D19D
:1011E000022021E0174A914201D104201CE0164A56
:1011F000914201D1082017E0144A914201D11020F8
:1012000012E0134A914201D120200DE0114A91428F
:1012100001D1402008E0104A914201D1802003E032
:101220000E4A914200D1881570470000002C014001
:1012300000340140004C0140005001400054014086
:101240000004004000080040000C00400010004076
:101250000014004000180040001C00400020004026
:1012600010B54FF44070FFF785FA00F0FFF800F07A
:10127000C5F800F001F810BD10B500F055F800F009
:1012800001F810BD08B501214FF49A70FFF78CFAF0
:1012900003208DF8020004208DF80300C002ADF891
:1012A000000069461C48FFF769F80120ADF800000E
:1012B00069461A48FFF762F84FF48070ADF80000F5
:1012C00069461748FFF75AF84FF40040ADF80000A0
:1012D00069461348FFF752F80820ADF80000694648
:1012E0001048FFF74BF84FF48040ADF80000694616
:1012F0000B48FFF743F84FF40050ADF80000694683
:101300000748FFF73BF88020ADF800006946044825
:10131000FFF734F808BD000000100140000801404C
:1013200000200140001401400021284A9172D1722E
:101330001173002018E06421254A02EB001211818C
:101340000221234A02EB001211710021204A02EB14
:10135000001291721E4A02EB0012D1721C4A02EB7B
:1013600000121173411CC8B20A28E4DB6422184938
:101370000A87052281F83B206422A1F84820052233
:1013800081F84B206422A1F85820052281F85B20C7
:101390006422A1F86820052281F86B200D490C4ACF
:1013A00011600D4911610D4911620D4911630D491B
:1013B00011640D4911650D4911660D4911670D49FB
:1013C000C2F880100C49C2F8901070473801002014
:1013D000980000207D050008E505000819060008B2
:1013E0004D060008650600087D0600089506000801
:1013F000AD060008C5060008B105000808B50121C2
:101400008020FFF7D1F9012000F046F8022000F01B
:1014100043F8032000F040F8042000F03DF80320DA
:101420008DF8020010208DF80300C001ADF8000017
:1014300069460D48FEF7A2FF8020ADF8000069461E
:101440000948FEF79BFF4FF48070ADF80000694635
:101450000548FEF793FF4FF40070ADF800006946B1
:101460000148FEF78BFF08BD001C014010B5FFF7D7
:10147000DBFCFFF739F8FFF711FAFEF76DFF10BD3F
:1014800010B5002404E02046FFF704FE601CC4B23F
:101490000A2CF8DB10BD0000411EC8B220B94FF481
:1014A00000610B4A116011E0012803D18021084A34
:1014B00011600BE0022803D1C101054A116005E06B
:1014C000032803D14FF40071014A116070470000F6
:1014D000101C0140012806D11049096881F40061FF
:1014E0000E4A116019E0022806D10C49096881F002
:1014F00080010A4A116010E0032806D107490968F3
:1015000081F48071054A116007E0042805D1034980
:10151000096881F40071014A116070470C1C014098
:101520000649C97A054A50541146C97A491CC9B2BC
:10153000D1720A2901DB0021D172704738010020E5
:101540002DE9FF5F04460D4691469A467448844251
:1015500002D07448844207D12046FFF71BFE834621
:101560000121FFF721F906E02046FFF713FE83462D
:101570000121FFF709F9002D41D100212046FFF795
:1015800078FAAB466648844202D14FF0190B28E046
:10159000B4F1804F02D14FF01C0B22E0624884422C
:1015A00002D14FF01D0B1CE06048844202D14FF085
:1015B0001E0B16E05E48844202D14FF0320B10E061
:1015C0005C48844202D14FF0360B0AE05A4884420C
:1015D00002D14FF0370B04E05248844201D14FF062
:1015E0002C0B8DF800B08DF801908DF802A0002032
:1015F0008DF803006846FFF783F8BDE8FF9F484871
:1016000084420BD04748844208D04C48844205D0DD
:101610004B48844202D04B48844202D14A48066873
:1016200001E049480668642D0AD242F20F7842F27E
:101630001070B6FBF0F0B0FBF5F0401E87B213E07F
:1016400040F6B830854209D24FF063086420B6FBFB
:10165000F0F0B0FBF5F0401E87B205E04FF0000857
:10166000B6FBF5F0401E87B2ADF80870ADF8048007
:101670000020ADF80A00ADF806008DF80C0001A9B5
:101680002046FFF71DFA01212046FFF7E3F901226A
:1016900011462046FFF70AFA01212046FFF7E9F933
:1016A0004FF0000B1E48844202D14FF0190B28E086
:1016B000B4F1804F02D14FF01C0B22E01A48844253
:1016C00002D14FF01D0B1CE01848844202D14FF0AC
:1016D0001E0B16E01648844202D14FF0320B10E088
:1016E0001448844202D14FF0360B0AE0124884427B
:1016F00002D14FF0370B04E00A48844201D14FF089
:101700002C0B8DF800B08DF801908DF802A001200F
:101710008DF803006846FEF7F3FF00BF6DE7000099
:10172000002C01400034014000040040000800404B
:10173000000C00400010004000140040004C01402C
:1017400000500140005401401C00002070B50446C8
:101750000D46E1B20548FFF7F0FA00BF402103480B
:10176000FFF71DFA0028F9D0204670BD003801406F
:10177000FFF776FD00F0DCFBFEF792FD00F08EFD3A
:1017800000BFFEE710B504460E48006844600E48EE
:101790000068844207D20B480168091D0B480068A5
:1017A00000F010FB0CE007480168091D08480068BC
:1017B00000F008FB07480068844201D20548046035
:1017C00010BD0000300000203C0000206C00002014
:1017D00068000020580000202DE9F04105460F4622
:1017E0001FB9A80000F0E0F900E03846064656B1FF
:1017F000602000F0D9F904460CB1266304E03046BD
:1018000000F03EFB00E0002424B1A900A522206BDB
:10181000FEF7FCFC2046BDE8F081000070B523E037
:1018200000F070FD1348006808B9012000E00020B6
:10183000054600F0D7FFBDB900F0EAFA0D48C068D0
:10184000C468201D00F048FA0B480068401E0A4991
:1018500008600A480068401E0849086000F0FAFA6B
:10186000204600F00DF800BF044800680028D7D1DA
:1018700070BD0000100A0020380000203400002055
:1018800010B50446206B00F0FBFA204600F0F8FA91
:1018900010BD000030B54FF48843174810F0070F13
:1018A00005D0C01D20F00700134C041B1B1B024673
:1018B000124C22600024114D6C60D018083820F0C2
:1018C00007000F4C206000240D4D2D686C600C4DFE
:1018D0002D682C601146441A4C60094C24680C6039
:1018E000084D4C682C60084D4C682C604FF000444B
:1018F000064D2C6030BD0000380A00208C0000200E
:101900007C0000208400002080000020880000204F
:1019100000BFFFF783FF034800680128F9D900F0F2
:10192000FBFAF6E7700900202DE9F04704460F4660
:1019300015469946DDF82080002607E0B95D04F1E0
:1019400034008155B85D00B902E0761C102EF5D345
:1019500000BF002143200155052D00D30425E56279
:10196000E56400202065201D00F029FA04F118002C
:1019700000F025FA2461C5F10500A0616462002031
:101980006065A06584F85C00BDE8F08710B50024B0
:1019900007E004EB84010F4A02EB810000F002FA39
:1019A000641C052CF5D30C4800F0FCF90B4800F042
:1019B000F9F90B4800F0F6F90A4800F0F3F90A4883
:1019C00000F0F0F904480949086004480849086033
:1019D00010BD000070090020D4090020E809002093
:1019E000FC090020100A0020240A002068000020C2
:1019F0006C00002010B50146164800E0006803683E
:101A00008B42FBD30246436813448B4204D14368A4
:101A10004C682344436001460A464B6813440468FB
:101A2000A34211D10C4C03682468A34208D04B6830
:101A30000468646823444B6003681B680B6005E01E
:101A4000054B1B680B6001E003680B60884200D007
:101A5000016010BD8C0000207C0000202DE9F047C3
:101A600006460C4690460025206800284BD02046AC
:101A700041684968416000F1080142688A4202D128
:101A80004168496841604168D1F80C9000BF204628
:101A900041684968416000F1080142688A4202D108
:101AA0004168496841604168CF6806EB45100760AE
:101AB00007F1340006EB45114860786C06EB4511E0
:101AC000886006EB451080F80C80F86A06EB45113B
:101AD0000861B8F1030F05D1B86A18B1022006EB0E
:101AE00045110873F86C06EB45114861786D06EBFB
:101AF00045118861386B00F023F806EB45118883A7
:101B00006D1C4F45C3D12846BDE8F0870A490968D6
:101B1000096809B9012100E0002121B14FF0FF312E
:101B2000064A116006E004490968C968C868034AA2
:101B300041681160704700006800002058000020D4
:101B40000246002101E0521C491C1078A528FAD059
:101B5000890888B27047000007480068401C01D11E
:101B6000012000E0002018B9FEF730FB00BFFEE7BF
:101B7000FEF72CFB00BFFEE77000002070B50546A5
:101B80000E4631462846FEF75AFB2846FEF750FB24
:101B9000044602E020202855641C0F2CFADB0020AC
:101BA0002855281970BD00002DE9F04104464FF07A
:101BB000000800F0A7FB3B48006808B9FFF76AFE81
:101BC0003948006804425DD19CB1083414F0070F15
:101BD0000FD004F00700C0F10800044414F0070F10
:101BE00001D1012000E0002018B9FEF7EFFA00BF94
:101BF000FEE7002C46D02D480068844242D82C4E87
:101C00003046056801E02E462D686868A04202D281
:101C100028680028F7D123480068854232D0306810
:101C200000F10808286830606868001B102812D985
:101C30002F1917F0070F01D1012000E0002018B97B
:101C4000FEF7C4FA00BFFEE76868001B78606C60AE
:101C50003846FFF7CFFE154968680968081A134926
:101C600008600846006813490968884203D20F4893
:101C70000068104908600C49686809680843686092
:101C80000020286000F0AEFD18F0070F01D1012000
:101C900000E0002018B9FEF799FA00BFFEE74046C1
:101CA000BDE8F0817C00002088000020800000203A
:101CB0008C00002084000020001F4FF08073036020
:101CC000001F0160001F034B0360143802602038BE
:101CD00070470000591B000801460A69D1E901302C
:101CE0009860D1E9010358605068884201D1886842
:101CF0005060002008611068401E10601068704736
:101D00002DE9F0410546884616460024052700F0D7
:101D1000F9FA1D480068804530D300BF7F1E07EBED
:101D200087021A4B03EB820105EB44100122FFF7F7
:101D300095FE0444002FF1D105EB44100222144912
:101D40000968FFF78BFE044405EB44100222114999
:101D50000968FFF783FE044405EB441004220E4992
:101D6000FFF77CFE044405EB441003220B49FFF708
:101D700075FE044416B10A480068306000F032FD78
:101D80002046BDE8F08100003800002070090020E6
:101D9000680000206C000020100A0020240A0020A7
:101DA0000400002000F1080141604FF0FF31816024
:101DB00000F10801C160016100210160704700214C
:101DC0000161704710B502460B685C1C01D11069B7
:101DD00007E002F1080000E04068446824689C4283
:101DE000FAD944684C604C68A160886041600A611F
:101DF0001468641C146010BD42684A6093688B606C
:101E0000936859609160086103685B1C03607047C8
:101E100010B5FEF7DBF90D480068401C0B4908605F
:101E2000BFF34F8FBFF36F8F0846006801280CD1B6
:101E30000748006810F0FF0F01D1012000E00020EA
:101E400018B9FEF7C3F900BFFEE710BD700000200F
:101E500004ED00E010B50948006818B9FEF7B6F9BE
:101E600000BFFEE705480068401E044908600846B8
:101E7000006810B90020FEF7B0F910BD7000002016
:101E800070B506463546002E31D0083D2C4618491F
:101E900060680968084201D0012000E0002018B9FC
:101EA000FEF794F900BFFEE7206808B9012000E0C2
:101EB000002018B9FEF78AF900BFFEE70C496068F8
:101EC0000968084213D0206888B909496068096820
:101ED0008843606000F016FA0649606809680844A3
:101EE000044908602046FFF785FD00F07BFC70BDCB
:101EF0008800002080000020064800684FF47A71B6
:101F0000B0FBF1F0401E4FF0E0214861072008616E
:101F1000704700001C0000204FF08050034908600B
:101F2000BFF34F8FBFF36F8F7047000004ED00E0E9
:101F300010B50023012244F620610248FFF700FBA0
:101F400010BD00000010004070B50446002634B3F8
:101F50001548006808B9012000E0002018B9FEF714
:101F600035F900BFFEE700F0CDF91048006805190B
:101F70000F480068001DFFF7AFFE50B90C4800681D
:101F800090F82C10012088400A49096881430948CB
:101F900001602846FFF7F6FB00F024FC06460EB968
:101FA000FFF7BAFF70BD00005C0000203C0000207D
:101FB00030000020400000202DE9F04704460E4686
:101FC0004FF000091CB9FEF701F900BFFEE70EB1A2
:101FD000012000E0002018B9FEF7F8F800BFFEE786
:101FE0002148006808B9012000E0002018B9FEF778
:101FF000EDF800BFFEE700F085F91C48D0F800803E
:10200000206885192068404507D92068A8420BD967
:10201000454509D94FF0010906E02068A84201D8DA
:10202000454501D94FF001092560B9F1000F13D0E2
:102030000F480068001DFFF74FFE50B90C480068BC
:1020400090F82C10012088400A490968814309480A
:1020500001602846FFF796FB00F0C4FB07460FB966
:10206000FFF75AFFBDE8F0875C0000203C0000202D
:102070003000002040000020FEB5054600202870FA
:10208000264800680290254909684801FFF78CFD41
:102090000446002C40D06A4620460299FFF730FEE5
:1020A000029064210098B0FBF1F0009000980028A5
:1020B0002FD00020019028E0019804EB40108069A7
:1020C0000099B0FBF1F6019804EB401041682846F6
:1020D000FFF754FD05464EB1019804EB401033461E
:1020E0000FA182692846FEF7CFFE07E0019804EBB6
:1020F00040100EA182692846FEF7C6FE2846FEF76C
:1021000097F805440198401C0190DDE901018842DF
:10211000D2D32046FFF7B4FEFEBD000038000020F9
:102120000925750909257525250D0A000925750953
:10213000093C3125250D0A0008B500BF00F0AEFAB4
:10214000009010E0FFF764FE07A0FEF78DFEFFF79A
:1021500081FE0220FFF7BEF90320FFF7BBF9C8217B
:102160006846FFF729FFEDE7C8CECEF176546173DC
:102170006B4C4544D5FDD4DAD4CBD0D00D0A000049
:102180007FB50546002028702A4800680390294939
:1021900009684801FFF708FD0446002C49D00022D9
:1021A00020460399FFF7ACFD03900020029039E030
:1021B000029804EB4010007B012806D0022806D0CC
:1021C000032806D0042808D105E0522607E042265D
:1021D00005E0532603E0442601E0002600BF00BFCF
:1021E000029804EB401041682846FFF7C7FC0546FB
:1021F000029804EB40108068029904EB4111898B2E
:10220000CDE90010029804EB401032460AA10369A0
:102210002846FEF739FE2846FEF70AF805440298DC
:10222000401C0290DDE902018842C1D32046FFF73D
:1022300027FE7FBD38000020092563092575092583
:10224000750925750D0A000011E0FDF7BFFF08A014
:10225000FEF70AFE0020FDF7C0FF0120FFF73AF964
:102260000420FFF737F94FF49670FFF76DFEECE7A7
:10227000C8CECEF1765461736B4D736750726FD5D3
:10228000FDD4DAD4CBD0D00D0A00000004E0FFF773
:10229000F7F80A20FFF758FEF9E700001FB5002005
:1022A000009001900290034682220FA103901048F3
:1022B00000F058F90446012C0FD1FDF787FFA01E4E
:1022C0000C49086001200C49086000200B49086097
:1022D0000B49086000F0F6F804E01CB9FDF776FF42
:1022E00000BFFEE71FBD000049444C450000000050
:1022F0001119000858000020440000203C00002074
:102300000400002002480068401C01490860704732
:102310005C00002010B52748006818B1012026494C
:10232000086045E0002024490860244800682449EA
:102330000860084600682349096888420BD9224989
:10234000096801F15400496D1D4A12681D4B1B6854
:10235000D21A114401601A4800681A4908601B48E3
:102360000068B0FA80F0C0F11F0404EB8400184943
:1023700051F8200008B1012000E0002018B9FDF755
:1023800025FF00BFFEE704EB8401114A02EB810048
:1023900041684968416000F1080142688A4202D1FF
:1023A0004168496841604168C968074A116000BFD7
:1023B00010BD00005C0000204C0000200400002044
:1023C0006400002060000020300000204000002059
:1023D00070090020FEB027E0FEF7C2FE0446002C84
:1023E0001FD0012C1BD1FFF713FD10A0FEF73CFD01
:1023F0001BA0FEF739FD01A8FFF7C2FE01A924A02A
:10240000FEF732FD24A0FEF72FFD01A8FFF734FEF2
:1024100001A91FA0FEF728FDFFF71CFD00E000BF8B
:1024200000BF0A20FFF790FDD6E700003D3D3D3D8F
:102430003D3D3D3D3D3D3D3D3D3D3D3D3D3D3D3DCC
:102440003D3D3D3D3D3D3D3D3D3D3D3D3D3D3D3DBC
:102450003D3D3D3D3D3D3D3D3D3D3D3D3D0D0A004C
:10246000C8CECEF1C3FB202020202020C8CECEF144
:10247000D7B4CCAC20D3C5CFC8BCB6202020CAA3CB
:10248000D3E0D5BB20C8CECEF1D0F2BAC50D0A003C
:1024900025730D0A000000000D0AC8CECEF1C3FB63
:1024A00020202020202020D4CBD0D0BCC6CAFD20A4
:1024B0002020202020202020CAB9D3C3C2CA0D0A60
:1024C000000000001CB52248014609780191FF2157
:1024D000024611700146097800919DF8001001F044
:1024E00010011C4A117007211B4A116009E01A49AA
:1024F0000968491E184A11609DF800104906090E26
:1025000000919DF8001001F080018029EFD0124960
:1025100009680902104A11601146098801F4E06156
:1025200011600B4A019911700C48006840F470006A
:102530000A4908600846006840F070400860FFF7EC
:10254000DBFC002006490860FDF70EFE00201CBDE4
:1025500000E400E0740000207800002020ED00E09E
:10256000700000202DE9FF4F81B0804616469A4644
:10257000DDE90E5BB8F1000F03D1FDF727FE00BFC8
:10258000FEE7052D01D2012000E0002018B9FDF77B
:102590001DFE00BFFEE730461099FFF71DF9044607
:1025A000002C5DD0701E216B01EB800929F007091A
:1025B00019F0070F01D1012000E0002018B9FDF744
:1025C00005FE00BFFEE700962A462046119B0299B1
:1025D000FFF7AAF9524641464846FFF76DFB2060D7
:1025E000BBF1000F01D0CBF80040FFF711FC2548EC
:1025F0000068401C234908602348006840B922480D
:1026000004600846006801280CD1FFF7BFF909E013
:102610001E48006830B91C480068C06AA84201D84A
:10262000194804601A480068401C194908600846A7
:102630000068606494F82C100120884015490968EE
:10264000084314490860E16A01EB8101124A02EB78
:102650008100211DFFF7D0FB0127FFF7FBFB01E005
:102660004FF0FF37012F09D10848006830B1064804
:102670000068C06AA84201D2FFF74EFC384605B098
:10268000BDE8F08F3800002030000020440000201A
:102690005400002040000020700900200149086813
:1026A000704700003C0000202DE9F0414FF0000889
:1026B00041480068002872D140480068401C3F49EA
:1026C000086008460668DEB93D480068006808B939
:1026D000012000E0002018B9FDF778FD00BFFEE7FB
:1026E000374807683748006835490860354807604B
:1026F00035480068401C34490860FFF707FA00BFFE
:102700003248006886423CD300BF2D48006800680C
:1027100008B9012000E0002020B14FF0FF302B4924
:1027200008602DE026480068C068C4686568AE424D
:1027300002D22648056023E0201DFFF7CDFAA06AEB
:1027400018B104F11800FFF7C7FA94F82C10012013
:1027500088401F49096808431D490860E16A01EB88
:1027600081011C4A02EB8100211DFFF745FB1A493C
:10277000E06A0968C96A8842C7D34FF00108C4E714
:1027800000BF15480068C06A00EB8000114951F88D
:102790002000012808D94FF0010805E0FFE70F48A5
:1027A0000068401C0D4908600D48006808B14FF0F2
:1027B00001084046BDE8F0815C0000203C0000209C
:1027C000680000206C00002050000020580000200D
:1027D0004000002070090020300000204800002048
:1027E0004C00002070B500253048006818B9FDF78E
:1027F000EDFC00BFFEE7FFF70BFB2C480068401E16
:102800002A4908600846006800284BD1284800681B
:10281000002847D024E02748C068C46804F11800A5
:10282000FFF75AFA201DFFF757FA94F82C100120F1
:1028300088402149096808431F490860E16A01EBA3
:1028400081011E4A02EB8100211DFFF7D5FA1C49C8
:10285000E06A0968C96A884202D301201949086000
:102860001448006808B9012000E000200028D2D0F8
:102870001548006878B10AE0FFF716FF10B1012093
:102880001049086010480068401E0F4908600E4853
:1028900000680028F0D10B480068012802D101250A
:1028A000FFF73AFBFFF7D6FA284670BD5C00002020
:1028B00038000020FC0900204000002070090020A2
:1028C000300000204C00002048000020EC280008C8
:1028D0000000002098000000B00E000884290008C5
:1028E00098000020A0510000C00E00080000000069
:1028F00000000000000000000102030401020304C4
:10290000060708090204060800A24A0400000000A5
:10291000000000000102030406070809000000008F
:1029200000000000000000000000000000000000A7
:102930000000000000000000000000000000000097
:102940000000000000000000000000000000000087
:10295000000000000000000000000000AAAAAAAACF
:102960000000000000000000000000000000000067
:102970000000000000000000000000000000000057
:042980000000000053
:0400000508000131BD
:00000001FF
