:020000040800F2
:10000000D0560020B92F0008D52D0008D72D0008A4
:10001000052E0008072E0008092E00080000000029
:10002000000000000000000000000000F30D0008C8
:100030000B2E000800000000A10D00085D0F000855
:100040006130000865300008693000086D30000834
:100050007130000875300008793000087D300008E4
:100060008130000885300008893000088D30000894
:100070009130000895300008993000089D30000844
:10008000A1300008A5300008A9300008AD300008F4
:10009000B1300008B5300008B9300008BD300008A4
:1000A000C1300008C5300008C9300008CD30000854
:1000B000D1300008D5300008D9300008DD30000804
:1000C000E1300008E5300008E9300008ED300008B4
:1000D000F1300008AB230008F9300008FD300008BB
:1000E0000131000805310008093100080D31000810
:1000F0001131000815310008193100081D310008C0
:100100002131000825310008293100082D3100086F
:1001100031310008353100089B1000083D310008DE
:100120004131000845310008493100084D310008CF
:100130002DE9FB4F834614000C9D0D9E0F9F5846E2
:10014000002802D100F04BFEFEE7062D02D300F09E
:1001500046FEFEE70E99200080B200F06BFC81465F
:10016000B9F1000F74D0A4B2D9F8300010EB8400BC
:10017000001F82465FEADA0A5FEACA0A1AF007003D
:10018000002802D000F02BFEFEE7A4B200943B0052
:100190002A000199484600F089FB029A59465046C8
:1001A00000F048FEC9F80000002E01D0C6F800900B
:1001B00000F0A7FEDFF838060068401CDFF83016B4
:1001C0000860DFF8C406006800280BD1DFF8B80625
:1001D000C0F80090DFF818060068012811D100F07F
:1001E0009EFB0EE0DFF80C060068002809D1DFF85E
:1001F00098060068C06A854203D3DFF88C06C0F811
:100200000090DFF8F4050068401CDFF8EC1508608A
:10021000DFF8E4050068C9F84400DFF8E00500688D
:100220000121D9F82C2091400843DFF8D01508604F
:1002300019F10401D9F82C001422DFF8C43502FBAF
:10024000003000F0CDFE0120804600F072FE02E09A
:100250005FF0FF308046B8F1010F0CD1DFF8940554
:100260000068002807D0DFF820060068C06AA842AE
:1002700001D200F03DFE4046BDE8FE8F2DE9F84377
:1002800004000D005FF00008002C02D100F0A7FD73
:10029000FEE7002D02D100F0A2FDFEE7DFF88C079B
:1002A0000068002802D000F09AFDFEE700F0A0F8F8
:1002B000DFF8F405D0F800902068281806002068C0
:1002C000814507D2206886420BD2B14509D2012070
:1002D000804606E02068864201D3B14501D2012064
:1002E00080462660B8F1000F17D0DFF89C05006843
:1002F000001D00F09EFE00280CD1DFF8000500680C
:100300000121DFF884251268D26A91408843DFF822
:10031000EC140860300000F063FB00F071F8070097
:10032000002F01D100F0E4FDBDE8F18370B50400B9
:100330000026002C29D0DFF8F4060068002802D03F
:1003400000F04DFDFEE700F053F8DFF85C050068B3
:1003500020180500DFF830050068001D00F069FE78
:1003600000280CD1DFF8940400680121DFF818257B
:100370001268D26A91408843DFF880140860280030
:1003800000F02EFB00F03CF80600002E01D100F03A
:10039000AFFD70BD1FB5002003900020029000202B
:1003A00001900020009000238222DFF8DC170FF27A
:1003B000E140FFF7BDFE0400012C13D100F00FFD5A
:1003C000DFF8C8075FF0FF310160DFF82804012182
:1003D0000160DFF8D4040021016000F055FE00F058
:1003E00043FD04E0002C02D100F0F9FCFEE71FBD44
:1003F000DFF838060068401CDFF8301608607047E8
:10040000F8B50025DFF824060068002802D100F0C6
:10041000E6FCFEE700F075FDDFF810060068401E00
:10042000DFF808160860DFF804060068002859D1D4
:10043000DFF8BC030068002854D0DFF848070068E4
:1004400000282CD0DFF83C07C068C068040014F115
:10045000180000F0EEFD0600201D00F0EAFD070088
:10046000DFF8980300680121E26A91400843DFF851
:100470008C130860211DE06A1422DFF8843302FB2C
:10048000003000F0ADFDE06ADFF8FC130968C96ACE
:100490008842D2D3DFF8C00801210160CDE7DFF840
:1004A000DC070068002814D0DFF8D00700680028B7
:1004B0000FD000F071F8002803D0DFF89C0801216C
:1004C0000160DFF8B8070068401EDFF8B017086069
:1004D000EAE7DFF884080068012803D1012005005D
:1004E00000F006FD00F025FD2800F2BDDFF8B8138E
:1004F0000968080070472DE9F04104000D0016005E
:1005000000275FF00608FFF773FFB94800688542CF
:100510003CD3B8F1010801221420DFF8E41200FBFB
:10052000081114EB471000F0ABFAC0190700B8F13E
:10053000000FEED10222DFF81808016814EB471013
:1005400000F09EFAC01907000222DFF808080168CF
:1005500014EB471000F094FAC01907000422DFF8EA
:100560002C1314EB471000F08BFAC019070003227C
:10057000DFF8BC1414EB471000F082FAC019070032
:10058000002E03D0DFF8D80700683060FFF738FF8F
:1005900001003800BDE8F0812DE9F0410026DFF8C8
:1005A0008C04006800287AD1DFF8FC020068401C47
:1005B000DFF8F4120860DFF8F0020768002F1FD19F
:1005C000DFF88C0700680068002802D000F007FC04
:1005D000FEE7DFF87C0700688046DFF87407DFF885
:1005E000741709680160DFF86C07C0F80080DFF855
:1005F0006C070068401CDFF86417086000F0AEFA72
:10060000DFF88805006887423CD3DFF844070068BC
:100610000068002805D1DFF874055FF0FF31016044
:1006200030E0DFF82C070068C068C068040060682C
:100630000500AF4203D2DFF85405056022E0201D1B
:1006400000F0F7FCA16A002903D014F1180000F0B3
:10065000F0FC6A4800680121E26A9140084367495A
:100660000860211DE06A1422654B02FB003000F097
:10067000B7FCE06A84490968C96A8842C5D3012089
:100680000600C2E780480068C06A14215C4A01FB8A
:1006900000200068022809D30120060006E0DFF8E8
:1006A000DC050068401CDFF8D4150860DFF8A806F8
:1006B0000068002801D0012006003000BDE8F0816C
:1006C00010B5DFF868030068002804D0DFF888065A
:1006D0000121016048E0DFF8800600210160DFF8B9
:1006E0008406DFF87C1609680160DFF87C06006884
:1006F000DFF87016096888420BD263480068416DC4
:10070000DFF8602612685118DFF85C261268891A33
:100710004165DFF85406DFF84C1609680160374878
:100720000068B0FA80F0D0F11F00040014203449B2
:1007300000FB04100068002802D100F050FBFEE727
:1007400014212F4A01FB04210800416849684160D7
:10075000416810F10802914202D141684968416044
:100760004068C0684849086010BDF8B504000D0035
:100770001600002C02D100F032FBFEE7DFF8AC02DD
:100780000068002802D100F02AFBFEE73E4800681E
:1007900055F0004181613C48006810F118012000CB
:1007A00000F01EFC38480068001D00F042FC0028E4
:1007B00009D1124800680121334A1268D26A914077
:1007C00088430E49086016F1010F07D12E480068D2
:1007D000011DDFF85C0200F003FC07E0DFF8900584
:1007E000006830180700380000F0FAF8F1BD00008A
:1007F0009C4E0020A84E0020B84E0020A44E0020A1
:10080000FC4C00202DE9F84304000D0087480068E7
:10081000002802D100F0E3FAFEE755F00040206026
:10082000E0680600002E02D100F0D9FAFEE72000B1
:1008300000F0FFFB8046301D00F0FBFB8146DFF837
:10084000340500680121F26A91400843DFF824155D
:100850000860311DF06A1422DFF81C3502FB0030FD
:1008600000F0BEFB08480068C06AF16A884206D200
:1008700001200700DFF8F4040121016001E00020FD
:1008800007003800BDE8F2838C4E0020284E00207F
:1008900010B5040000F06FF8DFF8DC0400680228EF
:1008A000F8D300F025FBF5E7A04E00202DE9F84332
:1008B00005000E0017009846089C00208146B9F1FB
:1008C000100F0CD219EB050019F8061080F834103F
:1008D00019F80600002802D019F10109EFE70020FD
:1008E00085F84300062F01D305200700EF62EF646F
:1008F00000202865281D00F070FB15F1180000F09D
:100900006CFB2D61D7F10600A8616D62002068655F
:100910000020A865002085F85C00BDE8F18310B5D3
:1009200000200400062C08D21420DFF84C1400FB31
:10093000041000F043FB641CF4E7DFF8400400F00F
:100940003DFBDFF83C0400F039FBDFF8380200F033
:1009500035FBDFF8300400F031FB354800F02EFBAA
:10096000DFF8EC03DFF814140160DFF8E803DFF8C8
:100970001014016010BD70B5DFF80C040068002889
:100980002DD0FFF735FDDFF8FC030068002801D10A
:10099000012400E00024E4B2FFF732FD002CEBD18B
:1009A00000F0AFFADFF8DC03C068C0680500281D5E
:1009B00000F03FFB0600DFF8D4030068401EDFF8BC
:1009C000CC130860DFF8C0030068401EDFF8B813DE
:1009D000086000F0AEFA280000F0B7F8CCE770BD70
:1009E00010B50400DFF8A80300684460DFF8800356
:1009F0000068844209D2DFF898030068011DDFF81F
:100A00005403006800F0F8FA0EE0DFF88403006891
:100A1000011DDFF83C03006800F0EEFA5B48006857
:100A2000844201D25948046010BD0000C04E00202D
:100A30003C4E0020F8B504000D00002D04D1A4B2F6
:100A4000A00000F03FFB00E028000700002F0BD0C3
:100A5000602000F037FB0600002E01D0376305E070
:100A6000380000F0AEFB01E000200600002E05D0AB
:100A7000A4B2A200A521306B00F04EFC3000F2BD04
:100A80002DE9F84304000D0016005FF00009286806
:100A900000284CD02800416849684160416810F145
:100AA0000802914202D14168496841604068C068CB
:100AB00080462800416849684160416810F1080299
:100AC000914202D14168496841604068C0680700AE
:100AD0005FEA4910075114EB491007F234014160F5
:100AE00014EB4910796C816014EB4910067314EB18
:100AF0004910F96A0161F6B2032E06D1B86A0028DE
:100B000003D014EB49100221017314EB4910F96C66
:100B1000416114EB4910796D8161386B00F00AF87E
:100B200014EB4911888319F101094745C1D14846A1
:100B3000BDE8F283010000200A78A52A02D1491CF1
:100B4000401CF9E7800880B2704710B50400206BA4
:100B500000F037FB200000F034FB10BD7C49096831
:100B60000968002904D109495FF0FF320A6007E0F3
:100B700077490968C968C96808004168034A116073
:100B800070470000144E002030300008BC4E00209A
:100B900070B504000D002900200000F0D9FB2000F2
:100BA00000F0F8FB06000F2E03DA20203055761CEB
:100BB000F9E700203055301970BD7FB504000020E2
:100BC0002070DFF8C80100680390DFF8C0010068FA
:100BD000400100F077FA0500002D4ED00022039965
:100BE0002800FFF788FC03900020029002980399E8
:100BF00088423FD2029815EB4010007B012806D0B6
:100C000011D3032809D005D3042809D00BE05220C2
:100C100006000AE04220060007E05320060004E038
:100C20004420060001E000200600029815EB401069
:100C300041682000FFF7ACFF0400029815EB40105C
:100C400080680190029815EB4010808B009002980C
:100C500015EB40100369F6B23200DFF838112000BE
:100C600000F0B8FB200000F095FB04190298401C2E
:100C70000290BBE7280000F0A4FA7FBDAC4E002034
:100C800070B584B0040000202070DFF80001006817
:100C90000290DFF8F8000068400100F013FA050048
:100CA000002D44D001AA02992800FFF724FC0290ED
:100CB00001986421B0FBF1F001900198002833D035
:100CC000002000900098029988422DD2009815EBE0
:100CD000401080690199B0FBF1F00600009815EB17
:100CE000401041682000FFF753FF0400002E0AD097
:100CF0003300009815EB40108269DFF89C1020004B
:100D000000F068FB08E0009815EB40108269DFF8FE
:100D10008C10200000F05EFB200000F03BFB04196B
:100D20000098401C0090CDE7280000F04AFA7FBDF3
:100D3000DFF85C10096889690800DFF85410096859
:100D4000C96AD1F10601DFF8482012689161704745
:100D5000904E0020944E0020B04E0020B44E002053
:100D6000684E0020C84E0020C44E0020B04E002027
:100D7000A04E0020A44E0020FC4C0020EC4D002092
:100D8000004E0020284E0020984E00209C4E00204F
:100D90008C4E0020A82F00080430000810300008F6
:100DA000EFF30980BFF36F8F204B1A6820E9F00F33
:100DB000106008B54FF0100080F31188FFF780FC39
:100DC0004FF0000080F31188BDE8084019680868FA
:100DD000B0E8F00F80F30988BFF36F8F7047EFF32F
:100DE00011804FF0100181F31188704780F3118852
:100DF00070470E4B19680868B0E8F00F80F3098857
:100E0000BFF36F8F4FF0000080F311884EF00D0E8E
:100E1000704707480068006880F3088862B661B6CA
:100E2000BFF34F8FBFF36F8F00DF00008C4E0020A9
:100E300008ED00E0001F5FF080730360001F016099
:100E4000001F0FF20D030360143802602038704752
:100E500080B55148006810F1010F02D0FFF7BFFFC5
:100E6000FEE7FFF7BCFFFEE700B583B04B48017813
:100E70000191FF21017001788DF800109DF800109C
:100E800011F01001464A1170464907220A609DF888
:100E9000001009060AD543490968491E414A1160F4
:100EA0009DF8001049008DF80010F0E73D490968F1
:100EB00009023C4A11603B49096811F4E061394A72
:100EC0001160019901703848006850F4700036498B
:100ED00008603548006850F070403349086000F001
:100EE0004DF82D4800210160FFF793FF00200EBD53
:100EF0002E485FF080510160BFF34F8FBFF36F8FBB
:100F0000704780B5FFF76BFF23480068401C2249FB
:100F10000860BFF34F8FBFF36F8F1F480068012831
:100F200006D122480068000602D0FFF758FFFEE70E
:100F300001BD80B518480068002802D1FFF74FFFB7
:100F4000FEE715480068401E134908601248006813
:100F5000002802D10020FFF749FF01BD10B5FFF7BF
:100F60003EFF0400FFF718FB002803D00F485FF096
:100F7000805101600020FFF739FF10BD0C48006868
:100F80004FF47A71B0FBF1F0401E0A4908600A483C
:100F900007210160704700005000002000E400E0DD
:100FA000CC4E0020884E002020ED00E004ED00E053
:100FB0005800002014E000E010E000E010F108010B
:100FC00041605FF0FF31816010F10801C16010F1F4
:100FD0000801016100210160704700210161704733
:100FE00042684A6093688B609368596091600861B9
:100FF00003685B1C0360704710B40B6813F1010FAA
:1010000002D10469220008E010F1080422005468AB
:101010002468A34201D35268F9E754684C604C68D5
:10102000A1608A60516008610468641C046010BC9F
:101030007047010008694A688B6893608A684B684A
:10104000536042688A4201D18A68426000220A6184
:101050000268521E02600068704710B450F8041B0A
:1010600081B102681218001D50F8043BDC0744BF30
:10107000A9F10104E31852F8044B43F8044B091F8B
:10108000F9D1EBE710BC704780B50023012244F68C
:1010900020610A4800F021FA01BD80B5012107480E
:1010A00000F09DFB002808D005480068401C04495A
:1010B00008600121014800F0ABFB01BD00100040B9
:1010C000684E00202DE9F04104005FF00008FFF7B2
:1010D0008FF98A480068002801D100F0A5F88848F7
:1010E0000068044261D1002C12D0864800680419BF
:1010F00014F0070000280BD014F1080014F00701C9
:10110000441A14F00700002802D0FFF768FEFEE73B
:10111000002C4AD07C480068A04246D37B48060099
:101120007A48006805006868A04205D2286800284F
:1011300002D02E002D68F6E770480068854234D052
:1011400070480068316840188046286830606D48F3
:10115000006840006968091B88420FD260190700C7
:1011600017F00700002802D0FFF739FEFEE7686895
:10117000001B78606C60380000F08EF862480068F0
:101180006968401A604908605F48006860490968FA
:10119000884203D25E485C49096801606868584922
:1011A00009680843686000202860FFF729F918F0F3
:1011B0000701002902D0FFF712FEFEE74046BDE816
:1011C000F08170B504002600002C2CD04D4800683A
:1011D000404286193500686849490968084202D1C9
:1011E000FFF7FDFDFEE72868002802D0FFF7F7FDB6
:1011F000FEE7686842490968084214D02868002858
:1012000011D168683E49096888436860FFF7F0F8C3
:101210003D480068696808183B490860280000F0EC
:101220003BF8FFF7EDF870BD30B44FF48843394C0C
:10123000220012F00704002C05D0D21DD208D200E3
:101240009B1A344CE3181100304C21602F4C0025C0
:1012500065605C1822002B4C2468121BD208D20057
:10126000264C2260254C246800256560234C2468A8
:10127000002525600800141A4460204C246804608E
:101280004468234D2C6044681F4D2C601C4C5FF05B
:101290000045256030BC704710B41C4B1A00136821
:1012A000834201D21268FAE7110053685B18834247
:1012B00004D153684468E318536010000100436888
:1012C0005B181468A34211D113680C4C2468A34224
:1012D00008D0436814686468E318436013681B68A7
:1012E000036005E0054B1B68036001E013680360C1
:1012F000824200D0106010BC704700006C4E00208D
:10130000784E002038300008704E0020604E0020DB
:10131000744E00205C00002070B504000D00160023
:101320002A003100200000F08BFA200070BD50F838
:10133000041B61B150F8042BD30744BFA9F101038A
:101340009A18002342F8043B091FFAD1EFE77047CF
:101350005FEA000C830706D011F8013B00F8013B5F
:10136000B3B18307F8D10A68B2F1013323EA02036B
:1013700013F0803F02BF40F8042B51F8042FF3E72D
:1013800011F8013B00F8013B13B111F8013BF9E7FB
:101390006046704700F10103810704D010F8011B7B
:1013A00089B18107FAD10268B2F10131914311F09C
:1013B000803F04BF50F8042FF6E710F8011B11B16D
:1013C00010F8011BFBE7C01A70470268531C03604A
:1013D000117070470CB41CB5044604A80190009429
:1013E00001AB0A4600A907487844183000F05BFAC0
:1013F000009900220A7000285CBF0098001B16BCF0
:101400005DF80CFBC7FFFFFF01000020DFF8B422EE
:10141000914203D14FF4006210005DE0DFF8A82292
:10142000914203D14FF40052100055E0DFF89C22A6
:10143000914203D15FF4002210004DE0DFF89022CA
:10144000914203D15FF48012100045E0DFF884225E
:10145000914203D15FF4001210003DE0B1F1804FE2
:1014600002D10122100037E0DFF86C22914202D154
:101470000222100030E0DFF86422914202D10422FF
:10148000100029E0DFF85822914202D10822100012
:1014900022E0DFF85022914202D1102210001BE01E
:1014A000DFF84422914202D12022100014E0DFF83C
:1014B0003C22914202D1402210000DE0DFF83022A0
:1014C000914202D18022100006E0DFF828229142EA
:1014D00002D14FF48072100070472DE9F04F85B0B3
:1014E00004000D0016001F007648844202D07648A2
:1014F000844206D12000FFF787FF012100F0D2FAD5
:1015000005E02000FFF780FF012100F0DAFA002D4E
:1015100041D10021200000F03BF95FF0000B694849
:10152000844202D11920834628E0B4F1804F02D1D1
:101530001C20834622E06848844202D11D20834655
:101540001CE06648844202D11E20834616E06448AF
:10155000844202D13220834610E06248844202D1A4
:10156000362083460AE06048844202D13720834611
:1015700004E05548844201D12C2083468DF804B004
:101580008DF805608DF8067000208DF8070001A821
:1015900000F0F1FA92E04B4884420BD04A48844272
:1015A00008D04A48844205D04948844202D049487C
:1015B000844203D150480068824602E04E480068E9
:1015C0008246642D0BD242F20F70814642F21070B7
:1015D000BAFBF0F0B0FBF5F0401E804613E040F699
:1015E000B830854209D2632081466420BAFBF0F00E
:1015F000B0FBF5F0401E804605E000208146BAFBB6
:10160000F5F0401E8046ADF80C80ADF80890002043
:10161000ADF80E000020ADF80A0000208DF8100093
:1016200002A9200000F06AF80121200000F0C9F8AA
:1016300001220121200000F0B9F80121200000F072
:10164000A7F85FF0000B1F48844202D1192083469F
:1016500028E0B4F1804F02D11C20834622E01E48CE
:10166000844202D11D2083461CE01C48844202D1E2
:101670001E20834616E01A48844202D13220834657
:1016800010E01848844202D1362083460AE016480A
:10169000844202D13720834604E00B48844201D1C2
:1016A0002C2083468DF800B08DF801608DF8027013
:1016B00001208DF8030000A800F05DFA05B0BDE838
:1016C000F08F0000002C014000340140004C01402C
:1016D0000050014000540140000400400008004058
:1016E000000C0040001000400014004000180040B2
:1016F000001C004000200040580000200022038809
:101700001A00DFF81431984212D0DFF824319842E1
:101710000ED0B0F1804F0BD0DFF80031984207D0E7
:10172000DFF8FC30984203D0DFF8F830984204D15B
:101730004FF68F731A404B881A43DFF8EC3098420B
:1017400008D0DFF8E830984204D04FF6FF431A4043
:10175000CB881A4302808B8883850B880385DFF84A
:10176000B83098420FD0DFF8C83098420BD0DFF87D
:10177000C430984207D0DFF8C030984203D0DFF879
:10178000BC30984201D10B7A0386012383827047D3
:10179000C9B2002904D0028852F00102028004E09C
:1017A00002884FF6FE731A4002807047D2B2002AB8
:1017B00003D083890B43838102E083898B43838138
:1017C0007047C9B2002904D0028852F0800202801A
:1017D00004E002884FF67F731A400280704730B4ED
:1017E0000200002000230024158A0D402B0095895B
:1017F0000D402C009BB2002B05D0A4B2002C02D0CF
:101800000125280001E000252800C0B230BC704747
:1018100089B2CA4302827047002C01400004004094
:1018200000080040000C0040001000400014004080
:1018300000340140004001400044014000480140A4
:1018400062F30F2262F31F42401810F0030308D026
:10185000C91A1FD3DB0748BF00F8012D28BF20F8A5
:10186000022D130030B414461546103928BF20E964
:101870003C00FAD8490728BF20E90C0048BF40F8CF
:10188000042D890028BF20F8022D48BF00F8012D43
:1018900030BC7047C91818BF00F8012DCB0728BF0E
:1018A00000F8012D70472DE9F04784B08146884645
:1018B00014461E460DF1000A04E014F8011B4046D0
:1018C000C8478046207810B904B0BDE8F0872528C5
:1018D000F3D1641C14F8015B252D6FD0582D51D025
:1018E000632D0ED0642D18BF692D10D06F2D49D0F7
:1018F000702D4CD0732D50D0752D18BF782D41D040
:10190000E0E73068011D31600168C9B2D7E730688F
:10191000011D31600768002F03D52D214046C847BF
:1019200080466F2D08BF082105D045F0200078289B
:1019300014BF0A2110210B203A46642D02D1002F3A
:1019400048BF5242431E1846B2FBF1FC01FB1C2269
:101950003032D2B23A2A24BFA5F1510E724403F8B4
:101960000A2062460AB10128ECDAC0F10B0500A991
:1019700047184046002DA4D017F8011BC8476D1E1C
:10198000FAD19EE73068011D31600768C9E7306809
:10199000011D316007687825C3E73068011D31609B
:1019A00005682846FFF7F6FC07464046002F88D01A
:1019B00015F8011BC8477F1EFAD182E725217EE773
:1019C0006249C0B20860704730B400210022002391
:1019D00000245C4D2D6815F00C0529000D00002D2C
:1019E00004D0042D05D0082D06D026E0584D056002
:1019F00025E0574D056022E0524D2D6815F4701515
:101A00002A00504D2D6815F480352B00920C921C45
:101A1000002B04D14F4D05FB02F505600CE0494D4C
:101A20002D68AD0304D54B4D05FB02F5056003E0C1
:101A3000474D05FB02F5056001E0454D0560414D50
:101A40002D6815F0F00529000909434D4D5D2C0066
:101A50000568E54045603B4D2D6815F4E0652900BB
:101A6000090A3D4D4D5D2C004568E5408560354DCA
:101A70002D6815F460552900C90A374D4D5D2C00BD
:101A80004568E540C5602F4D2D6815F44045290097
:101A9000890B324D4D5D2C00C568B5FBF4F5056131
:101AA00030BC7047C9B2002905D02D4A12680243E4
:101AB0002B4B1A6004E02A4A12688243284B1A60B2
:101AC0007047C9B2002905D0264A12680243254B47
:101AD0001A6004E0234A12688243224B1A6070475E
:101AE00010B40100002200230020C9B24C09E4B266
:101AF0002200012A03D1124C2468230008E0022AA4
:101B000003D1114C2468230002E0174C2468230001
:101B1000C9B211F01F04220001249440234202D0D4
:101B20000124200001E000242000C0B210BC704756
:101B30000D48006850F080700B4908607047000045
:101B40000010024004100240201002408004424273
:101B500000127A0000093D004000002054000020DF
:101B6000181002401C100240241002401C4901437E
:101B70001C4A11607047F0B4002300210F22C47882
:101B8000002C20D0174C246814F4E064D4F5E064F1
:101B9000240A2300D3F104042100DA4044788C4065
:101BA00023008478144023431B0104780E4D6355B1
:101BB000047864110D4D0126077817F01F07BE4009
:101BC00045F8246009E004786411094D012607787E
:101BD00017F01F07BE4045F82460F0BC70470000B6
:101BE0000000FA050CED00E000E400E000E100E098
:101BF00080E100E0DFF8CC03006880040BD4DFF85C
:101C0000C8030068C00706D4DFF8C0030068C00539
:101C100001D5012000E000207047DFF8A80300682C
:101C200080040BD5DFF8A0030068C00706D5DFF8F5
:101C30009C030068C00501D5012000E0002070472A
:101C4000DFF88003006880040BD5DFF87C030068B0
:101C5000C00706D4DFF874030068C00501D4012072
:101C600000E000207047DFF85C03006880040BD4BC
:101C7000DFF854030068C00706D5DFF8500300689A
:101C8000C00501D5012000E000207047DFF83403D3
:101C9000006880040BD5DFF830030068C00706D564
:101CA000DFF828030068C00501D4012000E000200F
:101CB0007047DFF818030068000401D4012000E039
:101CC00000207047DFF808030068000701D40120F6
:101CD00000E000207047DFF8F4020068400401D4FF
:101CE000012000E000207047DFF8E0020068800477
:101CF00001D4012000E000207047DFF8D002006826
:101D0000000601D4012000E00020704780B500F0FB
:101D10007AF800F02EF801BDDFF8B812C97ADFF8C2
:101D2000B4228854AB49C97A491CAA4AD172C9B2B3
:101D30000A2902D3A7490022CA727047A548807AAF
:101D4000A44AD27A904201D1002011E0A148807AC1
:101D5000A04A805C01009F48807A401C9D4A907296
:101D6000C0B20A2802D39B48002282720800C0B287
:101D7000704780B501214FF49A70FFF793FE03205E
:101D80008DF8020004208DF803004FF40050ADF8E8
:101D9000000000A9914800F04BF90120ADF80000C7
:101DA00000A98F4800F044F94FF48070ADF80000AE
:101DB00000A98C4800F03CF94FF40040ADF8000059
:101DC00000A9884800F034F90820ADF8000000A907
:101DD000854800F02DF94FF48040ADF8000000A9CF
:101DE000804800F025F94FF40050ADF8000000A93C
:101DF0007C4800F01DF98020ADF8000000A979486A
:101E000000F016F901BD734900228A72714900225F
:101E1000CA72704900220A7300210800C0B20A2861
:101E20001FD2C0B26C4911EB001164220A81C0B20A
:101E3000694911EB001102220A71C0B2664911EB27
:101E4000001100228A72C0B2634911EB0011002216
:101E5000CA72C0B2604911EB001100220A73401C23
:101E6000DCE75D4964220A875B49052281F83B2053
:101E700059496422A1F848205749052281F84B208E
:101E800055496422A1F858205349052281F85B2066
:101E900051496422A1F868204F49052281F86B203E
:101EA0004D49524A0A604C49514A0A614A49514ACD
:101EB0000A624949504A0A634749504A0A644649F6
:101EC0004F4A0A6544494F4A0A6643494E4A0A67DF
:101ED00041494E4AC1F880203F494D4AC1F89020FF
:101EE000704738B50400E4B23B4810EB041005001D
:101EF00028688047002845D02879052802D2052087
:101F000028715DE028790A2803D22879401C2871BD
:101F100056E0A87A002809D10120A872E4B2032073
:101F200000FB04F0401CC0B2FFF7F6FE2889012830
:101F300046D3E888298988420FD2E888401CE88087
:101F4000298980B288423BD1E4B2032000FB04F02F
:101F5000C01CC0B2FFF7E0FE32E0E87A01282FD3C0
:101F6000287B401C2873E97AC0B2884228D300201D
:101F70002873E4B2032000FB04F0401CC0B2FFF75A
:101F8000CBFE1DE02879062802D30520287113E036
:101F90002879002803D02879401E28710CE0A87AFF
:101FA000012809D10020A872E4B2032000FB04F04C
:101FB000801CC0B2FFF7B0FE0020E880002028732C
:101FC00031BD000008100140080801400820014010
:101FD00008140140504E00205C4C002000100140CD
:101FE000000801400020014000140140F51B0008DA
:101FF0001B1C0008411C0008B31C0008C51C00087D
:10200000D71C0008E91C0008FB1C0008671C00081E
:102010008D1C000810B500200400E4B20A2C05D283
:102020002000C0B2FFF75DFF641CF6E710BD0000A2
:10203000F0B500270022002300240025002691F897
:1020400003C01CF00F0C674691F803C05FEACC6C2C
:1020500003D591F802C05CEA070791F800C05FEA77
:102060000C6C3AD0D0F800C065465FF0000C6346B7
:10207000082B31D25FF0010C1CFA03FC6446B1F866
:1020800000C014EA0C0C6246A24223D15FEA830C22
:1020900064465FF00F0C1CFA04FC6646B54317FA61
:1020A00004FC5CEA050591F803C0BCF1280F06D1D9
:1020B0005FF0010C1CFA03FCC0F814C00AE091F8B0
:1020C00003C0BCF1480F05D15FF0010C1CFA03FC02
:1020D000C0F810C05B1CCBE70560B1F800C04FF43E
:1020E000807EF4453FD3D0F804C065465FF0000C15
:1020F0006346082B36D25FF0010C13F1080E1CFA70
:102100000EFC6446B1F800C014EA0C0C6246A24210
:1021100026D15FEA830C64465FF00F0C1CFA04FCC6
:102120006646B54317FA04FC5CEA050591F803C05E
:10213000BCF1280F07D15FF0010C13F1080E1CFA57
:102140000EFCC0F814C091F803C0BCF1480F07D1D1
:102150005FF0010C13F1080E1CFA0EFCC0F810C061
:102160005B1CC6E74560F0BD80B500F01AF800F0D2
:1021700045F800F003F800F08BF801BD80B50121AF
:102180000820FFF78FFC03208DF8020010208DF847
:1021900003000420ADF8000000A99048FFF748FFB5
:1021A00001BD8D488E4901608B488E4941608A4847
:1021B0008D49816088484FF48061818186484FF461
:1021C0008061C181844800210182834800214182CD
:1021D00081480021C1828048002101837E4800217E
:1021E00041837D48002181827B480021C1617A487A
:1021F00000210162784800214162704700B585B036
:1022000001210520FFF74EFC01214FF48040FFF72C
:1022100049FC4FF40070ADF8000018208DF8030061
:1022200003208DF8020000A97048FFF701FF4FF46A
:102230008060ADF8000004208DF8030000A96B4811
:10224000FFF7F6FE5FF4E13001900020ADF80800E2
:102250000020ADF80A000020ADF80C000020ADF819
:1022600010000C20ADF80E0001A95D4800F0C0F888
:10227000012240F225515A4800F03AF9012158480C
:1022800000F028F94021564800F075F905B000BD6E
:1022900080B525208DF8000001208DF80100002078
:1022A0008DF8020001208DF8030000A8FFF763FC01
:1022B00001BD38B5040040F22551206800F061F9F5
:1022C00000281DD0206800F042F90500E08AA168CE
:1022D0004554E08A401CE082E18980B2884201D303
:1022E0000020E082608BE189884202D2608B401C32
:1022F0006083606A002803D02800C0B2616A884702
:1023000040F22771206800F03CF9002823D0A08A11
:1023100000280CD1002240F22771206800F0E8F874
:10232000012240F22661206800F0E2F83CE0608A79
:102330006168415C89B2206800F005F9608A401C40
:102340006082A18980B2884201D300206082A08A85
:10235000401EA08228E040F22661206800F011F9BA
:10236000002821D0A08A00280BD1002240F226614B
:10237000206800F0BDF8206A002815D0206A804748
:1023800012E0608A6168415C89B2206800F0DBF885
:10239000608A401C6082A18980B2884201D30020FB
:1023A0006082A08A401EA08231BD80B50A48FFF736
:1023B00080FF01BD38B504000D002100C9B289B20B
:1023C000074800F0C0F84021054800F0C4F8002894
:1023D000F9D0200032BD0000C44D0020000C0140A7
:1023E000003801405C4400205C48002000080140A7
:1023F0002DE9F04786B004000D00002600275FF0AD
:1024000000085FF000095FF0000AA8890028A246D2
:10241000208A06004CF6FF700640E88806432682B4
:10242000A08906004EF6F3100640A88829890843C3
:10243000698908430643A681A08A06004FF6FF403B
:102440000640A8890643A68200A8FFF7BDFA2048E7
:10245000824502D10398070001E002980700A08995
:10246000000408D5192000FB07F029684900B0FBDB
:10247000F1F0804607E0192000FB07F02968890089
:10248000B0FBF1F080466420B8FBF0F000010600DC
:102490003009642101FB10808146A089000409D520
:1024A0005FEAC90032306421B0FBF1F010F00700A0
:1024B000064308E05FEA091032306421B0FBF1F016
:1024C00010F00F000643268106B0BDE8F08700003B
:1024D00000380140C9B2002904D0828952F4005268
:1024E000828104E082894DF6FF731A408281704731
:1024F000F0B4002300240025002640F66A1789B2B4
:10250000B94206000F00FFB27F09FFB23B0089B25B
:1025100011F01F073C000127A7403D00012B01D10E
:102520000C3604E0022B01D1103600E01436D2B292
:10253000002A03D037682F43376002E03768AF4383
:102540003760F0BC7047CA05D20D82807047808822
:10255000C005C00D7047020000204FF4007389B21F
:10256000994213880B4202D00123180001E0002396
:102570001800C0B2704789B28A0589B2CA43028086
:10258000704770B40200002300250024002040F6AC
:102590006A1689B2B1420E00F6B27609F6B234007C
:1025A00089B211F01F063500012616FA05F5012C37
:1025B00002D19689354006E0022C02D1168A3540B8
:1025C00001E0968A354089B20E0AB6B23300012680
:1025D00016FA03F316883340002D04D0002B02D0E6
:1025E0000126300001E000263000C0B270BC704708
:1025F00080B500F01FF900F09EF800F0EBF8FDF751
:10260000C9FEFEE770B5FEB0040044F62066FFF791
:1026100095FB0500EDB2002D25D0EDB22800012874
:1026200002D0042818D01EE06D4800F00FF96D4864
:1026300000F00CF900A8FEF7C0FA00A96A4800F003
:1026400005F96A4800F002F900A8FEF719FB00A995
:10265000654800F0FBF806E0654800F0F7F8300048
:10266000FDF764FEFFE701216248006800F088F989
:102670000A20FDF75BFECAE738B504004FF4FA758F
:10268000FDF734FF0090022000F047FA032000F02D
:1026900044FA02215748006800F072F9290000A8A6
:1026A000FDF7ECFDEFE738B504004FF47A75FDF760
:1026B0001DFF0090012000F030FA042000F02DFAF8
:1026C00004214C48006800F05BF9290000A8FDF7E0
:1026D000D5FDEFE710B50400FFF79CFC0821454845
:1026E000006800F04DF90A20FDF720FEF4E770B510
:1026F00082B00400642640F6354000F03FFA3E48C0
:1027000000F0A4F83D4800F0A1F83B4800F09EF826
:102710000096012301220F213648006800F0B6F828
:10272000050015F00F000F28F2D100F048FA3448E8
:1027300000F08CF8ECE700B585B000200390002095
:102740000290002001900120009000234FF40072BD
:102750002C492D48FDF7ECFC00200390002002904E
:102760002A4801900220009000234FF4007228496B
:102770002848FDF7DDFC0020039000200290264849
:1027800001900320009000234FF400722349244855
:10279000FDF7CEFC00200390002002900020019065
:1027A0000420009000234FF400721E491E48FDF7DC
:1027B000BFFC002003900020029000200190052023
:1027C000009000234FF4007218491948FDF7B0FC3F
:1027D00005B000BD80B500F04BF80649086001BDAA
:1027E0000C2E0008402E000828300008702E00082B
:1027F000582D0008844E00209C2D0008982F0008BA
:10280000182F0008C82F0008052600087C4E00205D
:10281000D42F000879260008804E0020E02F000801
:10282000A7260008EC2F0008D5260008F82F00087E
:10283000EF26000880B54FF44070FFF797F9FFF7D7
:1028400093FC00F013F9FFF761FA01BD0EB400B577
:1028500082B003A9009100AB0246012103487844ED
:102860000A30FFF720F806BC5DF810FB09070000EE
:1028700010B51C20FEF726FC0400002C04D000201C
:102880002060201DFEF79AFB200010BD2DE9F14FBE
:1028900084B00C0015001E000E9FDDF810805FF064
:1028A000000A002000900498002802D1FEF797FA51
:1028B000FEE714F07F4F02D0FEF791FAFEE7002CFE
:1028C00002D1FEF78CFAFEE7FDF792FDD8F800B0D2
:1028D00032002100584600F0B6F802900298002815
:1028E0000AD0D94600200700002D1AD0D8F80000E1
:1028F000A043C8F8000014E0002F01D1D94610E031
:10290000002D01D05AF0807A002E01D05AF0806A52
:102910003A005AEA040118F10400FDF726FF0020EE
:102920008146FDF76DFD0190002F25D0019800280C
:1029300001D1FEF7DDFAFEF7FBF981465FEA891067
:1029400016D4FEF7DEFAD8F80000814632002100E6
:10295000484600F078F8002806D0002D04D0D8F8BA
:102960000000A043C8F80000FEF7E3FA0020009042
:102970005FEA09295FEA1929484605B0BDE8F08FEA
:102980002DE9F14F82B00C005FF00009DDF808A0DE
:102990005FF0000B0298002802D1FEF720FAFEE754
:1029A00014F07F4F02D0FEF71AFAFEE71AF1040086
:1029B0000090009808300190FDF71AFD0098C0685B
:1029C0000500DAF800002043CAF8000001988542AB
:1029D0002CD068680600286807000020834617F09E
:1029E0007F4080463F023F0A5FEA481006D4DAF88B
:1029F0000000074209D00120834606E0DAF8000013
:102A00003840B84201D101208346BBF1000F0BD002
:102A10005FEAC81001D557EA0909DAF8000050F05A
:102A200000712800FDF7EEFE3500CFE7DAF8000070
:102A300030EA0900CAF80000FDF7E2FC0100DAF80C
:102A40000000BDE8FE8F10B403000020002A04D16E
:102A50000B4208D00124200005E011EA03048C4257
:102A600001D10124200010BC7047000080B5012175
:102A70008020FFF717F8012000F02FF8022000F067
:102A80002CF8032000F029F8042000F026F8032099
:102A90008DF8020010208DF803004FF40060ADF8AF
:102AA000000000A93248FFF7C3FA8020ADF800000B
:102AB00000A92F48FFF7BCFA4FF48070ADF8000072
:102AC00000A92B48FFF7B4FA4FF40070ADF80000EE
:102AD00000A92748FFF7ACFA01BD401EC0B200288C
:102AE00004D124494FF400620A6015E0C0B2012805
:102AF00003D1204980220A600EE0C0B2022804D12E
:102B00001C494FF480720A6006E0C0B2032803D16A
:102B100018494FF400720A607047C0B2012806D10C
:102B20001549096891F40061134A11601EE0C0B2B2
:102B3000022806D11049096891F080010E4A1160FF
:102B400014E0C0B2032807D10B4909684FF4807222
:102B50005140094A116009E0C0B2042806D1064973
:102B600009684FF400725140034A11607047000039
:102B7000001C0140101C01400C1C014010B5040059
:102B80007D20FEF7ADFF002801D0FEF7D1FF012028
:102B9000FEF716FF6120FEF7A3FF0028FAD045F2EA
:102BA000555000F011F8052000F012F8200080B216
:102BB00000F012F800F014F800F017F810BD80B51E
:102BC00000F00EF801BD00000A4980B208607047AD
:102BD0000949C0B208607047084980B20860704770
:102BE00004484AF6AA210160704702484CF6CC41DD
:102BF0000160704700300040043000400830004061
:102C000080B54E48006850F001004C4908604C48BF
:102C100000684C4908404A490860484800684A49E9
:102C20000840464908604548006830F48020434920
:102C300008604348006830F4FE004149086043489A
:102C40005FF41F01016000F005F841485FF000618A
:102C5000016001BD80B500F001F801BD82B0002027
:102C60000190002000903548006850F480303349CE
:102C700008603248006810F4003000900198401C51
:102C800001900098002803D10198B0F5A06FF0D111
:102C90002A480068800302D50120009001E000204E
:102CA00000900098012847D12A48006850F0100091
:102CB0002849086027480068800880002549086086
:102CC0002448006850F00200224908601C481C4952
:102CD000096801601A481A490968016018480068C3
:102CE00050F48060164908601548006830F47C1084
:102CF000134908601248006850F4E8101049086051
:102D00000E48006850F080700C4908600B4800685D
:102D10008001FBD50A4800688008800008490860E7
:102D20000748006850F00200054908600448006840
:102D300010F00C000828F9D102B0704700100240D2
:102D4000041002400000FFF8FFFFF6FE08100240EA
:102D500008ED00E0002002404B32B0B4BCFCB0B43F
:102D6000CFC2A3ACC8C3765461736B5461736B5507
:102D70007365724946C8CECEF1D1D3B3D932307320
:102D8000A3ACD2D4CAB5CFD6BFB4C3C5B9B7B8B453
:102D9000CEBBC7E9BFF60D0A000000003D3D3D3D3A
:102DA0003D3D3D3D3D3D3D3D3D3D3D3D3D3D3D3D53
:102DB0003D3D3D3D3D3D3D3D3D3D3D3D3D3D3D3D43
:102DC0003D3D3D3D3D3D3D3D3D3D3D3D3D3D3D3D33
:102DD0003D0D0A007047084800221100C9B22A2997
:102DE00009D2C9B20A5C054B1A80054A12885206FC
:102DF000FBD5491CF2E7FEE79C2E00080438014091
:102E000000380140FEE7FEE7FEE770473D3D3D3DEF
:102E10003D3D3D3D3D3D3D3D3D3D3D3D3D3D3D3DE2
:102E20003D3D3D3D3D3D3D3D3D3D3D3D3D3D3D3DD2
:102E30003D3D3D3D3D3D3D3D3D3D3D3D3D0D0A0062
:102E4000C8CECEF1C3FB202020202020C8CECEF15A
:102E5000D7B4CCAC20D3C5CFC8BCB6202020CAA3E1
:102E6000D3E0D5BB20C8CECEF1D0F2BAC50D0A0052
:102E70000D0AC8CECEF1C3FB20202020202020D474
:102E8000CBD0D0BCC6CAFD2020202020202020206E
:102E9000CAB9D3C3C2CA0D0A000000000D0A456EAC
:102EA00074657220486172644661756C745F486134
:102EB0006E646C65722C2053797374656D20486163
:102EC0006C742E0D0A00000010B5084979441C31BD
:102ED000074C7C441A34A14206D0081D0A685118D8
:102EE00088470146A142F8D110BD00BF080000008C
:102EF000280000003BE4FFFF744E00005C0000204F
:102F00000000000057E1FFFF5C00000044020000E9
:102F10000000002000000000CEE5B8F6D3C3BBA738
:102F2000C8CECEF1B6BCD5FDB3A3D4CBD0D00D0A5C
:102F30000000000000F009F8002801D0FFF7C4FFEE
:102F40000020FFF755FB00F002F80120704700F069
:102F500001B800000746384600F002F8FBE7000021
:102F600080B5C046C046024A11001820ABBEFBE740
:102F70002600020038B504460D46284600F006F843
:102F8000A84218BF0024204632BD00000149FFF7C7
:102F900011BA00BF000000203DCFB5CDB3BFAABB22
:102FA000FAD6B4D0D00D0A00092563092575092584
:102FB000750925750D0A0000014880470148004742
:102FC000012C00081D300008765461736B55736541
:102FD00072494600765461736B4C45440000000012
:102FE000765461736B4D736750726F0076546173E2
:102FF0006B5363616E000000765461736B537461B0
:10300000727400000925750909257525250D0A002A
:1030100009257509093C3125250D0A00C046C04621
:10302000C046C046FFF786FF25730D0A000000006A
:1030300049444C450000000008000000FFF7CABEEC
:10304000FFF7C9BEFFF7DEBEFFF7DDBEFFF7DCBE50
:10305000FDF7CFBEFFF7D9BEFDF7A2BEFDF77EBFDD
:10306000FFF7FEBFFFF7FEBFFFF7FEBFFFF7FEBF94
:10307000FFF7FEBFFFF7FEBFFFF7FEBFFFF7FEBF84
:10308000FFF7FEBFFFF7FEBFFFF7FEBFFFF7FEBF74
:10309000FFF7FEBFFFF7FEBFFFF7FEBFFFF7FEBF64
:1030A000FFF7FEBFFFF7FEBFFFF7FEBFFFF7FEBF54
:1030B000FFF7FEBFFFF7FEBFFFF7FEBFFFF7FEBF44
:1030C000FFF7FEBFFFF7FEBFFFF7FEBFFFF7FEBF34
:1030D000FFF7FEBFFFF7FEBFFFF7FEBFFFF7FEBF24
:1030E000FFF7FEBFFFF7FEBFFFF7FEBFFFF7FEBF14
:1030F000FFF7FEBFFFF759B9FFF7FEBFFFF7FEBFAF
:10310000FFF7FEBFFFF7FEBFFFF7FEBFFFF7FEBFF3
:10311000FFF7FEBFFFF7FEBFFFF7FEBFFFF7FEBFE3
:10312000FFF7FEBFFFF7FEBFFFF7FEBFFFF7FEBFD3
:10313000FFF7FEBFFFF7FEBFFDF7AFBFFFF7FEBF14
:10314000FFF7FEBFFFF7FEBFFFF7FEBFFFF7FEBFB3
:1031500002040101744D0020C44D0020744D002074
:10316000744D0020744D00203D00002024000020FC
:10317000000000000000000000000000000000004F
:10318000000000000000000000000000000000003F
:1031900000000000010203040102030406070809FD
:0C31A000AAAAAAAA0204060800A24A0477
:040000050800301DA2
:00000001FF
