:020000040800F2
:1000000048520020E90100082D070008C10400083B
:100010002907000855030008BD0F00080000000074
:100020000000000000000000000000004501000882
:10003000AB0300080000000089010008DD0900088A
:10004000030200080302000803020008030200087C
:10005000030200080302000803020008030200086C
:10006000030200080302000803020008030200085C
:10007000030200080302000803020008030200084C
:10008000030200080302000803020008030200083C
:10009000030200080302000803020008030200082C
:1000A000030200080302000803020008030200081C
:1000B0005D0A0008030200080302000803020008AA
:1000C00003020008030200080302000803020008FC
:1000D000030200086D0C0008030200080302000878
:1000E00003020008030200080302000803020008DC
:1000F00003020008030200080302000803020008CC
:1001000003020008030200080302000803020008BB
:100110000302000803020008F90A000803020008AD
:10012000030200080302000803020008030200089B
:10013000DFF80CD000F0A2F800480047291A0008A8
:1001400048520020204B19680868B0E8F00F80F38F
:100150000988BFF36F8F4FF0000080F311884EF0D5
:100160000D0E70470000000006480068006880F32C
:10017000088862B661B6BFF34F8FBFF36F8F00DFA1
:1001800000BF00BF08ED00E0EFF30980BFF36F8F01
:100190000D4B1A6820E9F00F106008B54FF0100001
:1001A00080F3118802F0ACFA4FF0000080F3118860
:1001B000BDE8084019680868B0E8F00F80F30988C6
:1001C000BFF36F8F704700BF40000020EFF3118036
:1001D0004FF0100181F31188704780F31188704748
:1001E000EFF3058070470000064880470648004747
:1001F000FEE7FEE7FEE7FEE7FEE7FEE7FEE7FEE7D7
:10020000FEE7FEE7FD09000831010008D2B201E077
:1002100000F8012B491EFBD270470022F6E710B50B
:1002200013460A4604461946FFF7F0FF204610BD64
:10023000421C10F8011B0029FBD1801A70470346AD
:1002400011F8012B00F8012B002AF9D1184670474C
:1002500030B50B46014600202022012409E021FA96
:1002600002F59D4205D303FA02F5491B04FA02F593
:100270002844151EA2F10102F1DC30BD064C074DE9
:1002800006E0E06840F0010394E807009847103466
:10029000AC42F6D3FFF750FFC02D0008E02D000858
:1002A0001FB500200123CDE90030029003464FF432
:1002B000007217A10390194802F084FB0020184A2D
:1002C0000223CDE901200093039003464FF400720E
:1002D00014A1174802F076FB00200323CDE900307B
:1002E000029003464FF4007212A10390144802F0EA
:1002F00069FB00200423CDE90030029003464FF44F
:10030000007210A10390124802F05CFB1FBD0000B8
:10031000765461736B55736572494600C1270008B6
:1003200000000020765461736B4C454400000000CF
:1003300099240008765461736B4D736750726F0097
:1003400085250008765461736B53746172740000E4
:10035000B325000800BFFEE7014609B90948704708
:10036000012901D10020FAE7022901D10020F6E796
:10037000032901D10020F2E7042901D10020EEE792
:100380000020ECE75801002008B525208DF800007A
:1003900001208DF8010000208DF8020001208DF869
:1003A0000300684600F0C4F908BD70472DE9F0412C
:1003B000024600250026002000230024002791F893
:1003C00003C00CF00F0591F803C01CF0100F03D010
:1003D00091F802C04CEA050591F800C0BCF1000F8D
:1003E00031D0146800202BE04FF0010C0CFA00F320
:1003F000B1F800C00CEA03069E4220D183004FF002
:100400000F0C0CFA03F7BC4305FA03FC4CEA040496
:1004100091F803C0BCF1280F06D14FF0010C0CFA83
:1004200000FCC2F814C00AE091F803C0BCF1480F08
:1004300005D14FF0010C0CFA00FCC2F810C0401CB2
:100440000828D1D31460B1F800C0BCF1FF0F34DD2F
:10045000546800202EE000F1080C4FF0010808FA63
:100460000CF3B1F800C00CEA03069E4221D18300D0
:100470004FF00F0C0CFA03F7BC4305FA03FC4CEAEF
:10048000040491F803C0BCF1280F05D100F1080C59
:1004900008FA0CF8C2F8148091F803C0BCF1480FB8
:1004A00007D100F1080C4FF0010808FA0CF8C2F867
:1004B0001080401C0828CED35460BDE8F0810000B5
:1004C00009A100200BE00A5C124B1A8000BF114A00
:1004D000121F128812F0400FF9D0421CD0B22A2805
:1004E000F1D300BFFEE700000D0A456E746572206F
:1004F000486172644661756C745F48616E646C65D6
:10050000722C2053797374656D2048616C742E0DC4
:100510000A0000000438014000B585B00121052023
:1005200000F05AF90121880300F056F94FF40070E9
:10053000ADF8100018208DF8130003208DF812007C
:1005400004A91848FFF732FF4FF48060ADF810009F
:1005500004208DF8130004A91248FFF727FF4FF479
:10056000E13000900020ADF80400ADF80600ADF8D1
:100570000800ADF80C000C20ADF80A0069460A48E6
:1005800000F0E0FB012240F22551074800F0B5FBE6
:100590000121054800F07BFB4021034800F06EFB81
:1005A00005B000BD000801400038014009488068DE
:1005B00010F4005F0BD10848006810F0010F06D15D
:1005C0000648806810F4807F01D001207047002029
:1005D000FCE7000000100140080801400020014035
:1005E0000948806810F4005F0BD00848006810F0DC
:1005F000010F06D00648806810F4807F01D10120E9
:1006000070470020FCE7000000100140080801408E
:10061000002001400948806810F4005F0BD00848B2
:10062000006810F0010F06D00648806810F4807F43
:1006300001D0012070470020FCE7000000100140BD
:1006400008080140002001400948806810F4005F5C
:100650000BD00848006810F0010F06D106488068EA
:1006600010F4807F01D1012070470020FCE70000DA
:100670000010014008080140002001400448806843
:1006800010F4004F01D1012070470020FCE700006A
:10069000002001400448006810F0080F01D101203B
:1006A00070470020FCE700000814014004488068FF
:1006B00010F4804F01D1012070470020FCE70000BA
:1006C000002001400448806810F4005F01D101203F
:1006D00070470020FCE700000020014004488068CB
:1006E00010F0800F01D1012070470020FCE70000CE
:1006F000002001400948806810F4005F0BD10848D1
:10070000006810F0010F06D00648806810F4807F62
:1007100001D0012070470020FCE7000000100140DC
:10072000080801400020014000BFFEE770470000BC
:1007300070B5002100230F22C4780CB3164C246836
:1007400004F4E064C4F5E064210AC1F10403CA4082
:10075000447804FA03F184781440214309010F4CD2
:100760000678A155047804F01F050124AC400578F3
:100770006D114FF0E02606EB8505C5F8004109E054
:10078000047804F01F050124AC40054D067876116D
:1007900045F8264070BD00000CED00E000E400E0EC
:1007A00080E100E002490143024A11607047000005
:1007B0000000FA050CED00E029B1064AD2690243B7
:1007C000044BDA6104E0034AD2698243014BDA61E7
:1007D000704700000010024029B1064A92690243A6
:1007E000044B9A6104E0034A92698243014B9A6187
:1007F000704700000010024030B5002100220024A4
:1008000000232D4D6D6805F00C0121B1042905D0A0
:10081000082923D105E0294D056022E0274D056018
:100820001FE0254D6D6805F47012234D6D6805F4C9
:100830008034022505EB92421CB9214D55430560D9
:100840000BE01D4D6D6815F4003F03D01C4D554362
:10085000056002E0194D5543056002E0174D056043
:1008600000BF00BF144D6D6805F0F0010909154D7A
:100870006B5C0568DD4045600F4D6D6805F4E06117
:10088000090A104D6B5C4568DD4085600A4D6D6856
:1008900005F46051C90A0B4D6B5C4568DD40C560CD
:1008A000054D6D6805F44041890B074D6B5CC568CB
:1008B000B5FBF3F5056130BD0010024000127A006F
:1008C00000093D00180000202800002008B5012183
:1008D0000820FFF781FF03208DF8020010208DF81B
:1008E00003000420ADF8000069460248FFF75EFDF2
:1008F00008BD0000000C014010B500F001F810BD6B
:100900000CB50020019000903248006840F480301F
:100910003049086000BF2F48006800F400300090A4
:100920000198401C0190009818B90198B0F5A06F8B
:10093000F1D12848006810F4003F02D00120009057
:1009400001E0002000900098012842D12248006870
:1009500040F01000204908600846006820F00300BD
:1009600008600846006840F00200086019484068C6
:10097000184948600846406848600846406840F4A6
:10098000806048600846406820F47C104860084653
:10099000406840F4E81048600846006840F0807005
:1009A000086000BF0B48006810F0007FFAD00948CB
:1009B000406820F00300074948600846406840F05E
:1009C0000200486000BF0348406800F00C0008289F
:1009D000F9D10CBD001002400020024010B5FFF715
:1009E000F5FB02F091F818B14FF080500249086011
:1009F0000020FFF7F2FB10BD04ED00E010B5134836
:100A0000006840F00100114908600846406810493C
:100A100008400E494860084600680E4908400B49E6
:100A200008600846006820F4802008600846406896
:100A300020F4FE0048604FF41F008860FFF75CFF61
:100A40004FF000600449086010BD00000010024033
:100A50000000FFF8FFFFF6FE08ED00E010B50221F0
:100A6000480700F08DF858B10221480700F076F8E9
:100A700000220221480700F094F81B4800688047D4
:100A80000421080700F07CF858B10421080700F0A1
:100A900065F800220421080700F083F81348006875
:100AA00080470821C80600F06BF858B10821C80635
:100AB00000F054F800220821C80600F072F80C4833
:100AC000006880471021880600F05AF858B11021BC
:100AD000880600F043F800221021880600F061F833
:100AE00004480068804710BD080000200C0000206A
:100AF000100000201400002010B50121064800F06D
:100B00003FF840B105480068401C044908600121D5
:100B1000014800F023F810BD001000400400002040
:100B200021B1028842F08002028004E002884FF680
:100B30007F731A400280704710B50648006802F0C3
:100B4000F5F80446012C03D114B1000702490860EE
:100B500010BD00000000002004ED00E0CA43028246
:100B6000704721B1028842F00102028004E002884D
:100B70004FF6FE731A40028070470146888C70471A
:100B800030B50246002000230024158A05EA01033F
:100B9000958905EA010413B10CB1012000E00020A1
:100BA00030BD1AB183890B43838102E083898B4373
:100BB00083817047818670470187704781877047BE
:100BC000A0F8401070470000002202881D4B984298
:100BD0000ED01D4B98420BD0B0F1804F08D01B4B6C
:100BE000984205D01A4B984202D01A4B984204D131
:100BF0004FF68F731A404B881A43174B984207D011
:100C0000164B984204D04FF6FF431A40CB881A4344
:100C100002808B8883850B8803850A4B98420BD012
:100C2000094B984208D00E4B984205D00D4B984284
:100C300002D00D4B984201D10B7A038601238382A7
:100C400070470000002C01400034014000040040C7
:100C500000080040000C004000100040001400405C
:100C600000400140004401400048014010B50248E6
:100C700000F0DDF810BD00005801002001F4007202
:100C8000B2F5007F00D100BFCA430280704721B196
:100C9000828942F40052828104E082894DF6FF731A
:100CA0001A408281704770B5024600240023002557
:100CB0000020A1F510666A3E00D100BFC1F34215C5
:100CC00001F01F03012606FA03F3012D02D19689D4
:100CD000334006E0022D02D1168A334001E0968AA5
:100CE00033400C12012606FA04F41688344013B17E
:100CF0000CB1012000E0002070BDF0B503460024D7
:100D0000002600250020A1F510676A3F00D100BF32
:100D10001846C1F3421401F01F06012707FA06F531
:100D2000012C01D10C3004E0022C01D1103000E084
:100D300014301AB107682F43076002E00768AF4319
:100D40000760F0BD2DE9F04786B005460E46002449
:100D5000A24600BFA1460027B08900B100BF2F46C0
:100D60002C8A4CF6FF700440F08804432C82AC8936
:100D70004EF6F3100440B088318908437189084366
:100D80000443AC81AC8A4FF6FF400440B089044371
:100D9000AC8201A8FFF730FD1F48874202D1DDF881
:100DA00010A001E0DDF80CA0A88910F4004F08D0D5
:100DB0000AEBCA0000EB0A1031684900B0FBF1F8F9
:100DC00007E00AEBCA0000EB0A1031688900B0FBAB
:100DD000F1F86420B8FBF0F004012009642101FB64
:100DE0001089A88910F4004F08D0322000EBC90008
:100DF000B0FBF1F000F00700044308E0322000EB04
:100E000009106421B0FBF1F000F00F0004432C81C5
:100E100006B0BDE8F0870000003801400146888830
:100E2000C0F308007047C1F308028280704770B5B4
:100E3000044640F225512068FFF735FFE0B12068F5
:100E4000FFF7ECFFC5B2E18AA0684554E08A401C78
:100E500080B2E082E189884201DB0020E082608B81
:100E6000E189884202DA608B401C6083606A10B1BD
:100E70002846616A884700BF40F227712068FFF763
:100E800012FF08B3A08A60B9002240F227712068DF
:100E9000FFF733FF012240F226612068FFF72DFFA4
:100EA00037E0638A6268D15C2068FFF7BCFF608A24
:100EB000401C80B26082A189884201DB00206082F0
:100EC000A08A401EA08224E040F226612068FFF73D
:100ED000EAFEF0B1A08A50B9002240F226612068F3
:100EE000FFF70BFF206AA0B1206A804711E0638AF8
:100EF0006268D15C2068FFF796FF608A401C80B270
:100F00006082A189884201DB00206082A08A401EA5
:100F1000A08270BDF8B504460E461746002525E0B0
:100F20000CE001F0F7F8A08A009001F015F9A08913
:100F3000BDF80010884200DD01E000BFF1E700BF0E
:100F4000705D228A6168885401F0E4F8208A401CB0
:100F500080B22082A189884201DB00202082A08A01
:100F6000401CA08201F0F8F8681C85B2BD42D7DBB6
:100F7000012240F227712068FFF7BFFEF8BD000094
:100F80000A480B4908600B4848600B4888604FF4DA
:100F900080608881C881002008824882C8820883D6
:100FA00048838882C86108624862704700380140FF
:100FB00058010020800100208005002000BFFEE7CE
:100FC0000FB4054B10B503A9044A029800F02CF8A1
:100FD00010BC5DF814FB0000171A0008A4000020E4
:100FE0000FB4084B10B504A902AA039800F01CF82E
:100FF000044602A9002000F0F3F8204610BC5DF87A
:1010000014FB0000E111000802E008C8121F08C12B
:10101000002AFAD170477047002001E001C1121F79
:10102000002AFBD1704700002DE9FF4F8BB09A4694
:101030000F4605460026C9E0252837D100246D1C3F
:101040006649A04601222B78203B02FA03F00842B1
:1010500002D004436D1CF6E728782E2817D115F826
:10106000010F44F004042A280ED06FF02F022878D4
:10107000A0F1300109290AD808EB880102EB4101EF
:1010800000EB01086D1CF2E757F8048B6D1C287803
:1010900069283FD006DC002871D063280CD0642872
:1010A00004D137E0732811D075284ED052460D99DF
:1010B000904706F1010688E017F8040B8DF8000050
:1010C00000208DF80100E946012003E057F8049B59
:1010D0004FF0FF3061074FF0000401D40AE0641CB8
:1010E00044450DDA8442FADB19F804100029F6D1E0
:1010F00006E0641C8442FCDB19F804100029F8D1D6
:10110000264404E019F8010B52460D999047641EDD
:10111000F8D25AE001CF4FF00A0B002804DAC0F1F0
:1011200000004FF02D0102E0210504D52B218DF8A0
:101130002410012103E0E10705D02021F7E70DF19C
:10114000200908910CE00021F9E701CF4FF00A0BCC
:10115000F9E75946FFF77CF801F1300209F8012D53
:101160000028F6D1ADEB090000F1200B600701D497
:101170004FF00108D84503DDA8EB0B0001E029E0A2
:1011800000208046002406E009A85246005D0D9923
:101190009047761C641C08988442F5DB04E03020FC
:1011A00052460D999047761CB8F10001A8F101084C
:1011B000F5DC05E019F8010B52460D999047761CB5
:1011C000BBF10001ABF1010BF4DC6D1C28780028A9
:1011D0007FF432AF0FB03046BDE8F08F0928010030
:1011E0000A68531C0B6010707047000070B505460C
:1011F000304800EB05142068804700283ED0207955
:10120000052802DA0520207152E020790A2803DA45
:101210002079401C20714BE0A07A38B90120A072DF
:1012200005EB4501491CC8B200F05CFA2089002892
:101230003EDDE088218988420DDAE088401C80B2DA
:10124000E0802189884233D105EB4501C91CC8B231
:1012500000F048FA2CE0E07A002829DD207B401CD1
:10126000C0B22073E17A884222DB0020207305EBB4
:101270004501491CC8B200F035FA19E0207905286B
:1012800002DD0520207110E0207918B12079401E80
:1012900020710AE0A07A012807D10020A07205EB96
:1012A0004501891CC8B200F01DFA0020E0802073BF
:1012B00070BD0000A80000200B48807A0A4AD27A4C
:1012C000904201D1002070470748807A064A115C9D
:1012D0001046807A401CC0B290720A2801DB0020C0
:1012E00090720846EFE70000480100200146002008
:1012F000244A914201D1C81442E0234A914201D1CB
:1013000048143DE0214A914202D14FF4002037E0D9
:101310001F4A914202D14FF4801031E01D4A9142A0
:1013200002D14FF400102BE0B1F1804F01D1012028
:1013300026E0194A914201D1022021E0174A914248
:1013400001D104201CE0164A914201D1082017E087
:10135000144A914201D1102012E0134A914201D166
:1013600020200DE0114A914201D1402008E0104AAE
:10137000914201D1802003E00E4A914200D18815AC
:1013800070470000002C014000340140004C014037
:10139000005001400054014000040040000800409B
:1013A000000C0040001000400014004000180040F5
:1013B000001C00400020004010B54FF44070FFF7C3
:1013C000F1F900F035F900F0FBF800F037F800F023
:1013D00001F810BD7FB501210846FFF7EDF915486A
:1013E000006846081448B6FBF0F085B24FF6FF746B
:1013F000ADF80840ADF804500020ADF80A00ADF893
:10140000060001A94FF08040FFF7DEFB01218807AD
:10141000FFF7A7FB1C208DF8000004208DF80100C9
:1014200000208DF8020001208DF803006846FFF7C8
:101430007FF97FBD2C00002040420F0010B500F066
:1014400055F800F001F810BD08B501214FF49A706D
:10145000FFF7C2F903208DF8020004208DF8030085
:10146000C002ADF8000069461C48FEF79FFF01204E
:10147000ADF8000069461A48FEF798FF4FF48070F7
:10148000ADF8000069461748FEF790FF4FF40040A2
:10149000ADF8000069461348FEF788FF0820ADF854
:1014A000000069461048FEF781FF4FF48040ADF818
:1014B000000069460B48FEF779FF4FF40050ADF885
:1014C000000069460748FEF771FF8020ADF8000074
:1014D00069460448FEF76AFF08BD0000001001409D
:1014E0000008014000200140001401400021284A6A
:1014F0009172D1721173002018E06421254A02EB29
:10150000001211810221234A02EB00121171002105
:10151000204A02EB001291721E4A02EB0012D172B5
:101520001C4A02EB00121173411CC8B20A28E4DB0A
:10153000642218490A87052281F83B206422A1F819
:101540004820052281F84B206422A1F8582005226A
:1015500081F85B206422A1F86820052281F86B20C5
:101560000D490C4A11600D4911610D4911620D4977
:1015700011630D4911640D4911650D4911660D493D
:1015800011670D49C2F880100C49C2F890107047DD
:1015900048010020A8000020AD050008150600083D
:1015A000490600087D06000895060008AD060008FB
:1015B000C5060008DD060008F5060008E10500087C
:1015C00008B501218020FFF707F9012000F046F857
:1015D000022000F043F8032000F040F8042000F05F
:1015E0003DF803208DF8020010208DF80300C001A3
:1015F000ADF8000069460D48FEF7D8FE8020ADF832
:10160000000069460948FEF7D1FE4FF48070ADF83E
:10161000000069460548FEF7C9FE4FF40070ADF8BA
:10162000000069460148FEF7C1FE08BD001C0140EC
:1016300010B5FFF7A5FCFEF76FFFFFF747F9FEF7C0
:10164000A3FE10BD10B5002404E02046FFF7CEFD38
:10165000601CC4B20A2CF8DB10BD0000411EC8B2E9
:1016600020B94FF400610B4A116011E0012803D149
:101670008021084A11600BE0022803D1C101054A0C
:10168000116005E0032803D14FF40071014A116095
:1016900070470000101C0140012806D1104909685C
:1016A00081F400610E4A116019E0022806D10C494C
:1016B000096881F080010A4A116010E0032806D110
:1016C0000749096881F48071054A116007E0042820
:1016D00005D10349096881F40071014A116070471E
:1016E0000C1C01400649C97A054A50541146C97A72
:1016F000491CC9B2D1720A2901DB0021D17270479D
:10170000480100202DE9FF5F04460D4691469A46A8
:101710007448844202D07448844207D12046FFF7BF
:10172000E5FD83460121FFF757F806E02046FFF765
:10173000DDFD83460121FFF73FF8002D41D1002157
:101740002046FFF70EFAAB466648844202D14FF0BE
:10175000190B28E0B4F1804F02D14FF01C0B22E0AE
:101760006248844202D14FF01D0B1CE06048844265
:1017700002D14FF01E0B16E05E48844202D14FF0BA
:10178000320B10E05C48844202D14FF0360B0AE085
:101790005A48844202D14FF0370B04E05248844249
:1017A00001D14FF02C0B8DF800B08DF801908DF821
:1017B00002A000208DF803006846FEF7B9FFBDE8DF
:1017C000FF9F484884420BD04748844208D04C4889
:1017D000844205D04B48844202D04B48844202D117
:1017E0004A48066801E049480668642D0AD242F278
:1017F0000F7842F21070B6FBF0F0B0FBF5F0401E2F
:1018000087B213E040F6B830854209D24FF0630842
:101810006420B6FBF0F0B0FBF5F0401E87B205E0A7
:101820004FF00008B6FBF5F0401E87B2ADF8087027
:10183000ADF804800020ADF80A00ADF806008DF880
:101840000C0001A92046FFF7BFF901212046FFF750
:1018500067F9012211462046FFF7A3F9012120462E
:10186000FFF77FF94FF0000B1E48844202D14FF082
:10187000190B28E0B4F1804F02D14FF01C0B22E08D
:101880001A48844202D14FF01D0B1CE018488442D4
:1018900002D14FF01E0B16E01648844202D14FF0E1
:1018A000320B10E01448844202D14FF0360B0AE0AC
:1018B0001248844202D14FF0370B04E00A488442B8
:1018C00001D14FF02C0B8DF800B08DF801908DF800
:1018D00002A001208DF803006846FEF729FF00BF33
:1018E0006DE70000002C014000340140000400407E
:1018F00000080040000C00400010004000140040B0
:10190000004C014000500140005401402C000020D8
:101910002DE9F04104460F461546052F00D37F1FE1
:101920004FF08040FFF729F9804608EB0706012CAD
:101930000FD125480560B1B2A007FFF73BF902219E
:101940004807FFF70BF9012202214807FFF729F9A1
:1019500038E0022C0FD11D480560B1B26007FFF7D7
:101960002BF904210807FFF7F9F8012204210807E1
:10197000FFF717F926E0032C10D115480560B1B226
:101980004FF08040FFF71AF90821C806FFF7E6F884
:1019900001220821C806FFF704F913E0042C0FD137
:1019A0000C480560B1B22007FFF70AF9102188063C
:1019B000FFF7D4F8012210218806FFF7F2F801E0C2
:1019C000BDE8F08100BFFBE7080000200C0000200C
:1019D00010000020140000202DE9F04105460E46BD
:1019E00017462846FEF7B8FC04460CB9BDE8F0815E
:1019F000E06908B1E06980473A4631462046FFF782
:101A000089FA00BFF2E713B50446012201A9204676
:101A1000FFF7E2FF1CBD70B504460D46E1B20020A1
:101A2000FFF7F1FF204670BDFFF7C6FC00F030FC69
:101A3000FEF736FC00F0C4FD00BFFEE710B504461B
:101A40000E48006844600E480068844207D20B4884
:101A50000168091D0B48006800F036FB0CE00748E0
:101A60000168091D0848006800F02EFB074800685F
:101A7000844201D20548046010BD000040000020EF
:101A80004C0000207C00002078000020680000202E
:101A90002DE9F04105460F461FB9A80000F006FAEF
:101AA00000E03846064656B1602000F0FFF90446D3
:101AB0000CB1266304E0304600F064FB00E0002433
:101AC00024B1A900A522206BFEF7A0FB2046BDE8AB
:101AD000F081000070B523E000F00AFE13480068B2
:101AE00008B9012000E00020054601F0ABF8BDB9BF
:101AF00000F010FB0D48C068C468201D00F06EFAAD
:101B00000B480068401E0A4908600A480068401EE9
:101B10000849086000F020FB204600F00DF800BFE7
:101B2000044800680028D7D170BD0000200A0020BA
:101B3000480000204400002010B50446206B00F04F
:101B400021FB204600F01EFB10BD000030B54FF415
:101B50008843174810F0070F05D0C01D20F007007C
:101B6000134C041B1B1B0246124C22600024114D17
:101B70006C60D018083820F007000F4C206000245B
:101B80000D4D2D686C600C4D2D682C601146441A6B
:101B90004C60094C24680C60084D4C682C60084D62
:101BA0004C682C604FF00044064D2C6030BD0000A6
:101BB000480A00209C0000208C0000209400002097
:101BC000900000209800002000BFFFF783FF03482B
:101BD00000680128F9D900F04FFBF6E780090020E2
:101BE0002DE9F04704460F4615469946DDF820805A
:101BF000002607E0B95D04F134008155B85D00B9F5
:101C000002E0761C102EF5D300BF002143200155C1
:101C1000052D00D30425E562E56400202065201D24
:101C200000F04FFA04F1180000F04BFA2461C5F1FE
:101C30000500A061646200206065A06584F85C0016
:101C4000BDE8F08710B5002407E004EB84010F4ADB
:101C500002EB810000F028FA641C052CF5D30C4837
:101C600000F022FA0B4800F01FFA0B4800F01CFAB3
:101C70000A4800F019FA0A4800F016FA044809491F
:101C8000086004480849086010BD00008009002071
:101C9000E4090020F80900200C0A0020200A002096
:101CA000340A0020780000207C00002010B5014696
:101CB000164800E0006803688B42FBD30246436885
:101CC00013448B4204D143684C682344436001466B
:101CD0000A464B6813440468A34211D10C4C0368B4
:101CE0002468A34208D04B680468646823444B60AE
:101CF00003681B680B6005E0054B1B680B6001E087
:101D000003680B60884200D0016010BD9C00002079
:101D10008C0000202DE9F04706460C469046002531
:101D2000206800284BD0204641684968416000F196
:101D3000080142688A4202D14168496841604168AD
:101D4000D1F80C9000BF204641684968416000F11D
:101D5000080142688A4202D141684968416041688D
:101D6000CF6806EB4510076007F1340006EB45111C
:101D70004860786C06EB4511886006EB451080F8EA
:101D80000C80F86A06EB45110861B8F1030F05D124
:101D9000B86A18B1022006EB45110873F86C06EB1F
:101DA00045114861786D06EB45118861386B00F08C
:101DB00023F806EB451188836D1C4F45C3D1284697
:101DC000BDE8F0870A490968096809B9012100E0FE
:101DD000002121B14FF0FF31064A116006E00449AD
:101DE0000968C968C868034A416811607047000003
:101DF00078000020680000200246002101E0521C0B
:101E0000491C1078A528FAD0890888B270470000CC
:101E100007480068401C01D1012000E0002018B9EB
:101E2000FEF7D4F900BFFEE7FEF7D0F900BFFEE7EA
:101E30008000002070B5054600262C461DB9FEF72F
:101E4000C5F900BFFEE70C496069884201D1012055
:101E500000E0002070B10949A06A884201D1012048
:101E600000E0002030B9A06A08B9012000E000209D
:101E700000B10126304670BD340A00200C0A002053
:101E800070B505460E4631462846FEF7D8F9284675
:101E9000FEF7CEF9044602E020202855641C0F2CE2
:101EA000FADB00202855281970BD00002DE9F0410B
:101EB00004464FF0000800F01BFC3B48006808B9DE
:101EC000FFF744FE3948006804425DD19CB10834F4
:101ED00014F0070F0FD004F00700C0F1080004440D
:101EE00014F0070F01D1012000E0002018B9FEF71F
:101EF0006DF900BFFEE7002C46D02D4800688442F3
:101F000042D82C4E3046056801E02E462D686868A0
:101F1000A04202D228680028F7D1234800688542F1
:101F200032D0306800F10808286830606868001B0B
:101F3000102812D92F1917F0070F01D1012000E046
:101F4000002018B9FEF742F900BFFEE76868001BE1
:101F500078606C603846FFF7A9FE15496868096823
:101F6000081A13490860084600681349096888423E
:101F700003D20F480068104908600C496868096876
:101F8000084368600020286000F05CFE18F0070F2E
:101F900001D1012000E0002018B9FEF717F900BFB9
:101FA000FEE74046BDE8F0818C000020980000204C
:101FB000900000209C00002094000020001F4FF0A3
:101FC00080730360001F0160001F034B036014381F
:101FD0000260203870470000111E000801460A699F
:101FE000D1E901309860D1E9010358605068884216
:101FF00001D188685060002008611068401E1060A0
:10200000106870472DE9F0410546884616460024C1
:10201000052700F06DFB1D480068804530D300BFE8
:102020007F1E07EB87021A4B03EB820105EB44107E
:102030000122FFF76FFE0444002FF1D105EB44109D
:10204000022214490968FFF765FE044405EB4410B9
:10205000022211490968FFF75DFE044405EB4410B4
:1020600004220E49FFF756FE044405EB44100322F8
:102070000B49FFF74FFE044416B10A480068306070
:1020800000F0E0FD2046BDE8F0810000480000209F
:1020900080090020780000207C000020200A002019
:1020A000340A00200400002000F1080141604FF0D4
:1020B000FF31816000F10801C16001610021016010
:1020C000704700210161704710B502460B685C1C27
:1020D00001D1106907E002F1080000E0406844689F
:1020E00024689C42FAD944684C604C68A1608860BE
:1020F00041600A611468641C146010BD42684A6043
:1021000093688B60936859609160086103685B1CF9
:102110000360704710B5FEF759F80D480068401C81
:102120000B490860BFF34F8FBFF36F8F08460068FD
:1021300001280CD10748006810F0FF0F01D10120E1
:1021400000E0002018B9FEF741F800BFFEE710BD1F
:102150008000002004ED00E010B50948006818B9BF
:10216000FEF734F800BFFEE705480068401E04494A
:1021700008600846006810B90020FEF72EF810BD70
:102180008000002070B506463546002E31D0083D4F
:102190002C46184960680968084201D0012000E017
:1021A000002018B9FEF712F800BFFEE7206808B952
:1021B000012000E0002018B9FEF708F800BFFEE794
:1021C0000C4960680968084213D0206888B9094939
:1021D000606809688843606000F08AFA06496068B0
:1021E00009680844044908602046FFF75FFD00F0D5
:1021F00029FD70BD9800002090000020064800686E
:102200004FF47A71B0FBF1F0401E4FF0E0214861CD
:1022100007200861704700002C00002070B5FDF712
:10222000DFFF0446102C10D34FF0E020204490F83C
:10223000F0530E480078854201DB012000E00020C9
:1022400018B9FDF7C3FF00BFFEE70948006800F4B6
:10225000E06008490968884201D8012000E00020B8
:1022600018B9FDF7B3FF00BFFEE770BD8400002082
:102270000CED00E0880000204FF08050034908601A
:10228000BFF34F8FBFF36F8F7047000004ED00E086
:1022900010B50023012244F620610248FFF732FA0C
:1022A00010BD00000010004070B50446002634B395
:1022B0001548006808B9012000E0002018B9FDF7B2
:1022C00085FF00BFFEE700F013FA1048006805190B
:1022D0000F480068001DFFF781FE50B90C480068E8
:1022E00090F82C10012088400A4909688143094868
:1022F00001602846FFF7A2FB00F0A4FC06460EB9D9
:10230000FFF7BAFF70BD00006C0000204C000020F9
:1023100040000020500000202DE9F04704460E4602
:102320004FF000091CB9FDF751FF00BFFEE70EB1E9
:10233000012000E0002018B9FDF748FF00BFFEE7CC
:102340002148006808B9012000E0002018B9FDF715
:102350003DFF00BFFEE700F0CBF91C48D0F800803D
:10236000206885192068404507D92068A8420BD904
:10237000454509D94FF0010906E02068A84201D877
:10238000454501D94FF001092560B9F1000F13D07F
:102390000F480068001DFFF721FE50B90C48006887
:1023A00090F82C10012088400A49096881430948A7
:1023B00001602846FFF742FB00F044FC07460FB9D6
:1023C000FFF75AFFBDE8F0876C0000204C000020AA
:1023D0004000002050000020FEB505460020287077
:1023E000264800680290254909684801FFF75EFD0C
:1023F0000446002C40D06A4620460299FFF702FEB0
:10240000029064210098B0FBF1F000900098002841
:102410002FD00020019028E0019804EB4010806943
:102420000099B0FBF1F6019804EB40104168284692
:10243000FFF726FD05464EB1019804EB40103346E8
:102440000FA182692846FEF7CBFD07E0019804EB57
:1024500040100EA182692846FEF7C2FD2846FDF70E
:10246000E7FE05440198401C0190DDE90101884226
:10247000D2D32046FFF786FEFEBD000048000020B4
:102480000925750909257525250D0A0009257509F0
:10249000093C3125250D0A0008B500BF00F02EFBD0
:1024A000009009E00220FFF7F7F80320FFF7F4F8A7
:1024B000C8216846FFF730FFF4E700007FB5054606
:1024C000002028702A4800680390294909684801BB
:1024D000FFF7ECFC0446002C49D00022204603996B
:1024E000FFF790FD03900020029039E0029804EB82
:1024F0004010007B012806D0022806D0032806D011
:10250000042808D105E0522607E0422605E05326BC
:1025100003E0442601E0002600BF00BF029804EB60
:10252000401041682846FFF7ABFC0546029804EBD3
:1025300040108068029904EB4111898BCDE90010AD
:10254000029804EB401032460AA103692846FEF7C0
:1025500047FD2846FDF76CFE05440298401C02909A
:10256000DDE902018842C1D32046FFF70BFE7FBDA3
:102570004800002009256309257509257509257579
:102580000D0A000000F0BAFA00F5967510E001207F
:10259000FFF782F80420FFF77FF800F0AFFA2C1A5B
:1025A00005F59675B4F5967F02D82046FFF77CFEB8
:1025B000EDE704E0FFF746F80A20FFF775FEF9E7BC
:1025C0001FB50020009001900290034682220FA1C7
:1025D0000390104800F0F6F90446012C0FD1FDF7E6
:1025E000F5FDA01E0C49086001200C490860002080
:1025F0000B4908600B49086000F094F904E01CB92D
:10260000FDF7E4FD00BFFEE71FBD000049444C4557
:1026100000000000C91B00086800002054000020D2
:102620004C0000200400002070B50546FFF772FD45
:1026300015B92848006800E028460446201DFFF729
:10264000CDFC78B9E06A00EB8000234951F8200006
:1026500040B994F82C100120884020490968814332
:102660001E480160A06A18B104F11800FFF7B6FC1B
:10267000211D1B48FFF742FDFFF76EFD154800685E
:1026800084421DD11748006868B11748006808B92E
:10269000012000E0002018B9FDF798FD00BFFEE71B
:1026A000FFF7EAFD15E00E48006810490968884206
:1026B00003D10020074908600BE000F021F808E092
:1026C0000848006828B1FFF725FDFFF77BFBFFF7FF
:1026D00043FD70BD40000020800900205000002014
:1026E000340A0020540000206C0000204800002024
:1026F00002480068401C0149086070476C000020D7
:1027000010B52748006818B101202649086045E047
:1027100000202449086024480068244908600846CD
:1027200000682349096888420BD92249096801F1E8
:102730005400496D1D4A12681D4B1B68D21A114482
:1027400001601A4800681A4908601B480068B0FA1E
:1027500080F0C0F11F0404EB8400184951F82000F8
:1027600008B1012000E0002018B9FDF72FFD00BFDF
:10277000FEE704EB8401114A02EB810041684968DD
:10278000416000F1080142688A4202D1416849680B
:1027900041604168C968074A116000BF10BD000070
:1027A0006C0000205C000020040000207400002069
:1027B0007000002040000020500000208009002010
:1027C000FEB03AE0FEF778FD0446002C32D0012C32
:1027D00004D00A2C1AD00D2C2AD11FE017A0FEF726
:1027E000EFFB23A0FEF7ECFB01A8FFF767FE01A9B2
:1027F0002BA0FEF7E5FB2CA0FEF7E2FB01A8FFF7FC
:10280000EBFD01A926A0FEF7DBFB12E031A0FEF7ED
:10281000D7FB39480068FFF707FF0AE037A0FEF74B
:10282000CFFB3F4A4CF250310120FFF771F800E036
:1028300000BF00BF0A20FFF737FDC3E73D3D3D3D28
:102840003D3D3D3D3D3D3D3D3D3D3D3D3D3D3D3DB8
:102850003D3D3D3D3D3D3D3D3D3D3D3D3D3D3D3DA8
:102860003D3D3D3D3D3D3D3D3D3D3D3D3D0D0A0038
:10287000C8CECEF1C3FB202020202020C8CECEF130
:10288000D7B4CCAC20D3C5CFC8BCB6202020CAA3B7
:10289000D3E0D5BB20C8CECEF1D0F2BAC50D0A0028
:1028A00025730D0A000000000D0AC8CECEF1C3FB4F
:1028B00020202020202020D4CBD0D0BCC6CAFD2090
:1028C0002020202020202020CAB9D3C3C2CA0D0A4C
:1028D00000000000D2A1B8CB5550BCFCB0B4CFC2B0
:1028E000A3ACB9D2C6F0C8CECEF1765461736B4CAE
:1028F00045440D0A0000000000000020D2A1B8CB22
:10290000444F574EBCFCB0B4CFC2A3ACBBD6B8B496
:10291000C8CECEF1765461736B4C45440D0A00006D
:10292000390B00081CB52248014609780191FF21A6
:10293000024611700146097800919DF8001001F0DF
:1029400010011C4A117007211B4A116009E01A4945
:102950000968491E184A11609DF800104906090EC1
:1029600000919DF8001001F080018029EFD01249FC
:1029700009680902104A11601146098801F4E061F2
:1029800011600B4A019911700C48006840F4700006
:102990000A4908600846006840F070400860FFF788
:1029A0002DFC002006490860FDF7DEFB00201CBD61
:1029B00000E400E0840000208800002020ED00E01A
:1029C000800000202DE9FF4F81B0804616469A46D0
:1029D000DDE90E5BB8F1000F03D1FDF7F7FB00BF97
:1029E000FEE7052D01D2012000E0002018B9FDF717
:1029F000EDFB00BFFEE730461099FFF749F80446AB
:102A0000002C5DD0701E216B01EB800929F00709B5
:102A100019F0070F01D1012000E0002018B9FDF7DF
:102A2000D5FB00BFFEE700962A462046119B02997F
:102A3000FFF7D6F8524641464846FFF7BFFA2060F6
:102A4000BBF1000F01D0CBF80040FFF763FB254836
:102A50000068401C234908602348006840B92248A8
:102A600004600846006801280CD1FFF7EBF809E084
:102A70001E48006830B91C480068C06AA84201D8E6
:102A8000194804601A480068401C19490860084643
:102A90000068606494F82C1001208840154909688A
:102AA000084314490860E16A01EB8101124A02EB14
:102AB0008100211DFFF722FB0127FFF74DFB01E0FD
:102AC0004FF0FF37012F09D10848006830B10648A0
:102AD0000068C06AA84201D2FFF7CEFB384605B0B5
:102AE000BDE8F08F48000020400000205400002086
:102AF000640000205000002080090020014908687F
:102B0000704700004C0000202DE9F0414FF0000814
:102B100041480068002872D140480068401C3F4985
:102B2000086008460668DEB93D480068006808B9D4
:102B3000012000E0002018B9FDF748FB00BFFEE7C8
:102B400037480768374800683549086035480760E6
:102B500035480068401C34490860FFF733F900BF6E
:102B60003248006886423CD300BF2D4800680068A8
:102B700008B9012000E0002020B14FF0FF302B49C0
:102B800008602DE026480068C068C4686568AE42E9
:102B900002D22648056023E0201DFFF71FFAA06A35
:102BA00018B104F11800FFF719FA94F82C1001205D
:102BB00088401F49096808431D490860E16A01EB24
:102BC00081011C4A02EB8100211DFFF797FA1A4987
:102BD000E06A0968C96A8842C7D34FF00108C4E7B0
:102BE00000BF15480068C06A00EB8000114951F829
:102BF0002000012808D94FF0010805E0FFE70F4841
:102C00000068401C0D4908600D48006808B14FF08D
:102C100001084046BDE8F0816C0000204C00002017
:102C2000780000207C000020600000206800002068
:102C300050000020800900204000002058000020A3
:102C40005C00002070B500253048006818B9FDF719
:102C5000BDFA00BFFEE7FFF75DFA2C480068401E92
:102C60002A4908600846006800284BD128480068B7
:102C7000002847D024E02748C068C46804F1180041
:102C8000FFF7ACF9201DFFF7A9F994F82C100120EB
:102C900088402149096808431F490860E16A01EB3F
:102CA00081011E4A02EB8100211DFFF727FA1C4912
:102CB000E06A0968C96A884202D30120194908609C
:102CC0001448006808B9012000E000200028D2D094
:102CD0001548006878B10AE0FFF716FF10B101202F
:102CE0001049086010480068401E0F4908600E48EF
:102CF00000680028F0D10B480068012802D10125A6
:102D0000FFF7BAFAFFF728FA284670BD6C000020DA
:102D1000480000200C0A00205000002080090020FC
:102D2000400000205C000020580000202DE9F04108
:102D3000054600262C461DB9FDF748FA00BFFEE700
:102D4000FFF76CFAFDF742FA07462046FFF772F8E4
:102D5000012824D115480068E0B91549E06A0968DE
:102D6000C96A884200D30126201DFFF737F994F87D
:102D70002C10012088400F49096808430D4908605C
:102D8000E16A01EB81010C4A02EB8100211DFFF792
:102D9000B5F904E004F118010848FFF7AFF9384627
:102DA000FDF71BFA3046BDE8F08100006C00002002
:102DB0004000002050000020800900200C0A002064
:102DC000E02D000800000020A80000000810000806
:102DD000882E0008A8000020A0510000181000084C
:102DE00000000000000000000000000000000000E3
:102DF00000000000000000000000000001020304C9
:102E000001020304060708090204060800A24A0496
:102E1000000000000000000001020304060708098A
:102E200000000000000000000000000000000000A2
:102E30000000000000000000000000000000000092
:102E40000000000000000000000000000000000082
:102E50000000000000000000000000000000000072
:102E6000AAAAAAAA000000000000000000000000BA
:102E70000000000000000000000000000000000052
:082E800000000000000000004A
:0400000508000131BD
:00000001FF
