:020000040800F2
:10000000C0520020E90100085D070008F104000863
:1000100059070008B5030008C50E000800000000DD
:100020000000000000000000000000004501000882
:10003000DB03000800000000890100080D0A000829
:10004000030200080302000803020008030200087C
:10005000030200080302000803020008030200086C
:10006000030200080302000803020008030200085C
:10007000030200080302000803020008030200084C
:10008000030200080302000803020008030200083C
:10009000030200080302000803020008030200082C
:1000A000030200080302000803020008030200081C
:1000B000030200080302000803020008030200080C
:1000C00003020008030200080302000803020008FC
:1000D00003020008C50B0008030200080302000821
:1000E00003020008030200080302000803020008DC
:1000F00003020008030200080302000803020008CC
:1001000003020008030200080302000803020008BB
:1001100003020008030200088D0A00080302000819
:10012000030200080302000803020008030200089B
:10013000DFF80CD000F0B4F800480047D1170008F1
:10014000C0520020204B19680868B0E8F00F80F317
:100150000988BFF36F8F4FF0000080F311884EF0D5
:100160000D0E70470000000006480068006880F32C
:10017000088862B661B6BFF34F8FBFF36F8F00DFA1
:1001800000BF00BF08ED00E0EFF30980BFF36F8F01
:100190000D4B1A6820E9F00F106008B54FF0100001
:1001A00080F3118802F0A4FB4FF0000080F3118867
:1001B000BDE8084019680868B0E8F00F80F30988C6
:1001C000BFF36F8F704700BF54000020EFF3118022
:1001D0004FF0100181F31188704780F31188704748
:1001E000EFF3058070470000064880470648004747
:1001F000FEE7FEE7FEE7FEE7FEE7FEE7FEE7FEE7D7
:10020000FEE7FEE72D0A00083101000840EA01037D
:100210009B0703D009E008C9121F08C0042AFAD2BC
:1002200003E011F8013B00F8013B521EF9D2704780
:10023000D2B201E000F8012B491EFBD27047002228
:10024000F6E710B513460A4604461946FFF7F0FFD5
:10025000204610BD421C10F8011B0029FBD1801A5A
:100260007047034611F8012B00F8012B002AF9D141
:100270001846704730B50B46014600202022012465
:1002800009E021FA02F59D4205D303FA02F5491B64
:1002900004FA02F52844151EA2F10102F1DC30BD7A
:1002A000064C074D06E0E06840F0010394E80700C3
:1002B00098471034AC42F6D3FFF73EFF7434000881
:1002C0009434000810B5002406E0224600210448BA
:1002D00002F00AFC601CC4B2022CF6DB10BD000068
:1002E0008521000810B503220021012002F092FCB4
:1002F0000149086010BD0000080000201FB5002063
:100300000123CDE90030029003464FF4007217A19B
:100310000390194802F05AFE0020184A0223CDE942
:1003200001200093039003464FF4007214A1174874
:1003300002F04CFE0020164A0323CDE90120009371
:10034000039003464FF4007212A1154802F03EFEDE
:1003500000200423CDE90030029003464FF40072E0
:1003600010A10390124802F031FE1FBD7654617354
:100370006B55736572494600B129000800000020E2
:10038000765461736B4C454400000000F125000871
:1003900004000020765461736B4D736750726F00D8
:1003A000E1260008765461736B5374617274000027
:1003B0006928000800BFFEE708B525208DF8000079
:1003C00001208DF8010000208DF8020001208DF839
:1003D0000300684600F0C4F908BD70472DE9F041FC
:1003E000024600250026002000230024002791F863
:1003F00003C00CF00F0591F803C01CF0100F03D0E0
:1004000091F802C04CEA050591F800C0BCF1000F5C
:1004100031D0146800202BE04FF0010C0CFA00F3EF
:10042000B1F800C00CEA03069E4220D183004FF0D1
:100430000F0C0CFA03F7BC4305FA03FC4CEA040466
:1004400091F803C0BCF1280F06D14FF0010C0CFA53
:1004500000FCC2F814C00AE091F803C0BCF1480FD8
:1004600005D14FF0010C0CFA00FCC2F810C0401C82
:100470000828D1D31460B1F800C0BCF1FF0F34DDFF
:10048000546800202EE000F1080C4FF0010808FA33
:100490000CF3B1F800C00CEA03069E4221D18300A0
:1004A0004FF00F0C0CFA03F7BC4305FA03FC4CEABF
:1004B000040491F803C0BCF1280F05D100F1080C29
:1004C00008FA0CF8C2F8148091F803C0BCF1480F88
:1004D00007D100F1080C4FF0010808FA0CF8C2F837
:1004E0001080401C0828CED35460BDE8F081000085
:1004F00009A100200BE00A5C124B1A8000BF114AD0
:10050000121F128812F0400FF9D0421CD0B22A28D4
:10051000F1D300BFFEE700000D0A456E746572203E
:10052000486172644661756C745F48616E646C65A5
:10053000722C2053797374656D2048616C742E0D94
:100540000A0000000438014000B585B001210520F3
:1005500000F05AF90121880300F056F94FF40070B9
:10056000ADF8100018208DF8130003208DF812004C
:1005700004A91848FFF732FF4FF48060ADF810006F
:1005800004208DF8130004A91248FFF727FF4FF449
:10059000E13000900020ADF80400ADF80600ADF8A1
:1005A0000800ADF80C000C20ADF80A0069460A48B6
:1005B00000F082FB012240F22551074800F056FB73
:1005C0000121054800F00FFB4021034800F002FB29
:1005D00005B000BD000801400038014009488068AE
:1005E00010F4005F0BD10848006810F0010F06D12D
:1005F0000648806810F4807F01D0012070470020F9
:10060000FCE7000000100140080801400020014004
:100610000948806810F4005F0BD00848006810F0AB
:10062000010F06D00648806810F4807F01D10120B8
:1006300070470020FCE7000000100140080801405E
:10064000002001400948806810F4005F0BD0084882
:10065000006810F0010F06D00648806810F4807F13
:1006600001D0012070470020FCE70000001001408D
:1006700008080140002001400948806810F4005F2C
:100680000BD00848006810F0010F06D106488068BA
:1006900010F4807F01D1012070470020FCE70000AA
:1006A0000010014008080140002001400448806813
:1006B00010F4004F01D1012070470020FCE700003A
:1006C000002001400448006810F0080F01D101200B
:1006D00070470020FCE700000814014004488068CF
:1006E00010F4804F01D1012070470020FCE700008A
:1006F000002001400448806810F4005F01D101200F
:1007000070470020FCE7000000200140044880689A
:1007100010F0800F01D1012070470020FCE700009D
:10072000002001400948806810F4005F0BD10848A0
:10073000006810F0010F06D00648806810F4807F32
:1007400001D0012070470020FCE7000000100140AC
:10075000080801400020014000BFFEE7704700008C
:1007600070B5002100230F22C4780CB3164C246806
:1007700004F4E064C4F5E064210AC1F10403CA4052
:10078000447804FA03F184781440214309010F4CA2
:100790000678A155047804F01F050124AC400578C3
:1007A0006D114FF0E02606EB8505C5F8004109E024
:1007B000047804F01F050124AC40054D067876113D
:1007C00045F8264070BD00000CED00E000E400E0BC
:1007D00080E100E002490143024A116070470000D5
:1007E0000000FA050CED00E029B1064AD269024387
:1007F000044BDA6104E0034AD2698243014BDA61B7
:10080000704700000010024029B1064A9269024375
:10081000044B9A6104E0034A92698243014B9A6156
:10082000704700000010024030B500210022002473
:1008300000232D4D6D6805F00C0121B1042905D070
:10084000082923D105E0294D056022E0274D0560E8
:100850001FE0254D6D6805F47012234D6D6805F499
:100860008034022505EB92421CB9214D55430560A9
:100870000BE01D4D6D6815F4003F03D01C4D554332
:10088000056002E0194D5543056002E0174D056013
:1008900000BF00BF144D6D6805F0F0010909154D4A
:1008A0006B5C0568DD4045600F4D6D6805F4E061E7
:1008B000090A104D6B5C4568DD4085600A4D6D6826
:1008C00005F46051C90A0B4D6B5C4568DD40C5609D
:1008D000054D6D6805F44041890B074D6B5CC5689B
:1008E000B5FBF3F5056130BD0010024000127A003F
:1008F00000093D00100000202000002008B5012163
:100900000820FFF781FF03208DF8020010208DF8EA
:1009100003000420ADF8000069460248FFF75EFDC1
:1009200008BD0000000C014010B500F001F810BD3A
:100930000CB50020019000903248006840F48030EF
:100940003049086000BF2F48006800F40030009074
:100950000198401C0190009818B90198B0F5A06F5B
:10096000F1D12848006810F4003F02D00120009027
:1009700001E0002000900098012842D12248006840
:1009800040F01000204908600846006820F003008D
:1009900008600846006840F0020008601948406896
:1009A000184948600846406848600846406840F476
:1009B000806048600846406820F47C104860084623
:1009C000406840F4E81048600846006840F08070D5
:1009D000086000BF0B48006810F0007FFAD009489B
:1009E000406820F00300074948600846406840F02E
:1009F0000200486000BF0348406800F00C0008286F
:100A0000F9D10CBD001002400020024010B5FFF7E4
:100A1000DDFB02F07DFB18B14FF080500249086009
:100A20000020FFF7DAFB10BD04ED00E010B513481D
:100A3000006840F00100114908600846406810490C
:100A400008400E494860084600680E4908400B49B6
:100A500008600846006820F4802008600846406866
:100A600020F4FE0048604FF41F008860FFF75CFF31
:100A70004FF000600449086010BD00000010024003
:100A80000000FFF8FFFFF6FE08ED00E010B50121C1
:100A9000064800F02AF840B105480068401C0449A7
:100AA00008600121014800F011F810BD001000405D
:100AB0000C00002021B1028842F08002028004E094
:100AC00002884FF67F731A4002807047CA43028241
:100AD000704721B1028842F00102028004E00288DE
:100AE0004FF6FE731A400280704730B50246002070
:100AF00000230024158A05EA0103958905EA01040B
:100B000013B10CB1012000E0002030BD1AB183897F
:100B10000B43838102E083898B438381704700000C
:100B2000002202881D4B98420ED01D4B98420BD0DC
:100B3000B0F1804F08D01B4B984205D01A4B984219
:100B400002D01A4B984204D14FF68F731A404B884B
:100B50001A43174B984207D0164B984204D04FF6D1
:100B6000FF431A40CB881A4302808B8883850B8809
:100B700003850A4B98420BD0094B984208D00E4B84
:100B8000984205D00D4B984202D00D4B984201D1AE
:100B90000B7A03860123838270470000002C0140FA
:100BA000003401400004004000080040000C0040F8
:100BB000001000400014004000400140004401408B
:100BC0000048014010B5024800F0EBF810BD0000ED
:100BD0006C01002001F40072B2F5007F00D100BF6B
:100BE000CA430280704721B1828942F40052828157
:100BF00004E082894DF6FF731A40828170470246F5
:100C00000020B1F5007F00D100BF13880B4201D056
:100C1000012000E00020704770B502460024002348
:100C200000250020A1F510666A3E00D100BFC1F387
:100C3000421501F01F03012606FA03F3012D02D12C
:100C40009689334006E0022D02D1168A334001E036
:100C5000968A33400C12012606FA04F416883440B2
:100C600013B10CB1012000E0002070BDF0B50346C7
:100C70000024002600250020A1F510676A3F00D15E
:100C800000BF1846C1F3421401F01F06012707FAFE
:100C900006F5012C01D10C3004E0022C01D11030FA
:100CA00000E014301AB107682F43076002E00768BC
:100CB000AF430760F0BD00002DE9F04786B0054660
:100CC0000E460024A24600BFA1460027B08900B10D
:100CD00000BF2F462C8A4CF6FF700440F088044376
:100CE0002C82AC894EF6F3100440B0883189084359
:100CF000718908430443AC81AC8A4FF6FF4004403D
:100D0000B0890443AC8201A8FFF78EFD1F488742DB
:100D100002D1DDF810A001E0DDF80CA0A88910F4E4
:100D2000004F08D00AEBCA0000EB0A1031684900F6
:100D3000B0FBF1F807E00AEBCA0000EB0A103168DB
:100D40008900B0FBF1F86420B8FBF0F00401200941
:100D5000642101FB1089A88910F4004F08D03220CB
:100D600000EBC900B0FBF1F000F00700044308E01D
:100D7000322000EB09106421B0FBF1F000F00F000D
:100D800004432C8106B0BDE8F08700000038014024
:100D900001468888C0F308007047C1F308028280CA
:100DA000704770B5044640F225512068FFF734FFC4
:100DB000E0B12068FFF7ECFFC5B2E18AA0684554B6
:100DC000E08A401C80B2E082E189884201DB002099
:100DD000E082608BE189884202DA608B401C60838C
:100DE000606A10B12846616A884700BF40F22771E7
:100DF0002068FFF711FF08B3A08A60B9002240F213
:100E000027712068FFF732FF012240F22661206837
:100E1000FFF72CFF37E0638A6268D15C2068FFF738
:100E2000BCFF608A401C80B26082A189884201DBDD
:100E300000206082A08A401EA08224E040F2266149
:100E40002068FFF7E9FEF0B1A08A50B9002240F215
:100E500026612068FFF70AFF206AA0B1206A804758
:100E600011E0638A6268D15C2068FFF796FF608AB0
:100E7000401C80B26082A189884201DB0020608230
:100E8000A08A401EA08270BD0A480B4908600B482A
:100E900048600B4888604FF480608881C8810020DA
:100EA00008824882C882088348838882C8610862B1
:100EB00048627047003801406C0100209401002016
:100EC0009405002000BFFEE70FB4054B10B503A941
:100ED000044A029800F02CF810BC5DF814FB0000E6
:100EE000AD170008B80000200FB4084B10B504A9D6
:100EF00002AA039800F01CF8044602A9002000F0A2
:100F0000F3F8204610BC5DF814FB0000E91000085F
:100F100002E008C8121F08C1002AFAD170477047C2
:100F2000002001E001C1121F002AFBD17047000020
:100F30002DE9FF4F8BB09A460F4605460026C9E0C3
:100F4000252837D100246D1C6649A04601222B7844
:100F5000203B02FA03F0084202D004436D1CF6E77E
:100F600028782E2817D115F8010F44F004042A28F8
:100F70000ED06FF02F022878A0F1300109290AD88D
:100F800008EB880102EB410100EB01086D1CF2E760
:100F900057F8048B6D1C287869283FD006DC0028A0
:100FA00071D063280CD0642804D137E0732811D0A5
:100FB00075284ED052460D99904706F1010688E0FB
:100FC00017F8040B8DF8000000208DF80100E946A9
:100FD000012003E057F8049B4FF0FF3061074FF00A
:100FE000000401D40AE0641C44450DDA8442FADBB3
:100FF00019F804100029F6D106E0641C8442FCDBD9
:1010000019F804100029F8D1264404E019F8010B5E
:1010100052460D999047641EF8D25AE001CF4FF026
:101020000A0B002804DAC0F100004FF02D0102E0A5
:10103000210504D52B218DF82410012103E0E107BF
:1010400005D02021F7E70DF1200908910CE00021DF
:10105000F9E701CF4FF00A0BF9E75946FFF70AF914
:1010600001F1300209F8012D0028F6D1ADEB09009D
:1010700000F1200B600701D44FF00108D84503DDD3
:10108000A8EB0B0001E029E000208046002406E0E8
:1010900009A85246005D0D999047761C641C08987B
:1010A0008442F5DB04E0302052460D999047761CCF
:1010B000B8F10001A8F10108F5DC05E019F8010B11
:1010C00052460D999047761CBBF10001ABF1010B24
:1010D000F4DC6D1C287800287FF432AF0FB0304666
:1010E000BDE8F08F092801000A68531C0B601070DE
:1010F0007047000070B50546304800EB05142068C5
:10110000804700283ED02079052802DA052020718A
:1011100052E020790A2803DA2079401C20714BE044
:10112000A07A38B90120A07205EB4501491CC8B26C
:1011300000F026FA208900283EDDE08821898842D7
:101140000DDAE088401C80B2E0802189884233D1EA
:1011500005EB4501C91CC8B200F012FA2CE0E07A98
:10116000002829DD207B401CC0B22073E17A884230
:1011700022DB0020207305EB4501491CC8B200F0BA
:10118000FFF919E02079052802DD0520207110E023
:10119000207918B12079401E20710AE0A07A012838
:1011A00007D10020A07205EB4501891CC8B200F0F0
:1011B000E7F90020E080207370BD0000BC00002033
:1011C0000B48807A0A4AD27A904201D100207047B7
:1011D0000748807A064A115C1046807A401CC0B2EB
:1011E00090720A2801DB002090720846EFE70000A9
:1011F0005C01002001460020244A914201D1C8141C
:1012000042E0234A914201D148143DE0214A9142F3
:1012100002D14FF4002037E01F4A914202D14FF42F
:10122000801031E01D4A914202D14FF400102BE0B2
:10123000B1F1804F01D1012026E0194A914201D13C
:10124000022021E0174A914201D104201CE0164AF5
:10125000914201D1082017E0144A914201D1102097
:1012600012E0134A914201D120200DE0114A91422F
:1012700001D1402008E0104A914201D1802003E0D2
:101280000E4A914200D1881570470000002C0140A1
:1012900000340140004C0140005001400054014026
:1012A0000004004000080040000C00400010004016
:1012B0000014004000180040001C004000200040C6
:1012C00010B54FF44070FFF785FA00F0FFF800F01A
:1012D000C5F800F001F810BD10B500F055F800F0A9
:1012E00001F810BD08B501214FF49A70FFF78CFA90
:1012F00003208DF8020004208DF80300C002ADF831
:10130000000069461C48FFF769F80120ADF80000AD
:1013100069461A48FFF762F84FF48070ADF8000094
:1013200069461748FFF75AF84FF40040ADF800003F
:1013300069461348FFF752F80820ADF800006946E7
:101340001048FFF74BF84FF48040ADF800006946B5
:101350000B48FFF743F84FF40050ADF80000694622
:101360000748FFF73BF88020ADF8000069460448C5
:10137000FFF734F808BD00000010014000080140EC
:1013800000200140001401400021284A9172D172CE
:101390001173002018E06421254A02EB001211812C
:1013A0000221234A02EB001211710021204A02EBB4
:1013B000001291721E4A02EB0012D1721C4A02EB1B
:1013C00000121173411CC8B20A28E4DB64221849D8
:1013D0000A87052281F83B206422A1F848200522D3
:1013E00081F84B206422A1F85820052281F85B2067
:1013F0006422A1F86820052281F86B200D490C4A6F
:1014000011600D4911610D4911620D4911630D49BA
:1014100011640D4911650D4911660D4911670D499A
:10142000C2F880100C49C2F8901070475C0100208F
:10143000BC000020DD05000845060008790600080C
:10144000AD060008C5060008DD060008F506000820
:101450000D070008250700081106000808B501213E
:101460008020FFF7D1F9012000F046F8022000F0BB
:1014700043F8032000F040F8042000F03DF803207A
:101480008DF8020010208DF80300C001ADF80000B7
:1014900069460D48FEF7A2FF8020ADF800006946BE
:1014A0000948FEF79BFF4FF48070ADF800006946D5
:1014B0000548FEF793FF4FF40070ADF80000694651
:1014C0000148FEF78BFF08BD001C014010B5FFF777
:1014D000DBFCFFF739F8FFF711FAFEF76DFF10BDDF
:1014E00010B5002404E02046FFF704FE601CC4B2DF
:1014F0000A2CF8DB10BD0000411EC8B220B94FF421
:1015000000610B4A116011E0012803D18021084AD3
:1015100011600BE0022803D1C101054A116005E00A
:10152000032803D14FF40071014A11607047000095
:10153000101C0140012806D11049096881F400619E
:101540000E4A116019E0022806D10C49096881F0A1
:1015500080010A4A116010E0032806D10749096892
:1015600081F48071054A116007E0042805D1034920
:10157000096881F40071014A116070470C1C014038
:101580000649C97A054A50541146C97A491CC9B25C
:10159000D1720A2901DB0021D17270475C01002061
:1015A0002DE9FF5F04460D4691469A4674488442F1
:1015B00002D07448844207D12046FFF71BFE8346C1
:1015C0000121FFF721F906E02046FFF713FE8346CD
:1015D0000121FFF709F9002D41D100212046FFF735
:1015E00078FAAB466648844202D14FF0190B28E0E6
:1015F000B4F1804F02D14FF01C0B22E062488442CC
:1016000002D14FF01D0B1CE06048844202D14FF024
:101610001E0B16E05E48844202D14FF0320B10E000
:101620005C48844202D14FF0360B0AE05A488442AB
:1016300002D14FF0370B04E05248844201D14FF001
:101640002C0B8DF800B08DF801908DF802A00020D1
:101650008DF803006846FFF783F8BDE8FF9F484810
:1016600084420BD04748844208D04C48844205D07D
:101670004B48844202D04B48844202D14A48066813
:1016800001E049480668642D0AD242F20F7842F21E
:101690001070B6FBF0F0B0FBF5F0401E87B213E01F
:1016A00040F6B830854209D24FF063086420B6FB9B
:1016B000F0F0B0FBF5F0401E87B205E04FF00008F7
:1016C000B6FBF5F0401E87B2ADF80870ADF80480A7
:1016D0000020ADF80A00ADF806008DF80C0001A955
:1016E0002046FFF71DFA01212046FFF7E3F901220A
:1016F00011462046FFF70AFA01212046FFF7E9F9D3
:101700004FF0000B1E48844202D14FF0190B28E025
:10171000B4F1804F02D14FF01C0B22E01A488442F2
:1017200002D14FF01D0B1CE01848844202D14FF04B
:101730001E0B16E01648844202D14FF0320B10E027
:101740001448844202D14FF0360B0AE0124884421A
:1017500002D14FF0370B04E00A48844201D14FF028
:101760002C0B8DF800B08DF801908DF802A00120AF
:101770008DF803006846FEF7F3FF00BF6DE7000039
:10178000002C0140003401400004004000080040EB
:10179000000C00400010004000140040004C0140CC
:1017A00000500140005401402400002070B5044660
:1017B0000D46E1B20548FFF7F0FA00BF40210348AB
:1017C000FFF71DFA0028F9D0204670BD003801400F
:1017D000FFF776FD00F008FEFEF790FDFEF772FDC4
:1017E000FEF780FD01F048F800BFFEE710B50446A3
:1017F0000E48006844600E480068844207D20B48D7
:101800000168091D0B48006800F038FD0CE007482E
:101810000168091D0848006800F030FD07480068AD
:10182000844201D20548046010BD0000540000202D
:1018300060000020900000208C0000207C00002030
:101840002DE9F04105460F461FB9A80000F056FBF0
:1018500000E03846064656B1602000F04FFB0446D3
:101860000CB1266304E0304600F066FD00E0002481
:1018700024B1A900A522206BFEF7DAFC2046BDE8C2
:10188000F081000010B501F03DFC2C490968401AB8
:101890002B49086049E02B480068401C2949086032
:1018A00027480068401E264908602648006840B95D
:1018B0002549086825490968234A116023490860B9
:1018C00000BF28E020480068C068C4681D496068FF
:1018D0000968884200D927E0FEF778FC201D00F057
:1018E000B5FBA06A18B104F1180000F0AFFB0020AE
:1018F000FEF773FC1649E06A0968884202D9144968
:10190000E06A0860E16A01EB8101124A02EB8100A2
:10191000211D00F0CDFC0C480068006808B90120CA
:1019200000E000200028CDD000BF05480068002856
:10193000B1D1044800680149086010BD440000208E
:1019400048000020400000204C00002050000020F3
:101950003C0000209409002010B520E0FEF736FC82
:101960001348C068C46804F1180000F06FFB002041
:10197000FEF733FC201D00F069FB0E49E06A0968A0
:10198000884202D90B49E06A0860E16A01EB8101F3
:10199000094A02EB8100211D00F08AFC00BF0448C7
:1019A000006808B9012000E000200028D6D010BD52
:1019B000E40900203C0000209409002070B523E0D9
:1019C00000F08EFF1348006808B9012000E00020F5
:1019D000054601F0D7FCBDB900F076FC0D48C068A3
:1019E000C468201D00F032FB0B480068401E0A4905
:1019F00008600A480068401E0849086000F086FC3C
:101A0000204600F062F800BF044800680028D7D1E3
:101A100070BD0000980A00205C00002058000020E3
:101A200070B504460D46206C70B1216CE068084426
:101A3000E0606168E068884201D32068E060284681
:101A4000226CE168FEF7E2FB70BD2DE9F04104462F
:101A50000E4615460027206C40B9206878BB6068A8
:101A600001F0F4FB07460020606028E07DB93146B4
:101A7000226CA068FEF7CAFB216CA0680844A06035
:101A8000D4E9011088421AD32068A06017E03146DB
:101A9000226CE068FEF7BAFB216CE068401AE06057
:101AA0002168E068884203D2216C6068401AE060D7
:101AB000022D04D1A06B10B1A06B401EA063A06BDF
:101AC000401CA0633846BDE8F08110B50446206B89
:101AD00000F032FC204600F02FFC10BD30B54FF472
:101AE0008843174810F0070F05D0C01D20F00700ED
:101AF000134C041B1B1B0246124C22600024114D88
:101B00006C60D018083820F007000F4C20600024CB
:101B10000D4D2D686C600C4D2D682C601146441ADB
:101B20004C60094C24680C60084D4C682C60084DD2
:101B30004C682C604FF00044064D2C6030BD000016
:101B4000C00A0020B0000020A0000020A800002053
:101B5000A4000020AC00002000BFFFF72FFF0448C6
:101B60000068012801D900F033FC00F0D5FAF4E751
:101B7000F809002010B5002407E004EB84010C4AAA
:101B800002EB810000F06AFB641C022CF5D30948CB
:101B900000F064FB084800F061FB084800F05EFBC1
:101BA00004480749086004480649086010BD000061
:101BB00094090020BC090020D0090020E40900207D
:101BC0004C000020500000202DE9F04704460F464D
:101BD00015469946DDF82080002607E0B95D04F13E
:101BE00034008155B85D00B902E0761C102EF5D3A3
:101BF00000BF002143200155052D00D30425E562D7
:101C0000E56400202065201D00F035FB04F118007C
:101C100000F031FB2461C5F10500A0616462002081
:101C20006065A06584F85C00BDE8F08710B500240D
:101C300007E004EB84010F4A02EB810000F00EFB89
:101C4000641C052CF5D30C4800F008FB0B4800F091
:101C500005FB0B4800F002FB0A4800F0FFFA0A48B7
:101C600000F0FCFA04480949086004480849086083
:101C700010BD0000F80900205C0A0020700A002056
:101C8000840A0020980A0020AC0A00208C00002062
:101C90009000002010B50146164800E00068036877
:101CA0008B42FBD30246436813448B4204D1436802
:101CB0004C682344436001460A464B681344046859
:101CC000A34211D10C4C03682468A34208D04B688E
:101CD0000468646823444B6003681B680B6005E07C
:101CE000054B1B680B6001E003680B60884200D065
:101CF000016010BDB0000020A000002070B50546B6
:101D000000F0E2FAA86B08B9012400E0002400F01A
:101D1000FDFA204670BD70B5054600F0D5FAA86BF7
:101D2000E96B884201D1012400E0002400F0EEFAC2
:101D3000204670BD2DE9F04706460C46904600252A
:101D4000206800284BD0204641684968416000F176
:101D5000080142688A4202D141684968416041688D
:101D6000D1F80C9000BF204641684968416000F1FD
:101D7000080142688A4202D141684968416041686D
:101D8000CF6806EB4510076007F1340006EB4511FC
:101D90004860786C06EB4511886006EB451080F8CA
:101DA0000C80F86A06EB45110861B8F1030F05D104
:101DB000B86A18B1022006EB45110873F86C06EBFF
:101DC00045114861786D06EB45118861386B00F06C
:101DD00023F806EB451188836D1C4F45C3D1284677
:101DE000BDE8F0870A490968096809B9012100E0DE
:101DF000002121B14FF0FF31064A116006E004498D
:101E00000968C968C868034A4168116070470000E2
:101E10008C0000207C0000200246002101E0521CC2
:101E2000491C1078A528FAD0890888B270470000AC
:101E300007480068401C01D1012000E0002018B9CB
:101E4000FEF7C4F900BFFEE7FEF7C0F900BFFEE7EA
:101E50009400002010B5044600F036FA11E0606AE4
:101E600008B9012000E0002038B904F1240001F095
:101E700043FA18B100F02EFC00E005E0A06C401E13
:101E8000A064A06C0028EADC00BF4FF0FF30A06423
:101E900000F03CFA00F018FA11E0206908B90120BE
:101EA00000E0002050B904F1100001F025FA08B15B
:101EB00000F010FC606C401E606400E002E0606CAA
:101EC0000028EADC00BF4FF0FF30606400F01EFA2B
:101ED00010BD70B505460E4631462846FEF7C1F9DD
:101EE0002846FEF7B7F9044602E020202855641C76
:101EF0000F2CFADB00202855281970BD2DE9F04180
:101F000004464FF0000800F0EBFC3B48006808B9BD
:101F1000FFF7E4FD3948006804425DD19CB1083404
:101F200014F0070F0FD004F00700C0F108000444BC
:101F300014F0070F01D1012000E0002018B9FEF7CE
:101F400045F900BFFEE7002C46D02D4800688442CA
:101F500042D82C4E3046056801E02E462D68686850
:101F6000A04202D228680028F7D1234800688542A1
:101F700032D0306800F10808286830606868001BBB
:101F8000102812D92F1917F0070F01D1012000E0F6
:101F9000002018B9FEF71AF900BFFEE76868001BB9
:101FA00078606C603846FFF775FE15496868096807
:101FB000081A1349086008460068134909688842EE
:101FC00003D20F480068104908600C496868096826
:101FD000084368600020286001F0D4F918F0070F6A
:101FE00001D1012000E0002018B9FEF7EFF800BF92
:101FF000FEE74046BDE8F081A0000020AC000020D4
:10200000A4000020B0000020A800002006480068BE
:1020100030B10549096801F15000096D491C0160A2
:10202000014800687047000054000020001F4FF076
:1020300080730360001F0160001F034B03601438AE
:102040000260203870470000311E000801460A690E
:10205000D1E901309860D1E90103586050688842A5
:1020600001D188685060002008611068401E10602F
:10207000106870472DE9F041054688461646002451
:10208000052700F02DFC1D480068804530D300BFB7
:102090007F1E07EB87021A4B03EB820105EB44100E
:1020A0000122FFF747FE0444002FF1D105EB441055
:1020B000022214490968FFF73DFE044405EB441071
:1020C000022211490968FFF735FE044405EB44106C
:1020D00004220E49FFF72EFE044405EB44100322B0
:1020E0000B49FFF727FE044416B10A480068306028
:1020F00001F048F92046BDE8F08100005C000020B6
:10210000F80900208C00002090000020980A002090
:10211000AC0A00200C00002010B500F05BF810BDE8
:1021200070B505460C461348006846191248006809
:10213000001DFFF78BFF1048006846600D480068DF
:10214000864207D20C480168091D0C48006800F05F
:1021500095F806E008480168091D0948006800F084
:102160008DF82CB1044801681831204600F086F83B
:1021700070BD00004000002038000020500000200A
:102180004C00002070B505460C46A88E18B1B0F57D
:10219000057F1AD118E000BF1CB90120FFF7CAF96A
:1021A00004E0012C02D10220FFF7C4F9084850F8DE
:1021B000240028B1064951F824000021FFF7B0FFA0
:1021C0004FF40570A88670BDE6E700BF00BFFAE7D0
:1021D0006C34000810B5FFF7BFFBFFF753FB08E0B6
:1021E0001B48006800B910BD19480068401E184916
:1021F00008601748006800EB8000164951F820007D
:1022000008B9012000E000200028E9D11049096840
:1022100001EB81010F4A02EB81004168496841608E
:1022200000F1080142688A4202D141684968416070
:102230004168C968084A116010460068016B104681
:102240000068026804480068904700BFCBE70000C0
:102250003C000020940900203800002000F1080113
:1022600041604FF0FF31816000F10801C160016100
:1022700000210160704700210161704710B50246DE
:102280000B685C1C01D1106907E002F1080000E056
:102290004068446824689C42FAD944684C604C68A1
:1022A000A160886041600A611468641C146010BDFC
:1022B00042684A6093688B609368596091600861D6
:1022C00003685B1C0360704710B5FDF77FFF0D4886
:1022D0000068401C0B490860BFF34F8FBFF36F8F3E
:1022E0000846006801280CD10748006810F0FF0F6D
:1022F00001D1012000E0002018B9FDF767FF00BF01
:10230000FEE710BD9400002004ED00E010B5094880
:10231000006818B9FDF75AFF00BFFEE705480068DE
:10232000401E044908600846006810B90020FDF707
:1023300054FF10BD9400002070B506463546002EAF
:1023400031D0083D2C46184960680968084201D020
:10235000012000E0002018B9FDF738FF00BFFEE7BC
:10236000206808B9012000E0002018B9FDF72EFF11
:1023700000BFFEE70C4960680968084213D0206876
:1023800088B90949606809688843606000F0A8FA64
:102390000649606809680844044908602046FFF758
:1023A00079FC00F0EFFF70BDAC000020A40000201D
:1023B000064800684FF47A71B0FBF1F0401E4FF010
:1023C000E0214861072008617047000024000020D8
:1023D0004FF0805003490860BFF34F8FBFF36F8FFA
:1023E0007047000004ED00E010B50023012244F620
:1023F00020610248FFF7D4F810BD00000010004033
:1024000070B50446002634B31548006808B90120A9
:1024100000E0002018B9FDF7D9FE00BFFEE700F08C
:102420005FFA1048006805190F480068001DFFF7A3
:102430000DFE50B90C48006890F82C10012088401F
:102440000A4909688143094801602846FFF7CEF927
:1024500000F098FF06460EB9FFF7BAFF70BD000006
:102460008000002060000020540000206400002054
:102470002DE9F04704460E464FF000091CB9FDF760
:10248000A5FE00BFFEE70EB1012000E0002018B954
:10249000FDF79CFE00BFFEE72148006808B9012057
:1024A00000E0002018B9FDF791FE00BFFEE700F044
:1024B00017FA1C48D0F8008020688519206840452C
:1024C00007D92068A8420BD9454509D94FF0010921
:1024D00006E02068A84201D8454501D94FF001091E
:1024E0002560B9F1000F13D00F480068001DFFF7F9
:1024F000ADFD50B90C48006890F82C1001208840C0
:102500000A4909688143094801602846FFF76EF9C6
:1025100000F038FF07460FB9FFF75AFFBDE8F08714
:102520008000002060000020540000206400002093
:10253000FEB505460020287026480068029025490F
:1025400009684801FFF7DAFC0446002C40D06A46CF
:1025500020460299FFF78EFD029064210098B0FB9F
:10256000F1F00090009800282FD00020019028E082
:10257000019804EB401080690099B0FBF1F60198D6
:1025800004EB401041682846FFF7A3FC05464EB116
:10259000019804EB401033460FA182692846FEF7EC
:1025A000A3FC07E0019804EB40100EA182692846C5
:1025B000FEF79AFC2846FDF74DFE05440198401CA5
:1025C0000190DDE901018842D2D32046FFF7B4FE35
:1025D000FEBD00005C000020092575090925752550
:1025E000250D0A0009257509093C3125250D0A002C
:1025F00008B500BF00F086FD009006E00320FEF75E
:1026000099FFC8216846FFF733FFF7E77FB5054616
:10261000002028702A480068039029490968480169
:10262000FFF76CFC0446002C49D000222046039999
:10263000FFF720FD03900020029039E0029804EBA0
:102640004010007B012806D0022806D0032806D0BF
:10265000042808D105E0522607E0422605E053266B
:1026600003E0442601E0002600BF00BF029804EB0F
:10267000401041682846FFF72CFC0546029804EB01
:1026800040108068029904EB4111898BCDE900105C
:10269000029804EB401032460AA103692846FEF76F
:1026A00023FC2846FDF7D6FD05440298401C029005
:1026B000DDE902018842C1D32046FFF73DFE7FBD20
:1026C0005C00002009256309257509257509257514
:1026D0000D0A0000012001490860704770000020C9
:1026E00000BF11E000234FF49672194607480068B6
:1026F00000F0C5FA0446012C03D105A0FEF7E4FB67
:1027000002E00420FEF716FFECE7000008000020BE
:10271000BDD3CAD5B5BDCDACB2BDD0C5BAC50D0A05
:102720000000000070B505460C461DB9FDF74EFDD2
:1027300000BFFEE71348016818312846FFF79EFDE9
:1027400010480068001DFFF781FC50B90D48006873
:1027500090F82C10012088400B49096881430A48F1
:102760000160601C06D107480168091D0748FFF792
:102770009FFD05E00648006806193046FFF736F869
:1027800070BD00005400002064000020AC0A00204E
:102790006000002070B505462C46002D4BD0264920
:1027A000E06A0968C96A884245D2A06910F0004F02
:1027B00005D121480068C06AC0F10500A061E16A46
:1027C00001EB81011D4A02EB81016069884201D160
:1027D000012000E0002050B3201DFFF737FC78B93E
:1027E000E06A00EB8000154951F8200040B994F8E8
:1027F0002C1001208840124909688143104801606B
:102800000D480068C06AE06294F82C1001208840EE
:102810000B49096808430A490860E16A01EB810134
:10282000064A02EB8100211DFFF742FD03E002484A
:102830000068C06AE06270BD54000020F809002002
:102840006400002010B504461CB9FDF7BFFC00BFB2
:10285000FEE703480068206002480068606010BD21
:10286000740000206000002004E0FEF739FE0A201A
:10287000FFF7C6FDF9E700001FB5002000900190AA
:102880000290034682220FA10390104800F09EFBA5
:102890000446012C0FD1FDF799FCA01E0C490860DD
:1028A00001200C49086000200B4908600B490860B2
:1028B00000F060F904E01CB9FDF788FC00BFFEE7FA
:1028C0001FBD000049444C4500000000591B000892
:1028D0007C00002068000020600000200C00002028
:1028E00002480068401C01490860704780000020D1
:1028F00010B52748006818B101202649086045E056
:1029000000202449086024480068244908600846DB
:1029100000682349096888420BD92249096801F1F6
:102920005400496D1D4A12681D4B1B68D21A114490
:1029300001601A4800681A4908601B480068B0FA2C
:1029400080F0C0F11F0404EB8400184951F8200006
:1029500008B1012000E0002018B9FDF737FC00BFE6
:10296000FEE704EB8401114A02EB810041684968EB
:10297000416000F1080142688A4202D14168496819
:1029800041604168C968074A116000BF10BD00007E
:1029900080000020700000200C0000208800002033
:1029A000840000205400002064000020F80900206A
:1029B000FEB031E0FEF704FC0446002C29D0012CC7
:1029C00002D0042C23D117E014A0FEF77DFA20A03A
:1029D000FEF77AFA01A8FFF719FE01A928A0FEF771
:1029E00073FA29A0FEF770FA01A8FFF7A1FD01A96B
:1029F00023A0FEF769FA0BE02EA0FEF765FA00238C
:102A00001A4619463748006800F013FA00BF00BFA5
:102A100000BF0A20FFF7F4FCCCE700003D3D3D3D40
:102A20003D3D3D3D3D3D3D3D3D3D3D3D3D3D3D3DD6
:102A30003D3D3D3D3D3D3D3D3D3D3D3D3D3D3D3DC6
:102A40003D3D3D3D3D3D3D3D3D3D3D3D3D0D0A0056
:102A5000C8CECEF1C3FB202020202020C8CECEF14E
:102A6000D7B4CCAC20D3C5CFC8BCB6202020CAA3D5
:102A7000D3E0D5BB20C8CECEF1D0F2BAC50D0A0046
:102A800025730D0A000000000D0AC8CECEF1C3FB6D
:102A900020202020202020D4CBD0D0BCC6CAFD20AE
:102AA0002020202020202020CAB9D3C3C2CA0D0A6A
:102AB000000000004B32BCFCB0B4CFC2A3ACD6B116
:102AC000BDD3B7A2CBCDCDACB2BDD0C5BAC5B8F8D9
:102AD000C8CECEF1765461736B4D736750726F0D33
:102AE0000A000000080000202DE9F04107460D46CD
:102AF00090463820FFF702FA0446002C2ED01A48E0
:102B0000006818B918480460FFF734F8022D00D3A4
:102B100001250020A086E562C4F830802760201DD2
:102B2000FFF7A9FB04F11800FFF7A5FB246164621D
:102B3000C5F10200A0610D49E06A0968884202D926
:102B40000A49E06A0860E16A01EB8101084A02EB88
:102B50008100211DFFF7ACFB012601E04FF0FF369D
:102B60003046BDE8F0810000380000203C00002025
:102B7000940900201CB52248014609780191FF21E3
:102B8000024611700146097800919DF8001001F08D
:102B900010011C4A117007211B4A116009E01A49F3
:102BA0000968491E184A11609DF800104906090E6F
:102BB00000919DF8001001F080018029EFD01249AA
:102BC00009680902104A11601146098801F4E061A0
:102BD00011600B4A019911700C48006840F47000B4
:102BE0000A4908600846006840F070400860FFF736
:102BF000DFFB002006490860FDF7B6FA00201CBD87
:102C000000E400E0980000209C00002020ED00E09F
:102C1000940000202DE9F04706460D4690464FF0FF
:102C200000090EB1012000E0002018B9FDF7CEFA2E
:102C300000BFFEE70DB9002702E006FB05F0471CC8
:102C400007F15400FFF75AF9044674B10DB9246036
:102C500002E004F154002060E6632564012120466F
:102C600000F0ABF884F85080A146B9F1000F03D111
:102C7000FDF7ACFA00BFFEE74846BDE8F0872DE956
:102C8000FF4383B005460E461F464FF000092C4611
:102C90001CB9FDF79BFA00BFFEE70EB9206C08B91E
:102CA000012000E0002018B9FDF790FA00BFFEE710
:102CB00000BFFFF709FBA06B90B3D4F80C8031463E
:102CC0002046FEF7ADFEB7B9A06B401EA06320689A
:102CD00010B9FFF79BF96060206908B9012000E096
:102CE0000020B8B904F1100000F006FB012811D152
:102CF000FFF76EFB0EE0C4F80C80606A08B9012093
:102D000000E0002030B904F1240000F0F5FA08B129
:102D1000FFF75EFBFFF7FAFA012007B0BDE8F0838A
:102D2000FFE7059818B9FFF7F1FA0020F5E7B9F1C8
:102D3000000F04D101A8FFF785FD4FF00109FFF74F
:102D4000E5FAFFF7CDFDFFF7BFFA606C401C00D13C
:102D50006064A06C401C00D1A064FFF7D7FA05A9FD
:102D600001A800F0F9F808BB2046FEF7C7FFB8B18C
:102D7000206830B9FFF7A8FA6068FFF70BFDFFF78E
:102D8000C5FA04F124000599FFF7CCFC2046FFF7B3
:102D900061F800F0F7FA00288BD1FFF719FB88E7FC
:102DA0002046FFF757F800F0EDFA82E72046FFF7DC
:102DB00051F800F0E7FA0020AFE770B505460E467F
:102DC0002C461CB9FDF702FA00BFFEE7FFF77CFABC
:102DD000D4E90F12206801FB020060600020A063AC
:102DE0002068A060E06B401E226C216800FB02108E
:102DF000E0604FF0FF306064A06476B9206908B9E4
:102E0000012000E0002080B904F1100000F074FA05
:102E100001280AD1FFF7DCFA07E004F11000FFF700
:102E20001DFA04F12400FFF719FAFFF76FFA0120E9
:102E300070BD2DE9FF4383B0064688461D464FF01E
:102E4000000934461CB9FDF7C1F900BFFEE7B8F12F
:102E5000000F01D1206C08B9012000E0002018B952
:102E6000FDF7B4F900BFFEE7022D02D1E06B0128A7
:102E700001D1012000E0002018B9FDF7A7F900BF3B
:102E8000FEE700BFFFF720FAA06BE16B884201D399
:102E9000022D1DD12A4641462046FEF7D6FD0746A3
:102EA000606A08B9012000E0002040B904F1240064
:102EB00000F022FA012805D1FFF78AFA02E00FB1EB
:102EC000FFF786FAFFF722FA012007B0BDE8F0838A
:102ED000059818B9FFF71AFA0020F6E7B9F1000FC4
:102EE00004D101A8FFF7AEFC4FF00109FFF70EFA7D
:102EF000FFF7F6FCFFF7E8F9606C401C00D1606456
:102F0000A06C401C00D1A064FFF700FA05A901A83D
:102F100000F022F8C0B92046FEF7FDFE70B104F1C2
:102F200010000599FFF7FEFB2046FEF793FF00F027
:102F300029FA0028A6D1FFF74BFAA3E72046FEF7AF
:102F400089FF00F01FFA9DE72046FEF783FF00F09F
:102F500019FA0020B9E700002DE9F04104460D46BA
:102F60001CB9FDF733F900BFFEE71DB9FDF72EF9D7
:102F700000BFFEE7FFF7A8F9124807682868401C61
:102F800001D1002619E0104920680968884204D060
:102F90006068B84201D801260FE06068381A2968D5
:102FA000884209D228686168791A401A2860204648
:102FB000FFF748FC002600E00126FFF7A7F930469E
:102FC000BDE8F08160000020740000202DE9FF4F73
:102FD00081B0804616469A46DDE90E5BB8F1000FD7
:102FE00003D1FDF7F3F800BFFEE7052D01D2012064
:102FF00000E0002018B9FDF7E9F800BFFEE7304611
:103000001099FEF71DFC0446002C5DD0701E216B4C
:1030100001EB800929F0070919F0070F01D1012000
:1030200000E0002018B9FDF7D1F800BFFEE70096D8
:103030002A462046119B0299FEF7C6FD524641469C
:103040004846FEF7F3FF2060BBF1000F01D0CBF83C
:103050000040FFF739F925480068401C2349086003
:103060002348006840B922480460084600680128E7
:103070000CD1FEF7DBFD09E01E48006830B91C48A2
:103080000068C06AA84201D8194804601A4800685C
:10309000401C1949086008460068606494F82C10C8
:1030A0000120884015490968084314490860E16A0D
:1030B00001EB8101124A02EB8100211DFFF7F8F8B4
:1030C0000127FFF723F901E04FF0FF37012F09D166
:1030D0000848006830B106480068C06AA84201D2BA
:1030E000FFF776F9384605B0BDE8F08F5C000020A8
:1030F00054000020680000207800002064000020B8
:10310000F8090020014908687047000060000020AD
:103110002DE9F0414FF0000841480068002872D1C5
:1031200040480068401C3F49086008460668DEB910
:103130003D480068006808B9012000E0002018B987
:10314000FDF744F800BFFEE73748076837480068D6
:10315000354908603548076035480068401C3449E7
:103160000860FEF73FFE00BF3248006886423CD34D
:1031700000BF2D480068006808B9012000E0002069
:1031800020B14FF0FF302B4908602DE02648006841
:10319000C068C4686568AE4202D22648056023E074
:1031A000201DFEF753FFA06A18B104F11800FEF7C6
:1031B0004DFF94F82C10012088401F4909680843EE
:1031C0001D490860E16A01EB81011C4A02EB8100A4
:1031D000211DFFF76DF81A49E06A0968C96A88423B
:1031E000C7D34FF00108C4E700BF15480068C06AA4
:1031F00000EB8000114951F82000012808D94FF058
:10320000010805E0FFE70F480068401C0D49086011
:103210000D48006808B14FF001084046BDE8F08154
:1032200080000020600000208C0000209000002022
:10323000740000207C00002064000020F8090020B9
:10324000540000206C0000207000002070B505467E
:103250002C460026002D47D024480068844201D126
:10326000012000E0002018B9FCF7B0FF00BFFEE726
:10327000206D18B9FCF7AAFF00BFFEE7206D401EC5
:103280002065E16CE06A88422ED0206D60BB201D75
:10329000FEF7DCFE78B9E06A00EB8000144951F8D3
:1032A000200040B994F82C10012088401149096889
:1032B000814310480160E06CE062E06AC0F1050003
:1032C000A06194F82C10012088400A49096808433D
:1032D00008490860E16A01EB8101054A02EB8100BF
:1032E000211DFEF7E5FF0126304670BD5400002089
:1032F000F80900206400002070B50646F068C46834
:103300001CB9FCF763FF00BFFEE704F11800FEF7ED
:103310009DFE16480068A8B9201DFEF797FE94F898
:103320002C100120884012490968084310490860A0
:10333000E16A01EB81010F4A02EB8100211DFEF7DA
:10334000B7FF04E004F118010B48FEF7B1FF0B4989
:10335000E06A0968C96A884204D901250120084940
:10336000086000E00025284670BD000080000020B5
:1033700064000020F8090020840A00205400002086
:103380007000002070B500253048006818B9FCF7BF
:103390001DFF00BFFEE7FEF797FF2C480068401EA8
:1033A0002A4908600846006800284BD12848006870
:1033B000002847D024E02748C068C46804F11800FA
:1033C000FEF744FE201DFEF741FE94F82C1001206C
:1033D00088402149096808431F490860E16A01EBF8
:1033E00081011E4A02EB8100211DFEF761FF1C498D
:1033F000E06A0968C96A884202D301201949086055
:103400001448006808B9012000E000200028D2D04C
:103410001548006878B10AE0FFF77AFE10B1012084
:103420001049086010480068401E0F4908600E48A7
:1034300000680028F0D10B480068012802D101255E
:10344000FEF7C6FFFEF762FF284670BD8000002031
:103450005C000020840A002064000020F80900209D
:1034600054000020700000206C0000206400000068
:10347000640000009434000800000020BC0000003C
:10348000100F000850350008BC0000200452000056
:10349000200F0008000000000000000000000000F5
:1034A0000000000000000000010203040102030408
:1034B000060708090204060800A24A0400000000EA
:1034C00000000000010203040607080900000000D4
:1034D00000000000000000000000000000000000EC
:1034E00000000000000000000000000000000000DC
:1034F00000000000000000000000000000000000CC
:1035000000000000000000000000000000000000BB
:1035100000000000000000000000000000000000AB
:103520000000000000000000AAAAAAAA00000000F3
:10353000000000000000000000000000000000008B
:10354000000000000000000000000000000000007B
:0400000508000131BD
:00000001FF
